{
  "_format": "hh-sol-artifact-1",
  "contractName": "SaleContract",
  "sourceName": "contracts/sales/SaleContract.sol",
  "abi": [
    {
      "inputs": [],
      "stateMutability": "nonpayable",
      "type": "constructor"
    },
    {
      "anonymous": false,
      "inputs": [
        {
          "indexed": true,
          "internalType": "address",
          "name": "buyer",
          "type": "address"
        },
        {
          "indexed": false,
          "internalType": "uint8",
          "name": "tierIndex",
          "type": "uint8"
        },
        {
          "indexed": false,
          "internalType": "uint256",
          "name": "quantity",
          "type": "uint256"
        }
      ],
      "name": "Buy",
      "type": "event"
    },
    {
      "anonymous": false,
      "inputs": [
        {
          "indexed": true,
          "internalType": "address",
          "name": "to",
          "type": "address"
        },
        {
          "indexed": false,
          "internalType": "uint8",
          "name": "tierIndex",
          "type": "uint8"
        },
        {
          "indexed": false,
          "internalType": "uint256",
          "name": "quantity",
          "type": "uint256"
        }
      ],
      "name": "Gift",
      "type": "event"
    },
    {
      "anonymous": false,
      "inputs": [
        {
          "indexed": true,
          "internalType": "bytes32",
          "name": "role",
          "type": "bytes32"
        },
        {
          "indexed": true,
          "internalType": "bytes32",
          "name": "previousAdminRole",
          "type": "bytes32"
        },
        {
          "indexed": true,
          "internalType": "bytes32",
          "name": "newAdminRole",
          "type": "bytes32"
        }
      ],
      "name": "RoleAdminChanged",
      "type": "event"
    },
    {
      "anonymous": false,
      "inputs": [
        {
          "indexed": true,
          "internalType": "bytes32",
          "name": "role",
          "type": "bytes32"
        },
        {
          "indexed": true,
          "internalType": "address",
          "name": "account",
          "type": "address"
        },
        {
          "indexed": true,
          "internalType": "address",
          "name": "sender",
          "type": "address"
        }
      ],
      "name": "RoleGranted",
      "type": "event"
    },
    {
      "anonymous": false,
      "inputs": [
        {
          "indexed": true,
          "internalType": "bytes32",
          "name": "role",
          "type": "bytes32"
        },
        {
          "indexed": true,
          "internalType": "address",
          "name": "account",
          "type": "address"
        },
        {
          "indexed": true,
          "internalType": "address",
          "name": "sender",
          "type": "address"
        }
      ],
      "name": "RoleRevoked",
      "type": "event"
    },
    {
      "anonymous": false,
      "inputs": [
        {
          "indexed": false,
          "internalType": "address",
          "name": "",
          "type": "address"
        },
        {
          "indexed": false,
          "internalType": "bool",
          "name": "",
          "type": "bool"
        }
      ],
      "name": "SetLock",
      "type": "event"
    },
    {
      "anonymous": false,
      "inputs": [
        {
          "indexed": true,
          "internalType": "address",
          "name": "operator",
          "type": "address"
        },
        {
          "indexed": false,
          "internalType": "uint8",
          "name": "tierIndex",
          "type": "uint8"
        },
        {
          "indexed": false,
          "internalType": "uint256",
          "name": "limit",
          "type": "uint256"
        }
      ],
      "name": "UpdateBuyLimit",
      "type": "event"
    },
    {
      "anonymous": false,
      "inputs": [
        {
          "indexed": true,
          "internalType": "address",
          "name": "operator",
          "type": "address"
        },
        {
          "indexed": false,
          "internalType": "uint8",
          "name": "tierIndex",
          "type": "uint8"
        },
        {
          "indexed": false,
          "internalType": "uint256",
          "name": "price",
          "type": "uint256"
        }
      ],
      "name": "UpdateDefaultPrice",
      "type": "event"
    },
    {
      "anonymous": false,
      "inputs": [
        {
          "indexed": true,
          "internalType": "address",
          "name": "operator",
          "type": "address"
        },
        {
          "indexed": false,
          "internalType": "uint8",
          "name": "tierIndex",
          "type": "uint8"
        },
        {
          "indexed": false,
          "internalType": "uint256",
          "name": "limit",
          "type": "uint256"
        }
      ],
      "name": "UpdateGiftLimit",
      "type": "event"
    },
    {
      "anonymous": false,
      "inputs": [
        {
          "indexed": true,
          "internalType": "address",
          "name": "operator",
          "type": "address"
        }
      ],
      "name": "Withdraw",
      "type": "event"
    },
    {
      "inputs": [],
      "name": "DEFAULT_ADMIN_ROLE",
      "outputs": [
        {
          "internalType": "bytes32",
          "name": "",
          "type": "bytes32"
        }
      ],
      "stateMutability": "view",
      "type": "function"
    },
    {
      "inputs": [],
      "name": "MINTER_ROLE",
      "outputs": [
        {
          "internalType": "bytes32",
          "name": "",
          "type": "bytes32"
        }
      ],
      "stateMutability": "view",
      "type": "function"
    },
    {
      "inputs": [],
      "name": "OWNER_ROLE",
      "outputs": [
        {
          "internalType": "bytes32",
          "name": "",
          "type": "bytes32"
        }
      ],
      "stateMutability": "view",
      "type": "function"
    },
    {
      "inputs": [
        {
          "internalType": "string",
          "name": "name",
          "type": "string"
        },
        {
          "internalType": "uint8",
          "name": "discount",
          "type": "uint8"
        },
        {
          "internalType": "uint256",
          "name": "startTimestamp",
          "type": "uint256"
        },
        {
          "internalType": "uint256",
          "name": "duration",
          "type": "uint256"
        }
      ],
      "name": "addSchedule",
      "outputs": [],
      "stateMutability": "nonpayable",
      "type": "function"
    },
    {
      "inputs": [
        {
          "internalType": "address[]",
          "name": "entries",
          "type": "address[]"
        }
      ],
      "name": "addToWhitelist",
      "outputs": [],
      "stateMutability": "nonpayable",
      "type": "function"
    },
    {
      "inputs": [
        {
          "internalType": "address",
          "name": "owner",
          "type": "address"
        },
        {
          "internalType": "uint8",
          "name": "tierIndex",
          "type": "uint8"
        }
      ],
      "name": "balanceOf",
      "outputs": [
        {
          "internalType": "uint256",
          "name": "",
          "type": "uint256"
        }
      ],
      "stateMutability": "view",
      "type": "function"
    },
    {
      "inputs": [
        {
          "internalType": "uint8",
          "name": "",
          "type": "uint8"
        }
      ],
      "name": "buyLimit",
      "outputs": [
        {
          "internalType": "uint8",
          "name": "",
          "type": "uint8"
        }
      ],
      "stateMutability": "view",
      "type": "function"
    },
    {
      "inputs": [
        {
          "internalType": "address",
          "name": "",
          "type": "address"
        },
        {
          "internalType": "uint8",
          "name": "",
          "type": "uint8"
        }
      ],
      "name": "buyerList",
      "outputs": [
        {
          "internalType": "uint256",
          "name": "",
          "type": "uint256"
        }
      ],
      "stateMutability": "view",
      "type": "function"
    },
    {
      "inputs": [],
      "name": "contractURI",
      "outputs": [
        {
          "internalType": "string",
          "name": "",
          "type": "string"
        }
      ],
      "stateMutability": "view",
      "type": "function"
    },
    {
      "inputs": [],
      "name": "currentSaleID",
      "outputs": [
        {
          "internalType": "uint8",
          "name": "",
          "type": "uint8"
        }
      ],
      "stateMutability": "view",
      "type": "function"
    },
    {
      "inputs": [],
      "name": "currentSchedule",
      "outputs": [
        {
          "components": [
            {
              "internalType": "string",
              "name": "name",
              "type": "string"
            },
            {
              "internalType": "uint256",
              "name": "discount",
              "type": "uint256"
            },
            {
              "internalType": "uint256",
              "name": "startTimestamp",
              "type": "uint256"
            },
            {
              "internalType": "uint256",
              "name": "duration",
              "type": "uint256"
            }
          ],
          "internalType": "struct SaleContract.SaleSchedule",
          "name": "",
          "type": "tuple"
        }
      ],
      "stateMutability": "view",
      "type": "function"
    },
    {
      "inputs": [
        {
          "internalType": "uint8",
          "name": "",
          "type": "uint8"
        }
      ],
      "name": "defaultPrices",
      "outputs": [
        {
          "internalType": "uint256",
          "name": "",
          "type": "uint256"
        }
      ],
      "stateMutability": "view",
      "type": "function"
    },
    {
      "inputs": [
        {
          "internalType": "uint8",
          "name": "tierIndex",
          "type": "uint8"
        },
        {
          "internalType": "uint256",
          "name": "tokenQuantity",
          "type": "uint256"
        }
      ],
      "name": "discountPrice",
      "outputs": [
        {
          "internalType": "uint256",
          "name": "",
          "type": "uint256"
        }
      ],
      "stateMutability": "view",
      "type": "function"
    },
    {
      "inputs": [],
      "name": "getNftToken",
      "outputs": [
        {
          "internalType": "address",
          "name": "",
          "type": "address"
        }
      ],
      "stateMutability": "view",
      "type": "function"
    },
    {
      "inputs": [
        {
          "internalType": "bytes32",
          "name": "role",
          "type": "bytes32"
        }
      ],
      "name": "getRoleAdmin",
      "outputs": [
        {
          "internalType": "bytes32",
          "name": "",
          "type": "bytes32"
        }
      ],
      "stateMutability": "view",
      "type": "function"
    },
    {
      "inputs": [],
      "name": "getSigner",
      "outputs": [
        {
          "internalType": "address",
          "name": "",
          "type": "address"
        }
      ],
      "stateMutability": "view",
      "type": "function"
    },
    {
      "inputs": [],
      "name": "getTokenPool",
      "outputs": [
        {
          "internalType": "address",
          "name": "",
          "type": "address"
        }
      ],
      "stateMutability": "view",
      "type": "function"
    },
    {
      "inputs": [
        {
          "internalType": "address",
          "name": "receiver",
          "type": "address"
        },
        {
          "internalType": "uint8",
          "name": "tierIndex",
          "type": "uint8"
        },
        {
          "internalType": "uint256",
          "name": "tokenQuantity",
          "type": "uint256"
        }
      ],
      "name": "gift",
      "outputs": [],
      "stateMutability": "nonpayable",
      "type": "function"
    },
    {
      "inputs": [
        {
          "internalType": "address",
          "name": "receiver",
          "type": "address"
        },
        {
          "internalType": "uint8[]",
          "name": "tierIndexes",
          "type": "uint8[]"
        },
        {
          "internalType": "uint256[]",
          "name": "tokenQuantities",
          "type": "uint256[]"
        }
      ],
      "name": "giftEx",
      "outputs": [],
      "stateMutability": "nonpayable",
      "type": "function"
    },
    {
      "inputs": [
        {
          "internalType": "uint8",
          "name": "",
          "type": "uint8"
        }
      ],
      "name": "giftLimit",
      "outputs": [
        {
          "internalType": "uint8",
          "name": "",
          "type": "uint8"
        }
      ],
      "stateMutability": "view",
      "type": "function"
    },
    {
      "inputs": [
        {
          "internalType": "address",
          "name": "",
          "type": "address"
        },
        {
          "internalType": "uint8",
          "name": "",
          "type": "uint8"
        }
      ],
      "name": "giftList",
      "outputs": [
        {
          "internalType": "uint256",
          "name": "",
          "type": "uint256"
        }
      ],
      "stateMutability": "view",
      "type": "function"
    },
    {
      "inputs": [
        {
          "internalType": "uint8",
          "name": "tierIndex",
          "type": "uint8"
        }
      ],
      "name": "giftSupply",
      "outputs": [
        {
          "internalType": "uint256",
          "name": "",
          "type": "uint256"
        }
      ],
      "stateMutability": "view",
      "type": "function"
    },
    {
      "inputs": [
        {
          "internalType": "address[]",
          "name": "receivers",
          "type": "address[]"
        },
        {
          "internalType": "uint8[]",
          "name": "tierIndexes",
          "type": "uint8[]"
        },
        {
          "internalType": "uint256[]",
          "name": "tokenQuantities",
          "type": "uint256[]"
        }
      ],
      "name": "giftToAll",
      "outputs": [],
      "stateMutability": "nonpayable",
      "type": "function"
    },
    {
      "inputs": [
        {
          "internalType": "bytes32",
          "name": "role",
          "type": "bytes32"
        },
        {
          "internalType": "address",
          "name": "account",
          "type": "address"
        }
      ],
      "name": "grantRole",
      "outputs": [],
      "stateMutability": "nonpayable",
      "type": "function"
    },
    {
      "inputs": [
        {
          "internalType": "bytes32",
          "name": "role",
          "type": "bytes32"
        },
        {
          "internalType": "address",
          "name": "account",
          "type": "address"
        }
      ],
      "name": "hasRole",
      "outputs": [
        {
          "internalType": "bool",
          "name": "",
          "type": "bool"
        }
      ],
      "stateMutability": "view",
      "type": "function"
    },
    {
      "inputs": [
        {
          "internalType": "address",
          "name": "token",
          "type": "address"
        },
        {
          "internalType": "address",
          "name": "pool",
          "type": "address"
        }
      ],
      "name": "initialize",
      "outputs": [],
      "stateMutability": "nonpayable",
      "type": "function"
    },
    {
      "inputs": [
        {
          "internalType": "address",
          "name": "user",
          "type": "address"
        }
      ],
      "name": "isBuyer",
      "outputs": [
        {
          "internalType": "bool",
          "name": "",
          "type": "bool"
        }
      ],
      "stateMutability": "view",
      "type": "function"
    },
    {
      "inputs": [
        {
          "internalType": "address",
          "name": "user",
          "type": "address"
        }
      ],
      "name": "isWhitelist",
      "outputs": [
        {
          "internalType": "bool",
          "name": "",
          "type": "bool"
        }
      ],
      "stateMutability": "view",
      "type": "function"
    },
    {
      "inputs": [],
      "name": "locked",
      "outputs": [
        {
          "internalType": "bool",
          "name": "",
          "type": "bool"
        }
      ],
      "stateMutability": "view",
      "type": "function"
    },
    {
      "inputs": [],
      "name": "nftToken",
      "outputs": [
        {
          "internalType": "address",
          "name": "",
          "type": "address"
        }
      ],
      "stateMutability": "view",
      "type": "function"
    },
    {
      "inputs": [
        {
          "internalType": "address[]",
          "name": "entries",
          "type": "address[]"
        }
      ],
      "name": "removeFromWhitelist",
      "outputs": [],
      "stateMutability": "nonpayable",
      "type": "function"
    },
    {
      "inputs": [
        {
          "internalType": "uint256",
          "name": "index",
          "type": "uint256"
        }
      ],
      "name": "removeSchedule",
      "outputs": [],
      "stateMutability": "nonpayable",
      "type": "function"
    },
    {
      "inputs": [
        {
          "internalType": "bytes32",
          "name": "role",
          "type": "bytes32"
        },
        {
          "internalType": "address",
          "name": "account",
          "type": "address"
        }
      ],
      "name": "renounceRole",
      "outputs": [],
      "stateMutability": "nonpayable",
      "type": "function"
    },
    {
      "inputs": [
        {
          "internalType": "bytes32",
          "name": "role",
          "type": "bytes32"
        },
        {
          "internalType": "address",
          "name": "account",
          "type": "address"
        }
      ],
      "name": "revokeRole",
      "outputs": [],
      "stateMutability": "nonpayable",
      "type": "function"
    },
    {
      "inputs": [],
      "name": "saleOnlyWhitelist",
      "outputs": [
        {
          "internalType": "bool",
          "name": "",
          "type": "bool"
        }
      ],
      "stateMutability": "view",
      "type": "function"
    },
    {
      "inputs": [
        {
          "internalType": "uint256",
          "name": "",
          "type": "uint256"
        }
      ],
      "name": "saleSchedules",
      "outputs": [
        {
          "internalType": "string",
          "name": "name",
          "type": "string"
        },
        {
          "internalType": "uint256",
          "name": "discount",
          "type": "uint256"
        },
        {
          "internalType": "uint256",
          "name": "startTimestamp",
          "type": "uint256"
        },
        {
          "internalType": "uint256",
          "name": "duration",
          "type": "uint256"
        }
      ],
      "stateMutability": "view",
      "type": "function"
    },
    {
      "inputs": [
        {
          "internalType": "uint8",
          "name": "tierIndex",
          "type": "uint8"
        },
        {
          "internalType": "uint8",
          "name": "limit",
          "type": "uint8"
        }
      ],
      "name": "setBuyLimit",
      "outputs": [],
      "stateMutability": "nonpayable",
      "type": "function"
    },
    {
      "inputs": [
        {
          "internalType": "string",
          "name": "URI",
          "type": "string"
        }
      ],
      "name": "setContractURI",
      "outputs": [],
      "stateMutability": "nonpayable",
      "type": "function"
    },
    {
      "inputs": [
        {
          "internalType": "uint8",
          "name": "tierIndex",
          "type": "uint8"
        },
        {
          "internalType": "uint256",
          "name": "price",
          "type": "uint256"
        }
      ],
      "name": "setDefaultPrice",
      "outputs": [],
      "stateMutability": "nonpayable",
      "type": "function"
    },
    {
      "inputs": [
        {
          "internalType": "uint8",
          "name": "tierIndex",
          "type": "uint8"
        },
        {
          "internalType": "uint8",
          "name": "limit",
          "type": "uint8"
        }
      ],
      "name": "setGiftLimit",
      "outputs": [],
      "stateMutability": "nonpayable",
      "type": "function"
    },
    {
      "inputs": [
        {
          "internalType": "address",
          "name": "signer",
          "type": "address"
        }
      ],
      "name": "setSigner",
      "outputs": [],
      "stateMutability": "nonpayable",
      "type": "function"
    },
    {
      "inputs": [
        {
          "internalType": "address",
          "name": "treasury",
          "type": "address"
        }
      ],
      "name": "setupTreasury",
      "outputs": [],
      "stateMutability": "nonpayable",
      "type": "function"
    },
    {
      "inputs": [
        {
          "internalType": "bytes32",
          "name": "hash",
          "type": "bytes32"
        },
        {
          "internalType": "bytes",
          "name": "signature",
          "type": "bytes"
        },
        {
          "internalType": "string",
          "name": "nonce",
          "type": "string"
        },
        {
          "internalType": "uint8",
          "name": "tierIndex",
          "type": "uint8"
        },
        {
          "internalType": "uint256",
          "name": "tokenQuantity",
          "type": "uint256"
        }
      ],
      "name": "signBuy",
      "outputs": [],
      "stateMutability": "payable",
      "type": "function"
    },
    {
      "inputs": [
        {
          "internalType": "bytes32",
          "name": "hash",
          "type": "bytes32"
        },
        {
          "internalType": "bytes",
          "name": "signature",
          "type": "bytes"
        },
        {
          "internalType": "string",
          "name": "nonce",
          "type": "string"
        },
        {
          "internalType": "uint8[]",
          "name": "tierIndexes",
          "type": "uint8[]"
        },
        {
          "internalType": "uint256[]",
          "name": "tokenQuantities",
          "type": "uint256[]"
        }
      ],
      "name": "signBuyEx",
      "outputs": [],
      "stateMutability": "payable",
      "type": "function"
    },
    {
      "inputs": [
        {
          "internalType": "bytes4",
          "name": "interfaceId",
          "type": "bytes4"
        }
      ],
      "name": "supportsInterface",
      "outputs": [
        {
          "internalType": "bool",
          "name": "",
          "type": "bool"
        }
      ],
      "stateMutability": "view",
      "type": "function"
    },
    {
      "inputs": [],
      "name": "toggleLock",
      "outputs": [],
      "stateMutability": "nonpayable",
      "type": "function"
    },
    {
      "inputs": [],
      "name": "toggleSaleOnlyWhitelist",
      "outputs": [],
      "stateMutability": "nonpayable",
      "type": "function"
    },
    {
      "inputs": [],
      "name": "tokenPool",
      "outputs": [
        {
          "internalType": "address",
          "name": "",
          "type": "address"
        }
      ],
      "stateMutability": "view",
      "type": "function"
    },
    {
      "inputs": [
        {
          "internalType": "uint8",
          "name": "tierIndex",
          "type": "uint8"
        }
      ],
      "name": "totalSupply",
      "outputs": [
        {
          "internalType": "uint256",
          "name": "",
          "type": "uint256"
        }
      ],
      "stateMutability": "view",
      "type": "function"
    },
    {
      "inputs": [],
      "name": "treasuryAddress",
      "outputs": [
        {
          "internalType": "address",
          "name": "",
          "type": "address"
        }
      ],
      "stateMutability": "view",
      "type": "function"
    },
    {
      "inputs": [
        {
          "internalType": "uint8",
          "name": "saleId",
          "type": "uint8"
        },
        {
          "internalType": "string",
          "name": "name",
          "type": "string"
        },
        {
          "internalType": "uint8",
          "name": "discount",
          "type": "uint8"
        },
        {
          "internalType": "uint256",
          "name": "startTimestamp",
          "type": "uint256"
        },
        {
          "internalType": "uint256",
          "name": "duration",
          "type": "uint256"
        }
      ],
      "name": "updateSchedule",
      "outputs": [],
      "stateMutability": "nonpayable",
      "type": "function"
    },
    {
      "inputs": [
        {
          "internalType": "address",
          "name": "",
          "type": "address"
        }
      ],
      "name": "whiteList",
      "outputs": [
        {
          "internalType": "bool",
          "name": "",
          "type": "bool"
        }
      ],
      "stateMutability": "view",
      "type": "function"
    },
    {
      "inputs": [
        {
          "internalType": "uint8",
          "name": "tierIndex",
          "type": "uint8"
        },
        {
          "internalType": "uint256",
          "name": "tokenQuantity",
          "type": "uint256"
        }
      ],
      "name": "whitelistBuy",
      "outputs": [],
      "stateMutability": "payable",
      "type": "function"
    },
    {
      "inputs": [
        {
          "internalType": "uint8[]",
          "name": "tierIndexes",
          "type": "uint8[]"
        },
        {
          "internalType": "uint256[]",
          "name": "tokenQuantities",
          "type": "uint256[]"
        }
      ],
      "name": "whitelistBuyEx",
      "outputs": [],
      "stateMutability": "payable",
      "type": "function"
    },
    {
      "inputs": [],
      "name": "withdraw",
      "outputs": [],
      "stateMutability": "nonpayable",
      "type": "function"
    }
  ],
  "bytecode": "0x60806040523480156200001157600080fd5b506001805562000023600033620001c6565b6200004f7f9f2df0fed2c77648de5860a4cc508cd0818c85b8b8a1ab4ceeef8d981c8956a633620001c6565b6200006a60008051602062004d5983398151915233620001c6565b600d80546001600160a01b0319163317905560046020908152670af6a4d07c8f00007f17ef568e3e12ab5b9c7254a8d58478811de00f9e6eb34345acd53bf8fd09d3ec556001600052670118aa14d94180007fabd6e7cb50984ff9c2f3e18a2660c3353dadf4e3291deeb275dae2cd1e44fe055560408051808201909152600981526815da1a5d19531a5cdd60ba1b9181019190915262000112906019426212750062000267565b6040805180820190915260088152675072652d53616c6560c01b60208201526200015190600a62000147426212750062000835565b62093a8062000267565b60408051808201909152600b81526a5075626c69632d53616c6560a81b6020820152620001899060006200014742621baf8062000835565b620001976000600362000310565b620001a56001600362000310565b620001b3600060016200039c565b620001c06001806200039c565b62000912565b6000828152602081815260408083206001600160a01b038516845290915290205460ff1662000263576000828152602081815260408083206001600160a01b03851684529091529020805460ff19166001179055620002223390565b6001600160a01b0316816001600160a01b0316837f2f8788117e7eff1d82e926ec794901d17c78024a50270940304540a733656f0d60405160405180910390a45b5050565b600062000274816200041f565b6040805160808101825286815260ff8616602080830191909152918101859052606081018490526010805460018101825560009190915281518051929360049092027f1b6847dc741a1b0cd08d278845f9d819d87b734759afb55fe2de5cb82a9ae6720192620002e89284920190620006e1565b5060208201518160010155604082015181600201556060820151816003015550505050505050565b60006200031d816200041f565b60008051602062004d5983398151915262000338816200041f565b60ff848116600081815260026020908152604091829020805460ff19169488169485179055815192835282019290925233917f6082d36730c1beaf3dfd8a9a3ef49801f23ce4f819f33cce97c40b03e446200a91015b60405180910390a250505050565b6000620003a9816200041f565b60008051602062004d59833981519152620003c4816200041f565b60ff848116600081815260036020908152604091829020805460ff19169488169485179055815192835282019290925233917f721ca23739e925c0ca1381513fca78ab3c9176698637827651ddaa4bebb2167091016200038e565b6200042b81336200042e565b50565b6000828152602081815260408083206001600160a01b038516845290915290205460ff1662000263576200046d81620004c760201b62002fbe1760201c565b6200048383602062002fd0620004e5821b17811c565b6040516020016200049692919062000787565b60408051601f198184030181529082905262461bcd60e51b8252620004be9160040162000800565b60405180910390fd5b6060620004df6001600160a01b0383166014620004e5565b92915050565b60606000620004f683600262000850565b6200050390600262000835565b6001600160401b038111156200052957634e487b7160e01b600052604160045260246000fd5b6040519080825280601f01601f19166020018201604052801562000554576020820181803683370190505b509050600360fc1b816000815181106200057e57634e487b7160e01b600052603260045260246000fd5b60200101906001600160f81b031916908160001a905350600f60fb1b81600181518110620005bc57634e487b7160e01b600052603260045260246000fd5b60200101906001600160f81b031916908160001a9053506000620005e284600262000850565b620005ef90600162000835565b90505b600181111562000689576f181899199a1a9b1b9c1cb0b131b232b360811b85600f16601081106200063357634e487b7160e01b600052603260045260246000fd5b1a60f81b8282815181106200065857634e487b7160e01b600052603260045260246000fd5b60200101906001600160f81b031916908160001a90535060049490941c936200068181620008a5565b9050620005f2565b508315620006da5760405162461bcd60e51b815260206004820181905260248201527f537472696e67733a20686578206c656e67746820696e73756666696369656e746044820152606401620004be565b9392505050565b828054620006ef90620008bf565b90600052602060002090601f0160209004810192826200071357600085556200075e565b82601f106200072e57805160ff19168380011785556200075e565b828001600101855582156200075e579182015b828111156200075e57825182559160200191906001019062000741565b506200076c92915062000770565b5090565b5b808211156200076c576000815560010162000771565b7f416363657373436f6e74726f6c3a206163636f756e7420000000000000000000815260008351620007c181601785016020880162000872565b7001034b99036b4b9b9b4b733903937b6329607d1b6017918401918201528351620007f481602884016020880162000872565b01602801949350505050565b60208152600082518060208401526200082181604085016020870162000872565b601f01601f19169190910160400192915050565b600082198211156200084b576200084b620008fc565b500190565b60008160001904831182151516156200086d576200086d620008fc565b500290565b60005b838110156200088f57818101518382015260200162000875565b838111156200089f576000848401525b50505050565b600081620008b757620008b7620008fc565b506000190190565b600181811c90821680620008d457607f821691505b60208210811415620008f657634e487b7160e01b600052602260045260246000fd5b50919050565b634e487b7160e01b600052601160045260246000fd5b61443780620009226000396000f3fe6080604052600436106103505760003560e01c80637ac3c02f116101c6578063d06fcba8116100f7578063e58378bb11610095578063f0367bc71161006f578063f0367bc714610a5b578063f4d71d1514610a6e578063f7f1cbf114610a8e578063ff9413d814610aae57600080fd5b8063e58378bb14610a02578063e8a3d48514610a24578063ec55dd4214610a4657600080fd5b8063d547741f116100d1578063d547741f1461095a578063d8ab14b01461097a578063d9cae156146109aa578063dcdeb7b6146109e257600080fd5b8063d06fcba8146108f0578063d3287e4c14610918578063d53913931461093857600080fd5b8063abf0d4b711610164578063c5f956af1161013e578063c5f956af14610871578063c683630d14610891578063cba307bb146108b1578063cf309012146108d157600080fd5b8063abf0d4b71461081e578063ae78e1191461083e578063b6ccda901461085e57600080fd5b806391d14854116101a057806391d14854146107a7578063938e3d7b146107c7578063a217fddf146107e7578063a88ea616146107fc57600080fd5b80637ac3c02f146107395780637f6497831461075757806390e45bdd1461077757600080fd5b80633ccfd60b116102a0578063511718961161023e5780635f5cedec116102185780635f5cedec146106b457806367412045146106c95780636c19e783146106e95780637ab487641461070957600080fd5b8063511718961461066157806352ddc55714610681578063548db1741461069457600080fd5b8063452de0e61161027a578063452de0e6146105d2578063485cc955146105fe578063496d9f441461061e5780634f8c0b221461064e57600080fd5b80633ccfd60b1461057d5780633fe7df0c14610592578063433ebfe7146105b257600080fd5b8063237af4f61161030d5780632a55feec116102e75780632a55feec146104ec5780632f2ff15d1461050d57806336568abe1461052d578063372c12b11461054d57600080fd5b8063237af4f61461046c578063248a9ca31461048c57806329e239cc146104bc57600080fd5b806301ffc9a714610355578063104e99291461038a5780631c95867f146103c25780631ce2f0c2146103d95780631fb61c02146103f95780632298a99014610434575b600080fd5b34801561036157600080fd5b50610375610370366004613e4d565b610ac3565b60405190151581526020015b60405180910390f35b34801561039657600080fd5b50600b546103aa906001600160a01b031681565b6040516001600160a01b039091168152602001610381565b3480156103ce57600080fd5b506103d7610afa565b005b3480156103e557600080fd5b506103d76103f4366004613ecf565b610b3e565b34801561040557600080fd5b50610426610414366004613f29565b60046020526000908152604090205481565b604051908152602001610381565b34801561044057600080fd5b5061042661044f366004613b02565b600860209081526000928352604080842090915290825290205481565b34801561047857600080fd5b506103d7610487366004613fb0565b610be3565b34801561049857600080fd5b506104266104a7366004613ce0565b60009081526020819052604090206001015490565b3480156104c857600080fd5b506104dc6104d7366004613ce0565b610c43565b6040516103819493929190614103565b3480156104f857600080fd5b50610375610507366004613a46565b50600090565b34801561051957600080fd5b506103d7610528366004613cf8565b610d0b565b34801561053957600080fd5b506103d7610548366004613cf8565b610d35565b34801561055957600080fd5b50610375610568366004613a46565b60076020526000908152604090205460ff1681565b34801561058957600080fd5b506103d7610db8565b34801561059e57600080fd5b506103d76105ad366004613fd9565b610ee3565b3480156105be57600080fd5b50600a546103759062010000900460ff1681565b3480156105de57600080fd5b50600a546105ec9060ff1681565b60405160ff9091168152602001610381565b34801561060a57600080fd5b506103d7610619366004613a60565b610f6a565b34801561062a57600080fd5b50610426610639366004613f29565b60ff1660009081526005602052604090205490565b6103d761065c366004613dcb565b611225565b34801561066d57600080fd5b506103d761067c366004613a46565b6115f6565b6103d761068f366004613d1a565b611624565b3480156106a057600080fd5b506103d76106af366004613b66565b611b0e565b3480156106c057600080fd5b506103aa611bf2565b3480156106d557600080fd5b506104266106e4366004613b02565b611c62565b3480156106f557600080fd5b506103d7610704366004613a46565b611cdd565b34801561071557600080fd5b506105ec610724366004613f29565b60026020526000908152604090205460ff1681565b34801561074557600080fd5b50600d546001600160a01b03166103aa565b34801561076357600080fd5b506103d7610772366004613b66565b611d0b565b34801561078357600080fd5b50610426610792366004613f29565b60ff1660009081526006602052604090205490565b3480156107b357600080fd5b506103756107c2366004613cf8565b611deb565b3480156107d357600080fd5b506103d76107e2366004613e75565b611e14565b3480156107f357600080fd5b50610426600081565b34801561080857600080fd5b50610811611e77565b60405161038191906141ad565b34801561082a57600080fd5b506103d7610839366004613b2b565b611fef565b34801561084a57600080fd5b50610426610859366004613fb0565b61208f565b6103d761086c366004613fb0565b612226565b34801561087d57600080fd5b50600c546103aa906001600160a01b031681565b34801561089d57600080fd5b506103756108ac366004613a46565b6124a4565b3480156108bd57600080fd5b506103d76108cc366004613bd5565b61250f565b3480156108dd57600080fd5b50600a5461037590610100900460ff1681565b3480156108fc57600080fd5b50600a546103aa9064010000000090046001600160a01b031681565b34801561092457600080fd5b506103d7610933366004613ce0565b612691565b34801561094457600080fd5b506104266000805160206143e283398151915281565b34801561096657600080fd5b506103d7610975366004613cf8565b6127a0565b34801561098657600080fd5b506105ec610995366004613f29565b60036020526000908152604090205460ff1681565b3480156109b657600080fd5b506104266109c5366004613b02565b600960209081526000928352604080842090915290825290205481565b3480156109ee57600080fd5b506103d76109fd366004613f43565b6127c5565b348015610a0e57600080fd5b506104266000805160206143c283398151915281565b348015610a3057600080fd5b50610a39612933565b60405161038191906140f0565b348015610a5257600080fd5b506103aa6129c5565b6103d7610a69366004613c80565b612a27565b348015610a7a57600080fd5b506103d7610a89366004613fd9565b612d74565b348015610a9a57600080fd5b506103d7610aa9366004613a92565b612df1565b348015610aba57600080fd5b506103d7612f39565b60006001600160e01b03198216637965db0b60e01b1480610af457506301ffc9a760e01b6001600160e01b03198316145b92915050565b6000610b05816131b8565b6000805160206143c2833981519152610b1d816131b8565b5050600a805462ff0000198116620100009182900460ff1615909102179055565b6000610b49816131b8565b6040805160808101825286815260ff8616602080830191909152918101859052606081018490526010805460018101825560009190915281518051929360049092027f1b6847dc741a1b0cd08d278845f9d819d87b734759afb55fe2de5cb82a9ae6720192610bbb928492019061371e565b5060208201518160010155604082015181600201556060820151816003015550505050505050565b6000610bee816131b8565b60ff83166000818152600460209081526040918290208590558151928352820184905233917f1e87336fe03524e63d2452655931a6ec52da4d6b1ba04c3feee900a127ba683a910160405180910390a2505050565b60108181548110610c5357600080fd5b9060005260206000209060040201600091509050806000018054610c769061431f565b80601f0160208091040260200160405190810160405280929190818152602001828054610ca29061431f565b8015610cef5780601f10610cc457610100808354040283529160200191610cef565b820191906000526020600020905b815481529060010190602001808311610cd257829003601f168201915b5050505050908060010154908060020154908060030154905084565b600082815260208190526040902060010154610d26816131b8565b610d3083836131c5565b505050565b6001600160a01b0381163314610daa5760405162461bcd60e51b815260206004820152602f60248201527f416363657373436f6e74726f6c3a2063616e206f6e6c792072656e6f756e636560448201526e103937b632b9903337b91039b2b63360891b60648201526084015b60405180910390fd5b610db48282613249565b5050565b6000610dc3816131b8565b6000805160206143c2833981519152610ddb816131b8565b6000805160206143e2833981519152610df3816131b8565b600c546000906001600160a01b031615610e1857600c546001600160a01b0316610e1a565b335b90506000816001600160a01b03164760405160006040518083038185875af1925050503d8060008114610e69576040519150601f19603f3d011682016040523d82523d6000602084013e610e6e565b606091505b5050905080610eb15760405162461bcd60e51b815260206004820152600f60248201526e15d2551211149055d7d19052531151608a1b6044820152606401610da1565b60405133907ff67611512e0a2d90c96fd3f08dca4971bc45fba9dc679eabe839a32abbe58a8e90600090a25050505050565b6000610eee816131b8565b6000805160206143c2833981519152610f06816131b8565b60ff848116600081815260036020908152604091829020805460ff19169488169485179055815192835282019290925233917f721ca23739e925c0ca1381513fca78ab3c9176698637827651ddaa4bebb2167091015b60405180910390a250505050565b600a546301000000900460ff1615610fba5760405162461bcd60e51b81526020600482015260136024820152721053149150511657d253925512505312569151606a1b6044820152606401610da1565b600a805463ff00000019166301000000179055601080546040805160208084028201810190925282815260009384939192909190849084015b828210156110d557838290600052602060002090600402016040518060800160405290816000820180546110269061431f565b80601f01602080910402602001604051908101604052809291908181526020018280546110529061431f565b801561109f5780601f106110745761010080835404028352916020019161109f565b820191906000526020600020905b81548152906001019060200180831161108257829003601f168201915b50505050508152602001600182015481526020016002820154815260200160038201548152505081526020019060010190610ff3565b50505050905060005b81518160ff161015611199576000828260ff168151811061110f57634e487b7160e01b600052603260045260246000fd5b60200260200101516040015190506000838360ff168151811061114257634e487b7160e01b600052603260045260246000fd5b602002602001015160600151826111599190614246565b905042821115801561116b5750804211155b156111845761117b83600161425e565b94505050611199565b5050808061119190614375565b9150506110de565b5060ff82166111ba5760405162461bcd60e51b8152600401610da190614160565b600a5460ff8381169116146111d957600a805460ff191660ff84161790555b60006111e4816131b8565b5050600a8054640100000000600160c01b0319166401000000006001600160a01b039586160217905550600b80546001600160a01b03191691909216179055565b6000806010805480602002602001604051908101604052809291908181526020016000905b8282101561132c578382906000526020600020906004020160405180608001604052908160008201805461127d9061431f565b80601f01602080910402602001604051908101604052809291908181526020018280546112a99061431f565b80156112f65780601f106112cb576101008083540402835291602001916112f6565b820191906000526020600020905b8154815290600101906020018083116112d957829003601f168201915b5050505050815260200160018201548152602001600282015481526020016003820154815250508152602001906001019061124a565b50505050905060005b81518160ff1610156113f0576000828260ff168151811061136657634e487b7160e01b600052603260045260246000fd5b60200260200101516040015190506000838360ff168151811061139957634e487b7160e01b600052603260045260246000fd5b602002602001015160600151826113b09190614246565b90504282111580156113c25750804211155b156113db576113d283600161425e565b945050506113f0565b505080806113e890614375565b915050611335565b5060ff82166114115760405162461bcd60e51b8152600401610da190614160565b600a5460ff83811691161461143057600a805460ff191660ff84161790555b6114386132ae565b6114428787613308565b6114865760405162461bcd60e51b81526020600482015260156024820152741112549150d517d0955657d11254d0531313d5d151605a1b6044820152606401610da1565b600e85604051611496919061405f565b9081526040519081900360200190205460ff16156114e25760405162461bcd60e51b8152602060048201526009602482015268121054d217d554d15160ba1b6044820152606401610da1565b6114eb87613339565b6114f633858861338c565b1461152f5760405162461bcd60e51b8152602060048201526009602482015268121054d217d190525360ba1b6044820152606401610da1565b600a5460ff166001148061154b5750600a5462010000900460ff165b1561157f573360009081526007602052604090205460ff1661157f5760405162461bcd60e51b8152600401610da190614186565b3461158a858561208f565b11156115a85760405162461bcd60e51b8152600401610da190614132565b6115b284846133cb565b6001600e866040516115c4919061405f565b908152604051908190036020019020805491151560ff199092169190911790556115ed60018055565b50505050505050565b6000611601816131b8565b50600c80546001600160a01b0319166001600160a01b0392909216919091179055565b6000806010805480602002602001604051908101604052809291908181526020016000905b8282101561172b578382906000526020600020906004020160405180608001604052908160008201805461167c9061431f565b80601f01602080910402602001604051908101604052809291908181526020018280546116a89061431f565b80156116f55780601f106116ca576101008083540402835291602001916116f5565b820191906000526020600020905b8154815290600101906020018083116116d857829003601f168201915b50505050508152602001600182015481526020016002820154815260200160038201548152505081526020019060010190611649565b50505050905060005b81518160ff1610156117ef576000828260ff168151811061176557634e487b7160e01b600052603260045260246000fd5b60200260200101516040015190506000838360ff168151811061179857634e487b7160e01b600052603260045260246000fd5b602002602001015160600151826117af9190614246565b90504282111580156117c15750804211155b156117da576117d183600161425e565b945050506117ef565b505080806117e790614375565b915050611734565b5060ff82166118105760405162461bcd60e51b8152600401610da190614160565b600a5460ff83811691161461182f57600a805460ff191660ff84161790555b6118376132ae565b6118418787613308565b6118855760405162461bcd60e51b81526020600482015260156024820152741112549150d517d0955657d11254d0531313d5d151605a1b6044820152606401610da1565b600e85604051611895919061405f565b9081526040519081900360200190205460ff16156118e15760405162461bcd60e51b8152602060048201526009602482015268121054d217d554d15160ba1b6044820152606401610da1565b600a5460ff16600114806118fd5750600a5462010000900460ff165b15611931573360009081526007602052604090205460ff166119315760405162461bcd60e51b8152600401610da190614186565b60008060005b86518110156119eb5761199887828151811061196357634e487b7160e01b600052603260045260246000fd5b602002602001015187838151811061198b57634e487b7160e01b600052603260045260246000fd5b602002602001015161208f565b6119a29084614246565b92508581815181106119c457634e487b7160e01b600052603260045260246000fd5b6020026020010151826119d79190614246565b9150806119e38161435a565b915050611937565b506119f589613339565b611a0033838a61338c565b14611a395760405162461bcd60e51b8152602060048201526009602482015268121054d217d190525360ba1b6044820152606401610da1565b34821115611a595760405162461bcd60e51b8152600401610da190614132565b60005b8651811015611acf57611abd878281518110611a8857634e487b7160e01b600052603260045260246000fd5b6020026020010151878381518110611ab057634e487b7160e01b600052603260045260246000fd5b60200260200101516133cb565b80611ac78161435a565b915050611a5c565b506001600e88604051611ae2919061405f565b908152604051908190036020019020805491151560ff19909216919091179055506115ed905060018055565b6000611b19816131b8565b6000805160206143c2833981519152611b31816131b8565b60005b83811015611beb576000858583818110611b5e57634e487b7160e01b600052603260045260246000fd5b9050602002016020810190611b739190613a46565b90506001600160a01b038116611bba5760405162461bcd60e51b815260206004820152600c60248201526b4e554c4c5f4144445245535360a01b6044820152606401610da1565b6001600160a01b03166000908152600760205260409020805460ff1916905580611be38161435a565b915050611b34565b5050505050565b600a5460009064010000000090046001600160a01b0316611c4a5760405162461bcd60e51b8152602060048201526012602482015271544f4b454e5f5a45524f5f4144445245535360701b6044820152606401610da1565b50600a5464010000000090046001600160a01b031690565b60006001600160a01b038316611caf5760405162461bcd60e51b81526020600482015260126024820152714f574e45525f5a45524f5f4144445245535360701b6044820152606401610da1565b506001600160a01b038216600090815260086020908152604080832060ff8516845290915290205492915050565b6000611ce8816131b8565b50600d80546001600160a01b0319166001600160a01b0392909216919091179055565b6000611d16816131b8565b6000805160206143c2833981519152611d2e816131b8565b60005b83811015611beb576000858583818110611d5b57634e487b7160e01b600052603260045260246000fd5b9050602002016020810190611d709190613a46565b90506001600160a01b038116611db75760405162461bcd60e51b815260206004820152600c60248201526b4e554c4c5f4144445245535360a01b6044820152606401610da1565b6001600160a01b03166000908152600760205260409020805460ff1916600117905580611de38161435a565b915050611d31565b6000918252602082815260408084206001600160a01b0393909316845291905290205460ff1690565b6000611e1f816131b8565b600a54610100900460ff1615611e655760405162461bcd60e51b815260206004820152600b60248201526a14d0531157d313d0d2d15160aa1b6044820152606401610da1565b611e71600f84846137a2565b50505050565b611ea26040518060800160405280606081526020016000815260200160008152602001600081525090565b600a5460ff16611ee65760405162461bcd60e51b815260206004820152600f60248201526e1253959053125117d4d0531157d251608a1b6044820152606401610da1565b600a54600090601090611efe9060019060ff166142b9565b60ff1681548110611f1f57634e487b7160e01b600052603260045260246000fd5b9060005260206000209060040201604051806080016040529081600082018054611f489061431f565b80601f0160208091040260200160405190810160405280929190818152602001828054611f749061431f565b8015611fc15780601f10611f9657610100808354040283529160200191611fc1565b820191906000526020600020905b815481529060010190602001808311611fa457829003601f168201915b5050509183525050600182015460208201526002820154604082015260039091015460609091015291505090565b6000611ffa816131b8565b6000805160206143c2833981519152612012816131b8565b6000805160206143e283398151915261202a816131b8565b6001600160a01b03861660009081526007602052604090205460ff166120875760405162461bcd60e51b815260206004820152601260248201527111d2519517d393d517d4555053125192515160721b6044820152606401610da1565b505050505050565b600a5460009060ff166120d65760405162461bcd60e51b815260206004820152600f60248201526e1253959053125117d4d0531157d251608a1b6044820152606401610da1565b600a546010805460009260001960ff918216011690811061210757634e487b7160e01b600052603260045260246000fd5b90600052602060002090600402016040518060800160405290816000820180546121309061431f565b80601f016020809104026020016040519081016040528092919081815260200182805461215c9061431f565b80156121a95780601f1061217e576101008083540402835291602001916121a9565b820191906000526020600020905b81548152906001019060200180831161218c57829003601f168201915b50505050508152602001600182015481526020016002820154815260200160038201548152505090506000600460008660ff1660ff16815260200190815260200160002054905060006064836020015183028161221657634e487b7160e01b600052601260045260246000fd5b0490910384029250505092915050565b6000806010805480602002602001604051908101604052809291908181526020016000905b8282101561232d578382906000526020600020906004020160405180608001604052908160008201805461227e9061431f565b80601f01602080910402602001604051908101604052809291908181526020018280546122aa9061431f565b80156122f75780601f106122cc576101008083540402835291602001916122f7565b820191906000526020600020905b8154815290600101906020018083116122da57829003601f168201915b5050505050815260200160018201548152602001600282015481526020016003820154815250508152602001906001019061224b565b50505050905060005b81518160ff1610156123f1576000828260ff168151811061236757634e487b7160e01b600052603260045260246000fd5b60200260200101516040015190506000838360ff168151811061239a57634e487b7160e01b600052603260045260246000fd5b602002602001015160600151826123b19190614246565b90504282111580156123c35750804211155b156123dc576123d383600161425e565b945050506123f1565b505080806123e990614375565b915050612336565b5060ff82166124125760405162461bcd60e51b8152600401610da190614160565b600a5460ff83811691161461243157600a805460ff191660ff84161790555b6124396132ae565b3360009081526007602052604090205460ff166124685760405162461bcd60e51b8152600401610da190614186565b34612473858561208f565b11156124915760405162461bcd60e51b8152600401610da190614132565b61249b84846133cb565b611e7160018055565b60006001600160a01b0382166124f05760405162461bcd60e51b8152602060048201526011602482015270555345525f5a45524f5f4144445245535360781b6044820152606401610da1565b506001600160a01b031660009081526007602052604090205460ff1690565b600061251a816131b8565b6000805160206143c2833981519152612532816131b8565b6000805160206143e283398151915261254a816131b8565b83518551146125905760405162461bcd60e51b815260206004820152601260248201527111d2519517d25394155517d253959053125160721b6044820152606401610da1565b60005b86518110156115ed57600760008883815181106125c057634e487b7160e01b600052603260045260246000fd5b6020908102919091018101516001600160a01b031682528101919091526040016000205460ff161561267f5760005b865181101561267d5761266b88838151811061261b57634e487b7160e01b600052603260045260246000fd5b602002602001015188838151811061264357634e487b7160e01b600052603260045260246000fd5b6020026020010151888481518110611e7157634e487b7160e01b600052603260045260246000fd5b806126758161435a565b9150506125ef565b505b806126898161435a565b915050612593565b600061269c816131b8565b601080546126ac906001906142a2565b815481106126ca57634e487b7160e01b600052603260045260246000fd5b9060005260206000209060040201601083815481106126f957634e487b7160e01b600052603260045260246000fd5b9060005260206000209060040201600082018160000190805461271b9061431f565b612726929190613816565b506001828101549082015560028083015490820155600391820154910155601080548061276357634e487b7160e01b600052603160045260246000fd5b600082815260208120600019909201916004830201906127838282613891565b506000600182018190556002820181905560039091015590555050565b6000828152602081905260409020600101546127bb816131b8565b610d308383613249565b60006127d0816131b8565b60008660ff161180156127e8575060105460ff871611155b6128245760405162461bcd60e51b815260206004820152600d60248201526c29a0a622afa4a22fa2a92927a960991b6044820152606401610da1565b8460106001880360ff168154811061284c57634e487b7160e01b600052603260045260246000fd5b9060005260206000209060040201600001908051906020019061287092919061371e565b508360ff1660106001880360ff168154811061289c57634e487b7160e01b600052603260045260246000fd5b9060005260206000209060040201600101819055508260106001880360ff16815481106128d957634e487b7160e01b600052603260045260246000fd5b9060005260206000209060040201600201819055508160106001880360ff168154811061291657634e487b7160e01b600052603260045260246000fd5b906000526020600020906004020160030181905550505050505050565b6060600f80546129429061431f565b80601f016020809104026020016040519081016040528092919081815260200182805461296e9061431f565b80156129bb5780601f10612990576101008083540402835291602001916129bb565b820191906000526020600020905b81548152906001019060200180831161299e57829003601f168201915b5050505050905090565b600b546000906001600160a01b0316612a175760405162461bcd60e51b81526020600482015260146024820152734143434f554e545f5a45524f5f4144445245535360601b6044820152606401610da1565b50600b546001600160a01b031690565b6000806010805480602002602001604051908101604052809291908181526020016000905b82821015612b2e5783829060005260206000209060040201604051806080016040529081600082018054612a7f9061431f565b80601f0160208091040260200160405190810160405280929190818152602001828054612aab9061431f565b8015612af85780601f10612acd57610100808354040283529160200191612af8565b820191906000526020600020905b815481529060010190602001808311612adb57829003601f168201915b50505050508152602001600182015481526020016002820154815260200160038201548152505081526020019060010190612a4c565b50505050905060005b81518160ff161015612bf2576000828260ff1681518110612b6857634e487b7160e01b600052603260045260246000fd5b60200260200101516040015190506000838360ff1681518110612b9b57634e487b7160e01b600052603260045260246000fd5b60200260200101516060015182612bb29190614246565b9050428211158015612bc45750804211155b15612bdd57612bd483600161425e565b94505050612bf2565b50508080612bea90614375565b915050612b37565b5060ff8216612c135760405162461bcd60e51b8152600401610da190614160565b600a5460ff838116911614612c3257600a805460ff191660ff84161790555b612c3a6132ae565b3360009081526007602052604090205460ff16612c695760405162461bcd60e51b8152600401610da190614186565b6000805b8551811015612cdf57612cc1868281518110612c9957634e487b7160e01b600052603260045260246000fd5b602002602001015186838151811061198b57634e487b7160e01b600052603260045260246000fd5b612ccb9083614246565b915080612cd78161435a565b915050612c6d565b5034811115612d005760405162461bcd60e51b8152600401610da190614132565b60005b8551811015612d6957612d57868281518110612d2f57634e487b7160e01b600052603260045260246000fd5b6020026020010151868381518110611ab057634e487b7160e01b600052603260045260246000fd5b80612d618161435a565b915050612d03565b5050611e7160018055565b6000612d7f816131b8565b6000805160206143c2833981519152612d97816131b8565b60ff848116600081815260026020908152604091829020805460ff19169488169485179055815192835282019290925233917f6082d36730c1beaf3dfd8a9a3ef49801f23ce4f819f33cce97c40b03e446200a9101610f5c565b6000612dfc816131b8565b6000805160206143c2833981519152612e14816131b8565b6000805160206143e2833981519152612e2c816131b8565b8351855114612e725760405162461bcd60e51b815260206004820152601260248201527111d2519517d25394155517d253959053125160721b6044820152606401610da1565b6001600160a01b03861660009081526007602052604090205460ff16612ecf5760405162461bcd60e51b815260206004820152601260248201527111d2519517d393d517d4555053125192515160721b6044820152606401610da1565b60005b85518110156115ed57612f2787878381518110612eff57634e487b7160e01b600052603260045260246000fd5b6020026020010151878481518110611e7157634e487b7160e01b600052603260045260246000fd5b80612f318161435a565b915050612ed2565b6000612f44816131b8565b6000805160206143c2833981519152612f5c816131b8565b600a805460ff610100808304821615810261ff00199093169290921792839055604080513381529290930416151560208201527fd3ae196360a2f86705798e66702921356ebc675aa4a25983489cc23110e605e9910160405180910390a15050565b6060610af46001600160a01b03831660145b60606000612fdf836002614283565b612fea906002614246565b6001600160401b0381111561300f57634e487b7160e01b600052604160045260246000fd5b6040519080825280601f01601f191660200182016040528015613039576020820181803683370190505b509050600360fc1b8160008151811061306257634e487b7160e01b600052603260045260246000fd5b60200101906001600160f81b031916908160001a905350600f60fb1b8160018151811061309f57634e487b7160e01b600052603260045260246000fd5b60200101906001600160f81b031916908160001a90535060006130c3846002614283565b6130ce906001614246565b90505b6001811115613162576f181899199a1a9b1b9c1cb0b131b232b360811b85600f166010811061311057634e487b7160e01b600052603260045260246000fd5b1a60f81b82828151811061313457634e487b7160e01b600052603260045260246000fd5b60200101906001600160f81b031916908160001a90535060049490941c9361315b81614308565b90506130d1565b5083156131b15760405162461bcd60e51b815260206004820181905260248201527f537472696e67733a20686578206c656e67746820696e73756666696369656e746044820152606401610da1565b9392505050565b6131c28133613411565b50565b6131cf8282611deb565b610db4576000828152602081815260408083206001600160a01b03851684529091529020805460ff191660011790556132053390565b6001600160a01b0316816001600160a01b0316837f2f8788117e7eff1d82e926ec794901d17c78024a50270940304540a733656f0d60405160405180910390a45050565b6132538282611deb565b15610db4576000828152602081815260408083206001600160a01b0385168085529252808320805460ff1916905551339285917ff6391f5c32d9c69d2a47ea670b442974b53935d1edc7fd64eb21e047a839171b9190a45050565b600260015414156133015760405162461bcd60e51b815260206004820152601f60248201527f5265656e7472616e637947756172643a207265656e7472616e742063616c6c006044820152606401610da1565b6002600155565b60008061331484613339565b9050613320818461346a565b600d546001600160a01b03918216911614949350505050565b6040517f19457468657265756d205369676e6564204d6573736167653a0a3332000000006020820152603c8101829052600090605c01604051602081830303815290604052805190602001209050919050565b6000806133c28585856040516020016133a793929190614020565b60405160208183030381529060405280519060200120613339565b95945050505050565b600a54610100900460ff1615610db45760405162461bcd60e51b815260206004820152600b60248201526a14d0531157d313d0d2d15160aa1b6044820152606401610da1565b61341b8282611deb565b610db45761342881612fbe565b613433836020612fd0565b60405160200161344492919061407b565b60408051601f198184030181529082905262461bcd60e51b8252610da1916004016140f0565b6000806000613479858561348e565b91509150613486816134d4565b509392505050565b6000808251604114156134c55760208301516040840151606085015160001a6134b98782858561365a565b945094505050506134cd565b506000905060025b9250929050565b60008160048111156134f657634e487b7160e01b600052602160045260246000fd5b14156134ff5750565b600181600481111561352157634e487b7160e01b600052602160045260246000fd5b141561356f5760405162461bcd60e51b815260206004820152601860248201527f45434453413a20696e76616c6964207369676e617475726500000000000000006044820152606401610da1565b600281600481111561359157634e487b7160e01b600052602160045260246000fd5b14156135df5760405162461bcd60e51b815260206004820152601f60248201527f45434453413a20696e76616c6964207369676e6174757265206c656e677468006044820152606401610da1565b600381600481111561360157634e487b7160e01b600052602160045260246000fd5b14156131c25760405162461bcd60e51b815260206004820152602260248201527f45434453413a20696e76616c6964207369676e6174757265202773272076616c604482015261756560f01b6064820152608401610da1565b6000807f7fffffffffffffffffffffffffffffff5d576e7357a4501ddfe92f46681b20a08311156136915750600090506003613715565b6040805160008082526020820180845289905260ff881692820192909252606081018690526080810185905260019060a0016020604051602081039080840390855afa1580156136e5573d6000803e3d6000fd5b5050604051601f1901519150506001600160a01b03811661370e57600060019250925050613715565b9150600090505b94509492505050565b82805461372a9061431f565b90600052602060002090601f01602090048101928261374c5760008555613792565b82601f1061376557805160ff1916838001178555613792565b82800160010185558215613792579182015b82811115613792578251825591602001919060010190613777565b5061379e9291506138c7565b5090565b8280546137ae9061431f565b90600052602060002090601f0160209004810192826137d05760008555613792565b82601f106137e95782800160ff19823516178555613792565b82800160010185558215613792579182015b828111156137925782358255916020019190600101906137fb565b8280546138229061431f565b90600052602060002090601f0160209004810192826138445760008555613792565b82601f106138555780548555613792565b8280016001018555821561379257600052602060002091601f016020900482015b82811115613792578254825591600101919060010190613876565b50805461389d9061431f565b6000825580601f106138ad575050565b601f0160209004906000526020600020908101906131c291905b5b8082111561379e57600081556001016138c8565b80356001600160a01b03811681146138f357600080fd5b919050565b600082601f830112613908578081fd5b8135602061391d61391883614223565b6141f3565b80838252828201915082860187848660051b890101111561393c578586fd5b855b8581101561395a5781358452928401929084019060010161393e565b5090979650505050505050565b600082601f830112613977578081fd5b8135602061398761391883614223565b80838252828201915082860187848660051b89010111156139a6578586fd5b855b8581101561395a576139b982613a35565b845292840192908401906001016139a8565b600082601f8301126139db578081fd5b81356001600160401b038111156139f4576139f46143ab565b613a07601f8201601f19166020016141f3565b818152846020838601011115613a1b578283fd5b816020850160208301379081016020019190915292915050565b803560ff811681146138f357600080fd5b600060208284031215613a57578081fd5b6131b1826138dc565b60008060408385031215613a72578081fd5b613a7b836138dc565b9150613a89602084016138dc565b90509250929050565b600080600060608486031215613aa6578081fd5b613aaf846138dc565b925060208401356001600160401b0380821115613aca578283fd5b613ad687838801613967565b93506040860135915080821115613aeb578283fd5b50613af8868287016138f8565b9150509250925092565b60008060408385031215613b14578182fd5b613b1d836138dc565b9150613a8960208401613a35565b600080600060608486031215613b3f578283fd5b613b48846138dc565b9250613b5660208501613a35565b9150604084013590509250925092565b60008060208385031215613b78578182fd5b82356001600160401b0380821115613b8e578384fd5b818501915085601f830112613ba1578384fd5b813581811115613baf578485fd5b8660208260051b8501011115613bc3578485fd5b60209290920196919550909350505050565b600080600060608486031215613be9578081fd5b83356001600160401b0380821115613bff578283fd5b818601915086601f830112613c12578283fd5b81356020613c2261391883614223565b8083825282820191508286018b848660051b8901011115613c41578788fd5b8796505b84871015613c6a57613c56816138dc565b835260019690960195918301918301613c45565b5097505087013592505080821115613aca578283fd5b60008060408385031215613c92578182fd5b82356001600160401b0380821115613ca8578384fd5b613cb486838701613967565b93506020850135915080821115613cc9578283fd5b50613cd6858286016138f8565b9150509250929050565b600060208284031215613cf1578081fd5b5035919050565b60008060408385031215613d0a578182fd5b82359150613a89602084016138dc565b600080600080600060a08688031215613d31578283fd5b8535945060208601356001600160401b0380821115613d4e578485fd5b613d5a89838a016139cb565b95506040880135915080821115613d6f578485fd5b613d7b89838a016139cb565b94506060880135915080821115613d90578283fd5b613d9c89838a01613967565b93506080880135915080821115613db1578283fd5b50613dbe888289016138f8565b9150509295509295909350565b600080600080600060a08688031215613de2578283fd5b8535945060208601356001600160401b0380821115613dff578485fd5b613e0b89838a016139cb565b95506040880135915080821115613e20578485fd5b50613e2d888289016139cb565b935050613e3c60608701613a35565b949793965091946080013592915050565b600060208284031215613e5e578081fd5b81356001600160e01b0319811681146131b1578182fd5b60008060208385031215613e87578182fd5b82356001600160401b0380821115613e9d578384fd5b818501915085601f830112613eb0578384fd5b813581811115613ebe578485fd5b866020828501011115613bc3578485fd5b60008060008060808587031215613ee4578182fd5b84356001600160401b03811115613ef9578283fd5b613f05878288016139cb565b945050613f1460208601613a35565b93969395505050506040820135916060013590565b600060208284031215613f3a578081fd5b6131b182613a35565b600080600080600060a08688031215613f5a578283fd5b613f6386613a35565b945060208601356001600160401b03811115613f7d578384fd5b613f89888289016139cb565b945050613f9860408701613a35565b94979396509394606081013594506080013592915050565b60008060408385031215613fc2578182fd5b613fcb83613a35565b946020939093013593505050565b60008060408385031215613feb578182fd5b613b1d83613a35565b6000815180845261400c8160208601602086016142dc565b601f01601f19169290920160200192915050565b6bffffffffffffffffffffffff198460601b168152826014820152600082516140508160348501602087016142dc565b91909101603401949350505050565b600082516140718184602087016142dc565b9190910192915050565b7f416363657373436f6e74726f6c3a206163636f756e74200000000000000000008152600083516140b38160178501602088016142dc565b7001034b99036b4b9b9b4b733903937b6329607d1b60179184019182015283516140e48160288401602088016142dc565b01602801949350505050565b6020815260006131b16020830184613ff4565b6080815260006141166080830187613ff4565b6020830195909552506040810192909252606090910152919050565b602080825260149082015273125394d551919250d251539517d410565351539560621b604082015260600190565b6020808252600c908201526b14d0531157d156141254915160a21b604082015260600190565b6020808252600d908201526c1393d517d45550531251925151609a1b604082015260600190565b6020815260008251608060208401526141c960a0840182613ff4565b90506020840151604084015260408401516060840152606084015160808401528091505092915050565b604051601f8201601f191681016001600160401b038111828210171561421b5761421b6143ab565b604052919050565b60006001600160401b0382111561423c5761423c6143ab565b5060051b60200190565b6000821982111561425957614259614395565b500190565b600060ff821660ff84168060ff0382111561427b5761427b614395565b019392505050565b600081600019048311821515161561429d5761429d614395565b500290565b6000828210156142b4576142b4614395565b500390565b600060ff821660ff8416808210156142d3576142d3614395565b90039392505050565b60005b838110156142f75781810151838201526020016142df565b83811115611e715750506000910152565b60008161431757614317614395565b506000190190565b600181811c9082168061433357607f821691505b6020821081141561435457634e487b7160e01b600052602260045260246000fd5b50919050565b600060001982141561436e5761436e614395565b5060010190565b600060ff821660ff81141561438c5761438c614395565b60010192915050565b634e487b7160e01b600052601160045260246000fd5b634e487b7160e01b600052604160045260246000fdfeb19546dff01e856fb3f010c267a7b1c60363cf8a4664e21cc89c26224620214e9f2df0fed2c77648de5860a4cc508cd0818c85b8b8a1ab4ceeef8d981c8956a6a264697066735822122033c0d8dec014e18525138a0040c6dd23fdc2e2b73a8fb2c924d7f485f314f05864736f6c63430008040033b19546dff01e856fb3f010c267a7b1c60363cf8a4664e21cc89c26224620214e",
  "linkReferences": {},
  "deployedLinkReferences": {}
}