{
  "_format": "hh-sol-artifact-1",
  "contractName": "RoosterwarsNFT",
  "sourceName": "contracts/tokens/RoosterwarsNFT.sol",
  "abi": [
    {
      "inputs": [
        {
          "internalType": "string",
          "name": "name_",
          "type": "string"
        },
        {
          "internalType": "string",
          "name": "symbol_",
          "type": "string"
        }
      ],
      "stateMutability": "nonpayable",
      "type": "constructor"
    },
    {
      "inputs": [],
      "name": "ApprovalCallerNotOwnerNorApproved",
      "type": "error"
    },
    {
      "inputs": [],
      "name": "ApprovalQueryForNonexistentToken",
      "type": "error"
    },
    {
      "inputs": [],
      "name": "ApprovalToCurrentOwner",
      "type": "error"
    },
    {
      "inputs": [],
      "name": "ApproveToCaller",
      "type": "error"
    },
    {
      "inputs": [],
      "name": "BalanceQueryForZeroAddress",
      "type": "error"
    },
    {
      "inputs": [],
      "name": "MintToZeroAddress",
      "type": "error"
    },
    {
      "inputs": [],
      "name": "MintZeroQuantity",
      "type": "error"
    },
    {
      "inputs": [],
      "name": "OwnerQueryForNonexistentToken",
      "type": "error"
    },
    {
      "inputs": [],
      "name": "RoosterwarsNFT_CurrentLocked",
      "type": "error"
    },
    {
      "inputs": [],
      "name": "TransferCallerNotOwnerNorApproved",
      "type": "error"
    },
    {
      "inputs": [],
      "name": "TransferFromIncorrectOwner",
      "type": "error"
    },
    {
      "inputs": [],
      "name": "TransferToNonERC721ReceiverImplementer",
      "type": "error"
    },
    {
      "inputs": [],
      "name": "TransferToZeroAddress",
      "type": "error"
    },
    {
      "inputs": [],
      "name": "URIQueryForNonexistentToken",
      "type": "error"
    },
    {
      "anonymous": false,
      "inputs": [
        {
          "indexed": true,
          "internalType": "address",
          "name": "owner",
          "type": "address"
        },
        {
          "indexed": true,
          "internalType": "address",
          "name": "approved",
          "type": "address"
        },
        {
          "indexed": true,
          "internalType": "uint256",
          "name": "tokenId",
          "type": "uint256"
        }
      ],
      "name": "Approval",
      "type": "event"
    },
    {
      "anonymous": false,
      "inputs": [
        {
          "indexed": true,
          "internalType": "address",
          "name": "owner",
          "type": "address"
        },
        {
          "indexed": true,
          "internalType": "address",
          "name": "operator",
          "type": "address"
        },
        {
          "indexed": false,
          "internalType": "bool",
          "name": "approved",
          "type": "bool"
        }
      ],
      "name": "ApprovalForAll",
      "type": "event"
    },
    {
      "anonymous": false,
      "inputs": [
        {
          "indexed": true,
          "internalType": "address",
          "name": "operator",
          "type": "address"
        },
        {
          "indexed": false,
          "internalType": "uint256",
          "name": "tokenID",
          "type": "uint256"
        }
      ],
      "name": "Burn",
      "type": "event"
    },
    {
      "anonymous": false,
      "inputs": [
        {
          "indexed": true,
          "internalType": "address",
          "name": "operator",
          "type": "address"
        },
        {
          "indexed": false,
          "internalType": "bool",
          "name": "locked",
          "type": "bool"
        }
      ],
      "name": "Locked",
      "type": "event"
    },
    {
      "anonymous": false,
      "inputs": [
        {
          "indexed": true,
          "internalType": "address",
          "name": "operator",
          "type": "address"
        },
        {
          "indexed": true,
          "internalType": "address",
          "name": "to",
          "type": "address"
        },
        {
          "indexed": false,
          "internalType": "uint256",
          "name": "quantity",
          "type": "uint256"
        }
      ],
      "name": "Mint",
      "type": "event"
    },
    {
      "anonymous": false,
      "inputs": [
        {
          "indexed": true,
          "internalType": "address",
          "name": "operator",
          "type": "address"
        },
        {
          "indexed": false,
          "internalType": "uint256",
          "name": "quantity",
          "type": "uint256"
        }
      ],
      "name": "MintToPool",
      "type": "event"
    },
    {
      "anonymous": false,
      "inputs": [
        {
          "indexed": true,
          "internalType": "address",
          "name": "previousOwner",
          "type": "address"
        },
        {
          "indexed": true,
          "internalType": "address",
          "name": "newOwner",
          "type": "address"
        }
      ],
      "name": "OwnershipTransferred",
      "type": "event"
    },
    {
      "anonymous": false,
      "inputs": [
        {
          "indexed": true,
          "internalType": "address",
          "name": "operator",
          "type": "address"
        },
        {
          "indexed": false,
          "internalType": "address",
          "name": "pool",
          "type": "address"
        }
      ],
      "name": "SetupPool",
      "type": "event"
    },
    {
      "anonymous": false,
      "inputs": [
        {
          "indexed": true,
          "internalType": "address",
          "name": "operator",
          "type": "address"
        },
        {
          "indexed": false,
          "internalType": "bool",
          "name": "allowed",
          "type": "bool"
        }
      ],
      "name": "TradingAllowed",
      "type": "event"
    },
    {
      "anonymous": false,
      "inputs": [
        {
          "indexed": true,
          "internalType": "address",
          "name": "from",
          "type": "address"
        },
        {
          "indexed": true,
          "internalType": "address",
          "name": "to",
          "type": "address"
        },
        {
          "indexed": true,
          "internalType": "uint256",
          "name": "tokenId",
          "type": "uint256"
        }
      ],
      "name": "Transfer",
      "type": "event"
    },
    {
      "anonymous": false,
      "inputs": [
        {
          "indexed": false,
          "internalType": "string",
          "name": "",
          "type": "string"
        }
      ],
      "name": "UpdateMetadataAnimationUrl",
      "type": "event"
    },
    {
      "anonymous": false,
      "inputs": [
        {
          "indexed": false,
          "internalType": "string",
          "name": "",
          "type": "string"
        }
      ],
      "name": "UpdateMetadataExternalUrl",
      "type": "event"
    },
    {
      "anonymous": false,
      "inputs": [
        {
          "indexed": false,
          "internalType": "string",
          "name": "",
          "type": "string"
        }
      ],
      "name": "UpdateMetadataImage",
      "type": "event"
    },
    {
      "inputs": [],
      "name": "PRICE_PER_TYPE",
      "outputs": [
        {
          "internalType": "uint256",
          "name": "",
          "type": "uint256"
        }
      ],
      "stateMutability": "view",
      "type": "function"
    },
    {
      "inputs": [],
      "name": "SUPPLY_PER_TYPE",
      "outputs": [
        {
          "internalType": "uint256",
          "name": "",
          "type": "uint256"
        }
      ],
      "stateMutability": "view",
      "type": "function"
    },
    {
      "inputs": [
        {
          "internalType": "address",
          "name": "to",
          "type": "address"
        },
        {
          "internalType": "uint256",
          "name": "tokenId",
          "type": "uint256"
        }
      ],
      "name": "approve",
      "outputs": [],
      "stateMutability": "nonpayable",
      "type": "function"
    },
    {
      "inputs": [
        {
          "internalType": "address",
          "name": "owner",
          "type": "address"
        }
      ],
      "name": "balanceOf",
      "outputs": [
        {
          "internalType": "uint256",
          "name": "",
          "type": "uint256"
        }
      ],
      "stateMutability": "view",
      "type": "function"
    },
    {
      "inputs": [],
      "name": "baseURI",
      "outputs": [
        {
          "internalType": "string",
          "name": "",
          "type": "string"
        }
      ],
      "stateMutability": "view",
      "type": "function"
    },
    {
      "inputs": [
        {
          "internalType": "uint256",
          "name": "tokenId",
          "type": "uint256"
        }
      ],
      "name": "burn",
      "outputs": [],
      "stateMutability": "nonpayable",
      "type": "function"
    },
    {
      "inputs": [
        {
          "internalType": "uint256",
          "name": "tokenId",
          "type": "uint256"
        }
      ],
      "name": "getApproved",
      "outputs": [
        {
          "internalType": "address",
          "name": "",
          "type": "address"
        }
      ],
      "stateMutability": "view",
      "type": "function"
    },
    {
      "inputs": [
        {
          "internalType": "enum RoosterwarsNFT.TokenType",
          "name": "tokenType",
          "type": "uint8"
        }
      ],
      "name": "getMintedPerType",
      "outputs": [
        {
          "internalType": "uint256",
          "name": "",
          "type": "uint256"
        }
      ],
      "stateMutability": "view",
      "type": "function"
    },
    {
      "inputs": [
        {
          "internalType": "int256",
          "name": "_usdPrice",
          "type": "int256"
        }
      ],
      "name": "getPrice",
      "outputs": [
        {
          "internalType": "int256",
          "name": "",
          "type": "int256"
        }
      ],
      "stateMutability": "view",
      "type": "function"
    },
    {
      "inputs": [
        {
          "internalType": "address",
          "name": "owner",
          "type": "address"
        },
        {
          "internalType": "address",
          "name": "operator",
          "type": "address"
        }
      ],
      "name": "isApprovedForAll",
      "outputs": [
        {
          "internalType": "bool",
          "name": "",
          "type": "bool"
        }
      ],
      "stateMutability": "view",
      "type": "function"
    },
    {
      "inputs": [],
      "name": "lock",
      "outputs": [],
      "stateMutability": "nonpayable",
      "type": "function"
    },
    {
      "inputs": [
        {
          "internalType": "address",
          "name": "to",
          "type": "address"
        },
        {
          "internalType": "uint256",
          "name": "quantity",
          "type": "uint256"
        },
        {
          "internalType": "enum RoosterwarsNFT.TokenType",
          "name": "tokenType",
          "type": "uint8"
        }
      ],
      "name": "mint",
      "outputs": [],
      "stateMutability": "nonpayable",
      "type": "function"
    },
    {
      "inputs": [],
      "name": "name",
      "outputs": [
        {
          "internalType": "string",
          "name": "",
          "type": "string"
        }
      ],
      "stateMutability": "view",
      "type": "function"
    },
    {
      "inputs": [],
      "name": "owner",
      "outputs": [
        {
          "internalType": "address",
          "name": "",
          "type": "address"
        }
      ],
      "stateMutability": "view",
      "type": "function"
    },
    {
      "inputs": [
        {
          "internalType": "uint256",
          "name": "tokenId",
          "type": "uint256"
        }
      ],
      "name": "ownerOf",
      "outputs": [
        {
          "internalType": "address",
          "name": "",
          "type": "address"
        }
      ],
      "stateMutability": "view",
      "type": "function"
    },
    {
      "inputs": [],
      "name": "renounceOwnership",
      "outputs": [],
      "stateMutability": "nonpayable",
      "type": "function"
    },
    {
      "inputs": [
        {
          "internalType": "address",
          "name": "from",
          "type": "address"
        },
        {
          "internalType": "address",
          "name": "to",
          "type": "address"
        },
        {
          "internalType": "uint256",
          "name": "tokenId",
          "type": "uint256"
        }
      ],
      "name": "safeTransferFrom",
      "outputs": [],
      "stateMutability": "nonpayable",
      "type": "function"
    },
    {
      "inputs": [
        {
          "internalType": "address",
          "name": "from",
          "type": "address"
        },
        {
          "internalType": "address",
          "name": "to",
          "type": "address"
        },
        {
          "internalType": "uint256",
          "name": "tokenId",
          "type": "uint256"
        },
        {
          "internalType": "bytes",
          "name": "_data",
          "type": "bytes"
        }
      ],
      "name": "safeTransferFrom",
      "outputs": [],
      "stateMutability": "nonpayable",
      "type": "function"
    },
    {
      "inputs": [
        {
          "internalType": "address",
          "name": "operator",
          "type": "address"
        },
        {
          "internalType": "bool",
          "name": "approved",
          "type": "bool"
        }
      ],
      "name": "setApprovalForAll",
      "outputs": [],
      "stateMutability": "nonpayable",
      "type": "function"
    },
    {
      "inputs": [
        {
          "internalType": "string",
          "name": "_newBaseURI",
          "type": "string"
        }
      ],
      "name": "setBaseURI",
      "outputs": [],
      "stateMutability": "nonpayable",
      "type": "function"
    },
    {
      "inputs": [
        {
          "internalType": "address",
          "name": "treasury",
          "type": "address"
        }
      ],
      "name": "setTreasury",
      "outputs": [],
      "stateMutability": "nonpayable",
      "type": "function"
    },
    {
      "inputs": [
        {
          "internalType": "bytes4",
          "name": "interfaceId",
          "type": "bytes4"
        }
      ],
      "name": "supportsInterface",
      "outputs": [
        {
          "internalType": "bool",
          "name": "",
          "type": "bool"
        }
      ],
      "stateMutability": "view",
      "type": "function"
    },
    {
      "inputs": [],
      "name": "symbol",
      "outputs": [
        {
          "internalType": "string",
          "name": "",
          "type": "string"
        }
      ],
      "stateMutability": "view",
      "type": "function"
    },
    {
      "inputs": [
        {
          "internalType": "uint256",
          "name": "index",
          "type": "uint256"
        }
      ],
      "name": "tokenByIndex",
      "outputs": [
        {
          "internalType": "uint256",
          "name": "",
          "type": "uint256"
        }
      ],
      "stateMutability": "view",
      "type": "function"
    },
    {
      "inputs": [
        {
          "internalType": "address",
          "name": "owner",
          "type": "address"
        },
        {
          "internalType": "uint256",
          "name": "index",
          "type": "uint256"
        }
      ],
      "name": "tokenOfOwnerByIndex",
      "outputs": [
        {
          "internalType": "uint256",
          "name": "tokenId",
          "type": "uint256"
        }
      ],
      "stateMutability": "view",
      "type": "function"
    },
    {
      "inputs": [
        {
          "internalType": "uint256",
          "name": "tokenId",
          "type": "uint256"
        }
      ],
      "name": "tokenURI",
      "outputs": [
        {
          "internalType": "string",
          "name": "",
          "type": "string"
        }
      ],
      "stateMutability": "view",
      "type": "function"
    },
    {
      "inputs": [],
      "name": "totalSupply",
      "outputs": [
        {
          "internalType": "uint256",
          "name": "",
          "type": "uint256"
        }
      ],
      "stateMutability": "view",
      "type": "function"
    },
    {
      "inputs": [
        {
          "internalType": "address",
          "name": "from",
          "type": "address"
        },
        {
          "internalType": "address",
          "name": "to",
          "type": "address"
        },
        {
          "internalType": "uint256",
          "name": "tokenId",
          "type": "uint256"
        }
      ],
      "name": "transferFrom",
      "outputs": [],
      "stateMutability": "nonpayable",
      "type": "function"
    },
    {
      "inputs": [
        {
          "internalType": "address",
          "name": "newOwner",
          "type": "address"
        }
      ],
      "name": "transferOwnership",
      "outputs": [],
      "stateMutability": "nonpayable",
      "type": "function"
    },
    {
      "inputs": [
        {
          "internalType": "uint256",
          "name": "",
          "type": "uint256"
        }
      ],
      "name": "typeNames",
      "outputs": [
        {
          "internalType": "string",
          "name": "",
          "type": "string"
        }
      ],
      "stateMutability": "view",
      "type": "function"
    },
    {
      "inputs": [],
      "name": "unlock",
      "outputs": [],
      "stateMutability": "nonpayable",
      "type": "function"
    }
  ],
  "bytecode": "0x600d6101008181526c506c6179526f6f73746572733160981b6101205260809081526101408281526c283630bca937b7b9ba32b9399960991b6101605260a0526101808281526c506c6179526f6f73746572733360981b6101a05260c0526102006040526101c09182526c141b185e549bdbdcdd195c9ccd609a1b6101e05260e0919091526200009490600a906004620001d2565b50348015620000a257600080fd5b50604051620031c8380380620031c8833981016040819052620000c591620003ee565b815182908290620000de90600190602085019062000236565b508051620000f490600290602084019062000236565b505050620001116200010b6200017c60201b60201c565b62000180565b600d805460ff191660011790556040805160808101909152605780825262003171602083013980516200014d9160099160209091019062000236565b5050600e80546001600160a01b031916738a753747a1fa494ec906ce90e9f37563a8af630e17905550620004a8565b3390565b600780546001600160a01b038381166001600160a01b0319831681179093556040519116919082907f8be0079c531659141344cd1fd0a4f28419497f9722a3daafe3b4186f6b6457e090600090a35050565b82805482825590600052602060002090810192821562000224579160200282015b828111156200022457825180516200021391849160209091019062000236565b5091602001919060010190620001f3565b5062000232929150620002c1565b5090565b828054620002449062000455565b90600052602060002090601f016020900481019282620002685760008555620002b3565b82601f106200028357805160ff1916838001178555620002b3565b82800160010185558215620002b3579182015b82811115620002b357825182559160200191906001019062000296565b5062000232929150620002e2565b8082111562000232576000620002d88282620002f9565b50600101620002c1565b5b80821115620002325760008155600101620002e3565b508054620003079062000455565b6000825580601f1062000318575050565b601f016020900490600052602060002090810190620003389190620002e2565b50565b600082601f8301126200034c578081fd5b81516001600160401b038082111562000369576200036962000492565b604051601f8301601f19908116603f0116810190828211818310171562000394576200039462000492565b81604052838152602092508683858801011115620003b0578485fd5b8491505b83821015620003d35785820183015181830184015290820190620003b4565b83821115620003e457848385830101525b9695505050505050565b6000806040838503121562000401578182fd5b82516001600160401b038082111562000418578384fd5b62000426868387016200033b565b935060208501519150808211156200043c578283fd5b506200044b858286016200033b565b9150509250929050565b600181811c908216806200046a57607f821691505b602082108114156200048c57634e487b7160e01b600052602260045260246000fd5b50919050565b634e487b7160e01b600052604160045260246000fd5b612cb980620004b86000396000f3fe608060405234801561001057600080fd5b50600436106101e55760003560e01c8063715018a61161010f578063c0a15ec4116100a2578063f0f4426011610071578063f0f4426014610407578063f2fde38b1461041a578063f83d08ba1461042d578063fde800c71461043557600080fd5b8063c0a15ec41461039d578063c87b56dd146103a5578063d9111738146103b8578063e985e9c5146103cb57600080fd5b80639732f1d5116100de5780639732f1d51461035c578063a22cb4651461036f578063a69df4b514610382578063b88d4fde1461038a57600080fd5b8063715018a614610330578063845bcabd146103385780638da5cb5b1461034357806395d89b411461035457600080fd5b806342842e0e116101875780636112e8ac116101565780636112e8ac146102ef5780636352211e146103025780636c0360eb1461031557806370a082311461031d57600080fd5b806342842e0e146102a357806342966c68146102b65780634f6ccce7146102c957806355f804b3146102dc57600080fd5b8063095ea7b3116101c3578063095ea7b31461025257806318160ddd1461026757806323b872dd1461027d5780632f745c591461029057600080fd5b806301ffc9a7146101ea57806306fdde0314610212578063081812fc14610227575b600080fd5b6101fd6101f8366004612465565b610448565b60405190151581526020015b60405180910390f35b61021a6104b5565b6040516102099190612883565b61023a6102353660046124b7565b610547565b6040516001600160a01b039091168152602001610209565b610265610260366004612401565b6105d7565b005b61026f6106ef565b604051908152602001610209565b61026561028b366004612313565b61070b565b61026f61029e366004612401565b61073c565b6102656102b1366004612313565b610811565b6102656102c43660046124b7565b61082c565b61026f6102d73660046124b7565b61090c565b6102656102ea3660046124cf565b6109d4565b6102656102fd36600461242a565b6109f3565b61023a6103103660046124b7565b610c72565b61021a610c86565b61026f61032b3660046122c0565b610d14565b610265610df0565b61026f631dcd650081565b6007546001600160a01b031661023a565b61021a610e04565b61021a61036a3660046124b7565b610e13565b61026561037d3660046123c7565b610e3e565b610265610f03565b61026561039836600461234e565b610f17565b61026f603281565b61021a6103b33660046124b7565b610f4f565b61026f6103c63660046124b7565b611102565b6101fd6103d93660046122e1565b6001600160a01b03918216600090815260066020908152604080832093909416825291909152205460ff1690565b6102656104153660046122c0565b6111c8565b6102656104283660046122c0565b611241565b6102656112ba565b61026f61044336600461249d565b6112d1565b60006001600160e01b031982166380ac58cd60e01b148061047957506001600160e01b03198216635b5e139f60e01b145b8061049457506001600160e01b0319821663780e9d6360e01b145b806104af57506301ffc9a760e01b6001600160e01b03198316145b92915050565b6060600180546104c490612a95565b80601f01602080910402602001604051908101604052809291908181526020018280546104f090612a95565b801561053d5780601f106105125761010080835404028352916020019161053d565b820191906000526020600020905b81548152906001019060200180831161052057829003601f168201915b5050505050905090565b600061055282611335565b6105bb5760405162461bcd60e51b815260206004820152602f60248201527f4552433732315073693a20617070726f76656420717565727920666f72206e6f60448201526e3732bc34b9ba32b73a103a37b5b2b760891b60648201526084015b60405180910390fd5b506000908152600560205260409020546001600160a01b031690565b60006105e282610c72565b9050806001600160a01b0316836001600160a01b031614156106525760405162461bcd60e51b8152602060048201526024808201527f4552433732315073693a20617070726f76616c20746f2063757272656e74206f6044820152633bb732b960e11b60648201526084016105b2565b336001600160a01b038216148061066e575061066e81336103d9565b6106e05760405162461bcd60e51b815260206004820152603b60248201527f4552433732315073693a20617070726f76652063616c6c6572206973206e6f7460448201527f206f776e6572206e6f7220617070726f76656420666f7220616c6c000000000060648201526084016105b2565b6106ea838361136b565b505050565b60006106f96113d9565b6004546107069190612a3b565b905090565b6107153382611439565b6107315760405162461bcd60e51b81526004016105b2906128eb565b6106ea838383611526565b60008060015b6001600454610751919061293f565b8110156107bc5761076181611335565b8015610786575061077181610c72565b6001600160a01b0316856001600160a01b0316145b156107aa578382141561079c5791506104af9050565b816107a681612ad0565b9250505b806107b481612ad0565b915050610742565b5060405162461bcd60e51b8152602060048201526024808201527f4552433732315073693a206f776e657220696e646578206f7574206f6620626f604482015263756e647360e01b60648201526084016105b2565b6106ea83838360405180602001604052806000815250610f17565b61083461172b565b6000818152600b6020526040812060010154600c919060ff16600381111561086c57634e487b7160e01b600052602160045260246000fd5b600381111561088b57634e487b7160e01b600052602160045260246000fd5b815260200190815260200160002060008154809291906108aa90612a7e565b90915550506000818152600b60205260408120908155600101805460ff191690556108d481611785565b60405181815233907fcc16f5dbb4873280815c1ee09dbd06736cffcc184412cf7a71a0fdb75d397ca59060200160405180910390a250565b60006109166106ef565b82106109725760405162461bcd60e51b815260206004820152602560248201527f4552433732315073693a20676c6f62616c20696e646578206f7574206f6620626044820152646f756e647360d81b60648201526084016105b2565b600060015b6001600454610986919061293f565b8110156109ca5761099681611335565b156109b857838214156109aa579392505050565b816109b481612ad0565b9250505b806109c281612ad0565b915050610977565b5060009392505050565b6109dc61172b565b80516109ef906009906020840190612171565b5050565b6109fb61172b565b806000816003811115610a1e57634e487b7160e01b600052602160045260246000fd5b10158015610a4c57506003816003811115610a4957634e487b7160e01b600052602160045260246000fd5b11155b610a8d5760405162461bcd60e51b8152602060048201526012602482015271496e76616c696420746f6b656e207479706560701b60448201526064016105b2565b603283600c6000856003811115610ab457634e487b7160e01b600052602160045260246000fd5b6003811115610ad357634e487b7160e01b600052602160045260246000fd5b815260200190815260200160002054610aec919061293f565b1115610b485760405162461bcd60e51b815260206004820152602560248201527f4f766572666c6f772074686520746f74616c737570706c7920666f7220746865604482015264207479706560d81b60648201526084016105b2565b610b5284846117e7565b6004545b83600454610b649190612a3b565b811115610bc5576000818152600b6020526040902081815560018082018054869260ff1990911690836003811115610bac57634e487b7160e01b600052602160045260246000fd5b0217905550508080610bbd90612a7e565b915050610b56565b5082600c6000846003811115610beb57634e487b7160e01b600052602160045260246000fd5b6003811115610c0a57634e487b7160e01b600052602160045260246000fd5b81526020019081526020016000206000828254610c27919061293f565b90915550506040518381526001600160a01b0385169033907fab8530f87dc9b59234c4623bf917212bb2536d647574c8e7e5da92c2ede0c9f89060200160405180910390a350505050565b600080610c7e83611801565b509392505050565b60098054610c9390612a95565b80601f0160208091040260200160405190810160405280929190818152602001828054610cbf90612a95565b8015610d0c5780601f10610ce157610100808354040283529160200191610d0c565b820191906000526020600020905b815481529060010190602001808311610cef57829003601f168201915b505050505081565b60006001600160a01b038216610d825760405162461bcd60e51b815260206004820152602d60248201527f4552433732315073693a2062616c616e636520717565727920666f722074686560448201526c207a65726f206164647265737360981b60648201526084016105b2565b600060015b6001600454610d96919061293f565b811015610de957610da681611335565b15610dd957610db481610c72565b6001600160a01b0316846001600160a01b03161415610dd957610dd682612ad0565b91505b610de281612ad0565b9050610d87565b5092915050565b610df861172b565b610e026000611898565b565b6060600280546104c490612a95565b600a8181548110610e2357600080fd5b906000526020600020016000915090508054610c9390612a95565b6001600160a01b038216331415610e975760405162461bcd60e51b815260206004820152601c60248201527f4552433732315073693a20617070726f766520746f2063616c6c65720000000060448201526064016105b2565b3360008181526006602090815260408083206001600160a01b03871680855290835292819020805460ff191686151590811790915590519081529192917f17307eab39ab6107e8899845ad3d59bd9653f200f220920489ca2b5937696c31910160405180910390a35050565b610f0b61172b565b600d805460ff19169055565b610f213383611439565b610f3d5760405162461bcd60e51b81526004016105b2906128eb565b610f49848484846118ea565b50505050565b6060610f5a82611335565b610f7757604051630a14c4b560e41b815260040160405180910390fd5b6000828152600b602090815260408083208151808301909252805482526001810154919290919083019060ff166003811115610fc357634e487b7160e01b600052602160045260246000fd5b6003811115610fe257634e487b7160e01b600052602160045260246000fd5b90525090506000610ff28461191f565b905060006110228360200151600381111561101d57634e487b7160e01b600052602160045260246000fd5b61191f565b905060008261102f6104b5565b8460098560405160200161104795949392919061277f565b604051602081830303815290604052905060006110d182600a8760200151600381111561108457634e487b7160e01b600052602160045260246000fd5b815481106110a257634e487b7160e01b600052603260045260246000fd5b906000526020600020016040516020016110bd929190612628565b6040516020818303038152906040526119c2565b90506000816040516020016110e6919061273a565b60408051601f1981840301815291905298975050505050505050565b600080600080600080600e60009054906101000a90046001600160a01b03166001600160a01b031663feaf968c6040518163ffffffff1660e01b815260040160a06040518083038186803b15801561115957600080fd5b505afa15801561116d573d6000803e3d6000fd5b505050506040513d601f19601f820116820180604052508101906111919190612515565b9450945094509450945083876a52b7d2dcc80cd2e40000006111b39190612999565b6111bd9190612957565b979650505050505050565b6111d061172b565b6001600160a01b0381166112195760405162461bcd60e51b815260206004820152601060248201526f496e76616c696420747265617375727960801b60448201526064016105b2565b600d80546001600160a01b0390921661010002610100600160a81b0319909216919091179055565b61124961172b565b6001600160a01b0381166112ae5760405162461bcd60e51b815260206004820152602660248201527f4f776e61626c653a206e6577206f776e657220697320746865207a65726f206160448201526564647265737360d01b60648201526084016105b2565b6112b781611898565b50565b6112c261172b565b600d805460ff19166001179055565b60006112db61172b565b600c60008360038111156112ff57634e487b7160e01b600052602160045260246000fd5b600381111561131e57634e487b7160e01b600052602160045260246000fd5b81526020019081526020016000205490505b919050565b600881811c60009081526020919091526040812054600160ff1b60ff84161c161561136257506000919050565b6104af82611b36565b600081815260056020526040902080546001600160a01b0319166001600160a01b03841690811790915581906113a082610c72565b6001600160a01b03167f8c5be1e5ebec7d5bd14f71427d1e84f3dd0314c0f7b2291e5b200ac8c7c3b92560405160405180910390a45050565b6000806008600454901c60016113ef919061293f565b905060005b818110156114345760008181526008602052604090205461141481611b5b565b61141e908561293f565b935050808061142c90612ad0565b9150506113f4565b505090565b600061144482611335565b6114a85760405162461bcd60e51b815260206004820152602f60248201527f4552433732315073693a206f70657261746f7220717565727920666f72206e6f60448201526e3732bc34b9ba32b73a103a37b5b2b760891b60648201526084016105b2565b60006114b383610c72565b9050806001600160a01b0316846001600160a01b031614806114ee5750836001600160a01b03166114e384610547565b6001600160a01b0316145b8061151e57506001600160a01b0380821660009081526006602090815260408083209388168352929052205460ff165b949350505050565b60008061153283611801565b91509150846001600160a01b0316826001600160a01b0316146115ac5760405162461bcd60e51b815260206004820152602c60248201527f4552433732315073693a207472616e73666572206f6620746f6b656e2074686160448201526b3a1034b9903737ba1037bbb760a11b60648201526084016105b2565b6001600160a01b0384166116125760405162461bcd60e51b815260206004820152602760248201527f4552433732315073693a207472616e7366657220746f20746865207a65726f206044820152666164647265737360c81b60648201526084016105b2565b61161f8585856001611b75565b61162a60008461136b565b600061163784600161293f565b600881901c600090815260208190526040902054909150600160ff1b60ff83161c1615801561167357506001600454611670919061293f565b81105b156116a957600081815260036020526040812080546001600160a01b0319166001600160a01b0389161790556116a99082611bf0565b600084815260036020526040902080546001600160a01b0319166001600160a01b0387161790558184146116e2576116e2600085611bf0565b83856001600160a01b0316876001600160a01b03167fddf252ad1be2c89b69c2b068fc378daa952ba7f163c4a11628f55a4df523b3ef60405160405180910390a4505050505050565b6007546001600160a01b03163314610e025760405162461bcd60e51b815260206004820181905260248201527f4f776e61626c653a2063616c6c6572206973206e6f7420746865206f776e657260448201526064016105b2565b600061179082610c72565b90506117a0816000846001611b75565b6117ab600883611bf0565b60405182906000906001600160a01b038416907fddf252ad1be2c89b69c2b068fc378daa952ba7f163c4a11628f55a4df523b3ef908390a45050565b6109ef828260405180602001604052806000815250611c1c565b60008061180d83611335565b61186e5760405162461bcd60e51b815260206004820152602c60248201527f4552433732315073693a206f776e657220717565727920666f72206e6f6e657860448201526b34b9ba32b73a103a37b5b2b760a11b60648201526084016105b2565b61187783611c37565b6000818152600360205260409020546001600160a01b031694909350915050565b600780546001600160a01b038381166001600160a01b0319831681179093556040519116919082907f8be0079c531659141344cd1fd0a4f28419497f9722a3daafe3b4186f6b6457e090600090a35050565b6118f5848484611526565b611903848484600185611c43565b610f495760405162461bcd60e51b81526004016105b290612896565b6060600061192c83611d86565b600101905060008167ffffffffffffffff81111561195a57634e487b7160e01b600052604160045260246000fd5b6040519080825280601f01601f191660200182016040528015611984576020820181803683370190505b5090508181016020015b600019016f181899199a1a9b1b9c1cb0b131b232b360811b600a86061a8153600a85049450846119bd57610c7e565b61198e565b8051606090806119e2575050604080516020810190915260008152919050565b600060036119f183600261293f565b6119fb9190612985565b611a06906004612a1c565b90506000611a1582602061293f565b67ffffffffffffffff811115611a3b57634e487b7160e01b600052604160045260246000fd5b6040519080825280601f01601f191660200182016040528015611a65576020820181803683370190505b5090506000604051806060016040528060408152602001612b44604091399050600181016020830160005b86811015611af1576003818a01810151603f601282901c8116860151600c83901c8216870151600684901c831688015192909316870151600891821b60ff94851601821b92841692909201901b91160160e01b835260049092019101611a90565b506003860660018114611b0b5760028114611b1c57611b28565b613d3d60f01b600119830152611b28565b603d60f81b6000198301525b505050918152949350505050565b6000816001111580156104af57506001600454611b53919061293f565b821092915050565b60005b811561133057600019820190911690600101611b5e565b6001600160a01b03841615801590611ba05750600d546001600160a01b038581166101009092041614155b15610f4957600d5460ff1615610f495760405162461bcd60e51b8152602060048201526015602482015274149bdbdcdd195c9dd85c9cc81a5cc81b1bd8dad959605a1b60448201526064016105b2565b600881901c600090815260209290925260409091208054600160ff1b60ff9093169290921c9091179055565b600454611c298484611e5e565b611903600085838686611c43565b60006104af8183611fe9565b60006001600160a01b0385163b15611d7957506001835b611c64848661293f565b811015611d7357604051630a85bd0160e11b81526001600160a01b0387169063150b7a0290611c9d9033908b9086908990600401612846565b602060405180830381600087803b158015611cb757600080fd5b505af1925050508015611ce7575060408051601f3d908101601f19168201909252611ce491810190612481565b60015b611d41573d808015611d15576040519150601f19603f3d011682016040523d82523d6000602084013e611d1a565b606091505b508051611d395760405162461bcd60e51b81526004016105b290612896565b805181602001fd5b828015611d5e57506001600160e01b03198116630a85bd0160e11b145b92505080611d6b81612ad0565b915050611c5a565b50611d7d565b5060015b95945050505050565b60008072184f03e93ff9f4daa797ed6e38ed64bf6a1f0160401b8310611dc55772184f03e93ff9f4daa797ed6e38ed64bf6a1f0160401b830492506040015b6d04ee2d6d415b85acef81000000008310611df1576d04ee2d6d415b85acef8100000000830492506020015b662386f26fc100008310611e0f57662386f26fc10000830492506010015b6305f5e1008310611e27576305f5e100830492506008015b6127108310611e3b57612710830492506004015b60648310611e4d576064830492506002015b600a83106104af5760010192915050565b6000600454611e6b600190565b611e75919061293f565b905060008211611ed55760405162461bcd60e51b815260206004820152602560248201527f4552433732315073693a207175616e74697479206d7573742062652067726561604482015264074657220360dc1b60648201526084016105b2565b6001600160a01b038316611f375760405162461bcd60e51b815260206004820152602360248201527f4552433732315073693a206d696e7420746f20746865207a65726f206164647260448201526265737360e81b60648201526084016105b2565b611f446000848385611b75565b8160046000828254611f56919061293f565b9091555050600081815260036020526040812080546001600160a01b0319166001600160a01b038616179055611f8c9082611bf0565b805b611f98838361293f565b811015610f495760405181906001600160a01b038616906000907fddf252ad1be2c89b69c2b068fc378daa952ba7f163c4a11628f55a4df523b3ef908290a480611fe181612ad0565b915050611f8e565b600881901c60008181526020849052604081205490919060ff808516919082181c801561202b57612019816120e1565b60ff168203600884901b1793506120d8565b600083116120985760405162461bcd60e51b815260206004820152603460248201527f4269744d6170733a205468652073657420626974206265666f7265207468652060448201527334b73232bc103237b2b9b713ba1032bc34b9ba1760611b60648201526084016105b2565b5060001990910160008181526020869052604090205490919080156120d3576120c0816120e1565b60ff0360ff16600884901b1793506120d8565b61202b565b50505092915050565b60006040518061012001604052806101008152602001612b84610100913960f87e818283848586878898a8b8c8d8e8f929395969799a9b9d9e9faaeb6bedeeff61212a85612159565b02901c8151811061214b57634e487b7160e01b600052603260045260246000fd5b016020015160f81c92915050565b600080821161216757600080fd5b5060008190031690565b82805461217d90612a95565b90600052602060002090601f01602090048101928261219f57600085556121e5565b82601f106121b857805160ff19168380011785556121e5565b828001600101855582156121e5579182015b828111156121e55782518255916020019190600101906121ca565b506121f19291506121f5565b5090565b5b808211156121f157600081556001016121f6565b600067ffffffffffffffff8084111561222557612225612b17565b604051601f8501601f19908116603f0116810190828211818310171561224d5761224d612b17565b8160405280935085815286868601111561226657600080fd5b858560208301376000602087830101525050509392505050565b80356001600160a01b038116811461133057600080fd5b80356004811061133057600080fd5b805169ffffffffffffffffffff8116811461133057600080fd5b6000602082840312156122d1578081fd5b6122da82612280565b9392505050565b600080604083850312156122f3578081fd5b6122fc83612280565b915061230a60208401612280565b90509250929050565b600080600060608486031215612327578081fd5b61233084612280565b925061233e60208501612280565b9150604084013590509250925092565b60008060008060808587031215612363578081fd5b61236c85612280565b935061237a60208601612280565b925060408501359150606085013567ffffffffffffffff81111561239c578182fd5b8501601f810187136123ac578182fd5b6123bb8782356020840161220a565b91505092959194509250565b600080604083850312156123d9578182fd5b6123e283612280565b9150602083013580151581146123f6578182fd5b809150509250929050565b60008060408385031215612413578182fd5b61241c83612280565b946020939093013593505050565b60008060006060848603121561243e578283fd5b61244784612280565b92506020840135915061245c60408501612297565b90509250925092565b600060208284031215612476578081fd5b81356122da81612b2d565b600060208284031215612492578081fd5b81516122da81612b2d565b6000602082840312156124ae578081fd5b6122da82612297565b6000602082840312156124c8578081fd5b5035919050565b6000602082840312156124e0578081fd5b813567ffffffffffffffff8111156124f6578182fd5b8201601f81018413612506578182fd5b61151e8482356020840161220a565b600080600080600060a0868803121561252c578283fd5b612535866122a6565b9450602086015193506040860151925060608601519150612558608087016122a6565b90509295509295909350565b6000815180845261257c816020860160208601612a52565b601f01601f19169290920160200192915050565b8054600090600181811c90808316806125aa57607f831692505b60208084108214156125ca57634e487b7160e01b86526022600452602486fd5b8180156125de57600181146125ef5761261c565b60ff1986168952848901965061261c565b60008881526020902060005b868110156126145781548b8201529085019083016125fb565b505084890196505b50505050505092915050565b6000835161263a818460208801612a52565b7f2c20226465736372697074696f6e223a2022506c61794573746174657320526f9083019081526e37b9ba32b9102bb0b9399027232a1160891b6020820152702c202261747472696275746573223a205b60781b602f8201527f7b202274726169745f74797065223a20225072696365222c202276616c75652260408201526d01d10111a902aa9a22191103e96160951b60608201527f7b202274726169745f74797065223a2022526f6f737465722057617273205479606e8201526e3832911610113b30b63ab2911d101160891b608e82015261271b609d820185612590565b61227d60f01b8152615d7d60f01b600282015260040195945050505050565b7f646174613a6170706c69636174696f6e2f6a736f6e3b6261736536342c00000081526000825161277281601d850160208701612a52565b91909101601d0192915050565b6603d9134b2111d160cd1b815285516000906127a2816007850160208b01612a52565b6a1610113730b6b2911d101160a91b60079184019182015286516127cd816012840160208b01612a52565b61202360f01b6012929091019182015285516127f0816014840160208a01612a52565b6c1116101134b6b0b3b2911d101160991b601492909101918201526128186021820186612590565b9050835161282a818360208801612a52565b641736b81a1160d91b9101908152600501979650505050505050565b6001600160a01b038581168252841660208201526040810183905260806060820181905260009061287990830184612564565b9695505050505050565b6020815260006122da6020830184612564565b60208082526035908201527f4552433732315073693a207472616e7366657220746f206e6f6e20455243373260408201527418a932b1b2b4bb32b91034b6b83632b6b2b73a32b960591b606082015260800190565b60208082526034908201527f4552433732315073693a207472616e736665722063616c6c6572206973206e6f6040820152731d081bdddb995c881b9bdc88185c1c1c9bdd995960621b606082015260800190565b6000821982111561295257612952612aeb565b500190565b60008261296657612966612b01565b600160ff1b82146000198414161561298057612980612aeb565b500590565b60008261299457612994612b01565b500490565b60006001600160ff1b03818413828413808216868404861116156129bf576129bf612aeb565b600160ff1b848712828116878305891216156129dd576129dd612aeb565b8587129250878205871284841616156129f8576129f8612aeb565b87850587128184161615612a0e57612a0e612aeb565b505050929093029392505050565b6000816000190483118215151615612a3657612a36612aeb565b500290565b600082821015612a4d57612a4d612aeb565b500390565b60005b83811015612a6d578181015183820152602001612a55565b83811115610f495750506000910152565b600081612a8d57612a8d612aeb565b506000190190565b600181811c90821680612aa957607f821691505b60208210811415612aca57634e487b7160e01b600052602260045260246000fd5b50919050565b6000600019821415612ae457612ae4612aeb565b5060010190565b634e487b7160e01b600052601160045260246000fd5b634e487b7160e01b600052601260045260246000fd5b634e487b7160e01b600052604160045260246000fd5b6001600160e01b0319811681146112b757600080fdfe4142434445464748494a4b4c4d4e4f505152535455565758595a6162636465666768696a6b6c6d6e6f707172737475767778797a303132333435363738392b2f0001020903110a19042112290b311a3905412245134d2a550c5d32651b6d3a7506264262237d468514804e8d2b95569d0d495ea533a966b11c886eb93bc176c9071727374353637324837e9b47af86c7155181ad4fd18ed32c9096db57d59ee30e2e4a6a5f92a6be3498aae067ddb2eb1d5989b56fd7baf33ca0c2ee77e5caf7ff0810182028303840444c545c646c7425617c847f8c949c48a4a8b087b8c0c816365272829aaec650acd0d28fdad4e22d6991bd97dfdcea58b4d6f29fede4f6fe0f1f2f3f4b5b6b607b8b93a3a7b7bf357199c5abcfd9e168bcdee9b3f1ecf5fd1e3e5a7a8aa2b670c4ced8bbe8f0f4fc3d79a1c3cde7effb78cce6facbf9f8a26469706673582212205d5c08cd8cc253d3a3cedb3fbb2ff306500a95155eab5ddb8375d0f54bab1e5664736f6c6343000804003368747470733a2f2f706c6179657374617465732e6d7970696e6174612e636c6f75642f697066732f516d63316a4279714d507531593157324877593958756d453270626a336e53396a5645744c5732365135343466522f",
  "linkReferences": {},
  "deployedLinkReferences": {}
}