{"contracts/tokens/PlayEstatesBrickToken.sol":{"PlayEstatesBrickToken":{"abi":[{"inputs":[{"internalType":"string","name":"symbol","type":"string"},{"internalType":"string","name":"name","type":"string"}],"stateMutability":"nonpayable","type":"constructor"},{"anonymous":false,"inputs":[{"indexed":true,"internalType":"address","name":"owner","type":"address"},{"indexed":true,"internalType":"address","name":"spender","type":"address"},{"indexed":false,"internalType":"uint256","name":"value","type":"uint256"}],"name":"Approval","type":"event"},{"anonymous":false,"inputs":[{"indexed":true,"internalType":"bytes32","name":"role","type":"bytes32"},{"indexed":true,"internalType":"bytes32","name":"previousAdminRole","type":"bytes32"},{"indexed":true,"internalType":"bytes32","name":"newAdminRole","type":"bytes32"}],"name":"RoleAdminChanged","type":"event"},{"anonymous":false,"inputs":[{"indexed":true,"internalType":"bytes32","name":"role","type":"bytes32"},{"indexed":true,"internalType":"address","name":"account","type":"address"},{"indexed":true,"internalType":"address","name":"sender","type":"address"}],"name":"RoleGranted","type":"event"},{"anonymous":false,"inputs":[{"indexed":true,"internalType":"bytes32","name":"role","type":"bytes32"},{"indexed":true,"internalType":"address","name":"account","type":"address"},{"indexed":true,"internalType":"address","name":"sender","type":"address"}],"name":"RoleRevoked","type":"event"},{"anonymous":false,"inputs":[{"indexed":true,"internalType":"address","name":"from","type":"address"},{"indexed":true,"internalType":"address","name":"to","type":"address"},{"indexed":false,"internalType":"uint256","name":"value","type":"uint256"}],"name":"Transfer","type":"event"},{"inputs":[],"name":"CONTRACT_ROLE","outputs":[{"internalType":"bytes32","name":"","type":"bytes32"}],"stateMutability":"view","type":"function"},{"inputs":[],"name":"DEFAULT_ADMIN_ROLE","outputs":[{"internalType":"bytes32","name":"","type":"bytes32"}],"stateMutability":"view","type":"function"},{"inputs":[],"name":"MINTER_ROLE","outputs":[{"internalType":"bytes32","name":"","type":"bytes32"}],"stateMutability":"view","type":"function"},{"inputs":[{"internalType":"address","name":"owner","type":"address"},{"internalType":"address","name":"spender","type":"address"}],"name":"allowance","outputs":[{"internalType":"uint256","name":"","type":"uint256"}],"stateMutability":"view","type":"function"},{"inputs":[{"internalType":"address","name":"spender","type":"address"},{"internalType":"uint256","name":"amount","type":"uint256"}],"name":"approve","outputs":[{"internalType":"bool","name":"","type":"bool"}],"stateMutability":"nonpayable","type":"function"},{"inputs":[{"internalType":"address","name":"account","type":"address"}],"name":"balanceOf","outputs":[{"internalType":"uint256","name":"","type":"uint256"}],"stateMutability":"view","type":"function"},{"inputs":[{"internalType":"address","name":"minter","type":"address"}],"name":"clearMintRole","outputs":[],"stateMutability":"nonpayable","type":"function"},{"inputs":[],"name":"decimals","outputs":[{"internalType":"uint8","name":"","type":"uint8"}],"stateMutability":"view","type":"function"},{"inputs":[{"internalType":"address","name":"spender","type":"address"},{"internalType":"uint256","name":"subtractedValue","type":"uint256"}],"name":"decreaseAllowance","outputs":[{"internalType":"bool","name":"","type":"bool"}],"stateMutability":"nonpayable","type":"function"},{"inputs":[{"internalType":"bytes32","name":"role","type":"bytes32"}],"name":"getRoleAdmin","outputs":[{"internalType":"bytes32","name":"","type":"bytes32"}],"stateMutability":"view","type":"function"},{"inputs":[{"internalType":"bytes32","name":"role","type":"bytes32"},{"internalType":"address","name":"account","type":"address"}],"name":"grantRole","outputs":[],"stateMutability":"nonpayable","type":"function"},{"inputs":[{"internalType":"bytes32","name":"role","type":"bytes32"},{"internalType":"address","name":"account","type":"address"}],"name":"hasRole","outputs":[{"internalType":"bool","name":"","type":"bool"}],"stateMutability":"view","type":"function"},{"inputs":[{"internalType":"address","name":"spender","type":"address"},{"internalType":"uint256","name":"addedValue","type":"uint256"}],"name":"increaseAllowance","outputs":[{"internalType":"bool","name":"","type":"bool"}],"stateMutability":"nonpayable","type":"function"},{"inputs":[],"name":"locked","outputs":[{"internalType":"bool","name":"","type":"bool"}],"stateMutability":"view","type":"function"},{"inputs":[{"internalType":"address","name":"to","type":"address"},{"internalType":"uint256","name":"amount","type":"uint256"}],"name":"mint","outputs":[],"stateMutability":"nonpayable","type":"function"},{"inputs":[],"name":"name","outputs":[{"internalType":"string","name":"","type":"string"}],"stateMutability":"view","type":"function"},{"inputs":[{"internalType":"bytes32","name":"role","type":"bytes32"},{"internalType":"address","name":"account","type":"address"}],"name":"renounceRole","outputs":[],"stateMutability":"nonpayable","type":"function"},{"inputs":[{"internalType":"bytes32","name":"role","type":"bytes32"},{"internalType":"address","name":"account","type":"address"}],"name":"revokeRole","outputs":[],"stateMutability":"nonpayable","type":"function"},{"inputs":[{"internalType":"address","name":"gameEngine","type":"address"}],"name":"setGameEngine","outputs":[],"stateMutability":"nonpayable","type":"function"},{"inputs":[{"internalType":"bool","name":"flag","type":"bool"}],"name":"setLock","outputs":[],"stateMutability":"nonpayable","type":"function"},{"inputs":[{"internalType":"address","name":"marketEngine","type":"address"}],"name":"setMarketplaceEngine","outputs":[],"stateMutability":"nonpayable","type":"function"},{"inputs":[{"internalType":"address","name":"minter","type":"address"}],"name":"setMintRole","outputs":[],"stateMutability":"nonpayable","type":"function"},{"inputs":[{"internalType":"bytes4","name":"interfaceId","type":"bytes4"}],"name":"supportsInterface","outputs":[{"internalType":"bool","name":"","type":"bool"}],"stateMutability":"view","type":"function"},{"inputs":[],"name":"symbol","outputs":[{"internalType":"string","name":"","type":"string"}],"stateMutability":"view","type":"function"},{"inputs":[],"name":"totalSupply","outputs":[{"internalType":"uint256","name":"","type":"uint256"}],"stateMutability":"view","type":"function"},{"inputs":[{"internalType":"address","name":"to","type":"address"},{"internalType":"uint256","name":"amount","type":"uint256"}],"name":"transfer","outputs":[{"internalType":"bool","name":"","type":"bool"}],"stateMutability":"nonpayable","type":"function"},{"inputs":[{"internalType":"address","name":"from","type":"address"},{"internalType":"address","name":"to","type":"address"},{"internalType":"uint256","name":"amount","type":"uint256"}],"name":"transferFrom","outputs":[{"internalType":"bool","name":"","type":"bool"}],"stateMutability":"nonpayable","type":"function"}],"evm":{"bytecode":{"linkReferences":{},"object":"60806040523480156200001157600080fd5b506040516200171b3803806200171b8339810160408190526200003491620002a2565b8151829082906200004d90600390602085019062000149565b5080516200006390600490602084019062000149565b506200007591506000905033620000a4565b6200008f6a4d494e5445525f524f4c4560a81b33620000a4565b50506006805460ff191660011790556200035c565b60008281526005602090815260408083206001600160a01b038516845290915290205460ff16620001455760008281526005602090815260408083206001600160a01b03851684529091529020805460ff19166001179055620001043390565b6001600160a01b0316816001600160a01b0316837f2f8788117e7eff1d82e926ec794901d17c78024a50270940304540a733656f0d60405160405180910390a45b5050565b828054620001579062000309565b90600052602060002090601f0160209004810192826200017b5760008555620001c6565b82601f106200019657805160ff1916838001178555620001c6565b82800160010185558215620001c6579182015b82811115620001c6578251825591602001919060010190620001a9565b50620001d4929150620001d8565b5090565b5b80821115620001d45760008155600101620001d9565b600082601f83011262000200578081fd5b81516001600160401b03808211156200021d576200021d62000346565b604051601f8301601f19908116603f0116810190828211818310171562000248576200024862000346565b8160405283815260209250868385880101111562000264578485fd5b8491505b8382101562000287578582018301518183018401529082019062000268565b838211156200029857848385830101525b9695505050505050565b60008060408385031215620002b5578182fd5b82516001600160401b0380821115620002cc578384fd5b620002da86838701620001ef565b93506020850151915080821115620002f0578283fd5b50620002ff85828601620001ef565b9150509250929050565b600181811c908216806200031e57607f821691505b602082108114156200034057634e487b7160e01b600052602260045260246000fd5b50919050565b634e487b7160e01b600052604160045260246000fd5b6113af806200036c6000396000f3fe608060405234801561001057600080fd5b50600436106101a95760003560e01c806350371095116100f9578063a457c2d711610097578063d539139311610071578063d539139314610376578063d547741f1461038b578063dd62ed3e1461039e578063e57c9c5e146103b157600080fd5b8063a457c2d714610343578063a9059cbb14610356578063cf3090121461036957600080fd5b806370a08231116100d357806370a08231146102f757806391d148541461032057806395d89b4114610333578063a217fddf1461033b57600080fd5b80635037109514610261578063530dd079146102d1578063619d5194146102e457600080fd5b8063248a9ca311610166578063313ce56711610140578063313ce5671461028957806336568abe1461029857806339509351146102ab57806340c10f19146102be57600080fd5b8063248a9ca31461023e5780632bf18ae0146102615780632f2ff15d1461027657600080fd5b806301ffc9a7146101ae57806303fe46ab146101d657806306fdde03146101fb578063095ea7b31461021057806318160ddd1461022357806323b872dd1461022b575b600080fd5b6101c16101bc3660046110f0565b6103c4565b60405190151581526020015b60405180910390f35b6101ed6c434f4e54524143545f524f4c4560981b81565b6040519081526020016101cd565b6102036103fb565b6040516101cd919061118d565b6101c161021e36600461106d565b61048d565b6002546101ed565b6101c1610239366004611032565b6104a5565b6101ed61024c3660046110b6565b60009081526005602052604090206001015490565b61027461026f366004610fe6565b6104c9565b005b6102746102843660046110ce565b6104f2565b604051600081526020016101cd565b6102746102a63660046110ce565b61051c565b6101c16102b936600461106d565b61059b565b6102746102cc36600461106d565b6105bd565b6102746102df366004610fe6565b6105f4565b6102746102f2366004611096565b610617565b6101ed610305366004610fe6565b6001600160a01b031660009081526020819052604090205490565b6101c161032e3660046110ce565b610636565b610203610661565b6101ed600081565b6101c161035136600461106d565b610670565b6101c161036436600461106d565b6106eb565b6006546101c19060ff1681565b6101ed6a4d494e5445525f524f4c4560a81b81565b6102746103993660046110ce565b6106f9565b6101ed6103ac366004611000565b61071e565b6102746103bf366004610fe6565b610749565b60006001600160e01b03198216637965db0b60e01b14806103f557506301ffc9a760e01b6001600160e01b03198316145b92915050565b60606003805461040a90611328565b80601f016020809104026020016040519081016040528092919081815260200182805461043690611328565b80156104835780601f1061045857610100808354040283529160200191610483565b820191906000526020600020905b81548152906001019060200180831161046657829003601f168201915b5050505050905090565b60003361049b81858561076c565b5060019392505050565b6000336104b3858285610890565b6104be85858561090a565b506001949350505050565b60006104d481610ab9565b6104ee6c434f4e54524143545f524f4c4560981b83610ac6565b5050565b60008281526005602052604090206001015461050d81610ab9565b6105178383610ac6565b505050565b6001600160a01b03811633146105915760405162461bcd60e51b815260206004820152602f60248201527f416363657373436f6e74726f6c3a2063616e206f6e6c792072656e6f756e636560448201526e103937b632b9903337b91039b2b63360891b60648201526084015b60405180910390fd5b6104ee8282610b4c565b60003361049b8185856105ae838361071e565b6105b891906111c0565b61076c565b6a4d494e5445525f524f4c4560a81b6105d581610ab9565b610517836105e56000600a61121b565b6105ef90856112c6565b610bb3565b60006105ff81610ab9565b6104ee6a4d494e5445525f524f4c4560a81b83610ac6565b600061062281610ab9565b506006805460ff1916911515919091179055565b60009182526005602090815260408084206001600160a01b0393909316845291905290205460ff1690565b60606004805461040a90611328565b6000338161067e828661071e565b9050838110156106de5760405162461bcd60e51b815260206004820152602560248201527f45524332303a2064656372656173656420616c6c6f77616e63652062656c6f77604482015264207a65726f60d81b6064820152608401610588565b6104be828686840361076c565b60003361049b81858561090a565b60008281526005602052604090206001015461071481610ab9565b6105178383610b4c565b6001600160a01b03918216600090815260016020908152604080832093909416825291909152205490565b600061075481610ab9565b6104ee6a4d494e5445525f524f4c4560a81b83610b4c565b6001600160a01b0383166107ce5760405162461bcd60e51b8152602060048201526024808201527f45524332303a20617070726f76652066726f6d20746865207a65726f206164646044820152637265737360e01b6064820152608401610588565b6001600160a01b03821661082f5760405162461bcd60e51b815260206004820152602260248201527f45524332303a20617070726f766520746f20746865207a65726f206164647265604482015261737360f01b6064820152608401610588565b6001600160a01b0383811660008181526001602090815260408083209487168084529482529182902085905590518481527f8c5be1e5ebec7d5bd14f71427d1e84f3dd0314c0f7b2291e5b200ac8c7c3b925910160405180910390a3505050565b600061089c848461071e565b9050600019811461090457818110156108f75760405162461bcd60e51b815260206004820152601d60248201527f45524332303a20696e73756666696369656e7420616c6c6f77616e63650000006044820152606401610588565b610904848484840361076c565b50505050565b6001600160a01b03831661096e5760405162461bcd60e51b815260206004820152602560248201527f45524332303a207472616e736665722066726f6d20746865207a65726f206164604482015264647265737360d81b6064820152608401610588565b6001600160a01b0382166109d05760405162461bcd60e51b815260206004820152602360248201527f45524332303a207472616e7366657220746f20746865207a65726f206164647260448201526265737360e81b6064820152608401610588565b6109db838383610c7e565b6001600160a01b03831660009081526020819052604090205481811015610a535760405162461bcd60e51b815260206004820152602660248201527f45524332303a207472616e7366657220616d6f756e7420657863656564732062604482015265616c616e636560d01b6064820152608401610588565b6001600160a01b03848116600081815260208181526040808320878703905593871680835291849020805487019055925185815290927fddf252ad1be2c89b69c2b068fc378daa952ba7f163c4a11628f55a4df523b3ef910160405180910390a3610904565b610ac38133610d76565b50565b610ad08282610636565b6104ee5760008281526005602090815260408083206001600160a01b03851684529091529020805460ff19166001179055610b083390565b6001600160a01b0316816001600160a01b0316837f2f8788117e7eff1d82e926ec794901d17c78024a50270940304540a733656f0d60405160405180910390a45050565b610b568282610636565b156104ee5760008281526005602090815260408083206001600160a01b0385168085529252808320805460ff1916905551339285917ff6391f5c32d9c69d2a47ea670b442974b53935d1edc7fd64eb21e047a839171b9190a45050565b6001600160a01b038216610c095760405162461bcd60e51b815260206004820152601f60248201527f45524332303a206d696e7420746f20746865207a65726f2061646472657373006044820152606401610588565b610c1560008383610c7e565b8060026000828254610c2791906111c0565b90915550506001600160a01b038216600081815260208181526040808320805486019055518481527fddf252ad1be2c89b69c2b068fc378daa952ba7f163c4a11628f55a4df523b3ef910160405180910390a35050565b80610c8857505050565b6001600160a01b0383161580610ca557506001600160a01b038216155b15610caf57505050565b610cc96c434f4e54524143545f524f4c4560981b84610636565b80610ce95750610ce96c434f4e54524143545f524f4c4560981b83610636565b15610cf357505050565b610d0d6c434f4e54524143545f524f4c4560981b33610636565b15610d1757505050565b60065460ff16156105175760405162461bcd60e51b815260206004820152602360248201527f50425254206973206c6f636b6564206265747765656e20757365722077616c6c60448201526265747360e81b6064820152608401610588565b610d808282610636565b6104ee57610d8d81610dcf565b610d98836020610de1565b604051602001610da9929190611118565b60408051601f198184030181529082905262461bcd60e51b82526105889160040161118d565b60606103f56001600160a01b03831660145b60606000610df08360026112c6565b610dfb9060026111c0565b67ffffffffffffffff811115610e2157634e487b7160e01b600052604160045260246000fd5b6040519080825280601f01601f191660200182016040528015610e4b576020820181803683370190505b509050600360fc1b81600081518110610e7457634e487b7160e01b600052603260045260246000fd5b60200101906001600160f81b031916908160001a905350600f60fb1b81600181518110610eb157634e487b7160e01b600052603260045260246000fd5b60200101906001600160f81b031916908160001a9053506000610ed58460026112c6565b610ee09060016111c0565b90505b6001811115610f74576f181899199a1a9b1b9c1cb0b131b232b360811b85600f1660108110610f2257634e487b7160e01b600052603260045260246000fd5b1a60f81b828281518110610f4657634e487b7160e01b600052603260045260246000fd5b60200101906001600160f81b031916908160001a90535060049490941c93610f6d81611311565b9050610ee3565b508315610fc35760405162461bcd60e51b815260206004820181905260248201527f537472696e67733a20686578206c656e67746820696e73756666696369656e746044820152606401610588565b9392505050565b80356001600160a01b0381168114610fe157600080fd5b919050565b600060208284031215610ff7578081fd5b610fc382610fca565b60008060408385031215611012578081fd5b61101b83610fca565b915061102960208401610fca565b90509250929050565b600080600060608486031215611046578081fd5b61104f84610fca565b925061105d60208501610fca565b9150604084013590509250925092565b6000806040838503121561107f578182fd5b61108883610fca565b946020939093013593505050565b6000602082840312156110a7578081fd5b81358015158114610fc3578182fd5b6000602082840312156110c7578081fd5b5035919050565b600080604083850312156110e0578182fd5b8235915061102960208401610fca565b600060208284031215611101578081fd5b81356001600160e01b031981168114610fc3578182fd5b7f416363657373436f6e74726f6c3a206163636f756e74200000000000000000008152600083516111508160178501602088016112e5565b7001034b99036b4b9b9b4b733903937b6329607d1b60179184019182015283516111818160288401602088016112e5565b01602801949350505050565b60208152600082518060208401526111ac8160408501602087016112e5565b601f01601f19169190910160400192915050565b600082198211156111d3576111d3611363565b500190565b600181815b808511156112135781600019048211156111f9576111f9611363565b8085161561120657918102915b93841c93908002906111dd565b509250929050565b6000610fc360ff841683600082611234575060016103f5565b81611241575060006103f5565b816001811461125757600281146112615761127d565b60019150506103f5565b60ff84111561127257611272611363565b50506001821b6103f5565b5060208310610133831016604e8410600b84101617156112a0575081810a6103f5565b6112aa83836111d8565b80600019048211156112be576112be611363565b029392505050565b60008160001904831182151516156112e0576112e0611363565b500290565b60005b838110156113005781810151838201526020016112e8565b838111156109045750506000910152565b60008161132057611320611363565b506000190190565b600181811c9082168061133c57607f821691505b6020821081141561135d57634e487b7160e01b600052602260045260246000fd5b50919050565b634e487b7160e01b600052601160045260246000fdfea264697066735822122074b11200e519d9561ea72c54670305f2db74929d8a25d3934d6d5b7657676b1f64736f6c63430008040033","opcodes":"PUSH1 0x80 PUSH1 0x40 MSTORE CALLVALUE DUP1 ISZERO PUSH3 0x11 JUMPI PUSH1 0x0 DUP1 REVERT JUMPDEST POP PUSH1 0x40 MLOAD PUSH3 0x171B CODESIZE SUB DUP1 PUSH3 0x171B DUP4 CODECOPY DUP2 ADD PUSH1 0x40 DUP2 SWAP1 MSTORE PUSH3 0x34 SWAP2 PUSH3 0x2A2 JUMP JUMPDEST DUP2 MLOAD DUP3 SWAP1 DUP3 SWAP1 PUSH3 0x4D SWAP1 PUSH1 0x3 SWAP1 PUSH1 0x20 DUP6 ADD SWAP1 PUSH3 0x149 JUMP JUMPDEST POP DUP1 MLOAD PUSH3 0x63 SWAP1 PUSH1 0x4 SWAP1 PUSH1 0x20 DUP5 ADD SWAP1 PUSH3 0x149 JUMP JUMPDEST POP PUSH3 0x75 SWAP2 POP PUSH1 0x0 SWAP1 POP CALLER PUSH3 0xA4 JUMP JUMPDEST PUSH3 0x8F PUSH11 0x4D494E5445525F524F4C45 PUSH1 0xA8 SHL CALLER PUSH3 0xA4 JUMP JUMPDEST POP POP PUSH1 0x6 DUP1 SLOAD PUSH1 0xFF NOT AND PUSH1 0x1 OR SWAP1 SSTORE PUSH3 0x35C JUMP JUMPDEST PUSH1 0x0 DUP3 DUP2 MSTORE PUSH1 0x5 PUSH1 0x20 SWAP1 DUP2 MSTORE PUSH1 0x40 DUP1 DUP4 KECCAK256 PUSH1 0x1 PUSH1 0x1 PUSH1 0xA0 SHL SUB DUP6 AND DUP5 MSTORE SWAP1 SWAP2 MSTORE SWAP1 KECCAK256 SLOAD PUSH1 0xFF AND PUSH3 0x145 JUMPI PUSH1 0x0 DUP3 DUP2 MSTORE PUSH1 0x5 PUSH1 0x20 SWAP1 DUP2 MSTORE PUSH1 0x40 DUP1 DUP4 KECCAK256 PUSH1 0x1 PUSH1 0x1 PUSH1 0xA0 SHL SUB DUP6 AND DUP5 MSTORE SWAP1 SWAP2 MSTORE SWAP1 KECCAK256 DUP1 SLOAD PUSH1 0xFF NOT AND PUSH1 0x1 OR SWAP1 SSTORE PUSH3 0x104 CALLER SWAP1 JUMP JUMPDEST PUSH1 0x1 PUSH1 0x1 PUSH1 0xA0 SHL SUB AND DUP2 PUSH1 0x1 PUSH1 0x1 PUSH1 0xA0 SHL SUB AND DUP4 PUSH32 0x2F8788117E7EFF1D82E926EC794901D17C78024A50270940304540A733656F0D PUSH1 0x40 MLOAD PUSH1 0x40 MLOAD DUP1 SWAP2 SUB SWAP1 LOG4 JUMPDEST POP POP JUMP JUMPDEST DUP3 DUP1 SLOAD PUSH3 0x157 SWAP1 PUSH3 0x309 JUMP JUMPDEST SWAP1 PUSH1 0x0 MSTORE PUSH1 0x20 PUSH1 0x0 KECCAK256 SWAP1 PUSH1 0x1F ADD PUSH1 0x20 SWAP1 DIV DUP2 ADD SWAP3 DUP3 PUSH3 0x17B JUMPI PUSH1 0x0 DUP6 SSTORE PUSH3 0x1C6 JUMP JUMPDEST DUP3 PUSH1 0x1F LT PUSH3 0x196 JUMPI DUP1 MLOAD PUSH1 0xFF NOT AND DUP4 DUP1 ADD OR DUP6 SSTORE PUSH3 0x1C6 JUMP JUMPDEST DUP3 DUP1 ADD PUSH1 0x1 ADD DUP6 SSTORE DUP3 ISZERO PUSH3 0x1C6 JUMPI SWAP2 DUP3 ADD JUMPDEST DUP3 DUP2 GT ISZERO PUSH3 0x1C6 JUMPI DUP3 MLOAD DUP3 SSTORE SWAP2 PUSH1 0x20 ADD SWAP2 SWAP1 PUSH1 0x1 ADD SWAP1 PUSH3 0x1A9 JUMP JUMPDEST POP PUSH3 0x1D4 SWAP3 SWAP2 POP PUSH3 0x1D8 JUMP JUMPDEST POP SWAP1 JUMP JUMPDEST JUMPDEST DUP1 DUP3 GT ISZERO PUSH3 0x1D4 JUMPI PUSH1 0x0 DUP2 SSTORE PUSH1 0x1 ADD PUSH3 0x1D9 JUMP JUMPDEST PUSH1 0x0 DUP3 PUSH1 0x1F DUP4 ADD SLT PUSH3 0x200 JUMPI DUP1 DUP2 REVERT JUMPDEST DUP2 MLOAD PUSH1 0x1 PUSH1 0x1 PUSH1 0x40 SHL SUB DUP1 DUP3 GT ISZERO PUSH3 0x21D JUMPI PUSH3 0x21D PUSH3 0x346 JUMP JUMPDEST PUSH1 0x40 MLOAD PUSH1 0x1F DUP4 ADD PUSH1 0x1F NOT SWAP1 DUP2 AND PUSH1 0x3F ADD AND DUP2 ADD SWAP1 DUP3 DUP3 GT DUP2 DUP4 LT OR ISZERO PUSH3 0x248 JUMPI PUSH3 0x248 PUSH3 0x346 JUMP JUMPDEST DUP2 PUSH1 0x40 MSTORE DUP4 DUP2 MSTORE PUSH1 0x20 SWAP3 POP DUP7 DUP4 DUP6 DUP9 ADD ADD GT ISZERO PUSH3 0x264 JUMPI DUP5 DUP6 REVERT JUMPDEST DUP5 SWAP2 POP JUMPDEST DUP4 DUP3 LT ISZERO PUSH3 0x287 JUMPI DUP6 DUP3 ADD DUP4 ADD MLOAD DUP2 DUP4 ADD DUP5 ADD MSTORE SWAP1 DUP3 ADD SWAP1 PUSH3 0x268 JUMP JUMPDEST DUP4 DUP3 GT ISZERO PUSH3 0x298 JUMPI DUP5 DUP4 DUP6 DUP4 ADD ADD MSTORE JUMPDEST SWAP7 SWAP6 POP POP POP POP POP POP JUMP JUMPDEST PUSH1 0x0 DUP1 PUSH1 0x40 DUP4 DUP6 SUB SLT ISZERO PUSH3 0x2B5 JUMPI DUP2 DUP3 REVERT JUMPDEST DUP3 MLOAD PUSH1 0x1 PUSH1 0x1 PUSH1 0x40 SHL SUB DUP1 DUP3 GT ISZERO PUSH3 0x2CC JUMPI DUP4 DUP5 REVERT JUMPDEST PUSH3 0x2DA DUP7 DUP4 DUP8 ADD PUSH3 0x1EF JUMP JUMPDEST SWAP4 POP PUSH1 0x20 DUP6 ADD MLOAD SWAP2 POP DUP1 DUP3 GT ISZERO PUSH3 0x2F0 JUMPI DUP3 DUP4 REVERT JUMPDEST POP PUSH3 0x2FF DUP6 DUP3 DUP7 ADD PUSH3 0x1EF JUMP JUMPDEST SWAP2 POP POP SWAP3 POP SWAP3 SWAP1 POP JUMP JUMPDEST PUSH1 0x1 DUP2 DUP2 SHR SWAP1 DUP3 AND DUP1 PUSH3 0x31E JUMPI PUSH1 0x7F DUP3 AND SWAP2 POP JUMPDEST PUSH1 0x20 DUP3 LT DUP2 EQ ISZERO PUSH3 0x340 JUMPI PUSH4 0x4E487B71 PUSH1 0xE0 SHL PUSH1 0x0 MSTORE PUSH1 0x22 PUSH1 0x4 MSTORE PUSH1 0x24 PUSH1 0x0 REVERT JUMPDEST POP SWAP2 SWAP1 POP JUMP JUMPDEST PUSH4 0x4E487B71 PUSH1 0xE0 SHL PUSH1 0x0 MSTORE PUSH1 0x41 PUSH1 0x4 MSTORE PUSH1 0x24 PUSH1 0x0 REVERT JUMPDEST PUSH2 0x13AF DUP1 PUSH3 0x36C PUSH1 0x0 CODECOPY PUSH1 0x0 RETURN INVALID PUSH1 0x80 PUSH1 0x40 MSTORE CALLVALUE DUP1 ISZERO PUSH2 0x10 JUMPI PUSH1 0x0 DUP1 REVERT JUMPDEST POP PUSH1 0x4 CALLDATASIZE LT PUSH2 0x1A9 JUMPI PUSH1 0x0 CALLDATALOAD PUSH1 0xE0 SHR DUP1 PUSH4 0x50371095 GT PUSH2 0xF9 JUMPI DUP1 PUSH4 0xA457C2D7 GT PUSH2 0x97 JUMPI DUP1 PUSH4 0xD5391393 GT PUSH2 0x71 JUMPI DUP1 PUSH4 0xD5391393 EQ PUSH2 0x376 JUMPI DUP1 PUSH4 0xD547741F EQ PUSH2 0x38B JUMPI DUP1 PUSH4 0xDD62ED3E EQ PUSH2 0x39E JUMPI DUP1 PUSH4 0xE57C9C5E EQ PUSH2 0x3B1 JUMPI PUSH1 0x0 DUP1 REVERT JUMPDEST DUP1 PUSH4 0xA457C2D7 EQ PUSH2 0x343 JUMPI DUP1 PUSH4 0xA9059CBB EQ PUSH2 0x356 JUMPI DUP1 PUSH4 0xCF309012 EQ PUSH2 0x369 JUMPI PUSH1 0x0 DUP1 REVERT JUMPDEST DUP1 PUSH4 0x70A08231 GT PUSH2 0xD3 JUMPI DUP1 PUSH4 0x70A08231 EQ PUSH2 0x2F7 JUMPI DUP1 PUSH4 0x91D14854 EQ PUSH2 0x320 JUMPI DUP1 PUSH4 0x95D89B41 EQ PUSH2 0x333 JUMPI DUP1 PUSH4 0xA217FDDF EQ PUSH2 0x33B JUMPI PUSH1 0x0 DUP1 REVERT JUMPDEST DUP1 PUSH4 0x50371095 EQ PUSH2 0x261 JUMPI DUP1 PUSH4 0x530DD079 EQ PUSH2 0x2D1 JUMPI DUP1 PUSH4 0x619D5194 EQ PUSH2 0x2E4 JUMPI PUSH1 0x0 DUP1 REVERT JUMPDEST DUP1 PUSH4 0x248A9CA3 GT PUSH2 0x166 JUMPI DUP1 PUSH4 0x313CE567 GT PUSH2 0x140 JUMPI DUP1 PUSH4 0x313CE567 EQ PUSH2 0x289 JUMPI DUP1 PUSH4 0x36568ABE EQ PUSH2 0x298 JUMPI DUP1 PUSH4 0x39509351 EQ PUSH2 0x2AB JUMPI DUP1 PUSH4 0x40C10F19 EQ PUSH2 0x2BE JUMPI PUSH1 0x0 DUP1 REVERT JUMPDEST DUP1 PUSH4 0x248A9CA3 EQ PUSH2 0x23E JUMPI DUP1 PUSH4 0x2BF18AE0 EQ PUSH2 0x261 JUMPI DUP1 PUSH4 0x2F2FF15D EQ PUSH2 0x276 JUMPI PUSH1 0x0 DUP1 REVERT JUMPDEST DUP1 PUSH4 0x1FFC9A7 EQ PUSH2 0x1AE JUMPI DUP1 PUSH4 0x3FE46AB EQ PUSH2 0x1D6 JUMPI DUP1 PUSH4 0x6FDDE03 EQ PUSH2 0x1FB JUMPI DUP1 PUSH4 0x95EA7B3 EQ PUSH2 0x210 JUMPI DUP1 PUSH4 0x18160DDD EQ PUSH2 0x223 JUMPI DUP1 PUSH4 0x23B872DD EQ PUSH2 0x22B JUMPI JUMPDEST PUSH1 0x0 DUP1 REVERT JUMPDEST PUSH2 0x1C1 PUSH2 0x1BC CALLDATASIZE PUSH1 0x4 PUSH2 0x10F0 JUMP JUMPDEST PUSH2 0x3C4 JUMP JUMPDEST PUSH1 0x40 MLOAD SWAP1 ISZERO ISZERO DUP2 MSTORE PUSH1 0x20 ADD JUMPDEST PUSH1 0x40 MLOAD DUP1 SWAP2 SUB SWAP1 RETURN JUMPDEST PUSH2 0x1ED PUSH13 0x434F4E54524143545F524F4C45 PUSH1 0x98 SHL DUP2 JUMP JUMPDEST PUSH1 0x40 MLOAD SWAP1 DUP2 MSTORE PUSH1 0x20 ADD PUSH2 0x1CD JUMP JUMPDEST PUSH2 0x203 PUSH2 0x3FB JUMP JUMPDEST PUSH1 0x40 MLOAD PUSH2 0x1CD SWAP2 SWAP1 PUSH2 0x118D JUMP JUMPDEST PUSH2 0x1C1 PUSH2 0x21E CALLDATASIZE PUSH1 0x4 PUSH2 0x106D JUMP JUMPDEST PUSH2 0x48D JUMP JUMPDEST PUSH1 0x2 SLOAD PUSH2 0x1ED JUMP JUMPDEST PUSH2 0x1C1 PUSH2 0x239 CALLDATASIZE PUSH1 0x4 PUSH2 0x1032 JUMP JUMPDEST PUSH2 0x4A5 JUMP JUMPDEST PUSH2 0x1ED PUSH2 0x24C CALLDATASIZE PUSH1 0x4 PUSH2 0x10B6 JUMP JUMPDEST PUSH1 0x0 SWAP1 DUP2 MSTORE PUSH1 0x5 PUSH1 0x20 MSTORE PUSH1 0x40 SWAP1 KECCAK256 PUSH1 0x1 ADD SLOAD SWAP1 JUMP JUMPDEST PUSH2 0x274 PUSH2 0x26F CALLDATASIZE PUSH1 0x4 PUSH2 0xFE6 JUMP JUMPDEST PUSH2 0x4C9 JUMP JUMPDEST STOP JUMPDEST PUSH2 0x274 PUSH2 0x284 CALLDATASIZE PUSH1 0x4 PUSH2 0x10CE JUMP JUMPDEST PUSH2 0x4F2 JUMP JUMPDEST PUSH1 0x40 MLOAD PUSH1 0x0 DUP2 MSTORE PUSH1 0x20 ADD PUSH2 0x1CD JUMP JUMPDEST PUSH2 0x274 PUSH2 0x2A6 CALLDATASIZE PUSH1 0x4 PUSH2 0x10CE JUMP JUMPDEST PUSH2 0x51C JUMP JUMPDEST PUSH2 0x1C1 PUSH2 0x2B9 CALLDATASIZE PUSH1 0x4 PUSH2 0x106D JUMP JUMPDEST PUSH2 0x59B JUMP JUMPDEST PUSH2 0x274 PUSH2 0x2CC CALLDATASIZE PUSH1 0x4 PUSH2 0x106D JUMP JUMPDEST PUSH2 0x5BD JUMP JUMPDEST PUSH2 0x274 PUSH2 0x2DF CALLDATASIZE PUSH1 0x4 PUSH2 0xFE6 JUMP JUMPDEST PUSH2 0x5F4 JUMP JUMPDEST PUSH2 0x274 PUSH2 0x2F2 CALLDATASIZE PUSH1 0x4 PUSH2 0x1096 JUMP JUMPDEST PUSH2 0x617 JUMP JUMPDEST PUSH2 0x1ED PUSH2 0x305 CALLDATASIZE PUSH1 0x4 PUSH2 0xFE6 JUMP JUMPDEST PUSH1 0x1 PUSH1 0x1 PUSH1 0xA0 SHL SUB AND PUSH1 0x0 SWAP1 DUP2 MSTORE PUSH1 0x20 DUP2 SWAP1 MSTORE PUSH1 0x40 SWAP1 KECCAK256 SLOAD SWAP1 JUMP JUMPDEST PUSH2 0x1C1 PUSH2 0x32E CALLDATASIZE PUSH1 0x4 PUSH2 0x10CE JUMP JUMPDEST PUSH2 0x636 JUMP JUMPDEST PUSH2 0x203 PUSH2 0x661 JUMP JUMPDEST PUSH2 0x1ED PUSH1 0x0 DUP2 JUMP JUMPDEST PUSH2 0x1C1 PUSH2 0x351 CALLDATASIZE PUSH1 0x4 PUSH2 0x106D JUMP JUMPDEST PUSH2 0x670 JUMP JUMPDEST PUSH2 0x1C1 PUSH2 0x364 CALLDATASIZE PUSH1 0x4 PUSH2 0x106D JUMP JUMPDEST PUSH2 0x6EB JUMP JUMPDEST PUSH1 0x6 SLOAD PUSH2 0x1C1 SWAP1 PUSH1 0xFF AND DUP2 JUMP JUMPDEST PUSH2 0x1ED PUSH11 0x4D494E5445525F524F4C45 PUSH1 0xA8 SHL DUP2 JUMP JUMPDEST PUSH2 0x274 PUSH2 0x399 CALLDATASIZE PUSH1 0x4 PUSH2 0x10CE JUMP JUMPDEST PUSH2 0x6F9 JUMP JUMPDEST PUSH2 0x1ED PUSH2 0x3AC CALLDATASIZE PUSH1 0x4 PUSH2 0x1000 JUMP JUMPDEST PUSH2 0x71E JUMP JUMPDEST PUSH2 0x274 PUSH2 0x3BF CALLDATASIZE PUSH1 0x4 PUSH2 0xFE6 JUMP JUMPDEST PUSH2 0x749 JUMP JUMPDEST PUSH1 0x0 PUSH1 0x1 PUSH1 0x1 PUSH1 0xE0 SHL SUB NOT DUP3 AND PUSH4 0x7965DB0B PUSH1 0xE0 SHL EQ DUP1 PUSH2 0x3F5 JUMPI POP PUSH4 0x1FFC9A7 PUSH1 0xE0 SHL PUSH1 0x1 PUSH1 0x1 PUSH1 0xE0 SHL SUB NOT DUP4 AND EQ JUMPDEST SWAP3 SWAP2 POP POP JUMP JUMPDEST PUSH1 0x60 PUSH1 0x3 DUP1 SLOAD PUSH2 0x40A SWAP1 PUSH2 0x1328 JUMP JUMPDEST DUP1 PUSH1 0x1F ADD PUSH1 0x20 DUP1 SWAP2 DIV MUL PUSH1 0x20 ADD PUSH1 0x40 MLOAD SWAP1 DUP2 ADD PUSH1 0x40 MSTORE DUP1 SWAP3 SWAP2 SWAP1 DUP2 DUP2 MSTORE PUSH1 0x20 ADD DUP3 DUP1 SLOAD PUSH2 0x436 SWAP1 PUSH2 0x1328 JUMP JUMPDEST DUP1 ISZERO PUSH2 0x483 JUMPI DUP1 PUSH1 0x1F LT PUSH2 0x458 JUMPI PUSH2 0x100 DUP1 DUP4 SLOAD DIV MUL DUP4 MSTORE SWAP2 PUSH1 0x20 ADD SWAP2 PUSH2 0x483 JUMP JUMPDEST DUP3 ADD SWAP2 SWAP1 PUSH1 0x0 MSTORE PUSH1 0x20 PUSH1 0x0 KECCAK256 SWAP1 JUMPDEST DUP2 SLOAD DUP2 MSTORE SWAP1 PUSH1 0x1 ADD SWAP1 PUSH1 0x20 ADD DUP1 DUP4 GT PUSH2 0x466 JUMPI DUP3 SWAP1 SUB PUSH1 0x1F AND DUP3 ADD SWAP2 JUMPDEST POP POP POP POP POP SWAP1 POP SWAP1 JUMP JUMPDEST PUSH1 0x0 CALLER PUSH2 0x49B DUP2 DUP6 DUP6 PUSH2 0x76C JUMP JUMPDEST POP PUSH1 0x1 SWAP4 SWAP3 POP POP POP JUMP JUMPDEST PUSH1 0x0 CALLER PUSH2 0x4B3 DUP6 DUP3 DUP6 PUSH2 0x890 JUMP JUMPDEST PUSH2 0x4BE DUP6 DUP6 DUP6 PUSH2 0x90A JUMP JUMPDEST POP PUSH1 0x1 SWAP5 SWAP4 POP POP POP POP JUMP JUMPDEST PUSH1 0x0 PUSH2 0x4D4 DUP2 PUSH2 0xAB9 JUMP JUMPDEST PUSH2 0x4EE PUSH13 0x434F4E54524143545F524F4C45 PUSH1 0x98 SHL DUP4 PUSH2 0xAC6 JUMP JUMPDEST POP POP JUMP JUMPDEST PUSH1 0x0 DUP3 DUP2 MSTORE PUSH1 0x5 PUSH1 0x20 MSTORE PUSH1 0x40 SWAP1 KECCAK256 PUSH1 0x1 ADD SLOAD PUSH2 0x50D DUP2 PUSH2 0xAB9 JUMP JUMPDEST PUSH2 0x517 DUP4 DUP4 PUSH2 0xAC6 JUMP JUMPDEST POP POP POP JUMP JUMPDEST PUSH1 0x1 PUSH1 0x1 PUSH1 0xA0 SHL SUB DUP2 AND CALLER EQ PUSH2 0x591 JUMPI PUSH1 0x40 MLOAD PUSH3 0x461BCD PUSH1 0xE5 SHL DUP2 MSTORE PUSH1 0x20 PUSH1 0x4 DUP3 ADD MSTORE PUSH1 0x2F PUSH1 0x24 DUP3 ADD MSTORE PUSH32 0x416363657373436F6E74726F6C3A2063616E206F6E6C792072656E6F756E6365 PUSH1 0x44 DUP3 ADD MSTORE PUSH15 0x103937B632B9903337B91039B2B633 PUSH1 0x89 SHL PUSH1 0x64 DUP3 ADD MSTORE PUSH1 0x84 ADD JUMPDEST PUSH1 0x40 MLOAD DUP1 SWAP2 SUB SWAP1 REVERT JUMPDEST PUSH2 0x4EE DUP3 DUP3 PUSH2 0xB4C JUMP JUMPDEST PUSH1 0x0 CALLER PUSH2 0x49B DUP2 DUP6 DUP6 PUSH2 0x5AE DUP4 DUP4 PUSH2 0x71E JUMP JUMPDEST PUSH2 0x5B8 SWAP2 SWAP1 PUSH2 0x11C0 JUMP JUMPDEST PUSH2 0x76C JUMP JUMPDEST PUSH11 0x4D494E5445525F524F4C45 PUSH1 0xA8 SHL PUSH2 0x5D5 DUP2 PUSH2 0xAB9 JUMP JUMPDEST PUSH2 0x517 DUP4 PUSH2 0x5E5 PUSH1 0x0 PUSH1 0xA PUSH2 0x121B JUMP JUMPDEST PUSH2 0x5EF SWAP1 DUP6 PUSH2 0x12C6 JUMP JUMPDEST PUSH2 0xBB3 JUMP JUMPDEST PUSH1 0x0 PUSH2 0x5FF DUP2 PUSH2 0xAB9 JUMP JUMPDEST PUSH2 0x4EE PUSH11 0x4D494E5445525F524F4C45 PUSH1 0xA8 SHL DUP4 PUSH2 0xAC6 JUMP JUMPDEST PUSH1 0x0 PUSH2 0x622 DUP2 PUSH2 0xAB9 JUMP JUMPDEST POP PUSH1 0x6 DUP1 SLOAD PUSH1 0xFF NOT AND SWAP2 ISZERO ISZERO SWAP2 SWAP1 SWAP2 OR SWAP1 SSTORE JUMP JUMPDEST PUSH1 0x0 SWAP2 DUP3 MSTORE PUSH1 0x5 PUSH1 0x20 SWAP1 DUP2 MSTORE PUSH1 0x40 DUP1 DUP5 KECCAK256 PUSH1 0x1 PUSH1 0x1 PUSH1 0xA0 SHL SUB SWAP4 SWAP1 SWAP4 AND DUP5 MSTORE SWAP2 SWAP1 MSTORE SWAP1 KECCAK256 SLOAD PUSH1 0xFF AND SWAP1 JUMP JUMPDEST PUSH1 0x60 PUSH1 0x4 DUP1 SLOAD PUSH2 0x40A SWAP1 PUSH2 0x1328 JUMP JUMPDEST PUSH1 0x0 CALLER DUP2 PUSH2 0x67E DUP3 DUP7 PUSH2 0x71E JUMP JUMPDEST SWAP1 POP DUP4 DUP2 LT ISZERO PUSH2 0x6DE JUMPI PUSH1 0x40 MLOAD PUSH3 0x461BCD PUSH1 0xE5 SHL DUP2 MSTORE PUSH1 0x20 PUSH1 0x4 DUP3 ADD MSTORE PUSH1 0x25 PUSH1 0x24 DUP3 ADD MSTORE PUSH32 0x45524332303A2064656372656173656420616C6C6F77616E63652062656C6F77 PUSH1 0x44 DUP3 ADD MSTORE PUSH5 0x207A65726F PUSH1 0xD8 SHL PUSH1 0x64 DUP3 ADD MSTORE PUSH1 0x84 ADD PUSH2 0x588 JUMP JUMPDEST PUSH2 0x4BE DUP3 DUP7 DUP7 DUP5 SUB PUSH2 0x76C JUMP JUMPDEST PUSH1 0x0 CALLER PUSH2 0x49B DUP2 DUP6 DUP6 PUSH2 0x90A JUMP JUMPDEST PUSH1 0x0 DUP3 DUP2 MSTORE PUSH1 0x5 PUSH1 0x20 MSTORE PUSH1 0x40 SWAP1 KECCAK256 PUSH1 0x1 ADD SLOAD PUSH2 0x714 DUP2 PUSH2 0xAB9 JUMP JUMPDEST PUSH2 0x517 DUP4 DUP4 PUSH2 0xB4C JUMP JUMPDEST PUSH1 0x1 PUSH1 0x1 PUSH1 0xA0 SHL SUB SWAP2 DUP3 AND PUSH1 0x0 SWAP1 DUP2 MSTORE PUSH1 0x1 PUSH1 0x20 SWAP1 DUP2 MSTORE PUSH1 0x40 DUP1 DUP4 KECCAK256 SWAP4 SWAP1 SWAP5 AND DUP3 MSTORE SWAP2 SWAP1 SWAP2 MSTORE KECCAK256 SLOAD SWAP1 JUMP JUMPDEST PUSH1 0x0 PUSH2 0x754 DUP2 PUSH2 0xAB9 JUMP JUMPDEST PUSH2 0x4EE PUSH11 0x4D494E5445525F524F4C45 PUSH1 0xA8 SHL DUP4 PUSH2 0xB4C JUMP JUMPDEST PUSH1 0x1 PUSH1 0x1 PUSH1 0xA0 SHL SUB DUP4 AND PUSH2 0x7CE JUMPI PUSH1 0x40 MLOAD PUSH3 0x461BCD PUSH1 0xE5 SHL DUP2 MSTORE PUSH1 0x20 PUSH1 0x4 DUP3 ADD MSTORE PUSH1 0x24 DUP1 DUP3 ADD MSTORE PUSH32 0x45524332303A20617070726F76652066726F6D20746865207A65726F20616464 PUSH1 0x44 DUP3 ADD MSTORE PUSH4 0x72657373 PUSH1 0xE0 SHL PUSH1 0x64 DUP3 ADD MSTORE PUSH1 0x84 ADD PUSH2 0x588 JUMP JUMPDEST PUSH1 0x1 PUSH1 0x1 PUSH1 0xA0 SHL SUB DUP3 AND PUSH2 0x82F JUMPI PUSH1 0x40 MLOAD PUSH3 0x461BCD PUSH1 0xE5 SHL DUP2 MSTORE PUSH1 0x20 PUSH1 0x4 DUP3 ADD MSTORE PUSH1 0x22 PUSH1 0x24 DUP3 ADD MSTORE PUSH32 0x45524332303A20617070726F766520746F20746865207A65726F206164647265 PUSH1 0x44 DUP3 ADD MSTORE PUSH2 0x7373 PUSH1 0xF0 SHL PUSH1 0x64 DUP3 ADD MSTORE PUSH1 0x84 ADD PUSH2 0x588 JUMP JUMPDEST PUSH1 0x1 PUSH1 0x1 PUSH1 0xA0 SHL SUB DUP4 DUP2 AND PUSH1 0x0 DUP2 DUP2 MSTORE PUSH1 0x1 PUSH1 0x20 SWAP1 DUP2 MSTORE PUSH1 0x40 DUP1 DUP4 KECCAK256 SWAP5 DUP8 AND DUP1 DUP5 MSTORE SWAP5 DUP3 MSTORE SWAP2 DUP3 SWAP1 KECCAK256 DUP6 SWAP1 SSTORE SWAP1 MLOAD DUP5 DUP2 MSTORE PUSH32 0x8C5BE1E5EBEC7D5BD14F71427D1E84F3DD0314C0F7B2291E5B200AC8C7C3B925 SWAP2 ADD PUSH1 0x40 MLOAD DUP1 SWAP2 SUB SWAP1 LOG3 POP POP POP JUMP JUMPDEST PUSH1 0x0 PUSH2 0x89C DUP5 DUP5 PUSH2 0x71E JUMP JUMPDEST SWAP1 POP PUSH1 0x0 NOT DUP2 EQ PUSH2 0x904 JUMPI DUP2 DUP2 LT ISZERO PUSH2 0x8F7 JUMPI PUSH1 0x40 MLOAD PUSH3 0x461BCD PUSH1 0xE5 SHL DUP2 MSTORE PUSH1 0x20 PUSH1 0x4 DUP3 ADD MSTORE PUSH1 0x1D PUSH1 0x24 DUP3 ADD MSTORE PUSH32 0x45524332303A20696E73756666696369656E7420616C6C6F77616E6365000000 PUSH1 0x44 DUP3 ADD MSTORE PUSH1 0x64 ADD PUSH2 0x588 JUMP JUMPDEST PUSH2 0x904 DUP5 DUP5 DUP5 DUP5 SUB PUSH2 0x76C JUMP JUMPDEST POP POP POP POP JUMP JUMPDEST PUSH1 0x1 PUSH1 0x1 PUSH1 0xA0 SHL SUB DUP4 AND PUSH2 0x96E JUMPI PUSH1 0x40 MLOAD PUSH3 0x461BCD PUSH1 0xE5 SHL DUP2 MSTORE PUSH1 0x20 PUSH1 0x4 DUP3 ADD MSTORE PUSH1 0x25 PUSH1 0x24 DUP3 ADD MSTORE PUSH32 0x45524332303A207472616E736665722066726F6D20746865207A65726F206164 PUSH1 0x44 DUP3 ADD MSTORE PUSH5 0x6472657373 PUSH1 0xD8 SHL PUSH1 0x64 DUP3 ADD MSTORE PUSH1 0x84 ADD PUSH2 0x588 JUMP JUMPDEST PUSH1 0x1 PUSH1 0x1 PUSH1 0xA0 SHL SUB DUP3 AND PUSH2 0x9D0 JUMPI PUSH1 0x40 MLOAD PUSH3 0x461BCD PUSH1 0xE5 SHL DUP2 MSTORE PUSH1 0x20 PUSH1 0x4 DUP3 ADD MSTORE PUSH1 0x23 PUSH1 0x24 DUP3 ADD MSTORE PUSH32 0x45524332303A207472616E7366657220746F20746865207A65726F2061646472 PUSH1 0x44 DUP3 ADD MSTORE PUSH3 0x657373 PUSH1 0xE8 SHL PUSH1 0x64 DUP3 ADD MSTORE PUSH1 0x84 ADD PUSH2 0x588 JUMP JUMPDEST PUSH2 0x9DB DUP4 DUP4 DUP4 PUSH2 0xC7E JUMP JUMPDEST PUSH1 0x1 PUSH1 0x1 PUSH1 0xA0 SHL SUB DUP4 AND PUSH1 0x0 SWAP1 DUP2 MSTORE PUSH1 0x20 DUP2 SWAP1 MSTORE PUSH1 0x40 SWAP1 KECCAK256 SLOAD DUP2 DUP2 LT ISZERO PUSH2 0xA53 JUMPI PUSH1 0x40 MLOAD PUSH3 0x461BCD PUSH1 0xE5 SHL DUP2 MSTORE PUSH1 0x20 PUSH1 0x4 DUP3 ADD MSTORE PUSH1 0x26 PUSH1 0x24 DUP3 ADD MSTORE PUSH32 0x45524332303A207472616E7366657220616D6F756E7420657863656564732062 PUSH1 0x44 DUP3 ADD MSTORE PUSH6 0x616C616E6365 PUSH1 0xD0 SHL PUSH1 0x64 DUP3 ADD MSTORE PUSH1 0x84 ADD PUSH2 0x588 JUMP JUMPDEST PUSH1 0x1 PUSH1 0x1 PUSH1 0xA0 SHL SUB DUP5 DUP2 AND PUSH1 0x0 DUP2 DUP2 MSTORE PUSH1 0x20 DUP2 DUP2 MSTORE PUSH1 0x40 DUP1 DUP4 KECCAK256 DUP8 DUP8 SUB SWAP1 SSTORE SWAP4 DUP8 AND DUP1 DUP4 MSTORE SWAP2 DUP5 SWAP1 KECCAK256 DUP1 SLOAD DUP8 ADD SWAP1 SSTORE SWAP3 MLOAD DUP6 DUP2 MSTORE SWAP1 SWAP3 PUSH32 0xDDF252AD1BE2C89B69C2B068FC378DAA952BA7F163C4A11628F55A4DF523B3EF SWAP2 ADD PUSH1 0x40 MLOAD DUP1 SWAP2 SUB SWAP1 LOG3 PUSH2 0x904 JUMP JUMPDEST PUSH2 0xAC3 DUP2 CALLER PUSH2 0xD76 JUMP JUMPDEST POP JUMP JUMPDEST PUSH2 0xAD0 DUP3 DUP3 PUSH2 0x636 JUMP JUMPDEST PUSH2 0x4EE JUMPI PUSH1 0x0 DUP3 DUP2 MSTORE PUSH1 0x5 PUSH1 0x20 SWAP1 DUP2 MSTORE PUSH1 0x40 DUP1 DUP4 KECCAK256 PUSH1 0x1 PUSH1 0x1 PUSH1 0xA0 SHL SUB DUP6 AND DUP5 MSTORE SWAP1 SWAP2 MSTORE SWAP1 KECCAK256 DUP1 SLOAD PUSH1 0xFF NOT AND PUSH1 0x1 OR SWAP1 SSTORE PUSH2 0xB08 CALLER SWAP1 JUMP JUMPDEST PUSH1 0x1 PUSH1 0x1 PUSH1 0xA0 SHL SUB AND DUP2 PUSH1 0x1 PUSH1 0x1 PUSH1 0xA0 SHL SUB AND DUP4 PUSH32 0x2F8788117E7EFF1D82E926EC794901D17C78024A50270940304540A733656F0D PUSH1 0x40 MLOAD PUSH1 0x40 MLOAD DUP1 SWAP2 SUB SWAP1 LOG4 POP POP JUMP JUMPDEST PUSH2 0xB56 DUP3 DUP3 PUSH2 0x636 JUMP JUMPDEST ISZERO PUSH2 0x4EE JUMPI PUSH1 0x0 DUP3 DUP2 MSTORE PUSH1 0x5 PUSH1 0x20 SWAP1 DUP2 MSTORE PUSH1 0x40 DUP1 DUP4 KECCAK256 PUSH1 0x1 PUSH1 0x1 PUSH1 0xA0 SHL SUB DUP6 AND DUP1 DUP6 MSTORE SWAP3 MSTORE DUP1 DUP4 KECCAK256 DUP1 SLOAD PUSH1 0xFF NOT AND SWAP1 SSTORE MLOAD CALLER SWAP3 DUP6 SWAP2 PUSH32 0xF6391F5C32D9C69D2A47EA670B442974B53935D1EDC7FD64EB21E047A839171B SWAP2 SWAP1 LOG4 POP POP JUMP JUMPDEST PUSH1 0x1 PUSH1 0x1 PUSH1 0xA0 SHL SUB DUP3 AND PUSH2 0xC09 JUMPI PUSH1 0x40 MLOAD PUSH3 0x461BCD PUSH1 0xE5 SHL DUP2 MSTORE PUSH1 0x20 PUSH1 0x4 DUP3 ADD MSTORE PUSH1 0x1F PUSH1 0x24 DUP3 ADD MSTORE PUSH32 0x45524332303A206D696E7420746F20746865207A65726F206164647265737300 PUSH1 0x44 DUP3 ADD MSTORE PUSH1 0x64 ADD PUSH2 0x588 JUMP JUMPDEST PUSH2 0xC15 PUSH1 0x0 DUP4 DUP4 PUSH2 0xC7E JUMP JUMPDEST DUP1 PUSH1 0x2 PUSH1 0x0 DUP3 DUP3 SLOAD PUSH2 0xC27 SWAP2 SWAP1 PUSH2 0x11C0 JUMP JUMPDEST SWAP1 SWAP2 SSTORE POP POP PUSH1 0x1 PUSH1 0x1 PUSH1 0xA0 SHL SUB DUP3 AND PUSH1 0x0 DUP2 DUP2 MSTORE PUSH1 0x20 DUP2 DUP2 MSTORE PUSH1 0x40 DUP1 DUP4 KECCAK256 DUP1 SLOAD DUP7 ADD SWAP1 SSTORE MLOAD DUP5 DUP2 MSTORE PUSH32 0xDDF252AD1BE2C89B69C2B068FC378DAA952BA7F163C4A11628F55A4DF523B3EF SWAP2 ADD PUSH1 0x40 MLOAD DUP1 SWAP2 SUB SWAP1 LOG3 POP POP JUMP JUMPDEST DUP1 PUSH2 0xC88 JUMPI POP POP POP JUMP JUMPDEST PUSH1 0x1 PUSH1 0x1 PUSH1 0xA0 SHL SUB DUP4 AND ISZERO DUP1 PUSH2 0xCA5 JUMPI POP PUSH1 0x1 PUSH1 0x1 PUSH1 0xA0 SHL SUB DUP3 AND ISZERO JUMPDEST ISZERO PUSH2 0xCAF JUMPI POP POP POP JUMP JUMPDEST PUSH2 0xCC9 PUSH13 0x434F4E54524143545F524F4C45 PUSH1 0x98 SHL DUP5 PUSH2 0x636 JUMP JUMPDEST DUP1 PUSH2 0xCE9 JUMPI POP PUSH2 0xCE9 PUSH13 0x434F4E54524143545F524F4C45 PUSH1 0x98 SHL DUP4 PUSH2 0x636 JUMP JUMPDEST ISZERO PUSH2 0xCF3 JUMPI POP POP POP JUMP JUMPDEST PUSH2 0xD0D PUSH13 0x434F4E54524143545F524F4C45 PUSH1 0x98 SHL CALLER PUSH2 0x636 JUMP JUMPDEST ISZERO PUSH2 0xD17 JUMPI POP POP POP JUMP JUMPDEST PUSH1 0x6 SLOAD PUSH1 0xFF AND ISZERO PUSH2 0x517 JUMPI PUSH1 0x40 MLOAD PUSH3 0x461BCD PUSH1 0xE5 SHL DUP2 MSTORE PUSH1 0x20 PUSH1 0x4 DUP3 ADD MSTORE PUSH1 0x23 PUSH1 0x24 DUP3 ADD MSTORE PUSH32 0x50425254206973206C6F636B6564206265747765656E20757365722077616C6C PUSH1 0x44 DUP3 ADD MSTORE PUSH3 0x657473 PUSH1 0xE8 SHL PUSH1 0x64 DUP3 ADD MSTORE PUSH1 0x84 ADD PUSH2 0x588 JUMP JUMPDEST PUSH2 0xD80 DUP3 DUP3 PUSH2 0x636 JUMP JUMPDEST PUSH2 0x4EE JUMPI PUSH2 0xD8D DUP2 PUSH2 0xDCF JUMP JUMPDEST PUSH2 0xD98 DUP4 PUSH1 0x20 PUSH2 0xDE1 JUMP JUMPDEST PUSH1 0x40 MLOAD PUSH1 0x20 ADD PUSH2 0xDA9 SWAP3 SWAP2 SWAP1 PUSH2 0x1118 JUMP JUMPDEST PUSH1 0x40 DUP1 MLOAD PUSH1 0x1F NOT DUP2 DUP5 SUB ADD DUP2 MSTORE SWAP1 DUP3 SWAP1 MSTORE PUSH3 0x461BCD PUSH1 0xE5 SHL DUP3 MSTORE PUSH2 0x588 SWAP2 PUSH1 0x4 ADD PUSH2 0x118D JUMP JUMPDEST PUSH1 0x60 PUSH2 0x3F5 PUSH1 0x1 PUSH1 0x1 PUSH1 0xA0 SHL SUB DUP4 AND PUSH1 0x14 JUMPDEST PUSH1 0x60 PUSH1 0x0 PUSH2 0xDF0 DUP4 PUSH1 0x2 PUSH2 0x12C6 JUMP JUMPDEST PUSH2 0xDFB SWAP1 PUSH1 0x2 PUSH2 0x11C0 JUMP JUMPDEST PUSH8 0xFFFFFFFFFFFFFFFF DUP2 GT ISZERO PUSH2 0xE21 JUMPI PUSH4 0x4E487B71 PUSH1 0xE0 SHL PUSH1 0x0 MSTORE PUSH1 0x41 PUSH1 0x4 MSTORE PUSH1 0x24 PUSH1 0x0 REVERT JUMPDEST PUSH1 0x40 MLOAD SWAP1 DUP1 DUP3 MSTORE DUP1 PUSH1 0x1F ADD PUSH1 0x1F NOT AND PUSH1 0x20 ADD DUP3 ADD PUSH1 0x40 MSTORE DUP1 ISZERO PUSH2 0xE4B JUMPI PUSH1 0x20 DUP3 ADD DUP2 DUP1 CALLDATASIZE DUP4 CALLDATACOPY ADD SWAP1 POP JUMPDEST POP SWAP1 POP PUSH1 0x3 PUSH1 0xFC SHL DUP2 PUSH1 0x0 DUP2 MLOAD DUP2 LT PUSH2 0xE74 JUMPI PUSH4 0x4E487B71 PUSH1 0xE0 SHL PUSH1 0x0 MSTORE PUSH1 0x32 PUSH1 0x4 MSTORE PUSH1 0x24 PUSH1 0x0 REVERT JUMPDEST PUSH1 0x20 ADD ADD SWAP1 PUSH1 0x1 PUSH1 0x1 PUSH1 0xF8 SHL SUB NOT AND SWAP1 DUP2 PUSH1 0x0 BYTE SWAP1 MSTORE8 POP PUSH1 0xF PUSH1 0xFB SHL DUP2 PUSH1 0x1 DUP2 MLOAD DUP2 LT PUSH2 0xEB1 JUMPI PUSH4 0x4E487B71 PUSH1 0xE0 SHL PUSH1 0x0 MSTORE PUSH1 0x32 PUSH1 0x4 MSTORE PUSH1 0x24 PUSH1 0x0 REVERT JUMPDEST PUSH1 0x20 ADD ADD SWAP1 PUSH1 0x1 PUSH1 0x1 PUSH1 0xF8 SHL SUB NOT AND SWAP1 DUP2 PUSH1 0x0 BYTE SWAP1 MSTORE8 POP PUSH1 0x0 PUSH2 0xED5 DUP5 PUSH1 0x2 PUSH2 0x12C6 JUMP JUMPDEST PUSH2 0xEE0 SWAP1 PUSH1 0x1 PUSH2 0x11C0 JUMP JUMPDEST SWAP1 POP JUMPDEST PUSH1 0x1 DUP2 GT ISZERO PUSH2 0xF74 JUMPI PUSH16 0x181899199A1A9B1B9C1CB0B131B232B3 PUSH1 0x81 SHL DUP6 PUSH1 0xF AND PUSH1 0x10 DUP2 LT PUSH2 0xF22 JUMPI PUSH4 0x4E487B71 PUSH1 0xE0 SHL PUSH1 0x0 MSTORE PUSH1 0x32 PUSH1 0x4 MSTORE PUSH1 0x24 PUSH1 0x0 REVERT JUMPDEST BYTE PUSH1 0xF8 SHL DUP3 DUP3 DUP2 MLOAD DUP2 LT PUSH2 0xF46 JUMPI PUSH4 0x4E487B71 PUSH1 0xE0 SHL PUSH1 0x0 MSTORE PUSH1 0x32 PUSH1 0x4 MSTORE PUSH1 0x24 PUSH1 0x0 REVERT JUMPDEST PUSH1 0x20 ADD ADD SWAP1 PUSH1 0x1 PUSH1 0x1 PUSH1 0xF8 SHL SUB NOT AND SWAP1 DUP2 PUSH1 0x0 BYTE SWAP1 MSTORE8 POP PUSH1 0x4 SWAP5 SWAP1 SWAP5 SHR SWAP4 PUSH2 0xF6D DUP2 PUSH2 0x1311 JUMP JUMPDEST SWAP1 POP PUSH2 0xEE3 JUMP JUMPDEST POP DUP4 ISZERO PUSH2 0xFC3 JUMPI PUSH1 0x40 MLOAD PUSH3 0x461BCD PUSH1 0xE5 SHL DUP2 MSTORE PUSH1 0x20 PUSH1 0x4 DUP3 ADD DUP2 SWAP1 MSTORE PUSH1 0x24 DUP3 ADD MSTORE PUSH32 0x537472696E67733A20686578206C656E67746820696E73756666696369656E74 PUSH1 0x44 DUP3 ADD MSTORE PUSH1 0x64 ADD PUSH2 0x588 JUMP JUMPDEST SWAP4 SWAP3 POP POP POP JUMP JUMPDEST DUP1 CALLDATALOAD PUSH1 0x1 PUSH1 0x1 PUSH1 0xA0 SHL SUB DUP2 AND DUP2 EQ PUSH2 0xFE1 JUMPI PUSH1 0x0 DUP1 REVERT JUMPDEST SWAP2 SWAP1 POP JUMP JUMPDEST PUSH1 0x0 PUSH1 0x20 DUP3 DUP5 SUB SLT ISZERO PUSH2 0xFF7 JUMPI DUP1 DUP2 REVERT JUMPDEST PUSH2 0xFC3 DUP3 PUSH2 0xFCA JUMP JUMPDEST PUSH1 0x0 DUP1 PUSH1 0x40 DUP4 DUP6 SUB SLT ISZERO PUSH2 0x1012 JUMPI DUP1 DUP2 REVERT JUMPDEST PUSH2 0x101B DUP4 PUSH2 0xFCA JUMP JUMPDEST SWAP2 POP PUSH2 0x1029 PUSH1 0x20 DUP5 ADD PUSH2 0xFCA JUMP JUMPDEST SWAP1 POP SWAP3 POP SWAP3 SWAP1 POP JUMP JUMPDEST PUSH1 0x0 DUP1 PUSH1 0x0 PUSH1 0x60 DUP5 DUP7 SUB SLT ISZERO PUSH2 0x1046 JUMPI DUP1 DUP2 REVERT JUMPDEST PUSH2 0x104F DUP5 PUSH2 0xFCA JUMP JUMPDEST SWAP3 POP PUSH2 0x105D PUSH1 0x20 DUP6 ADD PUSH2 0xFCA JUMP JUMPDEST SWAP2 POP PUSH1 0x40 DUP5 ADD CALLDATALOAD SWAP1 POP SWAP3 POP SWAP3 POP SWAP3 JUMP JUMPDEST PUSH1 0x0 DUP1 PUSH1 0x40 DUP4 DUP6 SUB SLT ISZERO PUSH2 0x107F JUMPI DUP2 DUP3 REVERT JUMPDEST PUSH2 0x1088 DUP4 PUSH2 0xFCA JUMP JUMPDEST SWAP5 PUSH1 0x20 SWAP4 SWAP1 SWAP4 ADD CALLDATALOAD SWAP4 POP POP POP JUMP JUMPDEST PUSH1 0x0 PUSH1 0x20 DUP3 DUP5 SUB SLT ISZERO PUSH2 0x10A7 JUMPI DUP1 DUP2 REVERT JUMPDEST DUP2 CALLDATALOAD DUP1 ISZERO ISZERO DUP2 EQ PUSH2 0xFC3 JUMPI DUP2 DUP3 REVERT JUMPDEST PUSH1 0x0 PUSH1 0x20 DUP3 DUP5 SUB SLT ISZERO PUSH2 0x10C7 JUMPI DUP1 DUP2 REVERT JUMPDEST POP CALLDATALOAD SWAP2 SWAP1 POP JUMP JUMPDEST PUSH1 0x0 DUP1 PUSH1 0x40 DUP4 DUP6 SUB SLT ISZERO PUSH2 0x10E0 JUMPI DUP2 DUP3 REVERT JUMPDEST DUP3 CALLDATALOAD SWAP2 POP PUSH2 0x1029 PUSH1 0x20 DUP5 ADD PUSH2 0xFCA JUMP JUMPDEST PUSH1 0x0 PUSH1 0x20 DUP3 DUP5 SUB SLT ISZERO PUSH2 0x1101 JUMPI DUP1 DUP2 REVERT JUMPDEST DUP2 CALLDATALOAD PUSH1 0x1 PUSH1 0x1 PUSH1 0xE0 SHL SUB NOT DUP2 AND DUP2 EQ PUSH2 0xFC3 JUMPI DUP2 DUP3 REVERT JUMPDEST PUSH32 0x416363657373436F6E74726F6C3A206163636F756E7420000000000000000000 DUP2 MSTORE PUSH1 0x0 DUP4 MLOAD PUSH2 0x1150 DUP2 PUSH1 0x17 DUP6 ADD PUSH1 0x20 DUP9 ADD PUSH2 0x12E5 JUMP JUMPDEST PUSH17 0x1034B99036B4B9B9B4B733903937B6329 PUSH1 0x7D SHL PUSH1 0x17 SWAP2 DUP5 ADD SWAP2 DUP3 ADD MSTORE DUP4 MLOAD PUSH2 0x1181 DUP2 PUSH1 0x28 DUP5 ADD PUSH1 0x20 DUP9 ADD PUSH2 0x12E5 JUMP JUMPDEST ADD PUSH1 0x28 ADD SWAP5 SWAP4 POP POP POP POP JUMP JUMPDEST PUSH1 0x20 DUP2 MSTORE PUSH1 0x0 DUP3 MLOAD DUP1 PUSH1 0x20 DUP5 ADD MSTORE PUSH2 0x11AC DUP2 PUSH1 0x40 DUP6 ADD PUSH1 0x20 DUP8 ADD PUSH2 0x12E5 JUMP JUMPDEST PUSH1 0x1F ADD PUSH1 0x1F NOT AND SWAP2 SWAP1 SWAP2 ADD PUSH1 0x40 ADD SWAP3 SWAP2 POP POP JUMP JUMPDEST PUSH1 0x0 DUP3 NOT DUP3 GT ISZERO PUSH2 0x11D3 JUMPI PUSH2 0x11D3 PUSH2 0x1363 JUMP JUMPDEST POP ADD SWAP1 JUMP JUMPDEST PUSH1 0x1 DUP2 DUP2 JUMPDEST DUP1 DUP6 GT ISZERO PUSH2 0x1213 JUMPI DUP2 PUSH1 0x0 NOT DIV DUP3 GT ISZERO PUSH2 0x11F9 JUMPI PUSH2 0x11F9 PUSH2 0x1363 JUMP JUMPDEST DUP1 DUP6 AND ISZERO PUSH2 0x1206 JUMPI SWAP2 DUP2 MUL SWAP2 JUMPDEST SWAP4 DUP5 SHR SWAP4 SWAP1 DUP1 MUL SWAP1 PUSH2 0x11DD JUMP JUMPDEST POP SWAP3 POP SWAP3 SWAP1 POP JUMP JUMPDEST PUSH1 0x0 PUSH2 0xFC3 PUSH1 0xFF DUP5 AND DUP4 PUSH1 0x0 DUP3 PUSH2 0x1234 JUMPI POP PUSH1 0x1 PUSH2 0x3F5 JUMP JUMPDEST DUP2 PUSH2 0x1241 JUMPI POP PUSH1 0x0 PUSH2 0x3F5 JUMP JUMPDEST DUP2 PUSH1 0x1 DUP2 EQ PUSH2 0x1257 JUMPI PUSH1 0x2 DUP2 EQ PUSH2 0x1261 JUMPI PUSH2 0x127D JUMP JUMPDEST PUSH1 0x1 SWAP2 POP POP PUSH2 0x3F5 JUMP JUMPDEST PUSH1 0xFF DUP5 GT ISZERO PUSH2 0x1272 JUMPI PUSH2 0x1272 PUSH2 0x1363 JUMP JUMPDEST POP POP PUSH1 0x1 DUP3 SHL PUSH2 0x3F5 JUMP JUMPDEST POP PUSH1 0x20 DUP4 LT PUSH2 0x133 DUP4 LT AND PUSH1 0x4E DUP5 LT PUSH1 0xB DUP5 LT AND OR ISZERO PUSH2 0x12A0 JUMPI POP DUP2 DUP2 EXP PUSH2 0x3F5 JUMP JUMPDEST PUSH2 0x12AA DUP4 DUP4 PUSH2 0x11D8 JUMP JUMPDEST DUP1 PUSH1 0x0 NOT DIV DUP3 GT ISZERO PUSH2 0x12BE JUMPI PUSH2 0x12BE PUSH2 0x1363 JUMP JUMPDEST MUL SWAP4 SWAP3 POP POP POP JUMP JUMPDEST PUSH1 0x0 DUP2 PUSH1 0x0 NOT DIV DUP4 GT DUP3 ISZERO ISZERO AND ISZERO PUSH2 0x12E0 JUMPI PUSH2 0x12E0 PUSH2 0x1363 JUMP JUMPDEST POP MUL SWAP1 JUMP JUMPDEST PUSH1 0x0 JUMPDEST DUP4 DUP2 LT ISZERO PUSH2 0x1300 JUMPI DUP2 DUP2 ADD MLOAD DUP4 DUP3 ADD MSTORE PUSH1 0x20 ADD PUSH2 0x12E8 JUMP JUMPDEST DUP4 DUP2 GT ISZERO PUSH2 0x904 JUMPI POP POP PUSH1 0x0 SWAP2 ADD MSTORE JUMP JUMPDEST PUSH1 0x0 DUP2 PUSH2 0x1320 JUMPI PUSH2 0x1320 PUSH2 0x1363 JUMP JUMPDEST POP PUSH1 0x0 NOT ADD SWAP1 JUMP JUMPDEST PUSH1 0x1 DUP2 DUP2 SHR SWAP1 DUP3 AND DUP1 PUSH2 0x133C JUMPI PUSH1 0x7F DUP3 AND SWAP2 POP JUMPDEST PUSH1 0x20 DUP3 LT DUP2 EQ ISZERO PUSH2 0x135D JUMPI PUSH4 0x4E487B71 PUSH1 0xE0 SHL PUSH1 0x0 MSTORE PUSH1 0x22 PUSH1 0x4 MSTORE PUSH1 0x24 PUSH1 0x0 REVERT JUMPDEST POP SWAP2 SWAP1 POP JUMP JUMPDEST PUSH4 0x4E487B71 PUSH1 0xE0 SHL PUSH1 0x0 MSTORE PUSH1 0x11 PUSH1 0x4 MSTORE PUSH1 0x24 PUSH1 0x0 REVERT INVALID LOG2 PUSH5 0x6970667358 0x22 SLT KECCAK256 PUSH21 0xB11200E519D9561EA72C54670305F2DB74929D8A25 0xD3 SWAP4 0x4D PUSH14 0x5B7657676B1F64736F6C63430008 DIV STOP CALLER "},"methodIdentifiers":{"CONTRACT_ROLE()":"03fe46ab","DEFAULT_ADMIN_ROLE()":"a217fddf","MINTER_ROLE()":"d5391393","allowance(address,address)":"dd62ed3e","approve(address,uint256)":"095ea7b3","balanceOf(address)":"70a08231","clearMintRole(address)":"e57c9c5e","decimals()":"313ce567","decreaseAllowance(address,uint256)":"a457c2d7","getRoleAdmin(bytes32)":"248a9ca3","grantRole(bytes32,address)":"2f2ff15d","hasRole(bytes32,address)":"91d14854","increaseAllowance(address,uint256)":"39509351","locked()":"cf309012","mint(address,uint256)":"40c10f19","name()":"06fdde03","renounceRole(bytes32,address)":"36568abe","revokeRole(bytes32,address)":"d547741f","setGameEngine(address)":"50371095","setLock(bool)":"619d5194","setMarketplaceEngine(address)":"2bf18ae0","setMintRole(address)":"530dd079","supportsInterface(bytes4)":"01ffc9a7","symbol()":"95d89b41","totalSupply()":"18160ddd","transfer(address,uint256)":"a9059cbb","transferFrom(address,address,uint256)":"23b872dd"}}}}}