{"contracts/PlayEstatesAddressProvider.sol":{"PlayEstatesAddressProvider":{"abi":[{"inputs":[],"stateMutability":"nonpayable","type":"constructor"},{"inputs":[{"internalType":"address","name":"newAddress","type":"address"}],"name":"InkAddressProvider_InvalidAddress","type":"error"},{"anonymous":false,"inputs":[{"indexed":false,"internalType":"string","name":"contractName","type":"string"},{"indexed":true,"internalType":"address","name":"newAddress","type":"address"},{"indexed":false,"internalType":"uint256","name":"updateddate","type":"uint256"}],"name":"ContractAddressUpdated","type":"event"},{"anonymous":false,"inputs":[{"indexed":true,"internalType":"address","name":"previousOwner","type":"address"},{"indexed":true,"internalType":"address","name":"newOwner","type":"address"}],"name":"OwnershipTransferred","type":"event"},{"inputs":[{"internalType":"bytes32","name":"id","type":"bytes32"}],"name":"getAddress","outputs":[{"internalType":"address","name":"","type":"address"},{"internalType":"uint256","name":"","type":"uint256"}],"stateMutability":"view","type":"function"},{"inputs":[],"name":"getAllAddresses","outputs":[{"components":[{"internalType":"bytes32","name":"name","type":"bytes32"},{"internalType":"address","name":"addr","type":"address"}],"internalType":"struct LTypes.AddressInfo[]","name":"addresses","type":"tuple[]"}],"stateMutability":"view","type":"function"},{"inputs":[],"name":"getGameEngineContract","outputs":[{"internalType":"address","name":"","type":"address"},{"internalType":"uint256","name":"","type":"uint256"}],"stateMutability":"view","type":"function"},{"inputs":[],"name":"getNFTMarketplaceContract","outputs":[{"internalType":"address","name":"","type":"address"},{"internalType":"uint256","name":"","type":"uint256"}],"stateMutability":"view","type":"function"},{"inputs":[],"name":"getOWNKContract","outputs":[{"internalType":"address","name":"","type":"address"},{"internalType":"uint256","name":"","type":"uint256"}],"stateMutability":"view","type":"function"},{"inputs":[],"name":"getPBRTContract","outputs":[{"internalType":"address","name":"","type":"address"},{"internalType":"uint256","name":"","type":"uint256"}],"stateMutability":"view","type":"function"},{"inputs":[],"name":"getPEASContract","outputs":[{"internalType":"address","name":"","type":"address"},{"internalType":"uint256","name":"","type":"uint256"}],"stateMutability":"view","type":"function"},{"inputs":[],"name":"getPEFPContract","outputs":[{"internalType":"address","name":"","type":"address"},{"internalType":"uint256","name":"","type":"uint256"}],"stateMutability":"view","type":"function"},{"inputs":[],"name":"getPNFTSContract","outputs":[{"internalType":"address","name":"","type":"address"},{"internalType":"uint256","name":"","type":"uint256"}],"stateMutability":"view","type":"function"},{"inputs":[],"name":"getPNFTSSContract","outputs":[{"internalType":"address","name":"","type":"address"},{"internalType":"uint256","name":"","type":"uint256"}],"stateMutability":"view","type":"function"},{"inputs":[],"name":"getPNFTStakingContract","outputs":[{"internalType":"address","name":"","type":"address"},{"internalType":"uint256","name":"","type":"uint256"}],"stateMutability":"view","type":"function"},{"inputs":[],"name":"owner","outputs":[{"internalType":"address","name":"","type":"address"}],"stateMutability":"view","type":"function"},{"inputs":[],"name":"renounceOwnership","outputs":[],"stateMutability":"nonpayable","type":"function"},{"inputs":[{"internalType":"bytes32","name":"id","type":"bytes32"},{"internalType":"address","name":"newAddress","type":"address"}],"name":"setAddress","outputs":[],"stateMutability":"nonpayable","type":"function"},{"inputs":[{"internalType":"address","name":"newAddress","type":"address"}],"name":"setGameEngineContract","outputs":[],"stateMutability":"nonpayable","type":"function"},{"inputs":[{"internalType":"address","name":"newAddress","type":"address"}],"name":"setNFTMarketplaceContract","outputs":[],"stateMutability":"nonpayable","type":"function"},{"inputs":[{"internalType":"address","name":"newAddress","type":"address"}],"name":"setOWNKContract","outputs":[],"stateMutability":"nonpayable","type":"function"},{"inputs":[{"internalType":"address","name":"newAddress","type":"address"}],"name":"setPBRTContract","outputs":[],"stateMutability":"nonpayable","type":"function"},{"inputs":[{"internalType":"address","name":"newAddress","type":"address"}],"name":"setPEASContract","outputs":[],"stateMutability":"nonpayable","type":"function"},{"inputs":[{"internalType":"address","name":"newAddress","type":"address"}],"name":"setPEFPContract","outputs":[],"stateMutability":"nonpayable","type":"function"},{"inputs":[{"internalType":"address","name":"newAddress","type":"address"}],"name":"setPNFTSContract","outputs":[],"stateMutability":"nonpayable","type":"function"},{"inputs":[{"internalType":"address","name":"newAddress","type":"address"}],"name":"setPNFTSSContract","outputs":[],"stateMutability":"nonpayable","type":"function"},{"inputs":[{"internalType":"address","name":"newAddress","type":"address"}],"name":"setPNFTStakingContract","outputs":[],"stateMutability":"nonpayable","type":"function"},{"inputs":[{"internalType":"address","name":"newOwner","type":"address"}],"name":"transferOwnership","outputs":[],"stateMutability":"nonpayable","type":"function"}],"evm":{"bytecode":{"linkReferences":{},"object":"608060405234801561001057600080fd5b5061001a3361001f565b61006f565b600080546001600160a01b038381166001600160a01b0319831681178455604051919092169283917f8be0079c531659141344cd1fd0a4f28419497f9722a3daafe3b4186f6b6457e09190a35050565b6113748061007e6000396000f3fe608060405234801561001057600080fd5b50600436106101585760003560e01c8063a3f8de52116100c3578063ce50ac031161007c578063ce50ac031461028b578063d37f72ed1461029e578063dcdb9502146102a6578063e01d98f4146102ae578063e78c626c146102c1578063f2fde38b146102d457600080fd5b8063a3f8de521461022f578063a565c18314610242578063afc5c58214610255578063b6a0728714610268578063c5184bd114610270578063ca446dd91461027857600080fd5b8063764473121161011557806376447312146101d45780637c551587146101e75780638da5cb5b146101ef5780639516a1041461020a578063957ee50a1461021f5780639d9441181461022757600080fd5b80630bbc98ba1461015d578063108858fc14610189578063172635a91461019157806319aadfe2146101a657806321f8a721146101b9578063715018a6146101cc575b600080fd5b6101656102e7565b604080516001600160a01b0390931683526020830191909152015b60405180910390f35b610165610309565b6101a461019f36600461109f565b61031e565b005b6101a46101b436600461109f565b6103f3565b6101656101c73660046110c0565b6104d6565b6101a46104ff565b6101a46101e236600461109f565b610513565b6101656105db565b6000546040516001600160a01b039091168152602001610180565b6102126105f5565b6040516101809190611103565b610165610774565b610165610787565b6101a461023d36600461109f565b61079a565b6101a461025036600461109f565b610874565b6101a461026336600461109f565b610942565b610165610a13565b610165610a26565b6101a46102863660046110d8565b610a3c565b6101a461029936600461109f565b610adc565b610165610ba4565b610165610bbd565b6101a46102bc36600461109f565b610bd0565b6101a46102cf36600461109f565b610cb3565b6101a46102e236600461109f565b610d7b565b6000806103016a6d61726b6574706c61636560a81b6104d6565b915091509091565b60008061030165706e66745f7360d01b6104d6565b610326610df4565b80803b610356576040516307433a8f60e11b81526001600160a01b03821660048201526024015b60405180910390fd5b610367636f776e6b60e01b83610a3c565b636f776e6b60e01b600052600260209081527f56e5e2037f1e3906847567744196bfd7e5dc9620a7c9ac9d5379f41dbd1ef42754604080518181526010918101919091526f506c617945737461746573204f574e4b60801b6060820152918201526001600160a01b0383169060008051602061131f833981519152906080015b60405180910390a25050565b6103fb610df4565b80803b610426576040516307433a8f60e11b81526001600160a01b038216600482015260240161034d565b61043e6a6d61726b6574706c61636560a81b83610a3c565b6a6d61726b6574706c61636560a81b600052600260209081527f92ad0de5fd2ac5cfce09ce9ecf9f6d1125f01c01e7130250cf7f1cfb3bc1cace54604080518181526017918101919091527f506c617945737461746573204d61726b6574706c6163650000000000000000006060820152918201526001600160a01b0383169060008051602061131f833981519152906080016103e7565b6000908152600160209081526040808320546002909252909120546001600160a01b0390911691565b610507610df4565b6105116000610e4e565b565b61051b610df4565b80803b610546576040516307433a8f60e11b81526001600160a01b038216600482015260240161034d565b610557630706566760e41b83610a3c565b630706566760e41b600052600260209081527fbfff7271645c8a95e8f8448fc1537cc19bdd618ee002db010eaa9bb742418c5354604080518181526010918101919091526f0506c61794573746174657320504546560841b6060820152918201526001600160a01b0383169060008051602061131f833981519152906080016103e7565b6000806103016a706e66747374616b696e6760a81b6104d6565b60035460609067ffffffffffffffff81111561062157634e487b7160e01b600052604160045260246000fd5b60405190808252806020026020018201604052801561066657816020015b604080518082019091526000808252602082015281526020019060019003908161063f5790505b50905060005b600354811015610770576003818154811061069757634e487b7160e01b600052603260045260246000fd5b90600052602060002001548282815181106106c257634e487b7160e01b600052603260045260246000fd5b6020026020010151600001818152505060016000600383815481106106f757634e487b7160e01b600052603260045260246000fd5b9060005260206000200154815260200190815260200160002060009054906101000a90046001600160a01b031682828151811061074457634e487b7160e01b600052603260045260246000fd5b6020908102919091018101516001600160a01b0390921691015280610768816112d7565b91505061066c565b5090565b600080610301637065617360e01b6104d6565b600080610301630706566760e41b6104d6565b6107a2610df4565b80803b6107cd576040516307433a8f60e11b81526001600160a01b038216600482015260240161034d565b6107e46967616d65656e67696e6560b01b83610a3c565b6967616d65656e67696e6560b01b600052600260209081527fe7a3569c39a6b2c5d10dd254f0dfc3d0655c00886a40c9f2bd23a9fc6c341c42546040805181815260169181019190915275506c6179457374617465732047616d65456e67696e6560501b6060820152918201526001600160a01b0383169060008051602061131f833981519152906080016103e7565b61087c610df4565b80803b6108a7576040516307433a8f60e11b81526001600160a01b038216600482015260240161034d565b6108ba65706e66745f7360d01b83610a3c565b65706e66745f7360d01b600052600260209081527fdeba0e10c703457cf2338c7b7982a7d708118dd763f0e91f1e26b6ce2e6f1e46546040805181815260129181019190915271506c61794573746174657320504e4654205360701b6060820152918201526001600160a01b0383169060008051602061131f833981519152906080016103e7565b61094a610df4565b80803b610975576040516307433a8f60e11b81526001600160a01b038216600482015260240161034d565b61098966706e66745f737360c81b83610a3c565b66706e66745f737360c81b600052600260209081527f60c031306a08960ffd5b1d21a401d6e772e1790ebf4f19b328b17c6c2a61489a546040805181815260139181019190915272506c61794573746174657320504e465420535360681b6060820152918201526001600160a01b0383169060008051602061131f833981519152906080016103e7565b600080610301636f776e6b60e01b6104d6565b60008061030166706e66745f737360c81b6104d6565b610a44610df4565b6000828152600160205260409020546001600160a01b0316610a9657600380546001810182556000919091527fc2575a0e9e593c00f959f8c92f12db2869c3395a3b0502d05e2516446f71f85b018290555b600082815260016020526040902080546001600160a01b0319166001600160a01b038316179055610ac642610e9e565b6000928352600260205260409092209190915550565b610ae4610df4565b80803b610b0f576040516307433a8f60e11b81526001600160a01b038216600482015260240161034d565b610b20637065617360e01b83610a3c565b637065617360e01b600052600260209081527f2e113e50b3815d8096dfc13d3887afba53dcd6e9322dfc21e736c7e8a628f08054604080518181526010918101919091526f506c617945737461746573205045415360801b6060820152918201526001600160a01b0383169060008051602061131f833981519152906080016103e7565b6000806103016967616d65656e67696e6560b01b6104d6565b600080610301631c189c9d60e21b6104d6565b610bd8610df4565b80803b610c03576040516307433a8f60e11b81526001600160a01b038216600482015260240161034d565b610c1b6a706e66747374616b696e6760a81b83610a3c565b6a706e66747374616b696e6760a81b600052600260209081527f8227f7a4c558faec58b5a2925040b6f1bb2ac6a9696736087a9483cd8bcd04e754604080518181526017918101919091527f506c61794573746174657320506e66745374616b696e670000000000000000006060820152918201526001600160a01b0383169060008051602061131f833981519152906080016103e7565b610cbb610df4565b80803b610ce6576040516307433a8f60e11b81526001600160a01b038216600482015260240161034d565b610cf7631c189c9d60e21b83610a3c565b631c189c9d60e21b600052600260209081527fbd18b816d6d66f01ebea78a5c9c40456527a563f0661b46423424a69d0e838e954604080518181526010918101919091526f141b185e515cdd185d195cc81410949560821b6060820152918201526001600160a01b0383169060008051602061131f833981519152906080016103e7565b610d83610df4565b6001600160a01b038116610de85760405162461bcd60e51b815260206004820152602660248201527f4f776e61626c653a206e6577206f776e657220697320746865207a65726f206160448201526564647265737360d01b606482015260840161034d565b610df181610e4e565b50565b6000546001600160a01b031633146105115760405162461bcd60e51b815260206004820181905260248201527f4f776e61626c653a2063616c6c6572206973206e6f7420746865206f776e6572604482015260640161034d565b600080546001600160a01b038381166001600160a01b0319831681178455604051919092169283917f8be0079c531659141344cd1fd0a4f28419497f9722a3daafe3b4186f6b6457e09190a35050565b600080600080610ead85610ee9565b9194509250905080610ec0836064611279565b610ecc85612710611279565b610ed6919061119c565b610ee0919061119c565b95945050505050565b60008080610f02610efd62015180866111e2565b610f0f565b9196909550909350915050565b60008080838162253d8c610f268362010bd961115b565b610f30919061115b565b9050600062023ab1610f438360046111f6565b610f4d91906111b4565b90506004610f5e8262023ab16111f6565b610f6990600361115b565b610f7391906111b4565b610f7d9083611298565b9150600062164b09610f9084600161115b565b610f9c90610fa06111f6565b610fa691906111b4565b90506004610fb6826105b56111f6565b610fc091906111b4565b610fca9084611298565b610fd590601f61115b565b9250600061098f610fe78560506111f6565b610ff191906111b4565b9050600060506110038361098f6111f6565b61100d91906111b4565b6110179086611298565b9050611024600b836111b4565b945061103185600c6111f6565b61103c83600261115b565b6110469190611298565b91508483611055603187611298565b6110609060646111f6565b61106a919061115b565b611074919061115b565b9a919950975095505050505050565b80356001600160a01b038116811461109a57600080fd5b919050565b6000602082840312156110b0578081fd5b6110b982611083565b9392505050565b6000602082840312156110d1578081fd5b5035919050565b600080604083850312156110ea578081fd5b823591506110fa60208401611083565b90509250929050565b602080825282518282018190526000919060409081850190868401855b8281101561114e578151805185528601516001600160a01b0316868501529284019290850190600101611120565b5091979650505050505050565b600080821280156001600160ff1b038490038513161561117d5761117d6112f2565b600160ff1b8390038412811615611196576111966112f2565b50500190565b600082198211156111af576111af6112f2565b500190565b6000826111c3576111c3611308565b600160ff1b8214600019841416156111dd576111dd6112f2565b500590565b6000826111f1576111f1611308565b500490565b60006001600160ff1b038184138284138082168684048611161561121c5761121c6112f2565b600160ff1b8487128281168783058912161561123a5761123a6112f2565b858712925087820587128484161615611255576112556112f2565b8785058712818416161561126b5761126b6112f2565b505050929093029392505050565b6000816000190483118215151615611293576112936112f2565b500290565b60008083128015600160ff1b8501841216156112b6576112b66112f2565b6001600160ff1b03840183138116156112d1576112d16112f2565b50500390565b60006000198214156112eb576112eb6112f2565b5060010190565b634e487b7160e01b600052601160045260246000fd5b634e487b7160e01b600052601260045260246000fdfe7caf00010d672e49be66ab36cd6825cdbb7331686163ac730a8a3646d3455352a264697066735822122027b233121c874a2f6d72566685aaa7cc6e238c269f0438008a6c0a83217923e264736f6c63430008040033","opcodes":"PUSH1 0x80 PUSH1 0x40 MSTORE CALLVALUE DUP1 ISZERO PUSH2 0x10 JUMPI PUSH1 0x0 DUP1 REVERT JUMPDEST POP PUSH2 0x1A CALLER PUSH2 0x1F JUMP JUMPDEST PUSH2 0x6F JUMP JUMPDEST PUSH1 0x0 DUP1 SLOAD PUSH1 0x1 PUSH1 0x1 PUSH1 0xA0 SHL SUB DUP4 DUP2 AND PUSH1 0x1 PUSH1 0x1 PUSH1 0xA0 SHL SUB NOT DUP4 AND DUP2 OR DUP5 SSTORE PUSH1 0x40 MLOAD SWAP2 SWAP1 SWAP3 AND SWAP3 DUP4 SWAP2 PUSH32 0x8BE0079C531659141344CD1FD0A4F28419497F9722A3DAAFE3B4186F6B6457E0 SWAP2 SWAP1 LOG3 POP POP JUMP JUMPDEST PUSH2 0x1374 DUP1 PUSH2 0x7E PUSH1 0x0 CODECOPY PUSH1 0x0 RETURN INVALID PUSH1 0x80 PUSH1 0x40 MSTORE CALLVALUE DUP1 ISZERO PUSH2 0x10 JUMPI PUSH1 0x0 DUP1 REVERT JUMPDEST POP PUSH1 0x4 CALLDATASIZE LT PUSH2 0x158 JUMPI PUSH1 0x0 CALLDATALOAD PUSH1 0xE0 SHR DUP1 PUSH4 0xA3F8DE52 GT PUSH2 0xC3 JUMPI DUP1 PUSH4 0xCE50AC03 GT PUSH2 0x7C JUMPI DUP1 PUSH4 0xCE50AC03 EQ PUSH2 0x28B JUMPI DUP1 PUSH4 0xD37F72ED EQ PUSH2 0x29E JUMPI DUP1 PUSH4 0xDCDB9502 EQ PUSH2 0x2A6 JUMPI DUP1 PUSH4 0xE01D98F4 EQ PUSH2 0x2AE JUMPI DUP1 PUSH4 0xE78C626C EQ PUSH2 0x2C1 JUMPI DUP1 PUSH4 0xF2FDE38B EQ PUSH2 0x2D4 JUMPI PUSH1 0x0 DUP1 REVERT JUMPDEST DUP1 PUSH4 0xA3F8DE52 EQ PUSH2 0x22F JUMPI DUP1 PUSH4 0xA565C183 EQ PUSH2 0x242 JUMPI DUP1 PUSH4 0xAFC5C582 EQ PUSH2 0x255 JUMPI DUP1 PUSH4 0xB6A07287 EQ PUSH2 0x268 JUMPI DUP1 PUSH4 0xC5184BD1 EQ PUSH2 0x270 JUMPI DUP1 PUSH4 0xCA446DD9 EQ PUSH2 0x278 JUMPI PUSH1 0x0 DUP1 REVERT JUMPDEST DUP1 PUSH4 0x76447312 GT PUSH2 0x115 JUMPI DUP1 PUSH4 0x76447312 EQ PUSH2 0x1D4 JUMPI DUP1 PUSH4 0x7C551587 EQ PUSH2 0x1E7 JUMPI DUP1 PUSH4 0x8DA5CB5B EQ PUSH2 0x1EF JUMPI DUP1 PUSH4 0x9516A104 EQ PUSH2 0x20A JUMPI DUP1 PUSH4 0x957EE50A EQ PUSH2 0x21F JUMPI DUP1 PUSH4 0x9D944118 EQ PUSH2 0x227 JUMPI PUSH1 0x0 DUP1 REVERT JUMPDEST DUP1 PUSH4 0xBBC98BA EQ PUSH2 0x15D JUMPI DUP1 PUSH4 0x108858FC EQ PUSH2 0x189 JUMPI DUP1 PUSH4 0x172635A9 EQ PUSH2 0x191 JUMPI DUP1 PUSH4 0x19AADFE2 EQ PUSH2 0x1A6 JUMPI DUP1 PUSH4 0x21F8A721 EQ PUSH2 0x1B9 JUMPI DUP1 PUSH4 0x715018A6 EQ PUSH2 0x1CC JUMPI JUMPDEST PUSH1 0x0 DUP1 REVERT JUMPDEST PUSH2 0x165 PUSH2 0x2E7 JUMP JUMPDEST PUSH1 0x40 DUP1 MLOAD PUSH1 0x1 PUSH1 0x1 PUSH1 0xA0 SHL SUB SWAP1 SWAP4 AND DUP4 MSTORE PUSH1 0x20 DUP4 ADD SWAP2 SWAP1 SWAP2 MSTORE ADD JUMPDEST PUSH1 0x40 MLOAD DUP1 SWAP2 SUB SWAP1 RETURN JUMPDEST PUSH2 0x165 PUSH2 0x309 JUMP JUMPDEST PUSH2 0x1A4 PUSH2 0x19F CALLDATASIZE PUSH1 0x4 PUSH2 0x109F JUMP JUMPDEST PUSH2 0x31E JUMP JUMPDEST STOP JUMPDEST PUSH2 0x1A4 PUSH2 0x1B4 CALLDATASIZE PUSH1 0x4 PUSH2 0x109F JUMP JUMPDEST PUSH2 0x3F3 JUMP JUMPDEST PUSH2 0x165 PUSH2 0x1C7 CALLDATASIZE PUSH1 0x4 PUSH2 0x10C0 JUMP JUMPDEST PUSH2 0x4D6 JUMP JUMPDEST PUSH2 0x1A4 PUSH2 0x4FF JUMP JUMPDEST PUSH2 0x1A4 PUSH2 0x1E2 CALLDATASIZE PUSH1 0x4 PUSH2 0x109F JUMP JUMPDEST PUSH2 0x513 JUMP JUMPDEST PUSH2 0x165 PUSH2 0x5DB JUMP JUMPDEST PUSH1 0x0 SLOAD PUSH1 0x40 MLOAD PUSH1 0x1 PUSH1 0x1 PUSH1 0xA0 SHL SUB SWAP1 SWAP2 AND DUP2 MSTORE PUSH1 0x20 ADD PUSH2 0x180 JUMP JUMPDEST PUSH2 0x212 PUSH2 0x5F5 JUMP JUMPDEST PUSH1 0x40 MLOAD PUSH2 0x180 SWAP2 SWAP1 PUSH2 0x1103 JUMP JUMPDEST PUSH2 0x165 PUSH2 0x774 JUMP JUMPDEST PUSH2 0x165 PUSH2 0x787 JUMP JUMPDEST PUSH2 0x1A4 PUSH2 0x23D CALLDATASIZE PUSH1 0x4 PUSH2 0x109F JUMP JUMPDEST PUSH2 0x79A JUMP JUMPDEST PUSH2 0x1A4 PUSH2 0x250 CALLDATASIZE PUSH1 0x4 PUSH2 0x109F JUMP JUMPDEST PUSH2 0x874 JUMP JUMPDEST PUSH2 0x1A4 PUSH2 0x263 CALLDATASIZE PUSH1 0x4 PUSH2 0x109F JUMP JUMPDEST PUSH2 0x942 JUMP JUMPDEST PUSH2 0x165 PUSH2 0xA13 JUMP JUMPDEST PUSH2 0x165 PUSH2 0xA26 JUMP JUMPDEST PUSH2 0x1A4 PUSH2 0x286 CALLDATASIZE PUSH1 0x4 PUSH2 0x10D8 JUMP JUMPDEST PUSH2 0xA3C JUMP JUMPDEST PUSH2 0x1A4 PUSH2 0x299 CALLDATASIZE PUSH1 0x4 PUSH2 0x109F JUMP JUMPDEST PUSH2 0xADC JUMP JUMPDEST PUSH2 0x165 PUSH2 0xBA4 JUMP JUMPDEST PUSH2 0x165 PUSH2 0xBBD JUMP JUMPDEST PUSH2 0x1A4 PUSH2 0x2BC CALLDATASIZE PUSH1 0x4 PUSH2 0x109F JUMP JUMPDEST PUSH2 0xBD0 JUMP JUMPDEST PUSH2 0x1A4 PUSH2 0x2CF CALLDATASIZE PUSH1 0x4 PUSH2 0x109F JUMP JUMPDEST PUSH2 0xCB3 JUMP JUMPDEST PUSH2 0x1A4 PUSH2 0x2E2 CALLDATASIZE PUSH1 0x4 PUSH2 0x109F JUMP JUMPDEST PUSH2 0xD7B JUMP JUMPDEST PUSH1 0x0 DUP1 PUSH2 0x301 PUSH11 0x6D61726B6574706C616365 PUSH1 0xA8 SHL PUSH2 0x4D6 JUMP JUMPDEST SWAP2 POP SWAP2 POP SWAP1 SWAP2 JUMP JUMPDEST PUSH1 0x0 DUP1 PUSH2 0x301 PUSH6 0x706E66745F73 PUSH1 0xD0 SHL PUSH2 0x4D6 JUMP JUMPDEST PUSH2 0x326 PUSH2 0xDF4 JUMP JUMPDEST DUP1 DUP1 EXTCODESIZE PUSH2 0x356 JUMPI PUSH1 0x40 MLOAD PUSH4 0x7433A8F PUSH1 0xE1 SHL DUP2 MSTORE PUSH1 0x1 PUSH1 0x1 PUSH1 0xA0 SHL SUB DUP3 AND PUSH1 0x4 DUP3 ADD MSTORE PUSH1 0x24 ADD JUMPDEST PUSH1 0x40 MLOAD DUP1 SWAP2 SUB SWAP1 REVERT JUMPDEST PUSH2 0x367 PUSH4 0x6F776E6B PUSH1 0xE0 SHL DUP4 PUSH2 0xA3C JUMP JUMPDEST PUSH4 0x6F776E6B PUSH1 0xE0 SHL PUSH1 0x0 MSTORE PUSH1 0x2 PUSH1 0x20 SWAP1 DUP2 MSTORE PUSH32 0x56E5E2037F1E3906847567744196BFD7E5DC9620A7C9AC9D5379F41DBD1EF427 SLOAD PUSH1 0x40 DUP1 MLOAD DUP2 DUP2 MSTORE PUSH1 0x10 SWAP2 DUP2 ADD SWAP2 SWAP1 SWAP2 MSTORE PUSH16 0x506C617945737461746573204F574E4B PUSH1 0x80 SHL PUSH1 0x60 DUP3 ADD MSTORE SWAP2 DUP3 ADD MSTORE PUSH1 0x1 PUSH1 0x1 PUSH1 0xA0 SHL SUB DUP4 AND SWAP1 PUSH1 0x0 DUP1 MLOAD PUSH1 0x20 PUSH2 0x131F DUP4 CODECOPY DUP2 MLOAD SWAP2 MSTORE SWAP1 PUSH1 0x80 ADD JUMPDEST PUSH1 0x40 MLOAD DUP1 SWAP2 SUB SWAP1 LOG2 POP POP JUMP JUMPDEST PUSH2 0x3FB PUSH2 0xDF4 JUMP JUMPDEST DUP1 DUP1 EXTCODESIZE PUSH2 0x426 JUMPI PUSH1 0x40 MLOAD PUSH4 0x7433A8F PUSH1 0xE1 SHL DUP2 MSTORE PUSH1 0x1 PUSH1 0x1 PUSH1 0xA0 SHL SUB DUP3 AND PUSH1 0x4 DUP3 ADD MSTORE PUSH1 0x24 ADD PUSH2 0x34D JUMP JUMPDEST PUSH2 0x43E PUSH11 0x6D61726B6574706C616365 PUSH1 0xA8 SHL DUP4 PUSH2 0xA3C JUMP JUMPDEST PUSH11 0x6D61726B6574706C616365 PUSH1 0xA8 SHL PUSH1 0x0 MSTORE PUSH1 0x2 PUSH1 0x20 SWAP1 DUP2 MSTORE PUSH32 0x92AD0DE5FD2AC5CFCE09CE9ECF9F6D1125F01C01E7130250CF7F1CFB3BC1CACE SLOAD PUSH1 0x40 DUP1 MLOAD DUP2 DUP2 MSTORE PUSH1 0x17 SWAP2 DUP2 ADD SWAP2 SWAP1 SWAP2 MSTORE PUSH32 0x506C617945737461746573204D61726B6574706C616365000000000000000000 PUSH1 0x60 DUP3 ADD MSTORE SWAP2 DUP3 ADD MSTORE PUSH1 0x1 PUSH1 0x1 PUSH1 0xA0 SHL SUB DUP4 AND SWAP1 PUSH1 0x0 DUP1 MLOAD PUSH1 0x20 PUSH2 0x131F DUP4 CODECOPY DUP2 MLOAD SWAP2 MSTORE SWAP1 PUSH1 0x80 ADD PUSH2 0x3E7 JUMP JUMPDEST PUSH1 0x0 SWAP1 DUP2 MSTORE PUSH1 0x1 PUSH1 0x20 SWAP1 DUP2 MSTORE PUSH1 0x40 DUP1 DUP4 KECCAK256 SLOAD PUSH1 0x2 SWAP1 SWAP3 MSTORE SWAP1 SWAP2 KECCAK256 SLOAD PUSH1 0x1 PUSH1 0x1 PUSH1 0xA0 SHL SUB SWAP1 SWAP2 AND SWAP2 JUMP JUMPDEST PUSH2 0x507 PUSH2 0xDF4 JUMP JUMPDEST PUSH2 0x511 PUSH1 0x0 PUSH2 0xE4E JUMP JUMPDEST JUMP JUMPDEST PUSH2 0x51B PUSH2 0xDF4 JUMP JUMPDEST DUP1 DUP1 EXTCODESIZE PUSH2 0x546 JUMPI PUSH1 0x40 MLOAD PUSH4 0x7433A8F PUSH1 0xE1 SHL DUP2 MSTORE PUSH1 0x1 PUSH1 0x1 PUSH1 0xA0 SHL SUB DUP3 AND PUSH1 0x4 DUP3 ADD MSTORE PUSH1 0x24 ADD PUSH2 0x34D JUMP JUMPDEST PUSH2 0x557 PUSH4 0x7065667 PUSH1 0xE4 SHL DUP4 PUSH2 0xA3C JUMP JUMPDEST PUSH4 0x7065667 PUSH1 0xE4 SHL PUSH1 0x0 MSTORE PUSH1 0x2 PUSH1 0x20 SWAP1 DUP2 MSTORE PUSH32 0xBFFF7271645C8A95E8F8448FC1537CC19BDD618EE002DB010EAA9BB742418C53 SLOAD PUSH1 0x40 DUP1 MLOAD DUP2 DUP2 MSTORE PUSH1 0x10 SWAP2 DUP2 ADD SWAP2 SWAP1 SWAP2 MSTORE PUSH16 0x506C617945737461746573205045465 PUSH1 0x84 SHL PUSH1 0x60 DUP3 ADD MSTORE SWAP2 DUP3 ADD MSTORE PUSH1 0x1 PUSH1 0x1 PUSH1 0xA0 SHL SUB DUP4 AND SWAP1 PUSH1 0x0 DUP1 MLOAD PUSH1 0x20 PUSH2 0x131F DUP4 CODECOPY DUP2 MLOAD SWAP2 MSTORE SWAP1 PUSH1 0x80 ADD PUSH2 0x3E7 JUMP JUMPDEST PUSH1 0x0 DUP1 PUSH2 0x301 PUSH11 0x706E66747374616B696E67 PUSH1 0xA8 SHL PUSH2 0x4D6 JUMP JUMPDEST PUSH1 0x3 SLOAD PUSH1 0x60 SWAP1 PUSH8 0xFFFFFFFFFFFFFFFF DUP2 GT ISZERO PUSH2 0x621 JUMPI PUSH4 0x4E487B71 PUSH1 0xE0 SHL PUSH1 0x0 MSTORE PUSH1 0x41 PUSH1 0x4 MSTORE PUSH1 0x24 PUSH1 0x0 REVERT JUMPDEST PUSH1 0x40 MLOAD SWAP1 DUP1 DUP3 MSTORE DUP1 PUSH1 0x20 MUL PUSH1 0x20 ADD DUP3 ADD PUSH1 0x40 MSTORE DUP1 ISZERO PUSH2 0x666 JUMPI DUP2 PUSH1 0x20 ADD JUMPDEST PUSH1 0x40 DUP1 MLOAD DUP1 DUP3 ADD SWAP1 SWAP2 MSTORE PUSH1 0x0 DUP1 DUP3 MSTORE PUSH1 0x20 DUP3 ADD MSTORE DUP2 MSTORE PUSH1 0x20 ADD SWAP1 PUSH1 0x1 SWAP1 SUB SWAP1 DUP2 PUSH2 0x63F JUMPI SWAP1 POP JUMPDEST POP SWAP1 POP PUSH1 0x0 JUMPDEST PUSH1 0x3 SLOAD DUP2 LT ISZERO PUSH2 0x770 JUMPI PUSH1 0x3 DUP2 DUP2 SLOAD DUP2 LT PUSH2 0x697 JUMPI PUSH4 0x4E487B71 PUSH1 0xE0 SHL PUSH1 0x0 MSTORE PUSH1 0x32 PUSH1 0x4 MSTORE PUSH1 0x24 PUSH1 0x0 REVERT JUMPDEST SWAP1 PUSH1 0x0 MSTORE PUSH1 0x20 PUSH1 0x0 KECCAK256 ADD SLOAD DUP3 DUP3 DUP2 MLOAD DUP2 LT PUSH2 0x6C2 JUMPI PUSH4 0x4E487B71 PUSH1 0xE0 SHL PUSH1 0x0 MSTORE PUSH1 0x32 PUSH1 0x4 MSTORE PUSH1 0x24 PUSH1 0x0 REVERT JUMPDEST PUSH1 0x20 MUL PUSH1 0x20 ADD ADD MLOAD PUSH1 0x0 ADD DUP2 DUP2 MSTORE POP POP PUSH1 0x1 PUSH1 0x0 PUSH1 0x3 DUP4 DUP2 SLOAD DUP2 LT PUSH2 0x6F7 JUMPI PUSH4 0x4E487B71 PUSH1 0xE0 SHL PUSH1 0x0 MSTORE PUSH1 0x32 PUSH1 0x4 MSTORE PUSH1 0x24 PUSH1 0x0 REVERT JUMPDEST SWAP1 PUSH1 0x0 MSTORE PUSH1 0x20 PUSH1 0x0 KECCAK256 ADD SLOAD DUP2 MSTORE PUSH1 0x20 ADD SWAP1 DUP2 MSTORE PUSH1 0x20 ADD PUSH1 0x0 KECCAK256 PUSH1 0x0 SWAP1 SLOAD SWAP1 PUSH2 0x100 EXP SWAP1 DIV PUSH1 0x1 PUSH1 0x1 PUSH1 0xA0 SHL SUB AND DUP3 DUP3 DUP2 MLOAD DUP2 LT PUSH2 0x744 JUMPI PUSH4 0x4E487B71 PUSH1 0xE0 SHL PUSH1 0x0 MSTORE PUSH1 0x32 PUSH1 0x4 MSTORE PUSH1 0x24 PUSH1 0x0 REVERT JUMPDEST PUSH1 0x20 SWAP1 DUP2 MUL SWAP2 SWAP1 SWAP2 ADD DUP2 ADD MLOAD PUSH1 0x1 PUSH1 0x1 PUSH1 0xA0 SHL SUB SWAP1 SWAP3 AND SWAP2 ADD MSTORE DUP1 PUSH2 0x768 DUP2 PUSH2 0x12D7 JUMP JUMPDEST SWAP2 POP POP PUSH2 0x66C JUMP JUMPDEST POP SWAP1 JUMP JUMPDEST PUSH1 0x0 DUP1 PUSH2 0x301 PUSH4 0x70656173 PUSH1 0xE0 SHL PUSH2 0x4D6 JUMP JUMPDEST PUSH1 0x0 DUP1 PUSH2 0x301 PUSH4 0x7065667 PUSH1 0xE4 SHL PUSH2 0x4D6 JUMP JUMPDEST PUSH2 0x7A2 PUSH2 0xDF4 JUMP JUMPDEST DUP1 DUP1 EXTCODESIZE PUSH2 0x7CD JUMPI PUSH1 0x40 MLOAD PUSH4 0x7433A8F PUSH1 0xE1 SHL DUP2 MSTORE PUSH1 0x1 PUSH1 0x1 PUSH1 0xA0 SHL SUB DUP3 AND PUSH1 0x4 DUP3 ADD MSTORE PUSH1 0x24 ADD PUSH2 0x34D JUMP JUMPDEST PUSH2 0x7E4 PUSH10 0x67616D65656E67696E65 PUSH1 0xB0 SHL DUP4 PUSH2 0xA3C JUMP JUMPDEST PUSH10 0x67616D65656E67696E65 PUSH1 0xB0 SHL PUSH1 0x0 MSTORE PUSH1 0x2 PUSH1 0x20 SWAP1 DUP2 MSTORE PUSH32 0xE7A3569C39A6B2C5D10DD254F0DFC3D0655C00886A40C9F2BD23A9FC6C341C42 SLOAD PUSH1 0x40 DUP1 MLOAD DUP2 DUP2 MSTORE PUSH1 0x16 SWAP2 DUP2 ADD SWAP2 SWAP1 SWAP2 MSTORE PUSH22 0x506C6179457374617465732047616D65456E67696E65 PUSH1 0x50 SHL PUSH1 0x60 DUP3 ADD MSTORE SWAP2 DUP3 ADD MSTORE PUSH1 0x1 PUSH1 0x1 PUSH1 0xA0 SHL SUB DUP4 AND SWAP1 PUSH1 0x0 DUP1 MLOAD PUSH1 0x20 PUSH2 0x131F DUP4 CODECOPY DUP2 MLOAD SWAP2 MSTORE SWAP1 PUSH1 0x80 ADD PUSH2 0x3E7 JUMP JUMPDEST PUSH2 0x87C PUSH2 0xDF4 JUMP JUMPDEST DUP1 DUP1 EXTCODESIZE PUSH2 0x8A7 JUMPI PUSH1 0x40 MLOAD PUSH4 0x7433A8F PUSH1 0xE1 SHL DUP2 MSTORE PUSH1 0x1 PUSH1 0x1 PUSH1 0xA0 SHL SUB DUP3 AND PUSH1 0x4 DUP3 ADD MSTORE PUSH1 0x24 ADD PUSH2 0x34D JUMP JUMPDEST PUSH2 0x8BA PUSH6 0x706E66745F73 PUSH1 0xD0 SHL DUP4 PUSH2 0xA3C JUMP JUMPDEST PUSH6 0x706E66745F73 PUSH1 0xD0 SHL PUSH1 0x0 MSTORE PUSH1 0x2 PUSH1 0x20 SWAP1 DUP2 MSTORE PUSH32 0xDEBA0E10C703457CF2338C7B7982A7D708118DD763F0E91F1E26B6CE2E6F1E46 SLOAD PUSH1 0x40 DUP1 MLOAD DUP2 DUP2 MSTORE PUSH1 0x12 SWAP2 DUP2 ADD SWAP2 SWAP1 SWAP2 MSTORE PUSH18 0x506C61794573746174657320504E46542053 PUSH1 0x70 SHL PUSH1 0x60 DUP3 ADD MSTORE SWAP2 DUP3 ADD MSTORE PUSH1 0x1 PUSH1 0x1 PUSH1 0xA0 SHL SUB DUP4 AND SWAP1 PUSH1 0x0 DUP1 MLOAD PUSH1 0x20 PUSH2 0x131F DUP4 CODECOPY DUP2 MLOAD SWAP2 MSTORE SWAP1 PUSH1 0x80 ADD PUSH2 0x3E7 JUMP JUMPDEST PUSH2 0x94A PUSH2 0xDF4 JUMP JUMPDEST DUP1 DUP1 EXTCODESIZE PUSH2 0x975 JUMPI PUSH1 0x40 MLOAD PUSH4 0x7433A8F PUSH1 0xE1 SHL DUP2 MSTORE PUSH1 0x1 PUSH1 0x1 PUSH1 0xA0 SHL SUB DUP3 AND PUSH1 0x4 DUP3 ADD MSTORE PUSH1 0x24 ADD PUSH2 0x34D JUMP JUMPDEST PUSH2 0x989 PUSH7 0x706E66745F7373 PUSH1 0xC8 SHL DUP4 PUSH2 0xA3C JUMP JUMPDEST PUSH7 0x706E66745F7373 PUSH1 0xC8 SHL PUSH1 0x0 MSTORE PUSH1 0x2 PUSH1 0x20 SWAP1 DUP2 MSTORE PUSH32 0x60C031306A08960FFD5B1D21A401D6E772E1790EBF4F19B328B17C6C2A61489A SLOAD PUSH1 0x40 DUP1 MLOAD DUP2 DUP2 MSTORE PUSH1 0x13 SWAP2 DUP2 ADD SWAP2 SWAP1 SWAP2 MSTORE PUSH19 0x506C61794573746174657320504E4654205353 PUSH1 0x68 SHL PUSH1 0x60 DUP3 ADD MSTORE SWAP2 DUP3 ADD MSTORE PUSH1 0x1 PUSH1 0x1 PUSH1 0xA0 SHL SUB DUP4 AND SWAP1 PUSH1 0x0 DUP1 MLOAD PUSH1 0x20 PUSH2 0x131F DUP4 CODECOPY DUP2 MLOAD SWAP2 MSTORE SWAP1 PUSH1 0x80 ADD PUSH2 0x3E7 JUMP JUMPDEST PUSH1 0x0 DUP1 PUSH2 0x301 PUSH4 0x6F776E6B PUSH1 0xE0 SHL PUSH2 0x4D6 JUMP JUMPDEST PUSH1 0x0 DUP1 PUSH2 0x301 PUSH7 0x706E66745F7373 PUSH1 0xC8 SHL PUSH2 0x4D6 JUMP JUMPDEST PUSH2 0xA44 PUSH2 0xDF4 JUMP JUMPDEST PUSH1 0x0 DUP3 DUP2 MSTORE PUSH1 0x1 PUSH1 0x20 MSTORE PUSH1 0x40 SWAP1 KECCAK256 SLOAD PUSH1 0x1 PUSH1 0x1 PUSH1 0xA0 SHL SUB AND PUSH2 0xA96 JUMPI PUSH1 0x3 DUP1 SLOAD PUSH1 0x1 DUP2 ADD DUP3 SSTORE PUSH1 0x0 SWAP2 SWAP1 SWAP2 MSTORE PUSH32 0xC2575A0E9E593C00F959F8C92F12DB2869C3395A3B0502D05E2516446F71F85B ADD DUP3 SWAP1 SSTORE JUMPDEST PUSH1 0x0 DUP3 DUP2 MSTORE PUSH1 0x1 PUSH1 0x20 MSTORE PUSH1 0x40 SWAP1 KECCAK256 DUP1 SLOAD PUSH1 0x1 PUSH1 0x1 PUSH1 0xA0 SHL SUB NOT AND PUSH1 0x1 PUSH1 0x1 PUSH1 0xA0 SHL SUB DUP4 AND OR SWAP1 SSTORE PUSH2 0xAC6 TIMESTAMP PUSH2 0xE9E JUMP JUMPDEST PUSH1 0x0 SWAP3 DUP4 MSTORE PUSH1 0x2 PUSH1 0x20 MSTORE PUSH1 0x40 SWAP1 SWAP3 KECCAK256 SWAP2 SWAP1 SWAP2 SSTORE POP JUMP JUMPDEST PUSH2 0xAE4 PUSH2 0xDF4 JUMP JUMPDEST DUP1 DUP1 EXTCODESIZE PUSH2 0xB0F JUMPI PUSH1 0x40 MLOAD PUSH4 0x7433A8F PUSH1 0xE1 SHL DUP2 MSTORE PUSH1 0x1 PUSH1 0x1 PUSH1 0xA0 SHL SUB DUP3 AND PUSH1 0x4 DUP3 ADD MSTORE PUSH1 0x24 ADD PUSH2 0x34D JUMP JUMPDEST PUSH2 0xB20 PUSH4 0x70656173 PUSH1 0xE0 SHL DUP4 PUSH2 0xA3C JUMP JUMPDEST PUSH4 0x70656173 PUSH1 0xE0 SHL PUSH1 0x0 MSTORE PUSH1 0x2 PUSH1 0x20 SWAP1 DUP2 MSTORE PUSH32 0x2E113E50B3815D8096DFC13D3887AFBA53DCD6E9322DFC21E736C7E8A628F080 SLOAD PUSH1 0x40 DUP1 MLOAD DUP2 DUP2 MSTORE PUSH1 0x10 SWAP2 DUP2 ADD SWAP2 SWAP1 SWAP2 MSTORE PUSH16 0x506C6179457374617465732050454153 PUSH1 0x80 SHL PUSH1 0x60 DUP3 ADD MSTORE SWAP2 DUP3 ADD MSTORE PUSH1 0x1 PUSH1 0x1 PUSH1 0xA0 SHL SUB DUP4 AND SWAP1 PUSH1 0x0 DUP1 MLOAD PUSH1 0x20 PUSH2 0x131F DUP4 CODECOPY DUP2 MLOAD SWAP2 MSTORE SWAP1 PUSH1 0x80 ADD PUSH2 0x3E7 JUMP JUMPDEST PUSH1 0x0 DUP1 PUSH2 0x301 PUSH10 0x67616D65656E67696E65 PUSH1 0xB0 SHL PUSH2 0x4D6 JUMP JUMPDEST PUSH1 0x0 DUP1 PUSH2 0x301 PUSH4 0x1C189C9D PUSH1 0xE2 SHL PUSH2 0x4D6 JUMP JUMPDEST PUSH2 0xBD8 PUSH2 0xDF4 JUMP JUMPDEST DUP1 DUP1 EXTCODESIZE PUSH2 0xC03 JUMPI PUSH1 0x40 MLOAD PUSH4 0x7433A8F PUSH1 0xE1 SHL DUP2 MSTORE PUSH1 0x1 PUSH1 0x1 PUSH1 0xA0 SHL SUB DUP3 AND PUSH1 0x4 DUP3 ADD MSTORE PUSH1 0x24 ADD PUSH2 0x34D JUMP JUMPDEST PUSH2 0xC1B PUSH11 0x706E66747374616B696E67 PUSH1 0xA8 SHL DUP4 PUSH2 0xA3C JUMP JUMPDEST PUSH11 0x706E66747374616B696E67 PUSH1 0xA8 SHL PUSH1 0x0 MSTORE PUSH1 0x2 PUSH1 0x20 SWAP1 DUP2 MSTORE PUSH32 0x8227F7A4C558FAEC58B5A2925040B6F1BB2AC6A9696736087A9483CD8BCD04E7 SLOAD PUSH1 0x40 DUP1 MLOAD DUP2 DUP2 MSTORE PUSH1 0x17 SWAP2 DUP2 ADD SWAP2 SWAP1 SWAP2 MSTORE PUSH32 0x506C61794573746174657320506E66745374616B696E67000000000000000000 PUSH1 0x60 DUP3 ADD MSTORE SWAP2 DUP3 ADD MSTORE PUSH1 0x1 PUSH1 0x1 PUSH1 0xA0 SHL SUB DUP4 AND SWAP1 PUSH1 0x0 DUP1 MLOAD PUSH1 0x20 PUSH2 0x131F DUP4 CODECOPY DUP2 MLOAD SWAP2 MSTORE SWAP1 PUSH1 0x80 ADD PUSH2 0x3E7 JUMP JUMPDEST PUSH2 0xCBB PUSH2 0xDF4 JUMP JUMPDEST DUP1 DUP1 EXTCODESIZE PUSH2 0xCE6 JUMPI PUSH1 0x40 MLOAD PUSH4 0x7433A8F PUSH1 0xE1 SHL DUP2 MSTORE PUSH1 0x1 PUSH1 0x1 PUSH1 0xA0 SHL SUB DUP3 AND PUSH1 0x4 DUP3 ADD MSTORE PUSH1 0x24 ADD PUSH2 0x34D JUMP JUMPDEST PUSH2 0xCF7 PUSH4 0x1C189C9D PUSH1 0xE2 SHL DUP4 PUSH2 0xA3C JUMP JUMPDEST PUSH4 0x1C189C9D PUSH1 0xE2 SHL PUSH1 0x0 MSTORE PUSH1 0x2 PUSH1 0x20 SWAP1 DUP2 MSTORE PUSH32 0xBD18B816D6D66F01EBEA78A5C9C40456527A563F0661B46423424A69D0E838E9 SLOAD PUSH1 0x40 DUP1 MLOAD DUP2 DUP2 MSTORE PUSH1 0x10 SWAP2 DUP2 ADD SWAP2 SWAP1 SWAP2 MSTORE PUSH16 0x141B185E515CDD185D195CC814109495 PUSH1 0x82 SHL PUSH1 0x60 DUP3 ADD MSTORE SWAP2 DUP3 ADD MSTORE PUSH1 0x1 PUSH1 0x1 PUSH1 0xA0 SHL SUB DUP4 AND SWAP1 PUSH1 0x0 DUP1 MLOAD PUSH1 0x20 PUSH2 0x131F DUP4 CODECOPY DUP2 MLOAD SWAP2 MSTORE SWAP1 PUSH1 0x80 ADD PUSH2 0x3E7 JUMP JUMPDEST PUSH2 0xD83 PUSH2 0xDF4 JUMP JUMPDEST PUSH1 0x1 PUSH1 0x1 PUSH1 0xA0 SHL SUB DUP2 AND PUSH2 0xDE8 JUMPI PUSH1 0x40 MLOAD PUSH3 0x461BCD PUSH1 0xE5 SHL DUP2 MSTORE PUSH1 0x20 PUSH1 0x4 DUP3 ADD MSTORE PUSH1 0x26 PUSH1 0x24 DUP3 ADD MSTORE PUSH32 0x4F776E61626C653A206E6577206F776E657220697320746865207A65726F2061 PUSH1 0x44 DUP3 ADD MSTORE PUSH6 0x646472657373 PUSH1 0xD0 SHL PUSH1 0x64 DUP3 ADD MSTORE PUSH1 0x84 ADD PUSH2 0x34D JUMP JUMPDEST PUSH2 0xDF1 DUP2 PUSH2 0xE4E JUMP JUMPDEST POP JUMP JUMPDEST PUSH1 0x0 SLOAD PUSH1 0x1 PUSH1 0x1 PUSH1 0xA0 SHL SUB AND CALLER EQ PUSH2 0x511 JUMPI PUSH1 0x40 MLOAD PUSH3 0x461BCD PUSH1 0xE5 SHL DUP2 MSTORE PUSH1 0x20 PUSH1 0x4 DUP3 ADD DUP2 SWAP1 MSTORE PUSH1 0x24 DUP3 ADD MSTORE PUSH32 0x4F776E61626C653A2063616C6C6572206973206E6F7420746865206F776E6572 PUSH1 0x44 DUP3 ADD MSTORE PUSH1 0x64 ADD PUSH2 0x34D JUMP JUMPDEST PUSH1 0x0 DUP1 SLOAD PUSH1 0x1 PUSH1 0x1 PUSH1 0xA0 SHL SUB DUP4 DUP2 AND PUSH1 0x1 PUSH1 0x1 PUSH1 0xA0 SHL SUB NOT DUP4 AND DUP2 OR DUP5 SSTORE PUSH1 0x40 MLOAD SWAP2 SWAP1 SWAP3 AND SWAP3 DUP4 SWAP2 PUSH32 0x8BE0079C531659141344CD1FD0A4F28419497F9722A3DAAFE3B4186F6B6457E0 SWAP2 SWAP1 LOG3 POP POP JUMP JUMPDEST PUSH1 0x0 DUP1 PUSH1 0x0 DUP1 PUSH2 0xEAD DUP6 PUSH2 0xEE9 JUMP JUMPDEST SWAP2 SWAP5 POP SWAP3 POP SWAP1 POP DUP1 PUSH2 0xEC0 DUP4 PUSH1 0x64 PUSH2 0x1279 JUMP JUMPDEST PUSH2 0xECC DUP6 PUSH2 0x2710 PUSH2 0x1279 JUMP JUMPDEST PUSH2 0xED6 SWAP2 SWAP1 PUSH2 0x119C JUMP JUMPDEST PUSH2 0xEE0 SWAP2 SWAP1 PUSH2 0x119C JUMP JUMPDEST SWAP6 SWAP5 POP POP POP POP POP JUMP JUMPDEST PUSH1 0x0 DUP1 DUP1 PUSH2 0xF02 PUSH2 0xEFD PUSH3 0x15180 DUP7 PUSH2 0x11E2 JUMP JUMPDEST PUSH2 0xF0F JUMP JUMPDEST SWAP2 SWAP7 SWAP1 SWAP6 POP SWAP1 SWAP4 POP SWAP2 POP POP JUMP JUMPDEST PUSH1 0x0 DUP1 DUP1 DUP4 DUP2 PUSH3 0x253D8C PUSH2 0xF26 DUP4 PUSH3 0x10BD9 PUSH2 0x115B JUMP JUMPDEST PUSH2 0xF30 SWAP2 SWAP1 PUSH2 0x115B JUMP JUMPDEST SWAP1 POP PUSH1 0x0 PUSH3 0x23AB1 PUSH2 0xF43 DUP4 PUSH1 0x4 PUSH2 0x11F6 JUMP JUMPDEST PUSH2 0xF4D SWAP2 SWAP1 PUSH2 0x11B4 JUMP JUMPDEST SWAP1 POP PUSH1 0x4 PUSH2 0xF5E DUP3 PUSH3 0x23AB1 PUSH2 0x11F6 JUMP JUMPDEST PUSH2 0xF69 SWAP1 PUSH1 0x3 PUSH2 0x115B JUMP JUMPDEST PUSH2 0xF73 SWAP2 SWAP1 PUSH2 0x11B4 JUMP JUMPDEST PUSH2 0xF7D SWAP1 DUP4 PUSH2 0x1298 JUMP JUMPDEST SWAP2 POP PUSH1 0x0 PUSH3 0x164B09 PUSH2 0xF90 DUP5 PUSH1 0x1 PUSH2 0x115B JUMP JUMPDEST PUSH2 0xF9C SWAP1 PUSH2 0xFA0 PUSH2 0x11F6 JUMP JUMPDEST PUSH2 0xFA6 SWAP2 SWAP1 PUSH2 0x11B4 JUMP JUMPDEST SWAP1 POP PUSH1 0x4 PUSH2 0xFB6 DUP3 PUSH2 0x5B5 PUSH2 0x11F6 JUMP JUMPDEST PUSH2 0xFC0 SWAP2 SWAP1 PUSH2 0x11B4 JUMP JUMPDEST PUSH2 0xFCA SWAP1 DUP5 PUSH2 0x1298 JUMP JUMPDEST PUSH2 0xFD5 SWAP1 PUSH1 0x1F PUSH2 0x115B JUMP JUMPDEST SWAP3 POP PUSH1 0x0 PUSH2 0x98F PUSH2 0xFE7 DUP6 PUSH1 0x50 PUSH2 0x11F6 JUMP JUMPDEST PUSH2 0xFF1 SWAP2 SWAP1 PUSH2 0x11B4 JUMP JUMPDEST SWAP1 POP PUSH1 0x0 PUSH1 0x50 PUSH2 0x1003 DUP4 PUSH2 0x98F PUSH2 0x11F6 JUMP JUMPDEST PUSH2 0x100D SWAP2 SWAP1 PUSH2 0x11B4 JUMP JUMPDEST PUSH2 0x1017 SWAP1 DUP7 PUSH2 0x1298 JUMP JUMPDEST SWAP1 POP PUSH2 0x1024 PUSH1 0xB DUP4 PUSH2 0x11B4 JUMP JUMPDEST SWAP5 POP PUSH2 0x1031 DUP6 PUSH1 0xC PUSH2 0x11F6 JUMP JUMPDEST PUSH2 0x103C DUP4 PUSH1 0x2 PUSH2 0x115B JUMP JUMPDEST PUSH2 0x1046 SWAP2 SWAP1 PUSH2 0x1298 JUMP JUMPDEST SWAP2 POP DUP5 DUP4 PUSH2 0x1055 PUSH1 0x31 DUP8 PUSH2 0x1298 JUMP JUMPDEST PUSH2 0x1060 SWAP1 PUSH1 0x64 PUSH2 0x11F6 JUMP JUMPDEST PUSH2 0x106A SWAP2 SWAP1 PUSH2 0x115B JUMP JUMPDEST PUSH2 0x1074 SWAP2 SWAP1 PUSH2 0x115B JUMP JUMPDEST SWAP11 SWAP2 SWAP10 POP SWAP8 POP SWAP6 POP POP POP POP POP POP JUMP JUMPDEST DUP1 CALLDATALOAD PUSH1 0x1 PUSH1 0x1 PUSH1 0xA0 SHL SUB DUP2 AND DUP2 EQ PUSH2 0x109A JUMPI PUSH1 0x0 DUP1 REVERT JUMPDEST SWAP2 SWAP1 POP JUMP JUMPDEST PUSH1 0x0 PUSH1 0x20 DUP3 DUP5 SUB SLT ISZERO PUSH2 0x10B0 JUMPI DUP1 DUP2 REVERT JUMPDEST PUSH2 0x10B9 DUP3 PUSH2 0x1083 JUMP JUMPDEST SWAP4 SWAP3 POP POP POP JUMP JUMPDEST PUSH1 0x0 PUSH1 0x20 DUP3 DUP5 SUB SLT ISZERO PUSH2 0x10D1 JUMPI DUP1 DUP2 REVERT JUMPDEST POP CALLDATALOAD SWAP2 SWAP1 POP JUMP JUMPDEST PUSH1 0x0 DUP1 PUSH1 0x40 DUP4 DUP6 SUB SLT ISZERO PUSH2 0x10EA JUMPI DUP1 DUP2 REVERT JUMPDEST DUP3 CALLDATALOAD SWAP2 POP PUSH2 0x10FA PUSH1 0x20 DUP5 ADD PUSH2 0x1083 JUMP JUMPDEST SWAP1 POP SWAP3 POP SWAP3 SWAP1 POP JUMP JUMPDEST PUSH1 0x20 DUP1 DUP3 MSTORE DUP3 MLOAD DUP3 DUP3 ADD DUP2 SWAP1 MSTORE PUSH1 0x0 SWAP2 SWAP1 PUSH1 0x40 SWAP1 DUP2 DUP6 ADD SWAP1 DUP7 DUP5 ADD DUP6 JUMPDEST DUP3 DUP2 LT ISZERO PUSH2 0x114E JUMPI DUP2 MLOAD DUP1 MLOAD DUP6 MSTORE DUP7 ADD MLOAD PUSH1 0x1 PUSH1 0x1 PUSH1 0xA0 SHL SUB AND DUP7 DUP6 ADD MSTORE SWAP3 DUP5 ADD SWAP3 SWAP1 DUP6 ADD SWAP1 PUSH1 0x1 ADD PUSH2 0x1120 JUMP JUMPDEST POP SWAP2 SWAP8 SWAP7 POP POP POP POP POP POP POP JUMP JUMPDEST PUSH1 0x0 DUP1 DUP3 SLT DUP1 ISZERO PUSH1 0x1 PUSH1 0x1 PUSH1 0xFF SHL SUB DUP5 SWAP1 SUB DUP6 SGT AND ISZERO PUSH2 0x117D JUMPI PUSH2 0x117D PUSH2 0x12F2 JUMP JUMPDEST PUSH1 0x1 PUSH1 0xFF SHL DUP4 SWAP1 SUB DUP5 SLT DUP2 AND ISZERO PUSH2 0x1196 JUMPI PUSH2 0x1196 PUSH2 0x12F2 JUMP JUMPDEST POP POP ADD SWAP1 JUMP JUMPDEST PUSH1 0x0 DUP3 NOT DUP3 GT ISZERO PUSH2 0x11AF JUMPI PUSH2 0x11AF PUSH2 0x12F2 JUMP JUMPDEST POP ADD SWAP1 JUMP JUMPDEST PUSH1 0x0 DUP3 PUSH2 0x11C3 JUMPI PUSH2 0x11C3 PUSH2 0x1308 JUMP JUMPDEST PUSH1 0x1 PUSH1 0xFF SHL DUP3 EQ PUSH1 0x0 NOT DUP5 EQ AND ISZERO PUSH2 0x11DD JUMPI PUSH2 0x11DD PUSH2 0x12F2 JUMP JUMPDEST POP SDIV SWAP1 JUMP JUMPDEST PUSH1 0x0 DUP3 PUSH2 0x11F1 JUMPI PUSH2 0x11F1 PUSH2 0x1308 JUMP JUMPDEST POP DIV SWAP1 JUMP JUMPDEST PUSH1 0x0 PUSH1 0x1 PUSH1 0x1 PUSH1 0xFF SHL SUB DUP2 DUP5 SGT DUP3 DUP5 SGT DUP1 DUP3 AND DUP7 DUP5 DIV DUP7 GT AND ISZERO PUSH2 0x121C JUMPI PUSH2 0x121C PUSH2 0x12F2 JUMP JUMPDEST PUSH1 0x1 PUSH1 0xFF SHL DUP5 DUP8 SLT DUP3 DUP2 AND DUP8 DUP4 SDIV DUP10 SLT AND ISZERO PUSH2 0x123A JUMPI PUSH2 0x123A PUSH2 0x12F2 JUMP JUMPDEST DUP6 DUP8 SLT SWAP3 POP DUP8 DUP3 SDIV DUP8 SLT DUP5 DUP5 AND AND ISZERO PUSH2 0x1255 JUMPI PUSH2 0x1255 PUSH2 0x12F2 JUMP JUMPDEST DUP8 DUP6 SDIV DUP8 SLT DUP2 DUP5 AND AND ISZERO PUSH2 0x126B JUMPI PUSH2 0x126B PUSH2 0x12F2 JUMP JUMPDEST POP POP POP SWAP3 SWAP1 SWAP4 MUL SWAP4 SWAP3 POP POP POP JUMP JUMPDEST PUSH1 0x0 DUP2 PUSH1 0x0 NOT DIV DUP4 GT DUP3 ISZERO ISZERO AND ISZERO PUSH2 0x1293 JUMPI PUSH2 0x1293 PUSH2 0x12F2 JUMP JUMPDEST POP MUL SWAP1 JUMP JUMPDEST PUSH1 0x0 DUP1 DUP4 SLT DUP1 ISZERO PUSH1 0x1 PUSH1 0xFF SHL DUP6 ADD DUP5 SLT AND ISZERO PUSH2 0x12B6 JUMPI PUSH2 0x12B6 PUSH2 0x12F2 JUMP JUMPDEST PUSH1 0x1 PUSH1 0x1 PUSH1 0xFF SHL SUB DUP5 ADD DUP4 SGT DUP2 AND ISZERO PUSH2 0x12D1 JUMPI PUSH2 0x12D1 PUSH2 0x12F2 JUMP JUMPDEST POP POP SUB SWAP1 JUMP JUMPDEST PUSH1 0x0 PUSH1 0x0 NOT DUP3 EQ ISZERO PUSH2 0x12EB JUMPI PUSH2 0x12EB PUSH2 0x12F2 JUMP JUMPDEST POP PUSH1 0x1 ADD SWAP1 JUMP JUMPDEST PUSH4 0x4E487B71 PUSH1 0xE0 SHL PUSH1 0x0 MSTORE PUSH1 0x11 PUSH1 0x4 MSTORE PUSH1 0x24 PUSH1 0x0 REVERT JUMPDEST PUSH4 0x4E487B71 PUSH1 0xE0 SHL PUSH1 0x0 MSTORE PUSH1 0x12 PUSH1 0x4 MSTORE PUSH1 0x24 PUSH1 0x0 REVERT INVALID PUSH29 0xAF00010D672E49BE66AB36CD6825CDBB7331686163AC730A8A3646D345 MSTORE8 MSTORE LOG2 PUSH5 0x6970667358 0x22 SLT KECCAK256 0x27 0xB2 CALLER SLT SHR DUP8 0x4A 0x2F PUSH14 0x72566685AAA7CC6E238C269F0438 STOP DUP11 PUSH13 0xA83217923E264736F6C634300 ADDMOD DIV STOP CALLER "},"methodIdentifiers":{"getAddress(bytes32)":"21f8a721","getAllAddresses()":"9516a104","getGameEngineContract()":"d37f72ed","getNFTMarketplaceContract()":"0bbc98ba","getOWNKContract()":"b6a07287","getPBRTContract()":"dcdb9502","getPEASContract()":"957ee50a","getPEFPContract()":"9d944118","getPNFTSContract()":"108858fc","getPNFTSSContract()":"c5184bd1","getPNFTStakingContract()":"7c551587","owner()":"8da5cb5b","renounceOwnership()":"715018a6","setAddress(bytes32,address)":"ca446dd9","setGameEngineContract(address)":"a3f8de52","setNFTMarketplaceContract(address)":"19aadfe2","setOWNKContract(address)":"172635a9","setPBRTContract(address)":"e78c626c","setPEASContract(address)":"ce50ac03","setPEFPContract(address)":"76447312","setPNFTSContract(address)":"a565c183","setPNFTSSContract(address)":"afc5c582","setPNFTStakingContract(address)":"e01d98f4","transferOwnership(address)":"f2fde38b"}}}}}