{"contracts/PlayEstatesAddressProvider.sol":{"PlayEstatesAddressProvider":{"abi":[{"inputs":[],"stateMutability":"nonpayable","type":"constructor"},{"inputs":[{"internalType":"address","name":"newAddress","type":"address"}],"name":"InkAddressProvider_InvalidAddress","type":"error"},{"anonymous":false,"inputs":[{"indexed":false,"internalType":"string","name":"contractName","type":"string"},{"indexed":true,"internalType":"address","name":"newAddress","type":"address"},{"indexed":false,"internalType":"uint256","name":"updateddate","type":"uint256"}],"name":"ContractAddressUpdated","type":"event"},{"anonymous":false,"inputs":[{"indexed":true,"internalType":"address","name":"previousOwner","type":"address"},{"indexed":true,"internalType":"address","name":"newOwner","type":"address"}],"name":"OwnershipTransferred","type":"event"},{"inputs":[{"internalType":"bytes32","name":"id","type":"bytes32"}],"name":"getAddress","outputs":[{"internalType":"address","name":"","type":"address"},{"internalType":"uint256","name":"","type":"uint256"}],"stateMutability":"view","type":"function"},{"inputs":[],"name":"getGameEngineContract","outputs":[{"internalType":"address","name":"","type":"address"},{"internalType":"uint256","name":"","type":"uint256"}],"stateMutability":"view","type":"function"},{"inputs":[],"name":"getNFTMarketplaceContract","outputs":[{"internalType":"address","name":"","type":"address"},{"internalType":"uint256","name":"","type":"uint256"}],"stateMutability":"view","type":"function"},{"inputs":[],"name":"getOWNKContract","outputs":[{"internalType":"address","name":"","type":"address"},{"internalType":"uint256","name":"","type":"uint256"}],"stateMutability":"view","type":"function"},{"inputs":[],"name":"getPBRTContract","outputs":[{"internalType":"address","name":"","type":"address"},{"internalType":"uint256","name":"","type":"uint256"}],"stateMutability":"view","type":"function"},{"inputs":[],"name":"getPEASContract","outputs":[{"internalType":"address","name":"","type":"address"},{"internalType":"uint256","name":"","type":"uint256"}],"stateMutability":"view","type":"function"},{"inputs":[],"name":"getPEFPContract","outputs":[{"internalType":"address","name":"","type":"address"},{"internalType":"uint256","name":"","type":"uint256"}],"stateMutability":"view","type":"function"},{"inputs":[],"name":"getPNFTSContract","outputs":[{"internalType":"address","name":"","type":"address"},{"internalType":"uint256","name":"","type":"uint256"}],"stateMutability":"view","type":"function"},{"inputs":[],"name":"getPNFTSSContract","outputs":[{"internalType":"address","name":"","type":"address"},{"internalType":"uint256","name":"","type":"uint256"}],"stateMutability":"view","type":"function"},{"inputs":[],"name":"getPNFTStakingContract","outputs":[{"internalType":"address","name":"","type":"address"},{"internalType":"uint256","name":"","type":"uint256"}],"stateMutability":"view","type":"function"},{"inputs":[],"name":"owner","outputs":[{"internalType":"address","name":"","type":"address"}],"stateMutability":"view","type":"function"},{"inputs":[],"name":"renounceOwnership","outputs":[],"stateMutability":"nonpayable","type":"function"},{"inputs":[{"internalType":"bytes32","name":"id","type":"bytes32"},{"internalType":"address","name":"newAddress","type":"address"}],"name":"setAddress","outputs":[],"stateMutability":"nonpayable","type":"function"},{"inputs":[{"internalType":"address","name":"newAddress","type":"address"}],"name":"setGameEngineContract","outputs":[],"stateMutability":"nonpayable","type":"function"},{"inputs":[{"internalType":"address","name":"newAddress","type":"address"}],"name":"setNFTMarketplaceContract","outputs":[],"stateMutability":"nonpayable","type":"function"},{"inputs":[{"internalType":"address","name":"newAddress","type":"address"}],"name":"setOWNKContract","outputs":[],"stateMutability":"nonpayable","type":"function"},{"inputs":[{"internalType":"address","name":"newAddress","type":"address"}],"name":"setPBRTContract","outputs":[],"stateMutability":"nonpayable","type":"function"},{"inputs":[{"internalType":"address","name":"newAddress","type":"address"}],"name":"setPEASContract","outputs":[],"stateMutability":"nonpayable","type":"function"},{"inputs":[{"internalType":"address","name":"newAddress","type":"address"}],"name":"setPEFPContract","outputs":[],"stateMutability":"nonpayable","type":"function"},{"inputs":[{"internalType":"address","name":"newAddress","type":"address"}],"name":"setPNFTSContract","outputs":[],"stateMutability":"nonpayable","type":"function"},{"inputs":[{"internalType":"address","name":"newAddress","type":"address"}],"name":"setPNFTSSContract","outputs":[],"stateMutability":"nonpayable","type":"function"},{"inputs":[{"internalType":"address","name":"newAddress","type":"address"}],"name":"setPNFTStakingContract","outputs":[],"stateMutability":"nonpayable","type":"function"},{"inputs":[{"internalType":"address","name":"newOwner","type":"address"}],"name":"transferOwnership","outputs":[],"stateMutability":"nonpayable","type":"function"}],"evm":{"bytecode":{"linkReferences":{},"object":"608060405234801561001057600080fd5b5061001a3361001f565b61006f565b600080546001600160a01b038381166001600160a01b0319831681178455604051919092169283917f8be0079c531659141344cd1fd0a4f28419497f9722a3daafe3b4186f6b6457e09190a35050565b6111e28061007e6000396000f3fe608060405234801561001057600080fd5b506004361061014d5760003560e01c8063a3f8de52116100c3578063ce50ac031161007c578063ce50ac031461026b578063d37f72ed1461027e578063dcdb950214610286578063e01d98f41461028e578063e78c626c146102a1578063f2fde38b146102b457600080fd5b8063a3f8de521461020f578063a565c18314610222578063afc5c58214610235578063b6a0728714610248578063c5184bd114610250578063ca446dd91461025857600080fd5b8063715018a611610115578063715018a6146101c157806376447312146101c95780637c551587146101dc5780638da5cb5b146101e4578063957ee50a146101ff5780639d9441181461020757600080fd5b80630bbc98ba14610152578063108858fc1461017e578063172635a91461018657806319aadfe21461019b57806321f8a721146101ae575b600080fd5b61015a6102c7565b604080516001600160a01b0390931683526020830191909152015b60405180910390f35b61015a6102e9565b610199610194366004610f80565b610311565b005b6101996101a9366004610f80565b6103f8565b61015a6101bc366004610fa1565b6104db565b610199610504565b6101996101d7366004610f80565b610518565b61015a6105e6565b6000546040516001600160a01b039091168152602001610175565b61015a610600565b61015a610616565b61019961021d366004610f80565b61062c565b610199610230366004610f80565b610706565b610199610243366004610f80565b6107fa565b61015a6108f1565b61015a61090d565b610199610266366004610fb9565b610936565b610199610279366004610f80565b610984565b61015a610a52565b61015a610a6b565b61019961029c366004610f80565b610a8f565b6101996102af366004610f80565b610b72565b6101996102c2366004610f80565b610c5c565b6000806102e16a4e4654456e67696e65563160a81b6104db565b915091509091565b6000806102e178506c617945737461746573546f6b656e697a6174696f6e5f5360381b6104db565b610319610cd5565b80803b610349576040516307433a8f60e11b81526001600160a01b03821660048201526024015b60405180910390fd5b6103636c13595b58995c9cda1a5c139195609a1b83610936565b6c13595b58995c9cda1a5c139195609a1b600052600260209081527fe78e17c675755a615960e91a9dc8ee47f537cb96cffc43ff47514ecedc4c08cb54604080518181526010918101919091526f506c617945737461746573204f574e4b60801b6060820152918201526001600160a01b0383169060008051602061118d833981519152906080015b60405180910390a25050565b610400610cd5565b80803b61042b576040516307433a8f60e11b81526001600160a01b0382166004820152602401610340565b6104436a4e4654456e67696e65563160a81b83610936565b6a4e4654456e67696e65563160a81b600052600260209081527f30854dc90b6d403834f867644c79271d7c3a6b419d0ea005a59558156319b83854604080518181526017918101919091527f506c617945737461746573204d61726b6574706c6163650000000000000000006060820152918201526001600160a01b0383169060008051602061118d833981519152906080016103ec565b6000908152600160209081526040808320546002909252909120546001600160a01b0390911691565b61050c610cd5565b6105166000610d2f565b565b610520610cd5565b80803b61054b576040516307433a8f60e11b81526001600160a01b0382166004820152602401610340565b61055f661419599c13919560ca1b83610936565b661419599c13919560ca1b600052600260209081527f3570afee60e1c7687a1d2d1fbcba3dd8f0104f822fc33dbea44ab427686d047554604080518181526010918101919091526f0506c61794573746174657320504546560841b6060820152918201526001600160a01b0383169060008051602061118d833981519152906080016103ec565b6000806102e16a506e66745374616b696e6760a81b6104db565b6000806102e1661419585cd3919560ca1b6104db565b6000806102e1661419599c13919560ca1b6104db565b610634610cd5565b80803b61065f576040516307433a8f60e11b81526001600160a01b0382166004820152602401610340565b6106766923b0b6b2a83630bcab1960b11b83610936565b6923b0b6b2a83630bcab1960b11b600052600260209081527fb28859f270d34e5a446770d4f1f8bd8cf4b77c0552af9adaee144427f15b7287546040805181815260169181019190915275506c6179457374617465732047616d65456e67696e6560501b6060820152918201526001600160a01b0383169060008051602061118d833981519152906080016103ec565b61070e610cd5565b80803b610739576040516307433a8f60e11b81526001600160a01b0382166004820152602401610340565b61075f78506c617945737461746573546f6b656e697a6174696f6e5f5360381b83610936565b78506c617945737461746573546f6b656e697a6174696f6e5f5360381b600052600260209081527f059a9dba23254d05e7d92d126a50aeced30474a07891984a547d1e2ea1118843546040805181815260129181019190915271506c61794573746174657320504e4654205360701b6060820152918201526001600160a01b0383169060008051602061118d833981519152906080016103ec565b610802610cd5565b80803b61082d576040516307433a8f60e11b81526001600160a01b0382166004820152602401610340565b61085479506c617945737461746573546f6b656e697a6174696f6e5f535360301b83610936565b79506c617945737461746573546f6b656e697a6174696f6e5f535360301b600052600260209081527f9e5eabf6a55fff1907d97657dc02ee21221b9f568f888337f127e85ebf03fedf546040805181815260139181019190915272506c61794573746174657320504e465420535360681b6060820152918201526001600160a01b0383169060008051602061118d833981519152906080016103ec565b6000806102e16c13595b58995c9cda1a5c139195609a1b6104db565b6000806102e179506c617945737461746573546f6b656e697a6174696f6e5f535360301b6104db565b61093e610cd5565b600082815260016020526040902080546001600160a01b0319166001600160a01b03831617905561096e42610d7f565b6000928352600260205260409092209190915550565b61098c610cd5565b80803b6109b7576040516307433a8f60e11b81526001600160a01b0382166004820152602401610340565b6109cb661419585cd3919560ca1b83610936565b661419585cd3919560ca1b600052600260209081527feaef489f909a76173db3d91ba72c425cd5ab8890ea2209ef3a1e4e175cd77ca754604080518181526010918101919091526f506c617945737461746573205045415360801b6060820152918201526001600160a01b0383169060008051602061118d833981519152906080016103ec565b6000806102e16923b0b6b2a83630bcab1960b11b6104db565b6000806102e174283630bca2b9ba30ba32b9a13934b1b5aa37b5b2b760591b6104db565b610a97610cd5565b80803b610ac2576040516307433a8f60e11b81526001600160a01b0382166004820152602401610340565b610ada6a506e66745374616b696e6760a81b83610936565b6a506e66745374616b696e6760a81b600052600260209081527fdda5e56d26645bf7a5f7a0cbc441e936697eda2b7cc7fa4ce398504daa616cb354604080518181526017918101919091527f506c61794573746174657320506e66745374616b696e670000000000000000006060820152918201526001600160a01b0383169060008051602061118d833981519152906080016103ec565b610b7a610cd5565b80803b610ba5576040516307433a8f60e11b81526001600160a01b0382166004820152602401610340565b610bc774283630bca2b9ba30ba32b9a13934b1b5aa37b5b2b760591b83610936565b74283630bca2b9ba30ba32b9a13934b1b5aa37b5b2b760591b600052600260209081527f022af754266b96ee891fc90bfcdadcad4700566bc6787c3ac67dd3aa308cc80a54604080518181526010918101919091526f141b185e515cdd185d195cc81410949560821b6060820152918201526001600160a01b0383169060008051602061118d833981519152906080016103ec565b610c64610cd5565b6001600160a01b038116610cc95760405162461bcd60e51b815260206004820152602660248201527f4f776e61626c653a206e6577206f776e657220697320746865207a65726f206160448201526564647265737360d01b6064820152608401610340565b610cd281610d2f565b50565b6000546001600160a01b031633146105165760405162461bcd60e51b815260206004820181905260248201527f4f776e61626c653a2063616c6c6572206973206e6f7420746865206f776e65726044820152606401610340565b600080546001600160a01b038381166001600160a01b0319831681178455604051919092169283917f8be0079c531659141344cd1fd0a4f28419497f9722a3daafe3b4186f6b6457e09190a35050565b600080600080610d8e85610dca565b9194509250905080610da1836064611102565b610dad85612710611102565b610db79190611025565b610dc19190611025565b95945050505050565b60008080610de3610dde620151808661106b565b610df0565b9196909550909350915050565b60008080838162253d8c610e078362010bd9610fe4565b610e119190610fe4565b9050600062023ab1610e2483600461107f565b610e2e919061103d565b90506004610e3f8262023ab161107f565b610e4a906003610fe4565b610e54919061103d565b610e5e9083611121565b9150600062164b09610e71846001610fe4565b610e7d90610fa061107f565b610e87919061103d565b90506004610e97826105b561107f565b610ea1919061103d565b610eab9084611121565b610eb690601f610fe4565b9250600061098f610ec885605061107f565b610ed2919061103d565b905060006050610ee48361098f61107f565b610eee919061103d565b610ef89086611121565b9050610f05600b8361103d565b9450610f1285600c61107f565b610f1d836002610fe4565b610f279190611121565b91508483610f36603187611121565b610f4190606461107f565b610f4b9190610fe4565b610f559190610fe4565b9a919950975095505050505050565b80356001600160a01b0381168114610f7b57600080fd5b919050565b600060208284031215610f91578081fd5b610f9a82610f64565b9392505050565b600060208284031215610fb2578081fd5b5035919050565b60008060408385031215610fcb578081fd5b82359150610fdb60208401610f64565b90509250929050565b600080821280156001600160ff1b038490038513161561100657611006611160565b600160ff1b839003841281161561101f5761101f611160565b50500190565b6000821982111561103857611038611160565b500190565b60008261104c5761104c611176565b600160ff1b82146000198414161561106657611066611160565b500590565b60008261107a5761107a611176565b500490565b60006001600160ff1b03818413828413808216868404861116156110a5576110a5611160565b600160ff1b848712828116878305891216156110c3576110c3611160565b8587129250878205871284841616156110de576110de611160565b878505871281841616156110f4576110f4611160565b505050929093029392505050565b600081600019048311821515161561111c5761111c611160565b500290565b60008083128015600160ff1b85018412161561113f5761113f611160565b6001600160ff1b038401831381161561115a5761115a611160565b50500390565b634e487b7160e01b600052601160045260246000fd5b634e487b7160e01b600052601260045260246000fdfe7caf00010d672e49be66ab36cd6825cdbb7331686163ac730a8a3646d3455352a26469706673582212204ff71e0ffe4d70325f61ee91b958a64233b5148db7c7811cb0d371ede6cf253d64736f6c63430008040033","opcodes":"PUSH1 0x80 PUSH1 0x40 MSTORE CALLVALUE DUP1 ISZERO PUSH2 0x10 JUMPI PUSH1 0x0 DUP1 REVERT JUMPDEST POP PUSH2 0x1A CALLER PUSH2 0x1F JUMP JUMPDEST PUSH2 0x6F JUMP JUMPDEST PUSH1 0x0 DUP1 SLOAD PUSH1 0x1 PUSH1 0x1 PUSH1 0xA0 SHL SUB DUP4 DUP2 AND PUSH1 0x1 PUSH1 0x1 PUSH1 0xA0 SHL SUB NOT DUP4 AND DUP2 OR DUP5 SSTORE PUSH1 0x40 MLOAD SWAP2 SWAP1 SWAP3 AND SWAP3 DUP4 SWAP2 PUSH32 0x8BE0079C531659141344CD1FD0A4F28419497F9722A3DAAFE3B4186F6B6457E0 SWAP2 SWAP1 LOG3 POP POP JUMP JUMPDEST PUSH2 0x11E2 DUP1 PUSH2 0x7E PUSH1 0x0 CODECOPY PUSH1 0x0 RETURN INVALID PUSH1 0x80 PUSH1 0x40 MSTORE CALLVALUE DUP1 ISZERO PUSH2 0x10 JUMPI PUSH1 0x0 DUP1 REVERT JUMPDEST POP PUSH1 0x4 CALLDATASIZE LT PUSH2 0x14D JUMPI PUSH1 0x0 CALLDATALOAD PUSH1 0xE0 SHR DUP1 PUSH4 0xA3F8DE52 GT PUSH2 0xC3 JUMPI DUP1 PUSH4 0xCE50AC03 GT PUSH2 0x7C JUMPI DUP1 PUSH4 0xCE50AC03 EQ PUSH2 0x26B JUMPI DUP1 PUSH4 0xD37F72ED EQ PUSH2 0x27E JUMPI DUP1 PUSH4 0xDCDB9502 EQ PUSH2 0x286 JUMPI DUP1 PUSH4 0xE01D98F4 EQ PUSH2 0x28E JUMPI DUP1 PUSH4 0xE78C626C EQ PUSH2 0x2A1 JUMPI DUP1 PUSH4 0xF2FDE38B EQ PUSH2 0x2B4 JUMPI PUSH1 0x0 DUP1 REVERT JUMPDEST DUP1 PUSH4 0xA3F8DE52 EQ PUSH2 0x20F JUMPI DUP1 PUSH4 0xA565C183 EQ PUSH2 0x222 JUMPI DUP1 PUSH4 0xAFC5C582 EQ PUSH2 0x235 JUMPI DUP1 PUSH4 0xB6A07287 EQ PUSH2 0x248 JUMPI DUP1 PUSH4 0xC5184BD1 EQ PUSH2 0x250 JUMPI DUP1 PUSH4 0xCA446DD9 EQ PUSH2 0x258 JUMPI PUSH1 0x0 DUP1 REVERT JUMPDEST DUP1 PUSH4 0x715018A6 GT PUSH2 0x115 JUMPI DUP1 PUSH4 0x715018A6 EQ PUSH2 0x1C1 JUMPI DUP1 PUSH4 0x76447312 EQ PUSH2 0x1C9 JUMPI DUP1 PUSH4 0x7C551587 EQ PUSH2 0x1DC JUMPI DUP1 PUSH4 0x8DA5CB5B EQ PUSH2 0x1E4 JUMPI DUP1 PUSH4 0x957EE50A EQ PUSH2 0x1FF JUMPI DUP1 PUSH4 0x9D944118 EQ PUSH2 0x207 JUMPI PUSH1 0x0 DUP1 REVERT JUMPDEST DUP1 PUSH4 0xBBC98BA EQ PUSH2 0x152 JUMPI DUP1 PUSH4 0x108858FC EQ PUSH2 0x17E JUMPI DUP1 PUSH4 0x172635A9 EQ PUSH2 0x186 JUMPI DUP1 PUSH4 0x19AADFE2 EQ PUSH2 0x19B JUMPI DUP1 PUSH4 0x21F8A721 EQ PUSH2 0x1AE JUMPI JUMPDEST PUSH1 0x0 DUP1 REVERT JUMPDEST PUSH2 0x15A PUSH2 0x2C7 JUMP JUMPDEST PUSH1 0x40 DUP1 MLOAD PUSH1 0x1 PUSH1 0x1 PUSH1 0xA0 SHL SUB SWAP1 SWAP4 AND DUP4 MSTORE PUSH1 0x20 DUP4 ADD SWAP2 SWAP1 SWAP2 MSTORE ADD JUMPDEST PUSH1 0x40 MLOAD DUP1 SWAP2 SUB SWAP1 RETURN JUMPDEST PUSH2 0x15A PUSH2 0x2E9 JUMP JUMPDEST PUSH2 0x199 PUSH2 0x194 CALLDATASIZE PUSH1 0x4 PUSH2 0xF80 JUMP JUMPDEST PUSH2 0x311 JUMP JUMPDEST STOP JUMPDEST PUSH2 0x199 PUSH2 0x1A9 CALLDATASIZE PUSH1 0x4 PUSH2 0xF80 JUMP JUMPDEST PUSH2 0x3F8 JUMP JUMPDEST PUSH2 0x15A PUSH2 0x1BC CALLDATASIZE PUSH1 0x4 PUSH2 0xFA1 JUMP JUMPDEST PUSH2 0x4DB JUMP JUMPDEST PUSH2 0x199 PUSH2 0x504 JUMP JUMPDEST PUSH2 0x199 PUSH2 0x1D7 CALLDATASIZE PUSH1 0x4 PUSH2 0xF80 JUMP JUMPDEST PUSH2 0x518 JUMP JUMPDEST PUSH2 0x15A PUSH2 0x5E6 JUMP JUMPDEST PUSH1 0x0 SLOAD PUSH1 0x40 MLOAD PUSH1 0x1 PUSH1 0x1 PUSH1 0xA0 SHL SUB SWAP1 SWAP2 AND DUP2 MSTORE PUSH1 0x20 ADD PUSH2 0x175 JUMP JUMPDEST PUSH2 0x15A PUSH2 0x600 JUMP JUMPDEST PUSH2 0x15A PUSH2 0x616 JUMP JUMPDEST PUSH2 0x199 PUSH2 0x21D CALLDATASIZE PUSH1 0x4 PUSH2 0xF80 JUMP JUMPDEST PUSH2 0x62C JUMP JUMPDEST PUSH2 0x199 PUSH2 0x230 CALLDATASIZE PUSH1 0x4 PUSH2 0xF80 JUMP JUMPDEST PUSH2 0x706 JUMP JUMPDEST PUSH2 0x199 PUSH2 0x243 CALLDATASIZE PUSH1 0x4 PUSH2 0xF80 JUMP JUMPDEST PUSH2 0x7FA JUMP JUMPDEST PUSH2 0x15A PUSH2 0x8F1 JUMP JUMPDEST PUSH2 0x15A PUSH2 0x90D JUMP JUMPDEST PUSH2 0x199 PUSH2 0x266 CALLDATASIZE PUSH1 0x4 PUSH2 0xFB9 JUMP JUMPDEST PUSH2 0x936 JUMP JUMPDEST PUSH2 0x199 PUSH2 0x279 CALLDATASIZE PUSH1 0x4 PUSH2 0xF80 JUMP JUMPDEST PUSH2 0x984 JUMP JUMPDEST PUSH2 0x15A PUSH2 0xA52 JUMP JUMPDEST PUSH2 0x15A PUSH2 0xA6B JUMP JUMPDEST PUSH2 0x199 PUSH2 0x29C CALLDATASIZE PUSH1 0x4 PUSH2 0xF80 JUMP JUMPDEST PUSH2 0xA8F JUMP JUMPDEST PUSH2 0x199 PUSH2 0x2AF CALLDATASIZE PUSH1 0x4 PUSH2 0xF80 JUMP JUMPDEST PUSH2 0xB72 JUMP JUMPDEST PUSH2 0x199 PUSH2 0x2C2 CALLDATASIZE PUSH1 0x4 PUSH2 0xF80 JUMP JUMPDEST PUSH2 0xC5C JUMP JUMPDEST PUSH1 0x0 DUP1 PUSH2 0x2E1 PUSH11 0x4E4654456E67696E655631 PUSH1 0xA8 SHL PUSH2 0x4DB JUMP JUMPDEST SWAP2 POP SWAP2 POP SWAP1 SWAP2 JUMP JUMPDEST PUSH1 0x0 DUP1 PUSH2 0x2E1 PUSH25 0x506C617945737461746573546F6B656E697A6174696F6E5F53 PUSH1 0x38 SHL PUSH2 0x4DB JUMP JUMPDEST PUSH2 0x319 PUSH2 0xCD5 JUMP JUMPDEST DUP1 DUP1 EXTCODESIZE PUSH2 0x349 JUMPI PUSH1 0x40 MLOAD PUSH4 0x7433A8F PUSH1 0xE1 SHL DUP2 MSTORE PUSH1 0x1 PUSH1 0x1 PUSH1 0xA0 SHL SUB DUP3 AND PUSH1 0x4 DUP3 ADD MSTORE PUSH1 0x24 ADD JUMPDEST PUSH1 0x40 MLOAD DUP1 SWAP2 SUB SWAP1 REVERT JUMPDEST PUSH2 0x363 PUSH13 0x13595B58995C9CDA1A5C139195 PUSH1 0x9A SHL DUP4 PUSH2 0x936 JUMP JUMPDEST PUSH13 0x13595B58995C9CDA1A5C139195 PUSH1 0x9A SHL PUSH1 0x0 MSTORE PUSH1 0x2 PUSH1 0x20 SWAP1 DUP2 MSTORE PUSH32 0xE78E17C675755A615960E91A9DC8EE47F537CB96CFFC43FF47514ECEDC4C08CB SLOAD PUSH1 0x40 DUP1 MLOAD DUP2 DUP2 MSTORE PUSH1 0x10 SWAP2 DUP2 ADD SWAP2 SWAP1 SWAP2 MSTORE PUSH16 0x506C617945737461746573204F574E4B PUSH1 0x80 SHL PUSH1 0x60 DUP3 ADD MSTORE SWAP2 DUP3 ADD MSTORE PUSH1 0x1 PUSH1 0x1 PUSH1 0xA0 SHL SUB DUP4 AND SWAP1 PUSH1 0x0 DUP1 MLOAD PUSH1 0x20 PUSH2 0x118D DUP4 CODECOPY DUP2 MLOAD SWAP2 MSTORE SWAP1 PUSH1 0x80 ADD JUMPDEST PUSH1 0x40 MLOAD DUP1 SWAP2 SUB SWAP1 LOG2 POP POP JUMP JUMPDEST PUSH2 0x400 PUSH2 0xCD5 JUMP JUMPDEST DUP1 DUP1 EXTCODESIZE PUSH2 0x42B JUMPI PUSH1 0x40 MLOAD PUSH4 0x7433A8F PUSH1 0xE1 SHL DUP2 MSTORE PUSH1 0x1 PUSH1 0x1 PUSH1 0xA0 SHL SUB DUP3 AND PUSH1 0x4 DUP3 ADD MSTORE PUSH1 0x24 ADD PUSH2 0x340 JUMP JUMPDEST PUSH2 0x443 PUSH11 0x4E4654456E67696E655631 PUSH1 0xA8 SHL DUP4 PUSH2 0x936 JUMP JUMPDEST PUSH11 0x4E4654456E67696E655631 PUSH1 0xA8 SHL PUSH1 0x0 MSTORE PUSH1 0x2 PUSH1 0x20 SWAP1 DUP2 MSTORE PUSH32 0x30854DC90B6D403834F867644C79271D7C3A6B419D0EA005A59558156319B838 SLOAD PUSH1 0x40 DUP1 MLOAD DUP2 DUP2 MSTORE PUSH1 0x17 SWAP2 DUP2 ADD SWAP2 SWAP1 SWAP2 MSTORE PUSH32 0x506C617945737461746573204D61726B6574706C616365000000000000000000 PUSH1 0x60 DUP3 ADD MSTORE SWAP2 DUP3 ADD MSTORE PUSH1 0x1 PUSH1 0x1 PUSH1 0xA0 SHL SUB DUP4 AND SWAP1 PUSH1 0x0 DUP1 MLOAD PUSH1 0x20 PUSH2 0x118D DUP4 CODECOPY DUP2 MLOAD SWAP2 MSTORE SWAP1 PUSH1 0x80 ADD PUSH2 0x3EC JUMP JUMPDEST PUSH1 0x0 SWAP1 DUP2 MSTORE PUSH1 0x1 PUSH1 0x20 SWAP1 DUP2 MSTORE PUSH1 0x40 DUP1 DUP4 KECCAK256 SLOAD PUSH1 0x2 SWAP1 SWAP3 MSTORE SWAP1 SWAP2 KECCAK256 SLOAD PUSH1 0x1 PUSH1 0x1 PUSH1 0xA0 SHL SUB SWAP1 SWAP2 AND SWAP2 JUMP JUMPDEST PUSH2 0x50C PUSH2 0xCD5 JUMP JUMPDEST PUSH2 0x516 PUSH1 0x0 PUSH2 0xD2F JUMP JUMPDEST JUMP JUMPDEST PUSH2 0x520 PUSH2 0xCD5 JUMP JUMPDEST DUP1 DUP1 EXTCODESIZE PUSH2 0x54B JUMPI PUSH1 0x40 MLOAD PUSH4 0x7433A8F PUSH1 0xE1 SHL DUP2 MSTORE PUSH1 0x1 PUSH1 0x1 PUSH1 0xA0 SHL SUB DUP3 AND PUSH1 0x4 DUP3 ADD MSTORE PUSH1 0x24 ADD PUSH2 0x340 JUMP JUMPDEST PUSH2 0x55F PUSH7 0x1419599C139195 PUSH1 0xCA SHL DUP4 PUSH2 0x936 JUMP JUMPDEST PUSH7 0x1419599C139195 PUSH1 0xCA SHL PUSH1 0x0 MSTORE PUSH1 0x2 PUSH1 0x20 SWAP1 DUP2 MSTORE PUSH32 0x3570AFEE60E1C7687A1D2D1FBCBA3DD8F0104F822FC33DBEA44AB427686D0475 SLOAD PUSH1 0x40 DUP1 MLOAD DUP2 DUP2 MSTORE PUSH1 0x10 SWAP2 DUP2 ADD SWAP2 SWAP1 SWAP2 MSTORE PUSH16 0x506C617945737461746573205045465 PUSH1 0x84 SHL PUSH1 0x60 DUP3 ADD MSTORE SWAP2 DUP3 ADD MSTORE PUSH1 0x1 PUSH1 0x1 PUSH1 0xA0 SHL SUB DUP4 AND SWAP1 PUSH1 0x0 DUP1 MLOAD PUSH1 0x20 PUSH2 0x118D DUP4 CODECOPY DUP2 MLOAD SWAP2 MSTORE SWAP1 PUSH1 0x80 ADD PUSH2 0x3EC JUMP JUMPDEST PUSH1 0x0 DUP1 PUSH2 0x2E1 PUSH11 0x506E66745374616B696E67 PUSH1 0xA8 SHL PUSH2 0x4DB JUMP JUMPDEST PUSH1 0x0 DUP1 PUSH2 0x2E1 PUSH7 0x1419585CD39195 PUSH1 0xCA SHL PUSH2 0x4DB JUMP JUMPDEST PUSH1 0x0 DUP1 PUSH2 0x2E1 PUSH7 0x1419599C139195 PUSH1 0xCA SHL PUSH2 0x4DB JUMP JUMPDEST PUSH2 0x634 PUSH2 0xCD5 JUMP JUMPDEST DUP1 DUP1 EXTCODESIZE PUSH2 0x65F JUMPI PUSH1 0x40 MLOAD PUSH4 0x7433A8F PUSH1 0xE1 SHL DUP2 MSTORE PUSH1 0x1 PUSH1 0x1 PUSH1 0xA0 SHL SUB DUP3 AND PUSH1 0x4 DUP3 ADD MSTORE PUSH1 0x24 ADD PUSH2 0x340 JUMP JUMPDEST PUSH2 0x676 PUSH10 0x23B0B6B2A83630BCAB19 PUSH1 0xB1 SHL DUP4 PUSH2 0x936 JUMP JUMPDEST PUSH10 0x23B0B6B2A83630BCAB19 PUSH1 0xB1 SHL PUSH1 0x0 MSTORE PUSH1 0x2 PUSH1 0x20 SWAP1 DUP2 MSTORE PUSH32 0xB28859F270D34E5A446770D4F1F8BD8CF4B77C0552AF9ADAEE144427F15B7287 SLOAD PUSH1 0x40 DUP1 MLOAD DUP2 DUP2 MSTORE PUSH1 0x16 SWAP2 DUP2 ADD SWAP2 SWAP1 SWAP2 MSTORE PUSH22 0x506C6179457374617465732047616D65456E67696E65 PUSH1 0x50 SHL PUSH1 0x60 DUP3 ADD MSTORE SWAP2 DUP3 ADD MSTORE PUSH1 0x1 PUSH1 0x1 PUSH1 0xA0 SHL SUB DUP4 AND SWAP1 PUSH1 0x0 DUP1 MLOAD PUSH1 0x20 PUSH2 0x118D DUP4 CODECOPY DUP2 MLOAD SWAP2 MSTORE SWAP1 PUSH1 0x80 ADD PUSH2 0x3EC JUMP JUMPDEST PUSH2 0x70E PUSH2 0xCD5 JUMP JUMPDEST DUP1 DUP1 EXTCODESIZE PUSH2 0x739 JUMPI PUSH1 0x40 MLOAD PUSH4 0x7433A8F PUSH1 0xE1 SHL DUP2 MSTORE PUSH1 0x1 PUSH1 0x1 PUSH1 0xA0 SHL SUB DUP3 AND PUSH1 0x4 DUP3 ADD MSTORE PUSH1 0x24 ADD PUSH2 0x340 JUMP JUMPDEST PUSH2 0x75F PUSH25 0x506C617945737461746573546F6B656E697A6174696F6E5F53 PUSH1 0x38 SHL DUP4 PUSH2 0x936 JUMP JUMPDEST PUSH25 0x506C617945737461746573546F6B656E697A6174696F6E5F53 PUSH1 0x38 SHL PUSH1 0x0 MSTORE PUSH1 0x2 PUSH1 0x20 SWAP1 DUP2 MSTORE PUSH32 0x59A9DBA23254D05E7D92D126A50AECED30474A07891984A547D1E2EA1118843 SLOAD PUSH1 0x40 DUP1 MLOAD DUP2 DUP2 MSTORE PUSH1 0x12 SWAP2 DUP2 ADD SWAP2 SWAP1 SWAP2 MSTORE PUSH18 0x506C61794573746174657320504E46542053 PUSH1 0x70 SHL PUSH1 0x60 DUP3 ADD MSTORE SWAP2 DUP3 ADD MSTORE PUSH1 0x1 PUSH1 0x1 PUSH1 0xA0 SHL SUB DUP4 AND SWAP1 PUSH1 0x0 DUP1 MLOAD PUSH1 0x20 PUSH2 0x118D DUP4 CODECOPY DUP2 MLOAD SWAP2 MSTORE SWAP1 PUSH1 0x80 ADD PUSH2 0x3EC JUMP JUMPDEST PUSH2 0x802 PUSH2 0xCD5 JUMP JUMPDEST DUP1 DUP1 EXTCODESIZE PUSH2 0x82D JUMPI PUSH1 0x40 MLOAD PUSH4 0x7433A8F PUSH1 0xE1 SHL DUP2 MSTORE PUSH1 0x1 PUSH1 0x1 PUSH1 0xA0 SHL SUB DUP3 AND PUSH1 0x4 DUP3 ADD MSTORE PUSH1 0x24 ADD PUSH2 0x340 JUMP JUMPDEST PUSH2 0x854 PUSH26 0x506C617945737461746573546F6B656E697A6174696F6E5F5353 PUSH1 0x30 SHL DUP4 PUSH2 0x936 JUMP JUMPDEST PUSH26 0x506C617945737461746573546F6B656E697A6174696F6E5F5353 PUSH1 0x30 SHL PUSH1 0x0 MSTORE PUSH1 0x2 PUSH1 0x20 SWAP1 DUP2 MSTORE PUSH32 0x9E5EABF6A55FFF1907D97657DC02EE21221B9F568F888337F127E85EBF03FEDF SLOAD PUSH1 0x40 DUP1 MLOAD DUP2 DUP2 MSTORE PUSH1 0x13 SWAP2 DUP2 ADD SWAP2 SWAP1 SWAP2 MSTORE PUSH19 0x506C61794573746174657320504E4654205353 PUSH1 0x68 SHL PUSH1 0x60 DUP3 ADD MSTORE SWAP2 DUP3 ADD MSTORE PUSH1 0x1 PUSH1 0x1 PUSH1 0xA0 SHL SUB DUP4 AND SWAP1 PUSH1 0x0 DUP1 MLOAD PUSH1 0x20 PUSH2 0x118D DUP4 CODECOPY DUP2 MLOAD SWAP2 MSTORE SWAP1 PUSH1 0x80 ADD PUSH2 0x3EC JUMP JUMPDEST PUSH1 0x0 DUP1 PUSH2 0x2E1 PUSH13 0x13595B58995C9CDA1A5C139195 PUSH1 0x9A SHL PUSH2 0x4DB JUMP JUMPDEST PUSH1 0x0 DUP1 PUSH2 0x2E1 PUSH26 0x506C617945737461746573546F6B656E697A6174696F6E5F5353 PUSH1 0x30 SHL PUSH2 0x4DB JUMP JUMPDEST PUSH2 0x93E PUSH2 0xCD5 JUMP JUMPDEST PUSH1 0x0 DUP3 DUP2 MSTORE PUSH1 0x1 PUSH1 0x20 MSTORE PUSH1 0x40 SWAP1 KECCAK256 DUP1 SLOAD PUSH1 0x1 PUSH1 0x1 PUSH1 0xA0 SHL SUB NOT AND PUSH1 0x1 PUSH1 0x1 PUSH1 0xA0 SHL SUB DUP4 AND OR SWAP1 SSTORE PUSH2 0x96E TIMESTAMP PUSH2 0xD7F JUMP JUMPDEST PUSH1 0x0 SWAP3 DUP4 MSTORE PUSH1 0x2 PUSH1 0x20 MSTORE PUSH1 0x40 SWAP1 SWAP3 KECCAK256 SWAP2 SWAP1 SWAP2 SSTORE POP JUMP JUMPDEST PUSH2 0x98C PUSH2 0xCD5 JUMP JUMPDEST DUP1 DUP1 EXTCODESIZE PUSH2 0x9B7 JUMPI PUSH1 0x40 MLOAD PUSH4 0x7433A8F PUSH1 0xE1 SHL DUP2 MSTORE PUSH1 0x1 PUSH1 0x1 PUSH1 0xA0 SHL SUB DUP3 AND PUSH1 0x4 DUP3 ADD MSTORE PUSH1 0x24 ADD PUSH2 0x340 JUMP JUMPDEST PUSH2 0x9CB PUSH7 0x1419585CD39195 PUSH1 0xCA SHL DUP4 PUSH2 0x936 JUMP JUMPDEST PUSH7 0x1419585CD39195 PUSH1 0xCA SHL PUSH1 0x0 MSTORE PUSH1 0x2 PUSH1 0x20 SWAP1 DUP2 MSTORE PUSH32 0xEAEF489F909A76173DB3D91BA72C425CD5AB8890EA2209EF3A1E4E175CD77CA7 SLOAD PUSH1 0x40 DUP1 MLOAD DUP2 DUP2 MSTORE PUSH1 0x10 SWAP2 DUP2 ADD SWAP2 SWAP1 SWAP2 MSTORE PUSH16 0x506C6179457374617465732050454153 PUSH1 0x80 SHL PUSH1 0x60 DUP3 ADD MSTORE SWAP2 DUP3 ADD MSTORE PUSH1 0x1 PUSH1 0x1 PUSH1 0xA0 SHL SUB DUP4 AND SWAP1 PUSH1 0x0 DUP1 MLOAD PUSH1 0x20 PUSH2 0x118D DUP4 CODECOPY DUP2 MLOAD SWAP2 MSTORE SWAP1 PUSH1 0x80 ADD PUSH2 0x3EC JUMP JUMPDEST PUSH1 0x0 DUP1 PUSH2 0x2E1 PUSH10 0x23B0B6B2A83630BCAB19 PUSH1 0xB1 SHL PUSH2 0x4DB JUMP JUMPDEST PUSH1 0x0 DUP1 PUSH2 0x2E1 PUSH21 0x283630BCA2B9BA30BA32B9A13934B1B5AA37B5B2B7 PUSH1 0x59 SHL PUSH2 0x4DB JUMP JUMPDEST PUSH2 0xA97 PUSH2 0xCD5 JUMP JUMPDEST DUP1 DUP1 EXTCODESIZE PUSH2 0xAC2 JUMPI PUSH1 0x40 MLOAD PUSH4 0x7433A8F PUSH1 0xE1 SHL DUP2 MSTORE PUSH1 0x1 PUSH1 0x1 PUSH1 0xA0 SHL SUB DUP3 AND PUSH1 0x4 DUP3 ADD MSTORE PUSH1 0x24 ADD PUSH2 0x340 JUMP JUMPDEST PUSH2 0xADA PUSH11 0x506E66745374616B696E67 PUSH1 0xA8 SHL DUP4 PUSH2 0x936 JUMP JUMPDEST PUSH11 0x506E66745374616B696E67 PUSH1 0xA8 SHL PUSH1 0x0 MSTORE PUSH1 0x2 PUSH1 0x20 SWAP1 DUP2 MSTORE PUSH32 0xDDA5E56D26645BF7A5F7A0CBC441E936697EDA2B7CC7FA4CE398504DAA616CB3 SLOAD PUSH1 0x40 DUP1 MLOAD DUP2 DUP2 MSTORE PUSH1 0x17 SWAP2 DUP2 ADD SWAP2 SWAP1 SWAP2 MSTORE PUSH32 0x506C61794573746174657320506E66745374616B696E67000000000000000000 PUSH1 0x60 DUP3 ADD MSTORE SWAP2 DUP3 ADD MSTORE PUSH1 0x1 PUSH1 0x1 PUSH1 0xA0 SHL SUB DUP4 AND SWAP1 PUSH1 0x0 DUP1 MLOAD PUSH1 0x20 PUSH2 0x118D DUP4 CODECOPY DUP2 MLOAD SWAP2 MSTORE SWAP1 PUSH1 0x80 ADD PUSH2 0x3EC JUMP JUMPDEST PUSH2 0xB7A PUSH2 0xCD5 JUMP JUMPDEST DUP1 DUP1 EXTCODESIZE PUSH2 0xBA5 JUMPI PUSH1 0x40 MLOAD PUSH4 0x7433A8F PUSH1 0xE1 SHL DUP2 MSTORE PUSH1 0x1 PUSH1 0x1 PUSH1 0xA0 SHL SUB DUP3 AND PUSH1 0x4 DUP3 ADD MSTORE PUSH1 0x24 ADD PUSH2 0x340 JUMP JUMPDEST PUSH2 0xBC7 PUSH21 0x283630BCA2B9BA30BA32B9A13934B1B5AA37B5B2B7 PUSH1 0x59 SHL DUP4 PUSH2 0x936 JUMP JUMPDEST PUSH21 0x283630BCA2B9BA30BA32B9A13934B1B5AA37B5B2B7 PUSH1 0x59 SHL PUSH1 0x0 MSTORE PUSH1 0x2 PUSH1 0x20 SWAP1 DUP2 MSTORE PUSH32 0x22AF754266B96EE891FC90BFCDADCAD4700566BC6787C3AC67DD3AA308CC80A SLOAD PUSH1 0x40 DUP1 MLOAD DUP2 DUP2 MSTORE PUSH1 0x10 SWAP2 DUP2 ADD SWAP2 SWAP1 SWAP2 MSTORE PUSH16 0x141B185E515CDD185D195CC814109495 PUSH1 0x82 SHL PUSH1 0x60 DUP3 ADD MSTORE SWAP2 DUP3 ADD MSTORE PUSH1 0x1 PUSH1 0x1 PUSH1 0xA0 SHL SUB DUP4 AND SWAP1 PUSH1 0x0 DUP1 MLOAD PUSH1 0x20 PUSH2 0x118D DUP4 CODECOPY DUP2 MLOAD SWAP2 MSTORE SWAP1 PUSH1 0x80 ADD PUSH2 0x3EC JUMP JUMPDEST PUSH2 0xC64 PUSH2 0xCD5 JUMP JUMPDEST PUSH1 0x1 PUSH1 0x1 PUSH1 0xA0 SHL SUB DUP2 AND PUSH2 0xCC9 JUMPI PUSH1 0x40 MLOAD PUSH3 0x461BCD PUSH1 0xE5 SHL DUP2 MSTORE PUSH1 0x20 PUSH1 0x4 DUP3 ADD MSTORE PUSH1 0x26 PUSH1 0x24 DUP3 ADD MSTORE PUSH32 0x4F776E61626C653A206E6577206F776E657220697320746865207A65726F2061 PUSH1 0x44 DUP3 ADD MSTORE PUSH6 0x646472657373 PUSH1 0xD0 SHL PUSH1 0x64 DUP3 ADD MSTORE PUSH1 0x84 ADD PUSH2 0x340 JUMP JUMPDEST PUSH2 0xCD2 DUP2 PUSH2 0xD2F JUMP JUMPDEST POP JUMP JUMPDEST PUSH1 0x0 SLOAD PUSH1 0x1 PUSH1 0x1 PUSH1 0xA0 SHL SUB AND CALLER EQ PUSH2 0x516 JUMPI PUSH1 0x40 MLOAD PUSH3 0x461BCD PUSH1 0xE5 SHL DUP2 MSTORE PUSH1 0x20 PUSH1 0x4 DUP3 ADD DUP2 SWAP1 MSTORE PUSH1 0x24 DUP3 ADD MSTORE PUSH32 0x4F776E61626C653A2063616C6C6572206973206E6F7420746865206F776E6572 PUSH1 0x44 DUP3 ADD MSTORE PUSH1 0x64 ADD PUSH2 0x340 JUMP JUMPDEST PUSH1 0x0 DUP1 SLOAD PUSH1 0x1 PUSH1 0x1 PUSH1 0xA0 SHL SUB DUP4 DUP2 AND PUSH1 0x1 PUSH1 0x1 PUSH1 0xA0 SHL SUB NOT DUP4 AND DUP2 OR DUP5 SSTORE PUSH1 0x40 MLOAD SWAP2 SWAP1 SWAP3 AND SWAP3 DUP4 SWAP2 PUSH32 0x8BE0079C531659141344CD1FD0A4F28419497F9722A3DAAFE3B4186F6B6457E0 SWAP2 SWAP1 LOG3 POP POP JUMP JUMPDEST PUSH1 0x0 DUP1 PUSH1 0x0 DUP1 PUSH2 0xD8E DUP6 PUSH2 0xDCA JUMP JUMPDEST SWAP2 SWAP5 POP SWAP3 POP SWAP1 POP DUP1 PUSH2 0xDA1 DUP4 PUSH1 0x64 PUSH2 0x1102 JUMP JUMPDEST PUSH2 0xDAD DUP6 PUSH2 0x2710 PUSH2 0x1102 JUMP JUMPDEST PUSH2 0xDB7 SWAP2 SWAP1 PUSH2 0x1025 JUMP JUMPDEST PUSH2 0xDC1 SWAP2 SWAP1 PUSH2 0x1025 JUMP JUMPDEST SWAP6 SWAP5 POP POP POP POP POP JUMP JUMPDEST PUSH1 0x0 DUP1 DUP1 PUSH2 0xDE3 PUSH2 0xDDE PUSH3 0x15180 DUP7 PUSH2 0x106B JUMP JUMPDEST PUSH2 0xDF0 JUMP JUMPDEST SWAP2 SWAP7 SWAP1 SWAP6 POP SWAP1 SWAP4 POP SWAP2 POP POP JUMP JUMPDEST PUSH1 0x0 DUP1 DUP1 DUP4 DUP2 PUSH3 0x253D8C PUSH2 0xE07 DUP4 PUSH3 0x10BD9 PUSH2 0xFE4 JUMP JUMPDEST PUSH2 0xE11 SWAP2 SWAP1 PUSH2 0xFE4 JUMP JUMPDEST SWAP1 POP PUSH1 0x0 PUSH3 0x23AB1 PUSH2 0xE24 DUP4 PUSH1 0x4 PUSH2 0x107F JUMP JUMPDEST PUSH2 0xE2E SWAP2 SWAP1 PUSH2 0x103D JUMP JUMPDEST SWAP1 POP PUSH1 0x4 PUSH2 0xE3F DUP3 PUSH3 0x23AB1 PUSH2 0x107F JUMP JUMPDEST PUSH2 0xE4A SWAP1 PUSH1 0x3 PUSH2 0xFE4 JUMP JUMPDEST PUSH2 0xE54 SWAP2 SWAP1 PUSH2 0x103D JUMP JUMPDEST PUSH2 0xE5E SWAP1 DUP4 PUSH2 0x1121 JUMP JUMPDEST SWAP2 POP PUSH1 0x0 PUSH3 0x164B09 PUSH2 0xE71 DUP5 PUSH1 0x1 PUSH2 0xFE4 JUMP JUMPDEST PUSH2 0xE7D SWAP1 PUSH2 0xFA0 PUSH2 0x107F JUMP JUMPDEST PUSH2 0xE87 SWAP2 SWAP1 PUSH2 0x103D JUMP JUMPDEST SWAP1 POP PUSH1 0x4 PUSH2 0xE97 DUP3 PUSH2 0x5B5 PUSH2 0x107F JUMP JUMPDEST PUSH2 0xEA1 SWAP2 SWAP1 PUSH2 0x103D JUMP JUMPDEST PUSH2 0xEAB SWAP1 DUP5 PUSH2 0x1121 JUMP JUMPDEST PUSH2 0xEB6 SWAP1 PUSH1 0x1F PUSH2 0xFE4 JUMP JUMPDEST SWAP3 POP PUSH1 0x0 PUSH2 0x98F PUSH2 0xEC8 DUP6 PUSH1 0x50 PUSH2 0x107F JUMP JUMPDEST PUSH2 0xED2 SWAP2 SWAP1 PUSH2 0x103D JUMP JUMPDEST SWAP1 POP PUSH1 0x0 PUSH1 0x50 PUSH2 0xEE4 DUP4 PUSH2 0x98F PUSH2 0x107F JUMP JUMPDEST PUSH2 0xEEE SWAP2 SWAP1 PUSH2 0x103D JUMP JUMPDEST PUSH2 0xEF8 SWAP1 DUP7 PUSH2 0x1121 JUMP JUMPDEST SWAP1 POP PUSH2 0xF05 PUSH1 0xB DUP4 PUSH2 0x103D JUMP JUMPDEST SWAP5 POP PUSH2 0xF12 DUP6 PUSH1 0xC PUSH2 0x107F JUMP JUMPDEST PUSH2 0xF1D DUP4 PUSH1 0x2 PUSH2 0xFE4 JUMP JUMPDEST PUSH2 0xF27 SWAP2 SWAP1 PUSH2 0x1121 JUMP JUMPDEST SWAP2 POP DUP5 DUP4 PUSH2 0xF36 PUSH1 0x31 DUP8 PUSH2 0x1121 JUMP JUMPDEST PUSH2 0xF41 SWAP1 PUSH1 0x64 PUSH2 0x107F JUMP JUMPDEST PUSH2 0xF4B SWAP2 SWAP1 PUSH2 0xFE4 JUMP JUMPDEST PUSH2 0xF55 SWAP2 SWAP1 PUSH2 0xFE4 JUMP JUMPDEST SWAP11 SWAP2 SWAP10 POP SWAP8 POP SWAP6 POP POP POP POP POP POP JUMP JUMPDEST DUP1 CALLDATALOAD PUSH1 0x1 PUSH1 0x1 PUSH1 0xA0 SHL SUB DUP2 AND DUP2 EQ PUSH2 0xF7B JUMPI PUSH1 0x0 DUP1 REVERT JUMPDEST SWAP2 SWAP1 POP JUMP JUMPDEST PUSH1 0x0 PUSH1 0x20 DUP3 DUP5 SUB SLT ISZERO PUSH2 0xF91 JUMPI DUP1 DUP2 REVERT JUMPDEST PUSH2 0xF9A DUP3 PUSH2 0xF64 JUMP JUMPDEST SWAP4 SWAP3 POP POP POP JUMP JUMPDEST PUSH1 0x0 PUSH1 0x20 DUP3 DUP5 SUB SLT ISZERO PUSH2 0xFB2 JUMPI DUP1 DUP2 REVERT JUMPDEST POP CALLDATALOAD SWAP2 SWAP1 POP JUMP JUMPDEST PUSH1 0x0 DUP1 PUSH1 0x40 DUP4 DUP6 SUB SLT ISZERO PUSH2 0xFCB JUMPI DUP1 DUP2 REVERT JUMPDEST DUP3 CALLDATALOAD SWAP2 POP PUSH2 0xFDB PUSH1 0x20 DUP5 ADD PUSH2 0xF64 JUMP JUMPDEST SWAP1 POP SWAP3 POP SWAP3 SWAP1 POP JUMP JUMPDEST PUSH1 0x0 DUP1 DUP3 SLT DUP1 ISZERO PUSH1 0x1 PUSH1 0x1 PUSH1 0xFF SHL SUB DUP5 SWAP1 SUB DUP6 SGT AND ISZERO PUSH2 0x1006 JUMPI PUSH2 0x1006 PUSH2 0x1160 JUMP JUMPDEST PUSH1 0x1 PUSH1 0xFF SHL DUP4 SWAP1 SUB DUP5 SLT DUP2 AND ISZERO PUSH2 0x101F JUMPI PUSH2 0x101F PUSH2 0x1160 JUMP JUMPDEST POP POP ADD SWAP1 JUMP JUMPDEST PUSH1 0x0 DUP3 NOT DUP3 GT ISZERO PUSH2 0x1038 JUMPI PUSH2 0x1038 PUSH2 0x1160 JUMP JUMPDEST POP ADD SWAP1 JUMP JUMPDEST PUSH1 0x0 DUP3 PUSH2 0x104C JUMPI PUSH2 0x104C PUSH2 0x1176 JUMP JUMPDEST PUSH1 0x1 PUSH1 0xFF SHL DUP3 EQ PUSH1 0x0 NOT DUP5 EQ AND ISZERO PUSH2 0x1066 JUMPI PUSH2 0x1066 PUSH2 0x1160 JUMP JUMPDEST POP SDIV SWAP1 JUMP JUMPDEST PUSH1 0x0 DUP3 PUSH2 0x107A JUMPI PUSH2 0x107A PUSH2 0x1176 JUMP JUMPDEST POP DIV SWAP1 JUMP JUMPDEST PUSH1 0x0 PUSH1 0x1 PUSH1 0x1 PUSH1 0xFF SHL SUB DUP2 DUP5 SGT DUP3 DUP5 SGT DUP1 DUP3 AND DUP7 DUP5 DIV DUP7 GT AND ISZERO PUSH2 0x10A5 JUMPI PUSH2 0x10A5 PUSH2 0x1160 JUMP JUMPDEST PUSH1 0x1 PUSH1 0xFF SHL DUP5 DUP8 SLT DUP3 DUP2 AND DUP8 DUP4 SDIV DUP10 SLT AND ISZERO PUSH2 0x10C3 JUMPI PUSH2 0x10C3 PUSH2 0x1160 JUMP JUMPDEST DUP6 DUP8 SLT SWAP3 POP DUP8 DUP3 SDIV DUP8 SLT DUP5 DUP5 AND AND ISZERO PUSH2 0x10DE JUMPI PUSH2 0x10DE PUSH2 0x1160 JUMP JUMPDEST DUP8 DUP6 SDIV DUP8 SLT DUP2 DUP5 AND AND ISZERO PUSH2 0x10F4 JUMPI PUSH2 0x10F4 PUSH2 0x1160 JUMP JUMPDEST POP POP POP SWAP3 SWAP1 SWAP4 MUL SWAP4 SWAP3 POP POP POP JUMP JUMPDEST PUSH1 0x0 DUP2 PUSH1 0x0 NOT DIV DUP4 GT DUP3 ISZERO ISZERO AND ISZERO PUSH2 0x111C JUMPI PUSH2 0x111C PUSH2 0x1160 JUMP JUMPDEST POP MUL SWAP1 JUMP JUMPDEST PUSH1 0x0 DUP1 DUP4 SLT DUP1 ISZERO PUSH1 0x1 PUSH1 0xFF SHL DUP6 ADD DUP5 SLT AND ISZERO PUSH2 0x113F JUMPI PUSH2 0x113F PUSH2 0x1160 JUMP JUMPDEST PUSH1 0x1 PUSH1 0x1 PUSH1 0xFF SHL SUB DUP5 ADD DUP4 SGT DUP2 AND ISZERO PUSH2 0x115A JUMPI PUSH2 0x115A PUSH2 0x1160 JUMP JUMPDEST POP POP SUB SWAP1 JUMP JUMPDEST PUSH4 0x4E487B71 PUSH1 0xE0 SHL PUSH1 0x0 MSTORE PUSH1 0x11 PUSH1 0x4 MSTORE PUSH1 0x24 PUSH1 0x0 REVERT JUMPDEST PUSH4 0x4E487B71 PUSH1 0xE0 SHL PUSH1 0x0 MSTORE PUSH1 0x12 PUSH1 0x4 MSTORE PUSH1 0x24 PUSH1 0x0 REVERT INVALID PUSH29 0xAF00010D672E49BE66AB36CD6825CDBB7331686163AC730A8A3646D345 MSTORE8 MSTORE LOG2 PUSH5 0x6970667358 0x22 SLT KECCAK256 0x4F 0xF7 0x1E 0xF INVALID 0x4D PUSH17 0x325F61EE91B958A64233B5148DB7C7811C 0xB0 0xD3 PUSH18 0xEDE6CF253D64736F6C634300080400330000 "},"methodIdentifiers":{"getAddress(bytes32)":"21f8a721","getGameEngineContract()":"d37f72ed","getNFTMarketplaceContract()":"0bbc98ba","getOWNKContract()":"b6a07287","getPBRTContract()":"dcdb9502","getPEASContract()":"957ee50a","getPEFPContract()":"9d944118","getPNFTSContract()":"108858fc","getPNFTSSContract()":"c5184bd1","getPNFTStakingContract()":"7c551587","owner()":"8da5cb5b","renounceOwnership()":"715018a6","setAddress(bytes32,address)":"ca446dd9","setGameEngineContract(address)":"a3f8de52","setNFTMarketplaceContract(address)":"19aadfe2","setOWNKContract(address)":"172635a9","setPBRTContract(address)":"e78c626c","setPEASContract(address)":"ce50ac03","setPEFPContract(address)":"76447312","setPNFTSContract(address)":"a565c183","setPNFTSSContract(address)":"afc5c582","setPNFTStakingContract(address)":"e01d98f4","transferOwnership(address)":"f2fde38b"}}}}}