{"contracts/stake/PnftStaking.sol":{"PnftStaking":{"abi":[{"inputs":[{"internalType":"address","name":"stakeNftAddress","type":"address"},{"internalType":"address","name":"rewardTokenAddress","type":"address"}],"stateMutability":"nonpayable","type":"constructor"},{"anonymous":false,"inputs":[{"indexed":true,"internalType":"address","name":"account","type":"address"},{"indexed":false,"internalType":"uint256","name":"amount","type":"uint256"}],"name":"Harvested","type":"event"},{"anonymous":false,"inputs":[{"indexed":true,"internalType":"address","name":"account","type":"address"},{"indexed":false,"internalType":"uint256","name":"amountNeeded","type":"uint256"},{"indexed":false,"internalType":"uint256","name":"balance","type":"uint256"}],"name":"InsufficientRewardToken","type":"event"},{"anonymous":false,"inputs":[{"indexed":true,"internalType":"address","name":"previousOwner","type":"address"},{"indexed":true,"internalType":"address","name":"newOwner","type":"address"}],"name":"OwnershipTransferred","type":"event"},{"anonymous":false,"inputs":[{"indexed":false,"internalType":"address","name":"oldToken","type":"address"},{"indexed":false,"internalType":"address","name":"newToken","type":"address"}],"name":"RewardTokenUpdated","type":"event"},{"anonymous":false,"inputs":[{"indexed":true,"internalType":"address","name":"account","type":"address"},{"indexed":false,"internalType":"uint256","name":"tokenId","type":"uint256"}],"name":"Staked","type":"event"},{"anonymous":false,"inputs":[{"indexed":true,"internalType":"address","name":"account","type":"address"},{"indexed":false,"internalType":"uint256","name":"tokenId","type":"uint256"}],"name":"Withdrawn","type":"event"},{"inputs":[],"name":"claimRewards","outputs":[],"stateMutability":"nonpayable","type":"function"},{"inputs":[{"internalType":"uint256","name":"amount","type":"uint256"}],"name":"depositLiquidity","outputs":[],"stateMutability":"nonpayable","type":"function"},{"inputs":[{"internalType":"address","name":"account","type":"address"}],"name":"getStakerInfo","outputs":[{"internalType":"uint256[]","name":"stakedNfts","type":"uint256[]"},{"internalType":"uint256","name":"rewards","type":"uint256"},{"internalType":"uint256","name":"lastClaimDate","type":"uint256"}],"stateMutability":"view","type":"function"},{"inputs":[],"name":"getStakersList","outputs":[{"internalType":"address[]","name":"stakers","type":"address[]"}],"stateMutability":"view","type":"function"},{"inputs":[{"internalType":"address","name":"account","type":"address"},{"internalType":"uint256","name":"tokenId","type":"uint256"}],"name":"isStaked","outputs":[{"internalType":"bool","name":"","type":"bool"}],"stateMutability":"view","type":"function"},{"inputs":[],"name":"maxNftsPerUser","outputs":[{"internalType":"uint256","name":"","type":"uint256"}],"stateMutability":"view","type":"function"},{"inputs":[{"internalType":"address","name":"","type":"address"},{"internalType":"address","name":"","type":"address"},{"internalType":"uint256","name":"","type":"uint256"},{"internalType":"bytes","name":"","type":"bytes"}],"name":"onERC721Received","outputs":[{"internalType":"bytes4","name":"","type":"bytes4"}],"stateMutability":"nonpayable","type":"function"},{"inputs":[],"name":"owner","outputs":[{"internalType":"address","name":"","type":"address"}],"stateMutability":"view","type":"function"},{"inputs":[],"name":"pendingRewards","outputs":[{"internalType":"uint256","name":"","type":"uint256"}],"stateMutability":"view","type":"function"},{"inputs":[],"name":"renounceOwnership","outputs":[],"stateMutability":"nonpayable","type":"function"},{"inputs":[{"internalType":"uint256[]","name":"tokenIdList","type":"uint256[]"}],"name":"stake","outputs":[],"stateMutability":"nonpayable","type":"function"},{"inputs":[{"internalType":"address","name":"newOwner","type":"address"}],"name":"transferOwnership","outputs":[],"stateMutability":"nonpayable","type":"function"},{"inputs":[{"internalType":"address","name":"account","type":"address"}],"name":"userStakedNFTCount","outputs":[{"internalType":"uint256","name":"","type":"uint256"}],"stateMutability":"view","type":"function"},{"inputs":[{"internalType":"uint256[]","name":"tokenIdList","type":"uint256[]"}],"name":"withdraw","outputs":[],"stateMutability":"nonpayable","type":"function"}],"evm":{"bytecode":{"linkReferences":{},"object":"6080604052600160075534801561001557600080fd5b5060405161135e38038061135e833981016040819052610034916100de565b61003d33610072565b60018055600280546001600160a01b039384166001600160a01b03199182161790915560038054929093169116179055610110565b600080546001600160a01b038381166001600160a01b0319831681178455604051919092169283917f8be0079c531659141344cd1fd0a4f28419497f9722a3daafe3b4186f6b6457e09190a35050565b80516001600160a01b03811681146100d957600080fd5b919050565b600080604083850312156100f0578182fd5b6100f9836100c2565b9150610107602084016100c2565b90509250929050565b61123f8061011f6000396000f3fe608060405234801561001057600080fd5b50600436106100ea5760003560e01c806376d58e1a1161008c578063a535a60e11610066578063a535a60e146101e4578063cd0559eb146101fb578063eded3fda1461020e578063f2fde38b1461021557600080fd5b806376d58e1a146101a35780638da5cb5b146101b6578063983d95ce146101d157600080fd5b80635451da1b116100c85780635451da1b146101415780636ab00a3814610164578063715018a614610179578063733bdef01461018157600080fd5b80630fbf0a93146100ef578063150b7a0214610104578063372500ab14610102575b600080fd5b6101026100fd366004611001565b610228565b005b610123610112366004610f42565b630a85bd0160e11b95945050505050565b6040516001600160e01b031990911681526020015b60405180910390f35b61015461014f366004610fd8565b61051a565b6040519015158152602001610138565b61016c610546565b60405161013891906110f9565b610102610615565b61019461018f366004610f28565b610627565b60405161013893929190611146565b6101026101b13660046110e1565b610711565b6000546040516001600160a01b039091168152602001610138565b6101026101df366004611001565b610870565b6101ed60075481565b604051908152602001610138565b6101ed610209366004610f28565b610b28565b60006101ed565b610102610223366004610f28565b610b50565b610230610bc6565b6002546001600160a01b031663e985e9c5336040516001600160e01b031960e084901b1681526001600160a01b03909116600482015230602482015260440160206040518083038186803b15801561028757600080fd5b505afa15801561029b573d6000803e3d6000fd5b505050506040513d601f19601f820116820180604052508101906102bf91906110c1565b6103105760405162461bcd60e51b815260206004820152601960248201527f4e6f7420617070726f7665206e667420746f207374616b65720000000000000060448201526064015b60405180910390fd5b600754815161031e33610b28565b6103289190611193565b11156103765760405162461bcd60e51b815260206004820152601c60248201527f45786365656473206d6178206c696d697420706572207374616b6572000000006044820152606401610307565b33600090815260046020526040902061038e81610c20565b61039f5761039d600533610c2a565b505b60005b825181101561050a576002546001600160a01b03166342842e0e33308685815181106103de57634e487b7160e01b600052603260045260246000fd5b60209081029190910101516040516001600160e01b031960e086901b1681526001600160a01b0393841660048201529290911660248301526044820152606401600060405180830381600087803b15801561043857600080fd5b505af115801561044c573d6000803e3d6000fd5b5050505061048d83828151811061047357634e487b7160e01b600052603260045260246000fd5b602002602001015183600001610c3f90919063ffffffff16565b50336001600160a01b03167f9e71bc8eea02a63969f509818f2dafb9254532904319f9dbda79b67bd34a5f3d8483815181106104d957634e487b7160e01b600052603260045260246000fd5b60200260200101516040516104f091815260200190565b60405180910390a280610502816111c2565b9150506103a2565b505061051560018055565b50565b565b6001600160a01b038216600090815260046020526040812061053c8184610c4b565b9150505b92915050565b606060006105546005610c20565b90508015610611578067ffffffffffffffff81111561058357634e487b7160e01b600052604160045260246000fd5b6040519080825280602002602001820160405280156105ac578160200160208202803683370190505b50915060005b8181101561060f576105c5600582610c63565b8382815181106105e557634e487b7160e01b600052603260045260246000fd5b6001600160a01b039092166020928302919091019091015280610607816111c2565b9150506105b2565b505b5090565b61061d610c6f565b6105186000610cc9565b6001600160a01b0381166000908152600460205260408120600281015460038201546060939192909161065982610c20565b90508015610708578067ffffffffffffffff81111561068857634e487b7160e01b600052604160045260246000fd5b6040519080825280602002602001820160405280156106b1578160200160208202803683370190505b50945060005b81811015610706576106c98382610c63565b8682815181106106e957634e487b7160e01b600052603260045260246000fd5b6020908102919091010152806106fe816111c2565b9150506106b7565b505b50509193909250565b6003546001600160a01b03166323b872dd336040516001600160e01b031960e084901b1681526001600160a01b03909116600482015230602482015260448101849052606401602060405180830381600087803b15801561077157600080fd5b505af1158015610785573d6000803e3d6000fd5b505050506040513d601f19601f820116820180604052508101906107a991906110c1565b6107ec5760405162461bcd60e51b815260206004820152601460248201527304661696c656420746f206465706f736974204c560641b6044820152606401610307565b60005b6107f96005610c20565b81101561086c576000600481610810600585610c63565b6001600160a01b03166001600160a01b03168152602001908152602001600020905060005b61083e82610c20565b811015610857578061084f816111c2565b915050610835565b50508080610864906111c2565b9150506107ef565b5050565b610878610bc6565b336000908152600460205260408120905b8251811015610acf5760008382815181106108b457634e487b7160e01b600052603260045260246000fd5b6020026020010151116108fc5760405162461bcd60e51b815260206004820152601060248201526f125b9d985a5b19081d1bdad95b881a5960821b6044820152606401610307565b61092d3384838151811061092057634e487b7160e01b600052603260045260246000fd5b602002602001015161051a565b6109705760405162461bcd60e51b81526020600482015260146024820152732737ba1039ba30b5b2b21037333a103a37b5b2b760611b6044820152606401610307565b6002546001600160a01b03166342842e0e30338685815181106109a357634e487b7160e01b600052603260045260246000fd5b60209081029190910101516040516001600160e01b031960e086901b1681526001600160a01b0393841660048201529290911660248301526044820152606401600060405180830381600087803b1580156109fd57600080fd5b505af1158015610a11573d6000803e3d6000fd5b50505050610a52838281518110610a3857634e487b7160e01b600052603260045260246000fd5b602002602001015183600001610d1990919063ffffffff16565b50336001600160a01b03167f7084f5476618d8e60b11ef0d7d3f06914655adb8793e28ff7f018d4c76d505d5848381518110610a9e57634e487b7160e01b600052603260045260246000fd5b6020026020010151604051610ab591815260200190565b60405180910390a280610ac7816111c2565b915050610889565b50610ad981610c20565b610b1e57610ae8600533610d25565b503360009081526004602052604081209081818181610b078282610ede565b505050506002820160009055600382016000905550505b5061051560018055565b6001600160a01b0381166000908152600460205260408120610b4981610c20565b9392505050565b610b58610c6f565b6001600160a01b038116610bbd5760405162461bcd60e51b815260206004820152602660248201527f4f776e61626c653a206e6577206f776e657220697320746865207a65726f206160448201526564647265737360d01b6064820152608401610307565b61051581610cc9565b60026001541415610c195760405162461bcd60e51b815260206004820152601f60248201527f5265656e7472616e637947756172643a207265656e7472616e742063616c6c006044820152606401610307565b6002600155565b6000610540825490565b6000610b49836001600160a01b038416610d3a565b6000610b498383610d3a565b60008181526001830160205260408120541515610b49565b6000610b498383610d89565b6000546001600160a01b031633146105185760405162461bcd60e51b815260206004820181905260248201527f4f776e61626c653a2063616c6c6572206973206e6f7420746865206f776e65726044820152606401610307565b600080546001600160a01b038381166001600160a01b0319831681178455604051919092169283917f8be0079c531659141344cd1fd0a4f28419497f9722a3daafe3b4186f6b6457e09190a35050565b6000610b498383610dc1565b6000610b49836001600160a01b038416610dc1565b6000818152600183016020526040812054610d8157508154600181810184556000848152602080822090930184905584548482528286019093526040902091909155610540565b506000610540565b6000826000018281548110610dae57634e487b7160e01b600052603260045260246000fd5b9060005260206000200154905092915050565b60008181526001830160205260408120548015610ed4576000610de56001836111ab565b8554909150600090610df9906001906111ab565b9050818114610e7a576000866000018281548110610e2757634e487b7160e01b600052603260045260246000fd5b9060005260206000200154905080876000018481548110610e5857634e487b7160e01b600052603260045260246000fd5b6000918252602080832090910192909255918252600188019052604090208390555b8554869080610e9957634e487b7160e01b600052603160045260246000fd5b600190038181906000526020600020016000905590558560010160008681526020019081526020016000206000905560019350505050610540565b6000915050610540565b508054600082559060005260206000209081019061051591905b808211156106115760008155600101610ef8565b80356001600160a01b0381168114610f2357600080fd5b919050565b600060208284031215610f39578081fd5b610b4982610f0c565b600080600080600060808688031215610f59578081fd5b610f6286610f0c565b9450610f7060208701610f0c565b935060408601359250606086013567ffffffffffffffff80821115610f93578283fd5b818801915088601f830112610fa6578283fd5b813581811115610fb4578384fd5b896020828501011115610fc5578384fd5b9699959850939650602001949392505050565b60008060408385031215610fea578182fd5b610ff383610f0c565b946020939093013593505050565b60006020808385031215611013578182fd5b823567ffffffffffffffff8082111561102a578384fd5b818501915085601f83011261103d578384fd5b81358181111561104f5761104f6111f3565b8060051b604051601f19603f83011681018181108582111715611074576110746111f3565b604052828152858101935084860182860187018a1015611092578788fd5b8795505b838610156110b4578035855260019590950194938601938601611096565b5098975050505050505050565b6000602082840312156110d2578081fd5b81518015158114610b49578182fd5b6000602082840312156110f2578081fd5b5035919050565b6020808252825182820181905260009190848201906040850190845b8181101561113a5783516001600160a01b031683529284019291840191600101611115565b50909695505050505050565b606080825284519082018190526000906020906080840190828801845b8281101561117f57815184529284019290840190600101611163565b505050908301949094525060400152919050565b600082198211156111a6576111a66111dd565b500190565b6000828210156111bd576111bd6111dd565b500390565b60006000198214156111d6576111d66111dd565b5060010190565b634e487b7160e01b600052601160045260246000fd5b634e487b7160e01b600052604160045260246000fdfea26469706673582212203e1b2f3e90002cfd7508010d58dc01df0bf805872eb3037fb234417b4b0e409a64736f6c63430008040033","opcodes":"PUSH1 0x80 PUSH1 0x40 MSTORE PUSH1 0x1 PUSH1 0x7 SSTORE CALLVALUE DUP1 ISZERO PUSH2 0x15 JUMPI PUSH1 0x0 DUP1 REVERT JUMPDEST POP PUSH1 0x40 MLOAD PUSH2 0x135E CODESIZE SUB DUP1 PUSH2 0x135E DUP4 CODECOPY DUP2 ADD PUSH1 0x40 DUP2 SWAP1 MSTORE PUSH2 0x34 SWAP2 PUSH2 0xDE JUMP JUMPDEST PUSH2 0x3D CALLER PUSH2 0x72 JUMP JUMPDEST PUSH1 0x1 DUP1 SSTORE PUSH1 0x2 DUP1 SLOAD PUSH1 0x1 PUSH1 0x1 PUSH1 0xA0 SHL SUB SWAP4 DUP5 AND PUSH1 0x1 PUSH1 0x1 PUSH1 0xA0 SHL SUB NOT SWAP2 DUP3 AND OR SWAP1 SWAP2 SSTORE PUSH1 0x3 DUP1 SLOAD SWAP3 SWAP1 SWAP4 AND SWAP2 AND OR SWAP1 SSTORE PUSH2 0x110 JUMP JUMPDEST PUSH1 0x0 DUP1 SLOAD PUSH1 0x1 PUSH1 0x1 PUSH1 0xA0 SHL SUB DUP4 DUP2 AND PUSH1 0x1 PUSH1 0x1 PUSH1 0xA0 SHL SUB NOT DUP4 AND DUP2 OR DUP5 SSTORE PUSH1 0x40 MLOAD SWAP2 SWAP1 SWAP3 AND SWAP3 DUP4 SWAP2 PUSH32 0x8BE0079C531659141344CD1FD0A4F28419497F9722A3DAAFE3B4186F6B6457E0 SWAP2 SWAP1 LOG3 POP POP JUMP JUMPDEST DUP1 MLOAD PUSH1 0x1 PUSH1 0x1 PUSH1 0xA0 SHL SUB DUP2 AND DUP2 EQ PUSH2 0xD9 JUMPI PUSH1 0x0 DUP1 REVERT JUMPDEST SWAP2 SWAP1 POP JUMP JUMPDEST PUSH1 0x0 DUP1 PUSH1 0x40 DUP4 DUP6 SUB SLT ISZERO PUSH2 0xF0 JUMPI DUP2 DUP3 REVERT JUMPDEST PUSH2 0xF9 DUP4 PUSH2 0xC2 JUMP JUMPDEST SWAP2 POP PUSH2 0x107 PUSH1 0x20 DUP5 ADD PUSH2 0xC2 JUMP JUMPDEST SWAP1 POP SWAP3 POP SWAP3 SWAP1 POP JUMP JUMPDEST PUSH2 0x123F DUP1 PUSH2 0x11F PUSH1 0x0 CODECOPY PUSH1 0x0 RETURN INVALID PUSH1 0x80 PUSH1 0x40 MSTORE CALLVALUE DUP1 ISZERO PUSH2 0x10 JUMPI PUSH1 0x0 DUP1 REVERT JUMPDEST POP PUSH1 0x4 CALLDATASIZE LT PUSH2 0xEA JUMPI PUSH1 0x0 CALLDATALOAD PUSH1 0xE0 SHR DUP1 PUSH4 0x76D58E1A GT PUSH2 0x8C JUMPI DUP1 PUSH4 0xA535A60E GT PUSH2 0x66 JUMPI DUP1 PUSH4 0xA535A60E EQ PUSH2 0x1E4 JUMPI DUP1 PUSH4 0xCD0559EB EQ PUSH2 0x1FB JUMPI DUP1 PUSH4 0xEDED3FDA EQ PUSH2 0x20E JUMPI DUP1 PUSH4 0xF2FDE38B EQ PUSH2 0x215 JUMPI PUSH1 0x0 DUP1 REVERT JUMPDEST DUP1 PUSH4 0x76D58E1A EQ PUSH2 0x1A3 JUMPI DUP1 PUSH4 0x8DA5CB5B EQ PUSH2 0x1B6 JUMPI DUP1 PUSH4 0x983D95CE EQ PUSH2 0x1D1 JUMPI PUSH1 0x0 DUP1 REVERT JUMPDEST DUP1 PUSH4 0x5451DA1B GT PUSH2 0xC8 JUMPI DUP1 PUSH4 0x5451DA1B EQ PUSH2 0x141 JUMPI DUP1 PUSH4 0x6AB00A38 EQ PUSH2 0x164 JUMPI DUP1 PUSH4 0x715018A6 EQ PUSH2 0x179 JUMPI DUP1 PUSH4 0x733BDEF0 EQ PUSH2 0x181 JUMPI PUSH1 0x0 DUP1 REVERT JUMPDEST DUP1 PUSH4 0xFBF0A93 EQ PUSH2 0xEF JUMPI DUP1 PUSH4 0x150B7A02 EQ PUSH2 0x104 JUMPI DUP1 PUSH4 0x372500AB EQ PUSH2 0x102 JUMPI JUMPDEST PUSH1 0x0 DUP1 REVERT JUMPDEST PUSH2 0x102 PUSH2 0xFD CALLDATASIZE PUSH1 0x4 PUSH2 0x1001 JUMP JUMPDEST PUSH2 0x228 JUMP JUMPDEST STOP JUMPDEST PUSH2 0x123 PUSH2 0x112 CALLDATASIZE PUSH1 0x4 PUSH2 0xF42 JUMP JUMPDEST PUSH4 0xA85BD01 PUSH1 0xE1 SHL SWAP6 SWAP5 POP POP POP POP POP JUMP JUMPDEST PUSH1 0x40 MLOAD PUSH1 0x1 PUSH1 0x1 PUSH1 0xE0 SHL SUB NOT SWAP1 SWAP2 AND DUP2 MSTORE PUSH1 0x20 ADD JUMPDEST PUSH1 0x40 MLOAD DUP1 SWAP2 SUB SWAP1 RETURN JUMPDEST PUSH2 0x154 PUSH2 0x14F CALLDATASIZE PUSH1 0x4 PUSH2 0xFD8 JUMP JUMPDEST PUSH2 0x51A JUMP JUMPDEST PUSH1 0x40 MLOAD SWAP1 ISZERO ISZERO DUP2 MSTORE PUSH1 0x20 ADD PUSH2 0x138 JUMP JUMPDEST PUSH2 0x16C PUSH2 0x546 JUMP JUMPDEST PUSH1 0x40 MLOAD PUSH2 0x138 SWAP2 SWAP1 PUSH2 0x10F9 JUMP JUMPDEST PUSH2 0x102 PUSH2 0x615 JUMP JUMPDEST PUSH2 0x194 PUSH2 0x18F CALLDATASIZE PUSH1 0x4 PUSH2 0xF28 JUMP JUMPDEST PUSH2 0x627 JUMP JUMPDEST PUSH1 0x40 MLOAD PUSH2 0x138 SWAP4 SWAP3 SWAP2 SWAP1 PUSH2 0x1146 JUMP JUMPDEST PUSH2 0x102 PUSH2 0x1B1 CALLDATASIZE PUSH1 0x4 PUSH2 0x10E1 JUMP JUMPDEST PUSH2 0x711 JUMP JUMPDEST PUSH1 0x0 SLOAD PUSH1 0x40 MLOAD PUSH1 0x1 PUSH1 0x1 PUSH1 0xA0 SHL SUB SWAP1 SWAP2 AND DUP2 MSTORE PUSH1 0x20 ADD PUSH2 0x138 JUMP JUMPDEST PUSH2 0x102 PUSH2 0x1DF CALLDATASIZE PUSH1 0x4 PUSH2 0x1001 JUMP JUMPDEST PUSH2 0x870 JUMP JUMPDEST PUSH2 0x1ED PUSH1 0x7 SLOAD DUP2 JUMP JUMPDEST PUSH1 0x40 MLOAD SWAP1 DUP2 MSTORE PUSH1 0x20 ADD PUSH2 0x138 JUMP JUMPDEST PUSH2 0x1ED PUSH2 0x209 CALLDATASIZE PUSH1 0x4 PUSH2 0xF28 JUMP JUMPDEST PUSH2 0xB28 JUMP JUMPDEST PUSH1 0x0 PUSH2 0x1ED JUMP JUMPDEST PUSH2 0x102 PUSH2 0x223 CALLDATASIZE PUSH1 0x4 PUSH2 0xF28 JUMP JUMPDEST PUSH2 0xB50 JUMP JUMPDEST PUSH2 0x230 PUSH2 0xBC6 JUMP JUMPDEST PUSH1 0x2 SLOAD PUSH1 0x1 PUSH1 0x1 PUSH1 0xA0 SHL SUB AND PUSH4 0xE985E9C5 CALLER PUSH1 0x40 MLOAD PUSH1 0x1 PUSH1 0x1 PUSH1 0xE0 SHL SUB NOT PUSH1 0xE0 DUP5 SWAP1 SHL AND DUP2 MSTORE PUSH1 0x1 PUSH1 0x1 PUSH1 0xA0 SHL SUB SWAP1 SWAP2 AND PUSH1 0x4 DUP3 ADD MSTORE ADDRESS PUSH1 0x24 DUP3 ADD MSTORE PUSH1 0x44 ADD PUSH1 0x20 PUSH1 0x40 MLOAD DUP1 DUP4 SUB DUP2 DUP7 DUP1 EXTCODESIZE ISZERO DUP1 ISZERO PUSH2 0x287 JUMPI PUSH1 0x0 DUP1 REVERT JUMPDEST POP GAS STATICCALL ISZERO DUP1 ISZERO PUSH2 0x29B JUMPI RETURNDATASIZE PUSH1 0x0 DUP1 RETURNDATACOPY RETURNDATASIZE PUSH1 0x0 REVERT JUMPDEST POP POP POP POP PUSH1 0x40 MLOAD RETURNDATASIZE PUSH1 0x1F NOT PUSH1 0x1F DUP3 ADD AND DUP3 ADD DUP1 PUSH1 0x40 MSTORE POP DUP2 ADD SWAP1 PUSH2 0x2BF SWAP2 SWAP1 PUSH2 0x10C1 JUMP JUMPDEST PUSH2 0x310 JUMPI PUSH1 0x40 MLOAD PUSH3 0x461BCD PUSH1 0xE5 SHL DUP2 MSTORE PUSH1 0x20 PUSH1 0x4 DUP3 ADD MSTORE PUSH1 0x19 PUSH1 0x24 DUP3 ADD MSTORE PUSH32 0x4E6F7420617070726F7665206E667420746F207374616B657200000000000000 PUSH1 0x44 DUP3 ADD MSTORE PUSH1 0x64 ADD JUMPDEST PUSH1 0x40 MLOAD DUP1 SWAP2 SUB SWAP1 REVERT JUMPDEST PUSH1 0x7 SLOAD DUP2 MLOAD PUSH2 0x31E CALLER PUSH2 0xB28 JUMP JUMPDEST PUSH2 0x328 SWAP2 SWAP1 PUSH2 0x1193 JUMP JUMPDEST GT ISZERO PUSH2 0x376 JUMPI PUSH1 0x40 MLOAD PUSH3 0x461BCD PUSH1 0xE5 SHL DUP2 MSTORE PUSH1 0x20 PUSH1 0x4 DUP3 ADD MSTORE PUSH1 0x1C PUSH1 0x24 DUP3 ADD MSTORE PUSH32 0x45786365656473206D6178206C696D697420706572207374616B657200000000 PUSH1 0x44 DUP3 ADD MSTORE PUSH1 0x64 ADD PUSH2 0x307 JUMP JUMPDEST CALLER PUSH1 0x0 SWAP1 DUP2 MSTORE PUSH1 0x4 PUSH1 0x20 MSTORE PUSH1 0x40 SWAP1 KECCAK256 PUSH2 0x38E DUP2 PUSH2 0xC20 JUMP JUMPDEST PUSH2 0x39F JUMPI PUSH2 0x39D PUSH1 0x5 CALLER PUSH2 0xC2A JUMP JUMPDEST POP JUMPDEST PUSH1 0x0 JUMPDEST DUP3 MLOAD DUP2 LT ISZERO PUSH2 0x50A JUMPI PUSH1 0x2 SLOAD PUSH1 0x1 PUSH1 0x1 PUSH1 0xA0 SHL SUB AND PUSH4 0x42842E0E CALLER ADDRESS DUP7 DUP6 DUP2 MLOAD DUP2 LT PUSH2 0x3DE JUMPI PUSH4 0x4E487B71 PUSH1 0xE0 SHL PUSH1 0x0 MSTORE PUSH1 0x32 PUSH1 0x4 MSTORE PUSH1 0x24 PUSH1 0x0 REVERT JUMPDEST PUSH1 0x20 SWAP1 DUP2 MUL SWAP2 SWAP1 SWAP2 ADD ADD MLOAD PUSH1 0x40 MLOAD PUSH1 0x1 PUSH1 0x1 PUSH1 0xE0 SHL SUB NOT PUSH1 0xE0 DUP7 SWAP1 SHL AND DUP2 MSTORE PUSH1 0x1 PUSH1 0x1 PUSH1 0xA0 SHL SUB SWAP4 DUP5 AND PUSH1 0x4 DUP3 ADD MSTORE SWAP3 SWAP1 SWAP2 AND PUSH1 0x24 DUP4 ADD MSTORE PUSH1 0x44 DUP3 ADD MSTORE PUSH1 0x64 ADD PUSH1 0x0 PUSH1 0x40 MLOAD DUP1 DUP4 SUB DUP2 PUSH1 0x0 DUP8 DUP1 EXTCODESIZE ISZERO DUP1 ISZERO PUSH2 0x438 JUMPI PUSH1 0x0 DUP1 REVERT JUMPDEST POP GAS CALL ISZERO DUP1 ISZERO PUSH2 0x44C JUMPI RETURNDATASIZE PUSH1 0x0 DUP1 RETURNDATACOPY RETURNDATASIZE PUSH1 0x0 REVERT JUMPDEST POP POP POP POP PUSH2 0x48D DUP4 DUP3 DUP2 MLOAD DUP2 LT PUSH2 0x473 JUMPI PUSH4 0x4E487B71 PUSH1 0xE0 SHL PUSH1 0x0 MSTORE PUSH1 0x32 PUSH1 0x4 MSTORE PUSH1 0x24 PUSH1 0x0 REVERT JUMPDEST PUSH1 0x20 MUL PUSH1 0x20 ADD ADD MLOAD DUP4 PUSH1 0x0 ADD PUSH2 0xC3F SWAP1 SWAP2 SWAP1 PUSH4 0xFFFFFFFF AND JUMP JUMPDEST POP CALLER PUSH1 0x1 PUSH1 0x1 PUSH1 0xA0 SHL SUB AND PUSH32 0x9E71BC8EEA02A63969F509818F2DAFB9254532904319F9DBDA79B67BD34A5F3D DUP5 DUP4 DUP2 MLOAD DUP2 LT PUSH2 0x4D9 JUMPI PUSH4 0x4E487B71 PUSH1 0xE0 SHL PUSH1 0x0 MSTORE PUSH1 0x32 PUSH1 0x4 MSTORE PUSH1 0x24 PUSH1 0x0 REVERT JUMPDEST PUSH1 0x20 MUL PUSH1 0x20 ADD ADD MLOAD PUSH1 0x40 MLOAD PUSH2 0x4F0 SWAP2 DUP2 MSTORE PUSH1 0x20 ADD SWAP1 JUMP JUMPDEST PUSH1 0x40 MLOAD DUP1 SWAP2 SUB SWAP1 LOG2 DUP1 PUSH2 0x502 DUP2 PUSH2 0x11C2 JUMP JUMPDEST SWAP2 POP POP PUSH2 0x3A2 JUMP JUMPDEST POP POP PUSH2 0x515 PUSH1 0x1 DUP1 SSTORE JUMP JUMPDEST POP JUMP JUMPDEST JUMP JUMPDEST PUSH1 0x1 PUSH1 0x1 PUSH1 0xA0 SHL SUB DUP3 AND PUSH1 0x0 SWAP1 DUP2 MSTORE PUSH1 0x4 PUSH1 0x20 MSTORE PUSH1 0x40 DUP2 KECCAK256 PUSH2 0x53C DUP2 DUP5 PUSH2 0xC4B JUMP JUMPDEST SWAP2 POP POP JUMPDEST SWAP3 SWAP2 POP POP JUMP JUMPDEST PUSH1 0x60 PUSH1 0x0 PUSH2 0x554 PUSH1 0x5 PUSH2 0xC20 JUMP JUMPDEST SWAP1 POP DUP1 ISZERO PUSH2 0x611 JUMPI DUP1 PUSH8 0xFFFFFFFFFFFFFFFF DUP2 GT ISZERO PUSH2 0x583 JUMPI PUSH4 0x4E487B71 PUSH1 0xE0 SHL PUSH1 0x0 MSTORE PUSH1 0x41 PUSH1 0x4 MSTORE PUSH1 0x24 PUSH1 0x0 REVERT JUMPDEST PUSH1 0x40 MLOAD SWAP1 DUP1 DUP3 MSTORE DUP1 PUSH1 0x20 MUL PUSH1 0x20 ADD DUP3 ADD PUSH1 0x40 MSTORE DUP1 ISZERO PUSH2 0x5AC JUMPI DUP2 PUSH1 0x20 ADD PUSH1 0x20 DUP3 MUL DUP1 CALLDATASIZE DUP4 CALLDATACOPY ADD SWAP1 POP JUMPDEST POP SWAP2 POP PUSH1 0x0 JUMPDEST DUP2 DUP2 LT ISZERO PUSH2 0x60F JUMPI PUSH2 0x5C5 PUSH1 0x5 DUP3 PUSH2 0xC63 JUMP JUMPDEST DUP4 DUP3 DUP2 MLOAD DUP2 LT PUSH2 0x5E5 JUMPI PUSH4 0x4E487B71 PUSH1 0xE0 SHL PUSH1 0x0 MSTORE PUSH1 0x32 PUSH1 0x4 MSTORE PUSH1 0x24 PUSH1 0x0 REVERT JUMPDEST PUSH1 0x1 PUSH1 0x1 PUSH1 0xA0 SHL SUB SWAP1 SWAP3 AND PUSH1 0x20 SWAP3 DUP4 MUL SWAP2 SWAP1 SWAP2 ADD SWAP1 SWAP2 ADD MSTORE DUP1 PUSH2 0x607 DUP2 PUSH2 0x11C2 JUMP JUMPDEST SWAP2 POP POP PUSH2 0x5B2 JUMP JUMPDEST POP JUMPDEST POP SWAP1 JUMP JUMPDEST PUSH2 0x61D PUSH2 0xC6F JUMP JUMPDEST PUSH2 0x518 PUSH1 0x0 PUSH2 0xCC9 JUMP JUMPDEST PUSH1 0x1 PUSH1 0x1 PUSH1 0xA0 SHL SUB DUP2 AND PUSH1 0x0 SWAP1 DUP2 MSTORE PUSH1 0x4 PUSH1 0x20 MSTORE PUSH1 0x40 DUP2 KECCAK256 PUSH1 0x2 DUP2 ADD SLOAD PUSH1 0x3 DUP3 ADD SLOAD PUSH1 0x60 SWAP4 SWAP2 SWAP3 SWAP1 SWAP2 PUSH2 0x659 DUP3 PUSH2 0xC20 JUMP JUMPDEST SWAP1 POP DUP1 ISZERO PUSH2 0x708 JUMPI DUP1 PUSH8 0xFFFFFFFFFFFFFFFF DUP2 GT ISZERO PUSH2 0x688 JUMPI PUSH4 0x4E487B71 PUSH1 0xE0 SHL PUSH1 0x0 MSTORE PUSH1 0x41 PUSH1 0x4 MSTORE PUSH1 0x24 PUSH1 0x0 REVERT JUMPDEST PUSH1 0x40 MLOAD SWAP1 DUP1 DUP3 MSTORE DUP1 PUSH1 0x20 MUL PUSH1 0x20 ADD DUP3 ADD PUSH1 0x40 MSTORE DUP1 ISZERO PUSH2 0x6B1 JUMPI DUP2 PUSH1 0x20 ADD PUSH1 0x20 DUP3 MUL DUP1 CALLDATASIZE DUP4 CALLDATACOPY ADD SWAP1 POP JUMPDEST POP SWAP5 POP PUSH1 0x0 JUMPDEST DUP2 DUP2 LT ISZERO PUSH2 0x706 JUMPI PUSH2 0x6C9 DUP4 DUP3 PUSH2 0xC63 JUMP JUMPDEST DUP7 DUP3 DUP2 MLOAD DUP2 LT PUSH2 0x6E9 JUMPI PUSH4 0x4E487B71 PUSH1 0xE0 SHL PUSH1 0x0 MSTORE PUSH1 0x32 PUSH1 0x4 MSTORE PUSH1 0x24 PUSH1 0x0 REVERT JUMPDEST PUSH1 0x20 SWAP1 DUP2 MUL SWAP2 SWAP1 SWAP2 ADD ADD MSTORE DUP1 PUSH2 0x6FE DUP2 PUSH2 0x11C2 JUMP JUMPDEST SWAP2 POP POP PUSH2 0x6B7 JUMP JUMPDEST POP JUMPDEST POP POP SWAP2 SWAP4 SWAP1 SWAP3 POP JUMP JUMPDEST PUSH1 0x3 SLOAD PUSH1 0x1 PUSH1 0x1 PUSH1 0xA0 SHL SUB AND PUSH4 0x23B872DD CALLER PUSH1 0x40 MLOAD PUSH1 0x1 PUSH1 0x1 PUSH1 0xE0 SHL SUB NOT PUSH1 0xE0 DUP5 SWAP1 SHL AND DUP2 MSTORE PUSH1 0x1 PUSH1 0x1 PUSH1 0xA0 SHL SUB SWAP1 SWAP2 AND PUSH1 0x4 DUP3 ADD MSTORE ADDRESS PUSH1 0x24 DUP3 ADD MSTORE PUSH1 0x44 DUP2 ADD DUP5 SWAP1 MSTORE PUSH1 0x64 ADD PUSH1 0x20 PUSH1 0x40 MLOAD DUP1 DUP4 SUB DUP2 PUSH1 0x0 DUP8 DUP1 EXTCODESIZE ISZERO DUP1 ISZERO PUSH2 0x771 JUMPI PUSH1 0x0 DUP1 REVERT JUMPDEST POP GAS CALL ISZERO DUP1 ISZERO PUSH2 0x785 JUMPI RETURNDATASIZE PUSH1 0x0 DUP1 RETURNDATACOPY RETURNDATASIZE PUSH1 0x0 REVERT JUMPDEST POP POP POP POP PUSH1 0x40 MLOAD RETURNDATASIZE PUSH1 0x1F NOT PUSH1 0x1F DUP3 ADD AND DUP3 ADD DUP1 PUSH1 0x40 MSTORE POP DUP2 ADD SWAP1 PUSH2 0x7A9 SWAP2 SWAP1 PUSH2 0x10C1 JUMP JUMPDEST PUSH2 0x7EC JUMPI PUSH1 0x40 MLOAD PUSH3 0x461BCD PUSH1 0xE5 SHL DUP2 MSTORE PUSH1 0x20 PUSH1 0x4 DUP3 ADD MSTORE PUSH1 0x14 PUSH1 0x24 DUP3 ADD MSTORE PUSH20 0x4661696C656420746F206465706F736974204C5 PUSH1 0x64 SHL PUSH1 0x44 DUP3 ADD MSTORE PUSH1 0x64 ADD PUSH2 0x307 JUMP JUMPDEST PUSH1 0x0 JUMPDEST PUSH2 0x7F9 PUSH1 0x5 PUSH2 0xC20 JUMP JUMPDEST DUP2 LT ISZERO PUSH2 0x86C JUMPI PUSH1 0x0 PUSH1 0x4 DUP2 PUSH2 0x810 PUSH1 0x5 DUP6 PUSH2 0xC63 JUMP JUMPDEST PUSH1 0x1 PUSH1 0x1 PUSH1 0xA0 SHL SUB AND PUSH1 0x1 PUSH1 0x1 PUSH1 0xA0 SHL SUB AND DUP2 MSTORE PUSH1 0x20 ADD SWAP1 DUP2 MSTORE PUSH1 0x20 ADD PUSH1 0x0 KECCAK256 SWAP1 POP PUSH1 0x0 JUMPDEST PUSH2 0x83E DUP3 PUSH2 0xC20 JUMP JUMPDEST DUP2 LT ISZERO PUSH2 0x857 JUMPI DUP1 PUSH2 0x84F DUP2 PUSH2 0x11C2 JUMP JUMPDEST SWAP2 POP POP PUSH2 0x835 JUMP JUMPDEST POP POP DUP1 DUP1 PUSH2 0x864 SWAP1 PUSH2 0x11C2 JUMP JUMPDEST SWAP2 POP POP PUSH2 0x7EF JUMP JUMPDEST POP POP JUMP JUMPDEST PUSH2 0x878 PUSH2 0xBC6 JUMP JUMPDEST CALLER PUSH1 0x0 SWAP1 DUP2 MSTORE PUSH1 0x4 PUSH1 0x20 MSTORE PUSH1 0x40 DUP2 KECCAK256 SWAP1 JUMPDEST DUP3 MLOAD DUP2 LT ISZERO PUSH2 0xACF JUMPI PUSH1 0x0 DUP4 DUP3 DUP2 MLOAD DUP2 LT PUSH2 0x8B4 JUMPI PUSH4 0x4E487B71 PUSH1 0xE0 SHL PUSH1 0x0 MSTORE PUSH1 0x32 PUSH1 0x4 MSTORE PUSH1 0x24 PUSH1 0x0 REVERT JUMPDEST PUSH1 0x20 MUL PUSH1 0x20 ADD ADD MLOAD GT PUSH2 0x8FC JUMPI PUSH1 0x40 MLOAD PUSH3 0x461BCD PUSH1 0xE5 SHL DUP2 MSTORE PUSH1 0x20 PUSH1 0x4 DUP3 ADD MSTORE PUSH1 0x10 PUSH1 0x24 DUP3 ADD MSTORE PUSH16 0x125B9D985A5B19081D1BDAD95B881A59 PUSH1 0x82 SHL PUSH1 0x44 DUP3 ADD MSTORE PUSH1 0x64 ADD PUSH2 0x307 JUMP JUMPDEST PUSH2 0x92D CALLER DUP5 DUP4 DUP2 MLOAD DUP2 LT PUSH2 0x920 JUMPI PUSH4 0x4E487B71 PUSH1 0xE0 SHL PUSH1 0x0 MSTORE PUSH1 0x32 PUSH1 0x4 MSTORE PUSH1 0x24 PUSH1 0x0 REVERT JUMPDEST PUSH1 0x20 MUL PUSH1 0x20 ADD ADD MLOAD PUSH2 0x51A JUMP JUMPDEST PUSH2 0x970 JUMPI PUSH1 0x40 MLOAD PUSH3 0x461BCD PUSH1 0xE5 SHL DUP2 MSTORE PUSH1 0x20 PUSH1 0x4 DUP3 ADD MSTORE PUSH1 0x14 PUSH1 0x24 DUP3 ADD MSTORE PUSH20 0x2737BA1039BA30B5B2B21037333A103A37B5B2B7 PUSH1 0x61 SHL PUSH1 0x44 DUP3 ADD MSTORE PUSH1 0x64 ADD PUSH2 0x307 JUMP JUMPDEST PUSH1 0x2 SLOAD PUSH1 0x1 PUSH1 0x1 PUSH1 0xA0 SHL SUB AND PUSH4 0x42842E0E ADDRESS CALLER DUP7 DUP6 DUP2 MLOAD DUP2 LT PUSH2 0x9A3 JUMPI PUSH4 0x4E487B71 PUSH1 0xE0 SHL PUSH1 0x0 MSTORE PUSH1 0x32 PUSH1 0x4 MSTORE PUSH1 0x24 PUSH1 0x0 REVERT JUMPDEST PUSH1 0x20 SWAP1 DUP2 MUL SWAP2 SWAP1 SWAP2 ADD ADD MLOAD PUSH1 0x40 MLOAD PUSH1 0x1 PUSH1 0x1 PUSH1 0xE0 SHL SUB NOT PUSH1 0xE0 DUP7 SWAP1 SHL AND DUP2 MSTORE PUSH1 0x1 PUSH1 0x1 PUSH1 0xA0 SHL SUB SWAP4 DUP5 AND PUSH1 0x4 DUP3 ADD MSTORE SWAP3 SWAP1 SWAP2 AND PUSH1 0x24 DUP4 ADD MSTORE PUSH1 0x44 DUP3 ADD MSTORE PUSH1 0x64 ADD PUSH1 0x0 PUSH1 0x40 MLOAD DUP1 DUP4 SUB DUP2 PUSH1 0x0 DUP8 DUP1 EXTCODESIZE ISZERO DUP1 ISZERO PUSH2 0x9FD JUMPI PUSH1 0x0 DUP1 REVERT JUMPDEST POP GAS CALL ISZERO DUP1 ISZERO PUSH2 0xA11 JUMPI RETURNDATASIZE PUSH1 0x0 DUP1 RETURNDATACOPY RETURNDATASIZE PUSH1 0x0 REVERT JUMPDEST POP POP POP POP PUSH2 0xA52 DUP4 DUP3 DUP2 MLOAD DUP2 LT PUSH2 0xA38 JUMPI PUSH4 0x4E487B71 PUSH1 0xE0 SHL PUSH1 0x0 MSTORE PUSH1 0x32 PUSH1 0x4 MSTORE PUSH1 0x24 PUSH1 0x0 REVERT JUMPDEST PUSH1 0x20 MUL PUSH1 0x20 ADD ADD MLOAD DUP4 PUSH1 0x0 ADD PUSH2 0xD19 SWAP1 SWAP2 SWAP1 PUSH4 0xFFFFFFFF AND JUMP JUMPDEST POP CALLER PUSH1 0x1 PUSH1 0x1 PUSH1 0xA0 SHL SUB AND PUSH32 0x7084F5476618D8E60B11EF0D7D3F06914655ADB8793E28FF7F018D4C76D505D5 DUP5 DUP4 DUP2 MLOAD DUP2 LT PUSH2 0xA9E JUMPI PUSH4 0x4E487B71 PUSH1 0xE0 SHL PUSH1 0x0 MSTORE PUSH1 0x32 PUSH1 0x4 MSTORE PUSH1 0x24 PUSH1 0x0 REVERT JUMPDEST PUSH1 0x20 MUL PUSH1 0x20 ADD ADD MLOAD PUSH1 0x40 MLOAD PUSH2 0xAB5 SWAP2 DUP2 MSTORE PUSH1 0x20 ADD SWAP1 JUMP JUMPDEST PUSH1 0x40 MLOAD DUP1 SWAP2 SUB SWAP1 LOG2 DUP1 PUSH2 0xAC7 DUP2 PUSH2 0x11C2 JUMP JUMPDEST SWAP2 POP POP PUSH2 0x889 JUMP JUMPDEST POP PUSH2 0xAD9 DUP2 PUSH2 0xC20 JUMP JUMPDEST PUSH2 0xB1E JUMPI PUSH2 0xAE8 PUSH1 0x5 CALLER PUSH2 0xD25 JUMP JUMPDEST POP CALLER PUSH1 0x0 SWAP1 DUP2 MSTORE PUSH1 0x4 PUSH1 0x20 MSTORE PUSH1 0x40 DUP2 KECCAK256 SWAP1 DUP2 DUP2 DUP2 DUP2 PUSH2 0xB07 DUP3 DUP3 PUSH2 0xEDE JUMP JUMPDEST POP POP POP POP PUSH1 0x2 DUP3 ADD PUSH1 0x0 SWAP1 SSTORE PUSH1 0x3 DUP3 ADD PUSH1 0x0 SWAP1 SSTORE POP POP JUMPDEST POP PUSH2 0x515 PUSH1 0x1 DUP1 SSTORE JUMP JUMPDEST PUSH1 0x1 PUSH1 0x1 PUSH1 0xA0 SHL SUB DUP2 AND PUSH1 0x0 SWAP1 DUP2 MSTORE PUSH1 0x4 PUSH1 0x20 MSTORE PUSH1 0x40 DUP2 KECCAK256 PUSH2 0xB49 DUP2 PUSH2 0xC20 JUMP JUMPDEST SWAP4 SWAP3 POP POP POP JUMP JUMPDEST PUSH2 0xB58 PUSH2 0xC6F JUMP JUMPDEST PUSH1 0x1 PUSH1 0x1 PUSH1 0xA0 SHL SUB DUP2 AND PUSH2 0xBBD JUMPI PUSH1 0x40 MLOAD PUSH3 0x461BCD PUSH1 0xE5 SHL DUP2 MSTORE PUSH1 0x20 PUSH1 0x4 DUP3 ADD MSTORE PUSH1 0x26 PUSH1 0x24 DUP3 ADD MSTORE PUSH32 0x4F776E61626C653A206E6577206F776E657220697320746865207A65726F2061 PUSH1 0x44 DUP3 ADD MSTORE PUSH6 0x646472657373 PUSH1 0xD0 SHL PUSH1 0x64 DUP3 ADD MSTORE PUSH1 0x84 ADD PUSH2 0x307 JUMP JUMPDEST PUSH2 0x515 DUP2 PUSH2 0xCC9 JUMP JUMPDEST PUSH1 0x2 PUSH1 0x1 SLOAD EQ ISZERO PUSH2 0xC19 JUMPI PUSH1 0x40 MLOAD PUSH3 0x461BCD PUSH1 0xE5 SHL DUP2 MSTORE PUSH1 0x20 PUSH1 0x4 DUP3 ADD MSTORE PUSH1 0x1F PUSH1 0x24 DUP3 ADD MSTORE PUSH32 0x5265656E7472616E637947756172643A207265656E7472616E742063616C6C00 PUSH1 0x44 DUP3 ADD MSTORE PUSH1 0x64 ADD PUSH2 0x307 JUMP JUMPDEST PUSH1 0x2 PUSH1 0x1 SSTORE JUMP JUMPDEST PUSH1 0x0 PUSH2 0x540 DUP3 SLOAD SWAP1 JUMP JUMPDEST PUSH1 0x0 PUSH2 0xB49 DUP4 PUSH1 0x1 PUSH1 0x1 PUSH1 0xA0 SHL SUB DUP5 AND PUSH2 0xD3A JUMP JUMPDEST PUSH1 0x0 PUSH2 0xB49 DUP4 DUP4 PUSH2 0xD3A JUMP JUMPDEST PUSH1 0x0 DUP2 DUP2 MSTORE PUSH1 0x1 DUP4 ADD PUSH1 0x20 MSTORE PUSH1 0x40 DUP2 KECCAK256 SLOAD ISZERO ISZERO PUSH2 0xB49 JUMP JUMPDEST PUSH1 0x0 PUSH2 0xB49 DUP4 DUP4 PUSH2 0xD89 JUMP JUMPDEST PUSH1 0x0 SLOAD PUSH1 0x1 PUSH1 0x1 PUSH1 0xA0 SHL SUB AND CALLER EQ PUSH2 0x518 JUMPI PUSH1 0x40 MLOAD PUSH3 0x461BCD PUSH1 0xE5 SHL DUP2 MSTORE PUSH1 0x20 PUSH1 0x4 DUP3 ADD DUP2 SWAP1 MSTORE PUSH1 0x24 DUP3 ADD MSTORE PUSH32 0x4F776E61626C653A2063616C6C6572206973206E6F7420746865206F776E6572 PUSH1 0x44 DUP3 ADD MSTORE PUSH1 0x64 ADD PUSH2 0x307 JUMP JUMPDEST PUSH1 0x0 DUP1 SLOAD PUSH1 0x1 PUSH1 0x1 PUSH1 0xA0 SHL SUB DUP4 DUP2 AND PUSH1 0x1 PUSH1 0x1 PUSH1 0xA0 SHL SUB NOT DUP4 AND DUP2 OR DUP5 SSTORE PUSH1 0x40 MLOAD SWAP2 SWAP1 SWAP3 AND SWAP3 DUP4 SWAP2 PUSH32 0x8BE0079C531659141344CD1FD0A4F28419497F9722A3DAAFE3B4186F6B6457E0 SWAP2 SWAP1 LOG3 POP POP JUMP JUMPDEST PUSH1 0x0 PUSH2 0xB49 DUP4 DUP4 PUSH2 0xDC1 JUMP JUMPDEST PUSH1 0x0 PUSH2 0xB49 DUP4 PUSH1 0x1 PUSH1 0x1 PUSH1 0xA0 SHL SUB DUP5 AND PUSH2 0xDC1 JUMP JUMPDEST PUSH1 0x0 DUP2 DUP2 MSTORE PUSH1 0x1 DUP4 ADD PUSH1 0x20 MSTORE PUSH1 0x40 DUP2 KECCAK256 SLOAD PUSH2 0xD81 JUMPI POP DUP2 SLOAD PUSH1 0x1 DUP2 DUP2 ADD DUP5 SSTORE PUSH1 0x0 DUP5 DUP2 MSTORE PUSH1 0x20 DUP1 DUP3 KECCAK256 SWAP1 SWAP4 ADD DUP5 SWAP1 SSTORE DUP5 SLOAD DUP5 DUP3 MSTORE DUP3 DUP7 ADD SWAP1 SWAP4 MSTORE PUSH1 0x40 SWAP1 KECCAK256 SWAP2 SWAP1 SWAP2 SSTORE PUSH2 0x540 JUMP JUMPDEST POP PUSH1 0x0 PUSH2 0x540 JUMP JUMPDEST PUSH1 0x0 DUP3 PUSH1 0x0 ADD DUP3 DUP2 SLOAD DUP2 LT PUSH2 0xDAE JUMPI PUSH4 0x4E487B71 PUSH1 0xE0 SHL PUSH1 0x0 MSTORE PUSH1 0x32 PUSH1 0x4 MSTORE PUSH1 0x24 PUSH1 0x0 REVERT JUMPDEST SWAP1 PUSH1 0x0 MSTORE PUSH1 0x20 PUSH1 0x0 KECCAK256 ADD SLOAD SWAP1 POP SWAP3 SWAP2 POP POP JUMP JUMPDEST PUSH1 0x0 DUP2 DUP2 MSTORE PUSH1 0x1 DUP4 ADD PUSH1 0x20 MSTORE PUSH1 0x40 DUP2 KECCAK256 SLOAD DUP1 ISZERO PUSH2 0xED4 JUMPI PUSH1 0x0 PUSH2 0xDE5 PUSH1 0x1 DUP4 PUSH2 0x11AB JUMP JUMPDEST DUP6 SLOAD SWAP1 SWAP2 POP PUSH1 0x0 SWAP1 PUSH2 0xDF9 SWAP1 PUSH1 0x1 SWAP1 PUSH2 0x11AB JUMP JUMPDEST SWAP1 POP DUP2 DUP2 EQ PUSH2 0xE7A JUMPI PUSH1 0x0 DUP7 PUSH1 0x0 ADD DUP3 DUP2 SLOAD DUP2 LT PUSH2 0xE27 JUMPI PUSH4 0x4E487B71 PUSH1 0xE0 SHL PUSH1 0x0 MSTORE PUSH1 0x32 PUSH1 0x4 MSTORE PUSH1 0x24 PUSH1 0x0 REVERT JUMPDEST SWAP1 PUSH1 0x0 MSTORE PUSH1 0x20 PUSH1 0x0 KECCAK256 ADD SLOAD SWAP1 POP DUP1 DUP8 PUSH1 0x0 ADD DUP5 DUP2 SLOAD DUP2 LT PUSH2 0xE58 JUMPI PUSH4 0x4E487B71 PUSH1 0xE0 SHL PUSH1 0x0 MSTORE PUSH1 0x32 PUSH1 0x4 MSTORE PUSH1 0x24 PUSH1 0x0 REVERT JUMPDEST PUSH1 0x0 SWAP2 DUP3 MSTORE PUSH1 0x20 DUP1 DUP4 KECCAK256 SWAP1 SWAP2 ADD SWAP3 SWAP1 SWAP3 SSTORE SWAP2 DUP3 MSTORE PUSH1 0x1 DUP9 ADD SWAP1 MSTORE PUSH1 0x40 SWAP1 KECCAK256 DUP4 SWAP1 SSTORE JUMPDEST DUP6 SLOAD DUP7 SWAP1 DUP1 PUSH2 0xE99 JUMPI PUSH4 0x4E487B71 PUSH1 0xE0 SHL PUSH1 0x0 MSTORE PUSH1 0x31 PUSH1 0x4 MSTORE PUSH1 0x24 PUSH1 0x0 REVERT JUMPDEST PUSH1 0x1 SWAP1 SUB DUP2 DUP2 SWAP1 PUSH1 0x0 MSTORE PUSH1 0x20 PUSH1 0x0 KECCAK256 ADD PUSH1 0x0 SWAP1 SSTORE SWAP1 SSTORE DUP6 PUSH1 0x1 ADD PUSH1 0x0 DUP7 DUP2 MSTORE PUSH1 0x20 ADD SWAP1 DUP2 MSTORE PUSH1 0x20 ADD PUSH1 0x0 KECCAK256 PUSH1 0x0 SWAP1 SSTORE PUSH1 0x1 SWAP4 POP POP POP POP PUSH2 0x540 JUMP JUMPDEST PUSH1 0x0 SWAP2 POP POP PUSH2 0x540 JUMP JUMPDEST POP DUP1 SLOAD PUSH1 0x0 DUP3 SSTORE SWAP1 PUSH1 0x0 MSTORE PUSH1 0x20 PUSH1 0x0 KECCAK256 SWAP1 DUP2 ADD SWAP1 PUSH2 0x515 SWAP2 SWAP1 JUMPDEST DUP1 DUP3 GT ISZERO PUSH2 0x611 JUMPI PUSH1 0x0 DUP2 SSTORE PUSH1 0x1 ADD PUSH2 0xEF8 JUMP JUMPDEST DUP1 CALLDATALOAD PUSH1 0x1 PUSH1 0x1 PUSH1 0xA0 SHL SUB DUP2 AND DUP2 EQ PUSH2 0xF23 JUMPI PUSH1 0x0 DUP1 REVERT JUMPDEST SWAP2 SWAP1 POP JUMP JUMPDEST PUSH1 0x0 PUSH1 0x20 DUP3 DUP5 SUB SLT ISZERO PUSH2 0xF39 JUMPI DUP1 DUP2 REVERT JUMPDEST PUSH2 0xB49 DUP3 PUSH2 0xF0C JUMP JUMPDEST PUSH1 0x0 DUP1 PUSH1 0x0 DUP1 PUSH1 0x0 PUSH1 0x80 DUP7 DUP9 SUB SLT ISZERO PUSH2 0xF59 JUMPI DUP1 DUP2 REVERT JUMPDEST PUSH2 0xF62 DUP7 PUSH2 0xF0C JUMP JUMPDEST SWAP5 POP PUSH2 0xF70 PUSH1 0x20 DUP8 ADD PUSH2 0xF0C JUMP JUMPDEST SWAP4 POP PUSH1 0x40 DUP7 ADD CALLDATALOAD SWAP3 POP PUSH1 0x60 DUP7 ADD CALLDATALOAD PUSH8 0xFFFFFFFFFFFFFFFF DUP1 DUP3 GT ISZERO PUSH2 0xF93 JUMPI DUP3 DUP4 REVERT JUMPDEST DUP2 DUP9 ADD SWAP2 POP DUP9 PUSH1 0x1F DUP4 ADD SLT PUSH2 0xFA6 JUMPI DUP3 DUP4 REVERT JUMPDEST DUP2 CALLDATALOAD DUP2 DUP2 GT ISZERO PUSH2 0xFB4 JUMPI DUP4 DUP5 REVERT JUMPDEST DUP10 PUSH1 0x20 DUP3 DUP6 ADD ADD GT ISZERO PUSH2 0xFC5 JUMPI DUP4 DUP5 REVERT JUMPDEST SWAP7 SWAP10 SWAP6 SWAP9 POP SWAP4 SWAP7 POP PUSH1 0x20 ADD SWAP5 SWAP4 SWAP3 POP POP POP JUMP JUMPDEST PUSH1 0x0 DUP1 PUSH1 0x40 DUP4 DUP6 SUB SLT ISZERO PUSH2 0xFEA JUMPI DUP2 DUP3 REVERT JUMPDEST PUSH2 0xFF3 DUP4 PUSH2 0xF0C JUMP JUMPDEST SWAP5 PUSH1 0x20 SWAP4 SWAP1 SWAP4 ADD CALLDATALOAD SWAP4 POP POP POP JUMP JUMPDEST PUSH1 0x0 PUSH1 0x20 DUP1 DUP4 DUP6 SUB SLT ISZERO PUSH2 0x1013 JUMPI DUP2 DUP3 REVERT JUMPDEST DUP3 CALLDATALOAD PUSH8 0xFFFFFFFFFFFFFFFF DUP1 DUP3 GT ISZERO PUSH2 0x102A JUMPI DUP4 DUP5 REVERT JUMPDEST DUP2 DUP6 ADD SWAP2 POP DUP6 PUSH1 0x1F DUP4 ADD SLT PUSH2 0x103D JUMPI DUP4 DUP5 REVERT JUMPDEST DUP2 CALLDATALOAD DUP2 DUP2 GT ISZERO PUSH2 0x104F JUMPI PUSH2 0x104F PUSH2 0x11F3 JUMP JUMPDEST DUP1 PUSH1 0x5 SHL PUSH1 0x40 MLOAD PUSH1 0x1F NOT PUSH1 0x3F DUP4 ADD AND DUP2 ADD DUP2 DUP2 LT DUP6 DUP3 GT OR ISZERO PUSH2 0x1074 JUMPI PUSH2 0x1074 PUSH2 0x11F3 JUMP JUMPDEST PUSH1 0x40 MSTORE DUP3 DUP2 MSTORE DUP6 DUP2 ADD SWAP4 POP DUP5 DUP7 ADD DUP3 DUP7 ADD DUP8 ADD DUP11 LT ISZERO PUSH2 0x1092 JUMPI DUP8 DUP9 REVERT JUMPDEST DUP8 SWAP6 POP JUMPDEST DUP4 DUP7 LT ISZERO PUSH2 0x10B4 JUMPI DUP1 CALLDATALOAD DUP6 MSTORE PUSH1 0x1 SWAP6 SWAP1 SWAP6 ADD SWAP5 SWAP4 DUP7 ADD SWAP4 DUP7 ADD PUSH2 0x1096 JUMP JUMPDEST POP SWAP9 SWAP8 POP POP POP POP POP POP POP POP JUMP JUMPDEST PUSH1 0x0 PUSH1 0x20 DUP3 DUP5 SUB SLT ISZERO PUSH2 0x10D2 JUMPI DUP1 DUP2 REVERT JUMPDEST DUP2 MLOAD DUP1 ISZERO ISZERO DUP2 EQ PUSH2 0xB49 JUMPI DUP2 DUP3 REVERT JUMPDEST PUSH1 0x0 PUSH1 0x20 DUP3 DUP5 SUB SLT ISZERO PUSH2 0x10F2 JUMPI DUP1 DUP2 REVERT JUMPDEST POP CALLDATALOAD SWAP2 SWAP1 POP JUMP JUMPDEST PUSH1 0x20 DUP1 DUP3 MSTORE DUP3 MLOAD DUP3 DUP3 ADD DUP2 SWAP1 MSTORE PUSH1 0x0 SWAP2 SWAP1 DUP5 DUP3 ADD SWAP1 PUSH1 0x40 DUP6 ADD SWAP1 DUP5 JUMPDEST DUP2 DUP2 LT ISZERO PUSH2 0x113A JUMPI DUP4 MLOAD PUSH1 0x1 PUSH1 0x1 PUSH1 0xA0 SHL SUB AND DUP4 MSTORE SWAP3 DUP5 ADD SWAP3 SWAP2 DUP5 ADD SWAP2 PUSH1 0x1 ADD PUSH2 0x1115 JUMP JUMPDEST POP SWAP1 SWAP7 SWAP6 POP POP POP POP POP POP JUMP JUMPDEST PUSH1 0x60 DUP1 DUP3 MSTORE DUP5 MLOAD SWAP1 DUP3 ADD DUP2 SWAP1 MSTORE PUSH1 0x0 SWAP1 PUSH1 0x20 SWAP1 PUSH1 0x80 DUP5 ADD SWAP1 DUP3 DUP9 ADD DUP5 JUMPDEST DUP3 DUP2 LT ISZERO PUSH2 0x117F JUMPI DUP2 MLOAD DUP5 MSTORE SWAP3 DUP5 ADD SWAP3 SWAP1 DUP5 ADD SWAP1 PUSH1 0x1 ADD PUSH2 0x1163 JUMP JUMPDEST POP POP POP SWAP1 DUP4 ADD SWAP5 SWAP1 SWAP5 MSTORE POP PUSH1 0x40 ADD MSTORE SWAP2 SWAP1 POP JUMP JUMPDEST PUSH1 0x0 DUP3 NOT DUP3 GT ISZERO PUSH2 0x11A6 JUMPI PUSH2 0x11A6 PUSH2 0x11DD JUMP JUMPDEST POP ADD SWAP1 JUMP JUMPDEST PUSH1 0x0 DUP3 DUP3 LT ISZERO PUSH2 0x11BD JUMPI PUSH2 0x11BD PUSH2 0x11DD JUMP JUMPDEST POP SUB SWAP1 JUMP JUMPDEST PUSH1 0x0 PUSH1 0x0 NOT DUP3 EQ ISZERO PUSH2 0x11D6 JUMPI PUSH2 0x11D6 PUSH2 0x11DD JUMP JUMPDEST POP PUSH1 0x1 ADD SWAP1 JUMP JUMPDEST PUSH4 0x4E487B71 PUSH1 0xE0 SHL PUSH1 0x0 MSTORE PUSH1 0x11 PUSH1 0x4 MSTORE PUSH1 0x24 PUSH1 0x0 REVERT JUMPDEST PUSH4 0x4E487B71 PUSH1 0xE0 SHL PUSH1 0x0 MSTORE PUSH1 0x41 PUSH1 0x4 MSTORE PUSH1 0x24 PUSH1 0x0 REVERT INVALID LOG2 PUSH5 0x6970667358 0x22 SLT KECCAK256 RETURNDATACOPY SHL 0x2F RETURNDATACOPY SWAP1 STOP 0x2C REVERT PUSH22 0x8010D58DC01DF0BF805872EB3037FB234417B4B0E40 SWAP11 PUSH5 0x736F6C6343 STOP ADDMOD DIV STOP CALLER "},"methodIdentifiers":{"claimRewards()":"372500ab","depositLiquidity(uint256)":"76d58e1a","getStakerInfo(address)":"733bdef0","getStakersList()":"6ab00a38","isStaked(address,uint256)":"5451da1b","maxNftsPerUser()":"a535a60e","onERC721Received(address,address,uint256,bytes)":"150b7a02","owner()":"8da5cb5b","pendingRewards()":"eded3fda","renounceOwnership()":"715018a6","stake(uint256[])":"0fbf0a93","transferOwnership(address)":"f2fde38b","userStakedNFTCount(address)":"cd0559eb","withdraw(uint256[])":"983d95ce"}}}}}