{"contracts/PlayEstatesAddressProvider.sol":{"PlayEstatesAddressProvider":{"abi":[{"inputs":[],"stateMutability":"nonpayable","type":"constructor"},{"inputs":[{"internalType":"address","name":"newAddress","type":"address"}],"name":"InkAddressProvider_InvalidAddress","type":"error"},{"anonymous":false,"inputs":[{"indexed":false,"internalType":"string","name":"contractName","type":"string"},{"indexed":true,"internalType":"address","name":"newAddress","type":"address"},{"indexed":false,"internalType":"uint256","name":"updateddate","type":"uint256"}],"name":"ContractAddressUpdated","type":"event"},{"anonymous":false,"inputs":[{"indexed":true,"internalType":"address","name":"previousOwner","type":"address"},{"indexed":true,"internalType":"address","name":"newOwner","type":"address"}],"name":"OwnershipTransferred","type":"event"},{"inputs":[{"internalType":"bytes32","name":"id","type":"bytes32"}],"name":"getAddress","outputs":[{"internalType":"address","name":"","type":"address"},{"internalType":"uint256","name":"","type":"uint256"}],"stateMutability":"view","type":"function"},{"inputs":[],"name":"getAllAddresses","outputs":[{"components":[{"internalType":"bytes32","name":"name","type":"bytes32"},{"internalType":"address","name":"addr","type":"address"}],"internalType":"struct LTypes.AddressInfo[]","name":"addresses","type":"tuple[]"}],"stateMutability":"view","type":"function"},{"inputs":[],"name":"getGameEngineContract","outputs":[{"internalType":"address","name":"","type":"address"},{"internalType":"uint256","name":"","type":"uint256"}],"stateMutability":"view","type":"function"},{"inputs":[],"name":"getNFTMarketplaceContract","outputs":[{"internalType":"address","name":"","type":"address"},{"internalType":"uint256","name":"","type":"uint256"}],"stateMutability":"view","type":"function"},{"inputs":[],"name":"getOWNKContract","outputs":[{"internalType":"address","name":"","type":"address"},{"internalType":"uint256","name":"","type":"uint256"}],"stateMutability":"view","type":"function"},{"inputs":[],"name":"getPBRTContract","outputs":[{"internalType":"address","name":"","type":"address"},{"internalType":"uint256","name":"","type":"uint256"}],"stateMutability":"view","type":"function"},{"inputs":[],"name":"getPEASContract","outputs":[{"internalType":"address","name":"","type":"address"},{"internalType":"uint256","name":"","type":"uint256"}],"stateMutability":"view","type":"function"},{"inputs":[],"name":"getPEFPContract","outputs":[{"internalType":"address","name":"","type":"address"},{"internalType":"uint256","name":"","type":"uint256"}],"stateMutability":"view","type":"function"},{"inputs":[],"name":"getPNFTSContract","outputs":[{"internalType":"address","name":"","type":"address"},{"internalType":"uint256","name":"","type":"uint256"}],"stateMutability":"view","type":"function"},{"inputs":[],"name":"getPNFTSSContract","outputs":[{"internalType":"address","name":"","type":"address"},{"internalType":"uint256","name":"","type":"uint256"}],"stateMutability":"view","type":"function"},{"inputs":[],"name":"getPNFTStakingContract","outputs":[{"internalType":"address","name":"","type":"address"},{"internalType":"uint256","name":"","type":"uint256"}],"stateMutability":"view","type":"function"},{"inputs":[],"name":"owner","outputs":[{"internalType":"address","name":"","type":"address"}],"stateMutability":"view","type":"function"},{"inputs":[],"name":"renounceOwnership","outputs":[],"stateMutability":"nonpayable","type":"function"},{"inputs":[{"internalType":"bytes32","name":"id","type":"bytes32"},{"internalType":"address","name":"newAddress","type":"address"}],"name":"setAddress","outputs":[],"stateMutability":"nonpayable","type":"function"},{"inputs":[{"internalType":"address","name":"newAddress","type":"address"}],"name":"setGameEngineContract","outputs":[],"stateMutability":"nonpayable","type":"function"},{"inputs":[{"internalType":"address","name":"newAddress","type":"address"}],"name":"setNFTMarketplaceContract","outputs":[],"stateMutability":"nonpayable","type":"function"},{"inputs":[{"internalType":"address","name":"newAddress","type":"address"}],"name":"setOWNKContract","outputs":[],"stateMutability":"nonpayable","type":"function"},{"inputs":[{"internalType":"address","name":"newAddress","type":"address"}],"name":"setPBRTContract","outputs":[],"stateMutability":"nonpayable","type":"function"},{"inputs":[{"internalType":"address","name":"newAddress","type":"address"}],"name":"setPEASContract","outputs":[],"stateMutability":"nonpayable","type":"function"},{"inputs":[{"internalType":"address","name":"newAddress","type":"address"}],"name":"setPEFPContract","outputs":[],"stateMutability":"nonpayable","type":"function"},{"inputs":[{"internalType":"address","name":"newAddress","type":"address"}],"name":"setPNFTSContract","outputs":[],"stateMutability":"nonpayable","type":"function"},{"inputs":[{"internalType":"address","name":"newAddress","type":"address"}],"name":"setPNFTSSContract","outputs":[],"stateMutability":"nonpayable","type":"function"},{"inputs":[{"internalType":"address","name":"newAddress","type":"address"}],"name":"setPNFTStakingContract","outputs":[],"stateMutability":"nonpayable","type":"function"},{"inputs":[{"internalType":"address","name":"newOwner","type":"address"}],"name":"transferOwnership","outputs":[],"stateMutability":"nonpayable","type":"function"}],"evm":{"bytecode":{"linkReferences":{},"object":"608060405234801561001057600080fd5b5061001a3361001f565b61006f565b600080546001600160a01b038381166001600160a01b0319831681178455604051919092169283917f8be0079c531659141344cd1fd0a4f28419497f9722a3daafe3b4186f6b6457e09190a35050565b6118a38061007e6000396000f3fe608060405234801561001057600080fd5b50600436106101585760003560e01c8063a3f8de52116100c3578063ce50ac031161007c578063ce50ac031461028b578063d37f72ed1461029e578063dcdb9502146102a6578063e01d98f4146102ae578063e78c626c146102c1578063f2fde38b146102d457600080fd5b8063a3f8de521461022f578063a565c18314610242578063afc5c58214610255578063b6a0728714610268578063c5184bd114610270578063ca446dd91461027857600080fd5b8063764473121161011557806376447312146101d45780637c551587146101e75780638da5cb5b146101ef5780639516a1041461020a578063957ee50a1461021f5780639d9441181461022757600080fd5b80630bbc98ba1461015d578063108858fc14610189578063172635a91461019157806319aadfe2146101a657806321f8a721146101b9578063715018a6146101cc575b600080fd5b6101656102e7565b604080516001600160a01b0390931683526020830191909152015b60405180910390f35b610165610309565b6101a461019f3660046115e9565b61031e565b005b6101a46101b43660046115e9565b6103f3565b6101656101c736600461160a565b6104d6565b6101a46104ff565b6101a46101e23660046115e9565b610513565b6101656105db565b6000546040516001600160a01b039091168152602001610180565b6102126105f5565b604051610180919061164d565b610165610d10565b610165610d23565b6101a461023d3660046115e9565b610d36565b6101a46102503660046115e9565b610e10565b6101a46102633660046115e9565b610ede565b610165610faf565b610165610fc2565b6101a4610286366004611622565b610fd8565b6101a46102993660046115e9565b611026565b6101656110ee565b610165611107565b6101a46102bc3660046115e9565b61111a565b6101a46102cf3660046115e9565b6111fd565b6101a46102e23660046115e9565b6112c5565b6000806103016a6d61726b6574706c61636560a81b6104d6565b915091509091565b60008061030165706e66745f7360d01b6104d6565b61032661133e565b80803b610356576040516307433a8f60e11b81526001600160a01b03821660048201526024015b60405180910390fd5b610367636f776e6b60e01b83610fd8565b636f776e6b60e01b600052600260209081527f56e5e2037f1e3906847567744196bfd7e5dc9620a7c9ac9d5379f41dbd1ef42754604080518181526010918101919091526f506c617945737461746573204f574e4b60801b6060820152918201526001600160a01b0383169060008051602061184e833981519152906080015b60405180910390a25050565b6103fb61133e565b80803b610426576040516307433a8f60e11b81526001600160a01b038216600482015260240161034d565b61043e6a6d61726b6574706c61636560a81b83610fd8565b6a6d61726b6574706c61636560a81b600052600260209081527f92ad0de5fd2ac5cfce09ce9ecf9f6d1125f01c01e7130250cf7f1cfb3bc1cace54604080518181526017918101919091527f506c617945737461746573204d61726b6574706c6163650000000000000000006060820152918201526001600160a01b0383169060008051602061184e833981519152906080016103e7565b6000908152600160209081526040808320546002909252909120546001600160a01b0390911691565b61050761133e565b6105116000611398565b565b61051b61133e565b80803b610546576040516307433a8f60e11b81526001600160a01b038216600482015260240161034d565b610557630706566760e41b83610fd8565b630706566760e41b600052600260209081527fbfff7271645c8a95e8f8448fc1537cc19bdd618ee002db010eaa9bb742418c5354604080518181526010918101919091526f0506c61794573746174657320504546560841b6060820152918201526001600160a01b0383169060008051602061184e833981519152906080016103e7565b6000806103016a706e66747374616b696e6760a81b6104d6565b6040805160098082526101408201909252606091816020015b604080518082019091526000808252602082015281526020019060019003908161060e5790505090506a6d61726b6574706c61636560a81b8160008151811061066757634e487b7160e01b600052603260045260246000fd5b602090810291909101810151919091526a6d61726b6574706c61636560a81b600090815260019091527f9429c7352e40655f80df9025953c93b92cc5702d72c043760bf43a55dff0c3025482516001600160a01b039091169183916106dc57634e487b7160e01b600052603260045260246000fd5b6020026020010151602001906001600160a01b031690816001600160a01b0316815250506a706e66747374616b696e6760a81b8160018151811061073057634e487b7160e01b600052603260045260246000fd5b602090810291909101810151919091526a706e66747374616b696e6760a81b6000526001908190527f0bb60403b97c1c6ffe2936af80e10fb5108694023c815f102ede182fb08855485482516001600160a01b0390911691839181106107a657634e487b7160e01b600052603260045260246000fd5b6020026020010151602001906001600160a01b031690816001600160a01b0316815250506967616d65656e67696e6560b01b816002815181106107f957634e487b7160e01b600052603260045260246000fd5b602090810291909101810151919091526967616d65656e67696e6560b01b600052600190527fc2458e693364049e295c38d14d7918409c8dad8a81211dd0e5cbad2be7e46d375481516001600160a01b03909116908290600290811061086f57634e487b7160e01b600052603260045260246000fd5b6020026020010151602001906001600160a01b031690816001600160a01b031681525050631c189c9d60e21b816003815181106108bc57634e487b7160e01b600052603260045260246000fd5b60209081029190910181015191909152631c189c9d60e21b600052600190527fff06067e544d2568bf6622d4a26f0783b04df362af9196f5021402c5a5507c125481516001600160a01b03909116908290600390811061092c57634e487b7160e01b600052603260045260246000fd5b6020026020010151602001906001600160a01b031690816001600160a01b031681525050637065617360e01b8160048151811061097957634e487b7160e01b600052603260045260246000fd5b60209081029190910181015191909152637065617360e01b600052600190527f448178b2a9d2ae1a347313f79d7d8b5bd5d4b6bceedcb1368a44a4046009a2bb5481516001600160a01b0390911690829060049081106109e957634e487b7160e01b600052603260045260246000fd5b6020026020010151602001906001600160a01b031690816001600160a01b031681525050630706566760e41b81600581518110610a3657634e487b7160e01b600052603260045260246000fd5b60209081029190910181015191909152630706566760e41b600052600190527f96c7ee79da273ec72f6afd72cea11564da51797f4f3c021daa25d70247ec66465481516001600160a01b039091169082906005908110610aa657634e487b7160e01b600052603260045260246000fd5b6020026020010151602001906001600160a01b031690816001600160a01b031681525050636f776e6b60e01b81600681518110610af357634e487b7160e01b600052603260045260246000fd5b60209081029190910181015191909152636f776e6b60e01b600052600190527f1a13b84895af018160e4e024594245d60b1089b8550719936f332e41244f62915481516001600160a01b039091169082906006908110610b6357634e487b7160e01b600052603260045260246000fd5b6020026020010151602001906001600160a01b031690816001600160a01b03168152505066706e66745f737360c81b81600781518110610bb357634e487b7160e01b600052603260045260246000fd5b6020908102919091018101519190915266706e66745f737360c81b600052600190527fe0f5bfab2f480769434926a9e2ed5fed4b2799d7e18d2abd3fc98bfb202cea525481516001600160a01b039091169082906007908110610c2657634e487b7160e01b600052603260045260246000fd5b6020026020010151602001906001600160a01b031690816001600160a01b0316815250506b61697264726f705f7065617360a01b81600881518110610c7b57634e487b7160e01b600052603260045260246000fd5b602090810291909101810151919091526b61697264726f705f7065617360a01b600052600190527fcb5e3f248e9bc356b0750f4f40f3ee8f67e2b01fa0bfa92fe9a5944caea875225481516001600160a01b039091169082906008908110610cf357634e487b7160e01b600052603260045260246000fd5b6020908102919091018101516001600160a01b0390921691015290565b600080610301637065617360e01b6104d6565b600080610301630706566760e41b6104d6565b610d3e61133e565b80803b610d69576040516307433a8f60e11b81526001600160a01b038216600482015260240161034d565b610d806967616d65656e67696e6560b01b83610fd8565b6967616d65656e67696e6560b01b600052600260209081527fe7a3569c39a6b2c5d10dd254f0dfc3d0655c00886a40c9f2bd23a9fc6c341c42546040805181815260169181019190915275506c6179457374617465732047616d65456e67696e6560501b6060820152918201526001600160a01b0383169060008051602061184e833981519152906080016103e7565b610e1861133e565b80803b610e43576040516307433a8f60e11b81526001600160a01b038216600482015260240161034d565b610e5665706e66745f7360d01b83610fd8565b65706e66745f7360d01b600052600260209081527fdeba0e10c703457cf2338c7b7982a7d708118dd763f0e91f1e26b6ce2e6f1e46546040805181815260129181019190915271506c61794573746174657320504e4654205360701b6060820152918201526001600160a01b0383169060008051602061184e833981519152906080016103e7565b610ee661133e565b80803b610f11576040516307433a8f60e11b81526001600160a01b038216600482015260240161034d565b610f2566706e66745f737360c81b83610fd8565b66706e66745f737360c81b600052600260209081527f60c031306a08960ffd5b1d21a401d6e772e1790ebf4f19b328b17c6c2a61489a546040805181815260139181019190915272506c61794573746174657320504e465420535360681b6060820152918201526001600160a01b0383169060008051602061184e833981519152906080016103e7565b600080610301636f776e6b60e01b6104d6565b60008061030166706e66745f737360c81b6104d6565b610fe061133e565b600082815260016020526040902080546001600160a01b0319166001600160a01b038316179055611010426113e8565b6000928352600260205260409092209190915550565b61102e61133e565b80803b611059576040516307433a8f60e11b81526001600160a01b038216600482015260240161034d565b61106a637065617360e01b83610fd8565b637065617360e01b600052600260209081527f2e113e50b3815d8096dfc13d3887afba53dcd6e9322dfc21e736c7e8a628f08054604080518181526010918101919091526f506c617945737461746573205045415360801b6060820152918201526001600160a01b0383169060008051602061184e833981519152906080016103e7565b6000806103016967616d65656e67696e6560b01b6104d6565b600080610301631c189c9d60e21b6104d6565b61112261133e565b80803b61114d576040516307433a8f60e11b81526001600160a01b038216600482015260240161034d565b6111656a706e66747374616b696e6760a81b83610fd8565b6a706e66747374616b696e6760a81b600052600260209081527f8227f7a4c558faec58b5a2925040b6f1bb2ac6a9696736087a9483cd8bcd04e754604080518181526017918101919091527f506c61794573746174657320506e66745374616b696e670000000000000000006060820152918201526001600160a01b0383169060008051602061184e833981519152906080016103e7565b61120561133e565b80803b611230576040516307433a8f60e11b81526001600160a01b038216600482015260240161034d565b611241631c189c9d60e21b83610fd8565b631c189c9d60e21b600052600260209081527fbd18b816d6d66f01ebea78a5c9c40456527a563f0661b46423424a69d0e838e954604080518181526010918101919091526f141b185e515cdd185d195cc81410949560821b6060820152918201526001600160a01b0383169060008051602061184e833981519152906080016103e7565b6112cd61133e565b6001600160a01b0381166113325760405162461bcd60e51b815260206004820152602660248201527f4f776e61626c653a206e6577206f776e657220697320746865207a65726f206160448201526564647265737360d01b606482015260840161034d565b61133b81611398565b50565b6000546001600160a01b031633146105115760405162461bcd60e51b815260206004820181905260248201527f4f776e61626c653a2063616c6c6572206973206e6f7420746865206f776e6572604482015260640161034d565b600080546001600160a01b038381166001600160a01b0319831681178455604051919092169283917f8be0079c531659141344cd1fd0a4f28419497f9722a3daafe3b4186f6b6457e09190a35050565b6000806000806113f785611433565b919450925090508061140a8360646117c3565b611416856127106117c3565b61142091906116e6565b61142a91906116e6565b95945050505050565b6000808061144c611447620151808661172c565b611459565b9196909550909350915050565b60008080838162253d8c6114708362010bd96116a5565b61147a91906116a5565b9050600062023ab161148d836004611740565b61149791906116fe565b905060046114a88262023ab1611740565b6114b39060036116a5565b6114bd91906116fe565b6114c790836117e2565b9150600062164b096114da8460016116a5565b6114e690610fa0611740565b6114f091906116fe565b90506004611500826105b5611740565b61150a91906116fe565b61151490846117e2565b61151f90601f6116a5565b9250600061098f611531856050611740565b61153b91906116fe565b90506000605061154d8361098f611740565b61155791906116fe565b61156190866117e2565b905061156e600b836116fe565b945061157b85600c611740565b6115868360026116a5565b61159091906117e2565b9150848361159f6031876117e2565b6115aa906064611740565b6115b491906116a5565b6115be91906116a5565b9a919950975095505050505050565b80356001600160a01b03811681146115e457600080fd5b919050565b6000602082840312156115fa578081fd5b611603826115cd565b9392505050565b60006020828403121561161b578081fd5b5035919050565b60008060408385031215611634578081fd5b82359150611644602084016115cd565b90509250929050565b602080825282518282018190526000919060409081850190868401855b82811015611698578151805185528601516001600160a01b031686850152928401929085019060010161166a565b5091979650505050505050565b600080821280156001600160ff1b03849003851316156116c7576116c7611821565b600160ff1b83900384128116156116e0576116e0611821565b50500190565b600082198211156116f9576116f9611821565b500190565b60008261170d5761170d611837565b600160ff1b82146000198414161561172757611727611821565b500590565b60008261173b5761173b611837565b500490565b60006001600160ff1b038184138284138082168684048611161561176657611766611821565b600160ff1b8487128281168783058912161561178457611784611821565b85871292508782058712848416161561179f5761179f611821565b878505871281841616156117b5576117b5611821565b505050929093029392505050565b60008160001904831182151516156117dd576117dd611821565b500290565b60008083128015600160ff1b85018412161561180057611800611821565b6001600160ff1b038401831381161561181b5761181b611821565b50500390565b634e487b7160e01b600052601160045260246000fd5b634e487b7160e01b600052601260045260246000fdfe7caf00010d672e49be66ab36cd6825cdbb7331686163ac730a8a3646d3455352a2646970667358221220d55e2952e344c73e87ec7305c6986558a78a99a97ec77c21ac6b8cc4d006382a64736f6c63430008040033","opcodes":"PUSH1 0x80 PUSH1 0x40 MSTORE CALLVALUE DUP1 ISZERO PUSH2 0x10 JUMPI PUSH1 0x0 DUP1 REVERT JUMPDEST POP PUSH2 0x1A CALLER PUSH2 0x1F JUMP JUMPDEST PUSH2 0x6F JUMP JUMPDEST PUSH1 0x0 DUP1 SLOAD PUSH1 0x1 PUSH1 0x1 PUSH1 0xA0 SHL SUB DUP4 DUP2 AND PUSH1 0x1 PUSH1 0x1 PUSH1 0xA0 SHL SUB NOT DUP4 AND DUP2 OR DUP5 SSTORE PUSH1 0x40 MLOAD SWAP2 SWAP1 SWAP3 AND SWAP3 DUP4 SWAP2 PUSH32 0x8BE0079C531659141344CD1FD0A4F28419497F9722A3DAAFE3B4186F6B6457E0 SWAP2 SWAP1 LOG3 POP POP JUMP JUMPDEST PUSH2 0x18A3 DUP1 PUSH2 0x7E PUSH1 0x0 CODECOPY PUSH1 0x0 RETURN INVALID PUSH1 0x80 PUSH1 0x40 MSTORE CALLVALUE DUP1 ISZERO PUSH2 0x10 JUMPI PUSH1 0x0 DUP1 REVERT JUMPDEST POP PUSH1 0x4 CALLDATASIZE LT PUSH2 0x158 JUMPI PUSH1 0x0 CALLDATALOAD PUSH1 0xE0 SHR DUP1 PUSH4 0xA3F8DE52 GT PUSH2 0xC3 JUMPI DUP1 PUSH4 0xCE50AC03 GT PUSH2 0x7C JUMPI DUP1 PUSH4 0xCE50AC03 EQ PUSH2 0x28B JUMPI DUP1 PUSH4 0xD37F72ED EQ PUSH2 0x29E JUMPI DUP1 PUSH4 0xDCDB9502 EQ PUSH2 0x2A6 JUMPI DUP1 PUSH4 0xE01D98F4 EQ PUSH2 0x2AE JUMPI DUP1 PUSH4 0xE78C626C EQ PUSH2 0x2C1 JUMPI DUP1 PUSH4 0xF2FDE38B EQ PUSH2 0x2D4 JUMPI PUSH1 0x0 DUP1 REVERT JUMPDEST DUP1 PUSH4 0xA3F8DE52 EQ PUSH2 0x22F JUMPI DUP1 PUSH4 0xA565C183 EQ PUSH2 0x242 JUMPI DUP1 PUSH4 0xAFC5C582 EQ PUSH2 0x255 JUMPI DUP1 PUSH4 0xB6A07287 EQ PUSH2 0x268 JUMPI DUP1 PUSH4 0xC5184BD1 EQ PUSH2 0x270 JUMPI DUP1 PUSH4 0xCA446DD9 EQ PUSH2 0x278 JUMPI PUSH1 0x0 DUP1 REVERT JUMPDEST DUP1 PUSH4 0x76447312 GT PUSH2 0x115 JUMPI DUP1 PUSH4 0x76447312 EQ PUSH2 0x1D4 JUMPI DUP1 PUSH4 0x7C551587 EQ PUSH2 0x1E7 JUMPI DUP1 PUSH4 0x8DA5CB5B EQ PUSH2 0x1EF JUMPI DUP1 PUSH4 0x9516A104 EQ PUSH2 0x20A JUMPI DUP1 PUSH4 0x957EE50A EQ PUSH2 0x21F JUMPI DUP1 PUSH4 0x9D944118 EQ PUSH2 0x227 JUMPI PUSH1 0x0 DUP1 REVERT JUMPDEST DUP1 PUSH4 0xBBC98BA EQ PUSH2 0x15D JUMPI DUP1 PUSH4 0x108858FC EQ PUSH2 0x189 JUMPI DUP1 PUSH4 0x172635A9 EQ PUSH2 0x191 JUMPI DUP1 PUSH4 0x19AADFE2 EQ PUSH2 0x1A6 JUMPI DUP1 PUSH4 0x21F8A721 EQ PUSH2 0x1B9 JUMPI DUP1 PUSH4 0x715018A6 EQ PUSH2 0x1CC JUMPI JUMPDEST PUSH1 0x0 DUP1 REVERT JUMPDEST PUSH2 0x165 PUSH2 0x2E7 JUMP JUMPDEST PUSH1 0x40 DUP1 MLOAD PUSH1 0x1 PUSH1 0x1 PUSH1 0xA0 SHL SUB SWAP1 SWAP4 AND DUP4 MSTORE PUSH1 0x20 DUP4 ADD SWAP2 SWAP1 SWAP2 MSTORE ADD JUMPDEST PUSH1 0x40 MLOAD DUP1 SWAP2 SUB SWAP1 RETURN JUMPDEST PUSH2 0x165 PUSH2 0x309 JUMP JUMPDEST PUSH2 0x1A4 PUSH2 0x19F CALLDATASIZE PUSH1 0x4 PUSH2 0x15E9 JUMP JUMPDEST PUSH2 0x31E JUMP JUMPDEST STOP JUMPDEST PUSH2 0x1A4 PUSH2 0x1B4 CALLDATASIZE PUSH1 0x4 PUSH2 0x15E9 JUMP JUMPDEST PUSH2 0x3F3 JUMP JUMPDEST PUSH2 0x165 PUSH2 0x1C7 CALLDATASIZE PUSH1 0x4 PUSH2 0x160A JUMP JUMPDEST PUSH2 0x4D6 JUMP JUMPDEST PUSH2 0x1A4 PUSH2 0x4FF JUMP JUMPDEST PUSH2 0x1A4 PUSH2 0x1E2 CALLDATASIZE PUSH1 0x4 PUSH2 0x15E9 JUMP JUMPDEST PUSH2 0x513 JUMP JUMPDEST PUSH2 0x165 PUSH2 0x5DB JUMP JUMPDEST PUSH1 0x0 SLOAD PUSH1 0x40 MLOAD PUSH1 0x1 PUSH1 0x1 PUSH1 0xA0 SHL SUB SWAP1 SWAP2 AND DUP2 MSTORE PUSH1 0x20 ADD PUSH2 0x180 JUMP JUMPDEST PUSH2 0x212 PUSH2 0x5F5 JUMP JUMPDEST PUSH1 0x40 MLOAD PUSH2 0x180 SWAP2 SWAP1 PUSH2 0x164D JUMP JUMPDEST PUSH2 0x165 PUSH2 0xD10 JUMP JUMPDEST PUSH2 0x165 PUSH2 0xD23 JUMP JUMPDEST PUSH2 0x1A4 PUSH2 0x23D CALLDATASIZE PUSH1 0x4 PUSH2 0x15E9 JUMP JUMPDEST PUSH2 0xD36 JUMP JUMPDEST PUSH2 0x1A4 PUSH2 0x250 CALLDATASIZE PUSH1 0x4 PUSH2 0x15E9 JUMP JUMPDEST PUSH2 0xE10 JUMP JUMPDEST PUSH2 0x1A4 PUSH2 0x263 CALLDATASIZE PUSH1 0x4 PUSH2 0x15E9 JUMP JUMPDEST PUSH2 0xEDE JUMP JUMPDEST PUSH2 0x165 PUSH2 0xFAF JUMP JUMPDEST PUSH2 0x165 PUSH2 0xFC2 JUMP JUMPDEST PUSH2 0x1A4 PUSH2 0x286 CALLDATASIZE PUSH1 0x4 PUSH2 0x1622 JUMP JUMPDEST PUSH2 0xFD8 JUMP JUMPDEST PUSH2 0x1A4 PUSH2 0x299 CALLDATASIZE PUSH1 0x4 PUSH2 0x15E9 JUMP JUMPDEST PUSH2 0x1026 JUMP JUMPDEST PUSH2 0x165 PUSH2 0x10EE JUMP JUMPDEST PUSH2 0x165 PUSH2 0x1107 JUMP JUMPDEST PUSH2 0x1A4 PUSH2 0x2BC CALLDATASIZE PUSH1 0x4 PUSH2 0x15E9 JUMP JUMPDEST PUSH2 0x111A JUMP JUMPDEST PUSH2 0x1A4 PUSH2 0x2CF CALLDATASIZE PUSH1 0x4 PUSH2 0x15E9 JUMP JUMPDEST PUSH2 0x11FD JUMP JUMPDEST PUSH2 0x1A4 PUSH2 0x2E2 CALLDATASIZE PUSH1 0x4 PUSH2 0x15E9 JUMP JUMPDEST PUSH2 0x12C5 JUMP JUMPDEST PUSH1 0x0 DUP1 PUSH2 0x301 PUSH11 0x6D61726B6574706C616365 PUSH1 0xA8 SHL PUSH2 0x4D6 JUMP JUMPDEST SWAP2 POP SWAP2 POP SWAP1 SWAP2 JUMP JUMPDEST PUSH1 0x0 DUP1 PUSH2 0x301 PUSH6 0x706E66745F73 PUSH1 0xD0 SHL PUSH2 0x4D6 JUMP JUMPDEST PUSH2 0x326 PUSH2 0x133E JUMP JUMPDEST DUP1 DUP1 EXTCODESIZE PUSH2 0x356 JUMPI PUSH1 0x40 MLOAD PUSH4 0x7433A8F PUSH1 0xE1 SHL DUP2 MSTORE PUSH1 0x1 PUSH1 0x1 PUSH1 0xA0 SHL SUB DUP3 AND PUSH1 0x4 DUP3 ADD MSTORE PUSH1 0x24 ADD JUMPDEST PUSH1 0x40 MLOAD DUP1 SWAP2 SUB SWAP1 REVERT JUMPDEST PUSH2 0x367 PUSH4 0x6F776E6B PUSH1 0xE0 SHL DUP4 PUSH2 0xFD8 JUMP JUMPDEST PUSH4 0x6F776E6B PUSH1 0xE0 SHL PUSH1 0x0 MSTORE PUSH1 0x2 PUSH1 0x20 SWAP1 DUP2 MSTORE PUSH32 0x56E5E2037F1E3906847567744196BFD7E5DC9620A7C9AC9D5379F41DBD1EF427 SLOAD PUSH1 0x40 DUP1 MLOAD DUP2 DUP2 MSTORE PUSH1 0x10 SWAP2 DUP2 ADD SWAP2 SWAP1 SWAP2 MSTORE PUSH16 0x506C617945737461746573204F574E4B PUSH1 0x80 SHL PUSH1 0x60 DUP3 ADD MSTORE SWAP2 DUP3 ADD MSTORE PUSH1 0x1 PUSH1 0x1 PUSH1 0xA0 SHL SUB DUP4 AND SWAP1 PUSH1 0x0 DUP1 MLOAD PUSH1 0x20 PUSH2 0x184E DUP4 CODECOPY DUP2 MLOAD SWAP2 MSTORE SWAP1 PUSH1 0x80 ADD JUMPDEST PUSH1 0x40 MLOAD DUP1 SWAP2 SUB SWAP1 LOG2 POP POP JUMP JUMPDEST PUSH2 0x3FB PUSH2 0x133E JUMP JUMPDEST DUP1 DUP1 EXTCODESIZE PUSH2 0x426 JUMPI PUSH1 0x40 MLOAD PUSH4 0x7433A8F PUSH1 0xE1 SHL DUP2 MSTORE PUSH1 0x1 PUSH1 0x1 PUSH1 0xA0 SHL SUB DUP3 AND PUSH1 0x4 DUP3 ADD MSTORE PUSH1 0x24 ADD PUSH2 0x34D JUMP JUMPDEST PUSH2 0x43E PUSH11 0x6D61726B6574706C616365 PUSH1 0xA8 SHL DUP4 PUSH2 0xFD8 JUMP JUMPDEST PUSH11 0x6D61726B6574706C616365 PUSH1 0xA8 SHL PUSH1 0x0 MSTORE PUSH1 0x2 PUSH1 0x20 SWAP1 DUP2 MSTORE PUSH32 0x92AD0DE5FD2AC5CFCE09CE9ECF9F6D1125F01C01E7130250CF7F1CFB3BC1CACE SLOAD PUSH1 0x40 DUP1 MLOAD DUP2 DUP2 MSTORE PUSH1 0x17 SWAP2 DUP2 ADD SWAP2 SWAP1 SWAP2 MSTORE PUSH32 0x506C617945737461746573204D61726B6574706C616365000000000000000000 PUSH1 0x60 DUP3 ADD MSTORE SWAP2 DUP3 ADD MSTORE PUSH1 0x1 PUSH1 0x1 PUSH1 0xA0 SHL SUB DUP4 AND SWAP1 PUSH1 0x0 DUP1 MLOAD PUSH1 0x20 PUSH2 0x184E DUP4 CODECOPY DUP2 MLOAD SWAP2 MSTORE SWAP1 PUSH1 0x80 ADD PUSH2 0x3E7 JUMP JUMPDEST PUSH1 0x0 SWAP1 DUP2 MSTORE PUSH1 0x1 PUSH1 0x20 SWAP1 DUP2 MSTORE PUSH1 0x40 DUP1 DUP4 KECCAK256 SLOAD PUSH1 0x2 SWAP1 SWAP3 MSTORE SWAP1 SWAP2 KECCAK256 SLOAD PUSH1 0x1 PUSH1 0x1 PUSH1 0xA0 SHL SUB SWAP1 SWAP2 AND SWAP2 JUMP JUMPDEST PUSH2 0x507 PUSH2 0x133E JUMP JUMPDEST PUSH2 0x511 PUSH1 0x0 PUSH2 0x1398 JUMP JUMPDEST JUMP JUMPDEST PUSH2 0x51B PUSH2 0x133E JUMP JUMPDEST DUP1 DUP1 EXTCODESIZE PUSH2 0x546 JUMPI PUSH1 0x40 MLOAD PUSH4 0x7433A8F PUSH1 0xE1 SHL DUP2 MSTORE PUSH1 0x1 PUSH1 0x1 PUSH1 0xA0 SHL SUB DUP3 AND PUSH1 0x4 DUP3 ADD MSTORE PUSH1 0x24 ADD PUSH2 0x34D JUMP JUMPDEST PUSH2 0x557 PUSH4 0x7065667 PUSH1 0xE4 SHL DUP4 PUSH2 0xFD8 JUMP JUMPDEST PUSH4 0x7065667 PUSH1 0xE4 SHL PUSH1 0x0 MSTORE PUSH1 0x2 PUSH1 0x20 SWAP1 DUP2 MSTORE PUSH32 0xBFFF7271645C8A95E8F8448FC1537CC19BDD618EE002DB010EAA9BB742418C53 SLOAD PUSH1 0x40 DUP1 MLOAD DUP2 DUP2 MSTORE PUSH1 0x10 SWAP2 DUP2 ADD SWAP2 SWAP1 SWAP2 MSTORE PUSH16 0x506C617945737461746573205045465 PUSH1 0x84 SHL PUSH1 0x60 DUP3 ADD MSTORE SWAP2 DUP3 ADD MSTORE PUSH1 0x1 PUSH1 0x1 PUSH1 0xA0 SHL SUB DUP4 AND SWAP1 PUSH1 0x0 DUP1 MLOAD PUSH1 0x20 PUSH2 0x184E DUP4 CODECOPY DUP2 MLOAD SWAP2 MSTORE SWAP1 PUSH1 0x80 ADD PUSH2 0x3E7 JUMP JUMPDEST PUSH1 0x0 DUP1 PUSH2 0x301 PUSH11 0x706E66747374616B696E67 PUSH1 0xA8 SHL PUSH2 0x4D6 JUMP JUMPDEST PUSH1 0x40 DUP1 MLOAD PUSH1 0x9 DUP1 DUP3 MSTORE PUSH2 0x140 DUP3 ADD SWAP1 SWAP3 MSTORE PUSH1 0x60 SWAP2 DUP2 PUSH1 0x20 ADD JUMPDEST PUSH1 0x40 DUP1 MLOAD DUP1 DUP3 ADD SWAP1 SWAP2 MSTORE PUSH1 0x0 DUP1 DUP3 MSTORE PUSH1 0x20 DUP3 ADD MSTORE DUP2 MSTORE PUSH1 0x20 ADD SWAP1 PUSH1 0x1 SWAP1 SUB SWAP1 DUP2 PUSH2 0x60E JUMPI SWAP1 POP POP SWAP1 POP PUSH11 0x6D61726B6574706C616365 PUSH1 0xA8 SHL DUP2 PUSH1 0x0 DUP2 MLOAD DUP2 LT PUSH2 0x667 JUMPI PUSH4 0x4E487B71 PUSH1 0xE0 SHL PUSH1 0x0 MSTORE PUSH1 0x32 PUSH1 0x4 MSTORE PUSH1 0x24 PUSH1 0x0 REVERT JUMPDEST PUSH1 0x20 SWAP1 DUP2 MUL SWAP2 SWAP1 SWAP2 ADD DUP2 ADD MLOAD SWAP2 SWAP1 SWAP2 MSTORE PUSH11 0x6D61726B6574706C616365 PUSH1 0xA8 SHL PUSH1 0x0 SWAP1 DUP2 MSTORE PUSH1 0x1 SWAP1 SWAP2 MSTORE PUSH32 0x9429C7352E40655F80DF9025953C93B92CC5702D72C043760BF43A55DFF0C302 SLOAD DUP3 MLOAD PUSH1 0x1 PUSH1 0x1 PUSH1 0xA0 SHL SUB SWAP1 SWAP2 AND SWAP2 DUP4 SWAP2 PUSH2 0x6DC JUMPI PUSH4 0x4E487B71 PUSH1 0xE0 SHL PUSH1 0x0 MSTORE PUSH1 0x32 PUSH1 0x4 MSTORE PUSH1 0x24 PUSH1 0x0 REVERT JUMPDEST PUSH1 0x20 MUL PUSH1 0x20 ADD ADD MLOAD PUSH1 0x20 ADD SWAP1 PUSH1 0x1 PUSH1 0x1 PUSH1 0xA0 SHL SUB AND SWAP1 DUP2 PUSH1 0x1 PUSH1 0x1 PUSH1 0xA0 SHL SUB AND DUP2 MSTORE POP POP PUSH11 0x706E66747374616B696E67 PUSH1 0xA8 SHL DUP2 PUSH1 0x1 DUP2 MLOAD DUP2 LT PUSH2 0x730 JUMPI PUSH4 0x4E487B71 PUSH1 0xE0 SHL PUSH1 0x0 MSTORE PUSH1 0x32 PUSH1 0x4 MSTORE PUSH1 0x24 PUSH1 0x0 REVERT JUMPDEST PUSH1 0x20 SWAP1 DUP2 MUL SWAP2 SWAP1 SWAP2 ADD DUP2 ADD MLOAD SWAP2 SWAP1 SWAP2 MSTORE PUSH11 0x706E66747374616B696E67 PUSH1 0xA8 SHL PUSH1 0x0 MSTORE PUSH1 0x1 SWAP1 DUP2 SWAP1 MSTORE PUSH32 0xBB60403B97C1C6FFE2936AF80E10FB5108694023C815F102EDE182FB0885548 SLOAD DUP3 MLOAD PUSH1 0x1 PUSH1 0x1 PUSH1 0xA0 SHL SUB SWAP1 SWAP2 AND SWAP2 DUP4 SWAP2 DUP2 LT PUSH2 0x7A6 JUMPI PUSH4 0x4E487B71 PUSH1 0xE0 SHL PUSH1 0x0 MSTORE PUSH1 0x32 PUSH1 0x4 MSTORE PUSH1 0x24 PUSH1 0x0 REVERT JUMPDEST PUSH1 0x20 MUL PUSH1 0x20 ADD ADD MLOAD PUSH1 0x20 ADD SWAP1 PUSH1 0x1 PUSH1 0x1 PUSH1 0xA0 SHL SUB AND SWAP1 DUP2 PUSH1 0x1 PUSH1 0x1 PUSH1 0xA0 SHL SUB AND DUP2 MSTORE POP POP PUSH10 0x67616D65656E67696E65 PUSH1 0xB0 SHL DUP2 PUSH1 0x2 DUP2 MLOAD DUP2 LT PUSH2 0x7F9 JUMPI PUSH4 0x4E487B71 PUSH1 0xE0 SHL PUSH1 0x0 MSTORE PUSH1 0x32 PUSH1 0x4 MSTORE PUSH1 0x24 PUSH1 0x0 REVERT JUMPDEST PUSH1 0x20 SWAP1 DUP2 MUL SWAP2 SWAP1 SWAP2 ADD DUP2 ADD MLOAD SWAP2 SWAP1 SWAP2 MSTORE PUSH10 0x67616D65656E67696E65 PUSH1 0xB0 SHL PUSH1 0x0 MSTORE PUSH1 0x1 SWAP1 MSTORE PUSH32 0xC2458E693364049E295C38D14D7918409C8DAD8A81211DD0E5CBAD2BE7E46D37 SLOAD DUP2 MLOAD PUSH1 0x1 PUSH1 0x1 PUSH1 0xA0 SHL SUB SWAP1 SWAP2 AND SWAP1 DUP3 SWAP1 PUSH1 0x2 SWAP1 DUP2 LT PUSH2 0x86F JUMPI PUSH4 0x4E487B71 PUSH1 0xE0 SHL PUSH1 0x0 MSTORE PUSH1 0x32 PUSH1 0x4 MSTORE PUSH1 0x24 PUSH1 0x0 REVERT JUMPDEST PUSH1 0x20 MUL PUSH1 0x20 ADD ADD MLOAD PUSH1 0x20 ADD SWAP1 PUSH1 0x1 PUSH1 0x1 PUSH1 0xA0 SHL SUB AND SWAP1 DUP2 PUSH1 0x1 PUSH1 0x1 PUSH1 0xA0 SHL SUB AND DUP2 MSTORE POP POP PUSH4 0x1C189C9D PUSH1 0xE2 SHL DUP2 PUSH1 0x3 DUP2 MLOAD DUP2 LT PUSH2 0x8BC JUMPI PUSH4 0x4E487B71 PUSH1 0xE0 SHL PUSH1 0x0 MSTORE PUSH1 0x32 PUSH1 0x4 MSTORE PUSH1 0x24 PUSH1 0x0 REVERT JUMPDEST PUSH1 0x20 SWAP1 DUP2 MUL SWAP2 SWAP1 SWAP2 ADD DUP2 ADD MLOAD SWAP2 SWAP1 SWAP2 MSTORE PUSH4 0x1C189C9D PUSH1 0xE2 SHL PUSH1 0x0 MSTORE PUSH1 0x1 SWAP1 MSTORE PUSH32 0xFF06067E544D2568BF6622D4A26F0783B04DF362AF9196F5021402C5A5507C12 SLOAD DUP2 MLOAD PUSH1 0x1 PUSH1 0x1 PUSH1 0xA0 SHL SUB SWAP1 SWAP2 AND SWAP1 DUP3 SWAP1 PUSH1 0x3 SWAP1 DUP2 LT PUSH2 0x92C JUMPI PUSH4 0x4E487B71 PUSH1 0xE0 SHL PUSH1 0x0 MSTORE PUSH1 0x32 PUSH1 0x4 MSTORE PUSH1 0x24 PUSH1 0x0 REVERT JUMPDEST PUSH1 0x20 MUL PUSH1 0x20 ADD ADD MLOAD PUSH1 0x20 ADD SWAP1 PUSH1 0x1 PUSH1 0x1 PUSH1 0xA0 SHL SUB AND SWAP1 DUP2 PUSH1 0x1 PUSH1 0x1 PUSH1 0xA0 SHL SUB AND DUP2 MSTORE POP POP PUSH4 0x70656173 PUSH1 0xE0 SHL DUP2 PUSH1 0x4 DUP2 MLOAD DUP2 LT PUSH2 0x979 JUMPI PUSH4 0x4E487B71 PUSH1 0xE0 SHL PUSH1 0x0 MSTORE PUSH1 0x32 PUSH1 0x4 MSTORE PUSH1 0x24 PUSH1 0x0 REVERT JUMPDEST PUSH1 0x20 SWAP1 DUP2 MUL SWAP2 SWAP1 SWAP2 ADD DUP2 ADD MLOAD SWAP2 SWAP1 SWAP2 MSTORE PUSH4 0x70656173 PUSH1 0xE0 SHL PUSH1 0x0 MSTORE PUSH1 0x1 SWAP1 MSTORE PUSH32 0x448178B2A9D2AE1A347313F79D7D8B5BD5D4B6BCEEDCB1368A44A4046009A2BB SLOAD DUP2 MLOAD PUSH1 0x1 PUSH1 0x1 PUSH1 0xA0 SHL SUB SWAP1 SWAP2 AND SWAP1 DUP3 SWAP1 PUSH1 0x4 SWAP1 DUP2 LT PUSH2 0x9E9 JUMPI PUSH4 0x4E487B71 PUSH1 0xE0 SHL PUSH1 0x0 MSTORE PUSH1 0x32 PUSH1 0x4 MSTORE PUSH1 0x24 PUSH1 0x0 REVERT JUMPDEST PUSH1 0x20 MUL PUSH1 0x20 ADD ADD MLOAD PUSH1 0x20 ADD SWAP1 PUSH1 0x1 PUSH1 0x1 PUSH1 0xA0 SHL SUB AND SWAP1 DUP2 PUSH1 0x1 PUSH1 0x1 PUSH1 0xA0 SHL SUB AND DUP2 MSTORE POP POP PUSH4 0x7065667 PUSH1 0xE4 SHL DUP2 PUSH1 0x5 DUP2 MLOAD DUP2 LT PUSH2 0xA36 JUMPI PUSH4 0x4E487B71 PUSH1 0xE0 SHL PUSH1 0x0 MSTORE PUSH1 0x32 PUSH1 0x4 MSTORE PUSH1 0x24 PUSH1 0x0 REVERT JUMPDEST PUSH1 0x20 SWAP1 DUP2 MUL SWAP2 SWAP1 SWAP2 ADD DUP2 ADD MLOAD SWAP2 SWAP1 SWAP2 MSTORE PUSH4 0x7065667 PUSH1 0xE4 SHL PUSH1 0x0 MSTORE PUSH1 0x1 SWAP1 MSTORE PUSH32 0x96C7EE79DA273EC72F6AFD72CEA11564DA51797F4F3C021DAA25D70247EC6646 SLOAD DUP2 MLOAD PUSH1 0x1 PUSH1 0x1 PUSH1 0xA0 SHL SUB SWAP1 SWAP2 AND SWAP1 DUP3 SWAP1 PUSH1 0x5 SWAP1 DUP2 LT PUSH2 0xAA6 JUMPI PUSH4 0x4E487B71 PUSH1 0xE0 SHL PUSH1 0x0 MSTORE PUSH1 0x32 PUSH1 0x4 MSTORE PUSH1 0x24 PUSH1 0x0 REVERT JUMPDEST PUSH1 0x20 MUL PUSH1 0x20 ADD ADD MLOAD PUSH1 0x20 ADD SWAP1 PUSH1 0x1 PUSH1 0x1 PUSH1 0xA0 SHL SUB AND SWAP1 DUP2 PUSH1 0x1 PUSH1 0x1 PUSH1 0xA0 SHL SUB AND DUP2 MSTORE POP POP PUSH4 0x6F776E6B PUSH1 0xE0 SHL DUP2 PUSH1 0x6 DUP2 MLOAD DUP2 LT PUSH2 0xAF3 JUMPI PUSH4 0x4E487B71 PUSH1 0xE0 SHL PUSH1 0x0 MSTORE PUSH1 0x32 PUSH1 0x4 MSTORE PUSH1 0x24 PUSH1 0x0 REVERT JUMPDEST PUSH1 0x20 SWAP1 DUP2 MUL SWAP2 SWAP1 SWAP2 ADD DUP2 ADD MLOAD SWAP2 SWAP1 SWAP2 MSTORE PUSH4 0x6F776E6B PUSH1 0xE0 SHL PUSH1 0x0 MSTORE PUSH1 0x1 SWAP1 MSTORE PUSH32 0x1A13B84895AF018160E4E024594245D60B1089B8550719936F332E41244F6291 SLOAD DUP2 MLOAD PUSH1 0x1 PUSH1 0x1 PUSH1 0xA0 SHL SUB SWAP1 SWAP2 AND SWAP1 DUP3 SWAP1 PUSH1 0x6 SWAP1 DUP2 LT PUSH2 0xB63 JUMPI PUSH4 0x4E487B71 PUSH1 0xE0 SHL PUSH1 0x0 MSTORE PUSH1 0x32 PUSH1 0x4 MSTORE PUSH1 0x24 PUSH1 0x0 REVERT JUMPDEST PUSH1 0x20 MUL PUSH1 0x20 ADD ADD MLOAD PUSH1 0x20 ADD SWAP1 PUSH1 0x1 PUSH1 0x1 PUSH1 0xA0 SHL SUB AND SWAP1 DUP2 PUSH1 0x1 PUSH1 0x1 PUSH1 0xA0 SHL SUB AND DUP2 MSTORE POP POP PUSH7 0x706E66745F7373 PUSH1 0xC8 SHL DUP2 PUSH1 0x7 DUP2 MLOAD DUP2 LT PUSH2 0xBB3 JUMPI PUSH4 0x4E487B71 PUSH1 0xE0 SHL PUSH1 0x0 MSTORE PUSH1 0x32 PUSH1 0x4 MSTORE PUSH1 0x24 PUSH1 0x0 REVERT JUMPDEST PUSH1 0x20 SWAP1 DUP2 MUL SWAP2 SWAP1 SWAP2 ADD DUP2 ADD MLOAD SWAP2 SWAP1 SWAP2 MSTORE PUSH7 0x706E66745F7373 PUSH1 0xC8 SHL PUSH1 0x0 MSTORE PUSH1 0x1 SWAP1 MSTORE PUSH32 0xE0F5BFAB2F480769434926A9E2ED5FED4B2799D7E18D2ABD3FC98BFB202CEA52 SLOAD DUP2 MLOAD PUSH1 0x1 PUSH1 0x1 PUSH1 0xA0 SHL SUB SWAP1 SWAP2 AND SWAP1 DUP3 SWAP1 PUSH1 0x7 SWAP1 DUP2 LT PUSH2 0xC26 JUMPI PUSH4 0x4E487B71 PUSH1 0xE0 SHL PUSH1 0x0 MSTORE PUSH1 0x32 PUSH1 0x4 MSTORE PUSH1 0x24 PUSH1 0x0 REVERT JUMPDEST PUSH1 0x20 MUL PUSH1 0x20 ADD ADD MLOAD PUSH1 0x20 ADD SWAP1 PUSH1 0x1 PUSH1 0x1 PUSH1 0xA0 SHL SUB AND SWAP1 DUP2 PUSH1 0x1 PUSH1 0x1 PUSH1 0xA0 SHL SUB AND DUP2 MSTORE POP POP PUSH12 0x61697264726F705F70656173 PUSH1 0xA0 SHL DUP2 PUSH1 0x8 DUP2 MLOAD DUP2 LT PUSH2 0xC7B JUMPI PUSH4 0x4E487B71 PUSH1 0xE0 SHL PUSH1 0x0 MSTORE PUSH1 0x32 PUSH1 0x4 MSTORE PUSH1 0x24 PUSH1 0x0 REVERT JUMPDEST PUSH1 0x20 SWAP1 DUP2 MUL SWAP2 SWAP1 SWAP2 ADD DUP2 ADD MLOAD SWAP2 SWAP1 SWAP2 MSTORE PUSH12 0x61697264726F705F70656173 PUSH1 0xA0 SHL PUSH1 0x0 MSTORE PUSH1 0x1 SWAP1 MSTORE PUSH32 0xCB5E3F248E9BC356B0750F4F40F3EE8F67E2B01FA0BFA92FE9A5944CAEA87522 SLOAD DUP2 MLOAD PUSH1 0x1 PUSH1 0x1 PUSH1 0xA0 SHL SUB SWAP1 SWAP2 AND SWAP1 DUP3 SWAP1 PUSH1 0x8 SWAP1 DUP2 LT PUSH2 0xCF3 JUMPI PUSH4 0x4E487B71 PUSH1 0xE0 SHL PUSH1 0x0 MSTORE PUSH1 0x32 PUSH1 0x4 MSTORE PUSH1 0x24 PUSH1 0x0 REVERT JUMPDEST PUSH1 0x20 SWAP1 DUP2 MUL SWAP2 SWAP1 SWAP2 ADD DUP2 ADD MLOAD PUSH1 0x1 PUSH1 0x1 PUSH1 0xA0 SHL SUB SWAP1 SWAP3 AND SWAP2 ADD MSTORE SWAP1 JUMP JUMPDEST PUSH1 0x0 DUP1 PUSH2 0x301 PUSH4 0x70656173 PUSH1 0xE0 SHL PUSH2 0x4D6 JUMP JUMPDEST PUSH1 0x0 DUP1 PUSH2 0x301 PUSH4 0x7065667 PUSH1 0xE4 SHL PUSH2 0x4D6 JUMP JUMPDEST PUSH2 0xD3E PUSH2 0x133E JUMP JUMPDEST DUP1 DUP1 EXTCODESIZE PUSH2 0xD69 JUMPI PUSH1 0x40 MLOAD PUSH4 0x7433A8F PUSH1 0xE1 SHL DUP2 MSTORE PUSH1 0x1 PUSH1 0x1 PUSH1 0xA0 SHL SUB DUP3 AND PUSH1 0x4 DUP3 ADD MSTORE PUSH1 0x24 ADD PUSH2 0x34D JUMP JUMPDEST PUSH2 0xD80 PUSH10 0x67616D65656E67696E65 PUSH1 0xB0 SHL DUP4 PUSH2 0xFD8 JUMP JUMPDEST PUSH10 0x67616D65656E67696E65 PUSH1 0xB0 SHL PUSH1 0x0 MSTORE PUSH1 0x2 PUSH1 0x20 SWAP1 DUP2 MSTORE PUSH32 0xE7A3569C39A6B2C5D10DD254F0DFC3D0655C00886A40C9F2BD23A9FC6C341C42 SLOAD PUSH1 0x40 DUP1 MLOAD DUP2 DUP2 MSTORE PUSH1 0x16 SWAP2 DUP2 ADD SWAP2 SWAP1 SWAP2 MSTORE PUSH22 0x506C6179457374617465732047616D65456E67696E65 PUSH1 0x50 SHL PUSH1 0x60 DUP3 ADD MSTORE SWAP2 DUP3 ADD MSTORE PUSH1 0x1 PUSH1 0x1 PUSH1 0xA0 SHL SUB DUP4 AND SWAP1 PUSH1 0x0 DUP1 MLOAD PUSH1 0x20 PUSH2 0x184E DUP4 CODECOPY DUP2 MLOAD SWAP2 MSTORE SWAP1 PUSH1 0x80 ADD PUSH2 0x3E7 JUMP JUMPDEST PUSH2 0xE18 PUSH2 0x133E JUMP JUMPDEST DUP1 DUP1 EXTCODESIZE PUSH2 0xE43 JUMPI PUSH1 0x40 MLOAD PUSH4 0x7433A8F PUSH1 0xE1 SHL DUP2 MSTORE PUSH1 0x1 PUSH1 0x1 PUSH1 0xA0 SHL SUB DUP3 AND PUSH1 0x4 DUP3 ADD MSTORE PUSH1 0x24 ADD PUSH2 0x34D JUMP JUMPDEST PUSH2 0xE56 PUSH6 0x706E66745F73 PUSH1 0xD0 SHL DUP4 PUSH2 0xFD8 JUMP JUMPDEST PUSH6 0x706E66745F73 PUSH1 0xD0 SHL PUSH1 0x0 MSTORE PUSH1 0x2 PUSH1 0x20 SWAP1 DUP2 MSTORE PUSH32 0xDEBA0E10C703457CF2338C7B7982A7D708118DD763F0E91F1E26B6CE2E6F1E46 SLOAD PUSH1 0x40 DUP1 MLOAD DUP2 DUP2 MSTORE PUSH1 0x12 SWAP2 DUP2 ADD SWAP2 SWAP1 SWAP2 MSTORE PUSH18 0x506C61794573746174657320504E46542053 PUSH1 0x70 SHL PUSH1 0x60 DUP3 ADD MSTORE SWAP2 DUP3 ADD MSTORE PUSH1 0x1 PUSH1 0x1 PUSH1 0xA0 SHL SUB DUP4 AND SWAP1 PUSH1 0x0 DUP1 MLOAD PUSH1 0x20 PUSH2 0x184E DUP4 CODECOPY DUP2 MLOAD SWAP2 MSTORE SWAP1 PUSH1 0x80 ADD PUSH2 0x3E7 JUMP JUMPDEST PUSH2 0xEE6 PUSH2 0x133E JUMP JUMPDEST DUP1 DUP1 EXTCODESIZE PUSH2 0xF11 JUMPI PUSH1 0x40 MLOAD PUSH4 0x7433A8F PUSH1 0xE1 SHL DUP2 MSTORE PUSH1 0x1 PUSH1 0x1 PUSH1 0xA0 SHL SUB DUP3 AND PUSH1 0x4 DUP3 ADD MSTORE PUSH1 0x24 ADD PUSH2 0x34D JUMP JUMPDEST PUSH2 0xF25 PUSH7 0x706E66745F7373 PUSH1 0xC8 SHL DUP4 PUSH2 0xFD8 JUMP JUMPDEST PUSH7 0x706E66745F7373 PUSH1 0xC8 SHL PUSH1 0x0 MSTORE PUSH1 0x2 PUSH1 0x20 SWAP1 DUP2 MSTORE PUSH32 0x60C031306A08960FFD5B1D21A401D6E772E1790EBF4F19B328B17C6C2A61489A SLOAD PUSH1 0x40 DUP1 MLOAD DUP2 DUP2 MSTORE PUSH1 0x13 SWAP2 DUP2 ADD SWAP2 SWAP1 SWAP2 MSTORE PUSH19 0x506C61794573746174657320504E4654205353 PUSH1 0x68 SHL PUSH1 0x60 DUP3 ADD MSTORE SWAP2 DUP3 ADD MSTORE PUSH1 0x1 PUSH1 0x1 PUSH1 0xA0 SHL SUB DUP4 AND SWAP1 PUSH1 0x0 DUP1 MLOAD PUSH1 0x20 PUSH2 0x184E DUP4 CODECOPY DUP2 MLOAD SWAP2 MSTORE SWAP1 PUSH1 0x80 ADD PUSH2 0x3E7 JUMP JUMPDEST PUSH1 0x0 DUP1 PUSH2 0x301 PUSH4 0x6F776E6B PUSH1 0xE0 SHL PUSH2 0x4D6 JUMP JUMPDEST PUSH1 0x0 DUP1 PUSH2 0x301 PUSH7 0x706E66745F7373 PUSH1 0xC8 SHL PUSH2 0x4D6 JUMP JUMPDEST PUSH2 0xFE0 PUSH2 0x133E JUMP JUMPDEST PUSH1 0x0 DUP3 DUP2 MSTORE PUSH1 0x1 PUSH1 0x20 MSTORE PUSH1 0x40 SWAP1 KECCAK256 DUP1 SLOAD PUSH1 0x1 PUSH1 0x1 PUSH1 0xA0 SHL SUB NOT AND PUSH1 0x1 PUSH1 0x1 PUSH1 0xA0 SHL SUB DUP4 AND OR SWAP1 SSTORE PUSH2 0x1010 TIMESTAMP PUSH2 0x13E8 JUMP JUMPDEST PUSH1 0x0 SWAP3 DUP4 MSTORE PUSH1 0x2 PUSH1 0x20 MSTORE PUSH1 0x40 SWAP1 SWAP3 KECCAK256 SWAP2 SWAP1 SWAP2 SSTORE POP JUMP JUMPDEST PUSH2 0x102E PUSH2 0x133E JUMP JUMPDEST DUP1 DUP1 EXTCODESIZE PUSH2 0x1059 JUMPI PUSH1 0x40 MLOAD PUSH4 0x7433A8F PUSH1 0xE1 SHL DUP2 MSTORE PUSH1 0x1 PUSH1 0x1 PUSH1 0xA0 SHL SUB DUP3 AND PUSH1 0x4 DUP3 ADD MSTORE PUSH1 0x24 ADD PUSH2 0x34D JUMP JUMPDEST PUSH2 0x106A PUSH4 0x70656173 PUSH1 0xE0 SHL DUP4 PUSH2 0xFD8 JUMP JUMPDEST PUSH4 0x70656173 PUSH1 0xE0 SHL PUSH1 0x0 MSTORE PUSH1 0x2 PUSH1 0x20 SWAP1 DUP2 MSTORE PUSH32 0x2E113E50B3815D8096DFC13D3887AFBA53DCD6E9322DFC21E736C7E8A628F080 SLOAD PUSH1 0x40 DUP1 MLOAD DUP2 DUP2 MSTORE PUSH1 0x10 SWAP2 DUP2 ADD SWAP2 SWAP1 SWAP2 MSTORE PUSH16 0x506C6179457374617465732050454153 PUSH1 0x80 SHL PUSH1 0x60 DUP3 ADD MSTORE SWAP2 DUP3 ADD MSTORE PUSH1 0x1 PUSH1 0x1 PUSH1 0xA0 SHL SUB DUP4 AND SWAP1 PUSH1 0x0 DUP1 MLOAD PUSH1 0x20 PUSH2 0x184E DUP4 CODECOPY DUP2 MLOAD SWAP2 MSTORE SWAP1 PUSH1 0x80 ADD PUSH2 0x3E7 JUMP JUMPDEST PUSH1 0x0 DUP1 PUSH2 0x301 PUSH10 0x67616D65656E67696E65 PUSH1 0xB0 SHL PUSH2 0x4D6 JUMP JUMPDEST PUSH1 0x0 DUP1 PUSH2 0x301 PUSH4 0x1C189C9D PUSH1 0xE2 SHL PUSH2 0x4D6 JUMP JUMPDEST PUSH2 0x1122 PUSH2 0x133E JUMP JUMPDEST DUP1 DUP1 EXTCODESIZE PUSH2 0x114D JUMPI PUSH1 0x40 MLOAD PUSH4 0x7433A8F PUSH1 0xE1 SHL DUP2 MSTORE PUSH1 0x1 PUSH1 0x1 PUSH1 0xA0 SHL SUB DUP3 AND PUSH1 0x4 DUP3 ADD MSTORE PUSH1 0x24 ADD PUSH2 0x34D JUMP JUMPDEST PUSH2 0x1165 PUSH11 0x706E66747374616B696E67 PUSH1 0xA8 SHL DUP4 PUSH2 0xFD8 JUMP JUMPDEST PUSH11 0x706E66747374616B696E67 PUSH1 0xA8 SHL PUSH1 0x0 MSTORE PUSH1 0x2 PUSH1 0x20 SWAP1 DUP2 MSTORE PUSH32 0x8227F7A4C558FAEC58B5A2925040B6F1BB2AC6A9696736087A9483CD8BCD04E7 SLOAD PUSH1 0x40 DUP1 MLOAD DUP2 DUP2 MSTORE PUSH1 0x17 SWAP2 DUP2 ADD SWAP2 SWAP1 SWAP2 MSTORE PUSH32 0x506C61794573746174657320506E66745374616B696E67000000000000000000 PUSH1 0x60 DUP3 ADD MSTORE SWAP2 DUP3 ADD MSTORE PUSH1 0x1 PUSH1 0x1 PUSH1 0xA0 SHL SUB DUP4 AND SWAP1 PUSH1 0x0 DUP1 MLOAD PUSH1 0x20 PUSH2 0x184E DUP4 CODECOPY DUP2 MLOAD SWAP2 MSTORE SWAP1 PUSH1 0x80 ADD PUSH2 0x3E7 JUMP JUMPDEST PUSH2 0x1205 PUSH2 0x133E JUMP JUMPDEST DUP1 DUP1 EXTCODESIZE PUSH2 0x1230 JUMPI PUSH1 0x40 MLOAD PUSH4 0x7433A8F PUSH1 0xE1 SHL DUP2 MSTORE PUSH1 0x1 PUSH1 0x1 PUSH1 0xA0 SHL SUB DUP3 AND PUSH1 0x4 DUP3 ADD MSTORE PUSH1 0x24 ADD PUSH2 0x34D JUMP JUMPDEST PUSH2 0x1241 PUSH4 0x1C189C9D PUSH1 0xE2 SHL DUP4 PUSH2 0xFD8 JUMP JUMPDEST PUSH4 0x1C189C9D PUSH1 0xE2 SHL PUSH1 0x0 MSTORE PUSH1 0x2 PUSH1 0x20 SWAP1 DUP2 MSTORE PUSH32 0xBD18B816D6D66F01EBEA78A5C9C40456527A563F0661B46423424A69D0E838E9 SLOAD PUSH1 0x40 DUP1 MLOAD DUP2 DUP2 MSTORE PUSH1 0x10 SWAP2 DUP2 ADD SWAP2 SWAP1 SWAP2 MSTORE PUSH16 0x141B185E515CDD185D195CC814109495 PUSH1 0x82 SHL PUSH1 0x60 DUP3 ADD MSTORE SWAP2 DUP3 ADD MSTORE PUSH1 0x1 PUSH1 0x1 PUSH1 0xA0 SHL SUB DUP4 AND SWAP1 PUSH1 0x0 DUP1 MLOAD PUSH1 0x20 PUSH2 0x184E DUP4 CODECOPY DUP2 MLOAD SWAP2 MSTORE SWAP1 PUSH1 0x80 ADD PUSH2 0x3E7 JUMP JUMPDEST PUSH2 0x12CD PUSH2 0x133E JUMP JUMPDEST PUSH1 0x1 PUSH1 0x1 PUSH1 0xA0 SHL SUB DUP2 AND PUSH2 0x1332 JUMPI PUSH1 0x40 MLOAD PUSH3 0x461BCD PUSH1 0xE5 SHL DUP2 MSTORE PUSH1 0x20 PUSH1 0x4 DUP3 ADD MSTORE PUSH1 0x26 PUSH1 0x24 DUP3 ADD MSTORE PUSH32 0x4F776E61626C653A206E6577206F776E657220697320746865207A65726F2061 PUSH1 0x44 DUP3 ADD MSTORE PUSH6 0x646472657373 PUSH1 0xD0 SHL PUSH1 0x64 DUP3 ADD MSTORE PUSH1 0x84 ADD PUSH2 0x34D JUMP JUMPDEST PUSH2 0x133B DUP2 PUSH2 0x1398 JUMP JUMPDEST POP JUMP JUMPDEST PUSH1 0x0 SLOAD PUSH1 0x1 PUSH1 0x1 PUSH1 0xA0 SHL SUB AND CALLER EQ PUSH2 0x511 JUMPI PUSH1 0x40 MLOAD PUSH3 0x461BCD PUSH1 0xE5 SHL DUP2 MSTORE PUSH1 0x20 PUSH1 0x4 DUP3 ADD DUP2 SWAP1 MSTORE PUSH1 0x24 DUP3 ADD MSTORE PUSH32 0x4F776E61626C653A2063616C6C6572206973206E6F7420746865206F776E6572 PUSH1 0x44 DUP3 ADD MSTORE PUSH1 0x64 ADD PUSH2 0x34D JUMP JUMPDEST PUSH1 0x0 DUP1 SLOAD PUSH1 0x1 PUSH1 0x1 PUSH1 0xA0 SHL SUB DUP4 DUP2 AND PUSH1 0x1 PUSH1 0x1 PUSH1 0xA0 SHL SUB NOT DUP4 AND DUP2 OR DUP5 SSTORE PUSH1 0x40 MLOAD SWAP2 SWAP1 SWAP3 AND SWAP3 DUP4 SWAP2 PUSH32 0x8BE0079C531659141344CD1FD0A4F28419497F9722A3DAAFE3B4186F6B6457E0 SWAP2 SWAP1 LOG3 POP POP JUMP JUMPDEST PUSH1 0x0 DUP1 PUSH1 0x0 DUP1 PUSH2 0x13F7 DUP6 PUSH2 0x1433 JUMP JUMPDEST SWAP2 SWAP5 POP SWAP3 POP SWAP1 POP DUP1 PUSH2 0x140A DUP4 PUSH1 0x64 PUSH2 0x17C3 JUMP JUMPDEST PUSH2 0x1416 DUP6 PUSH2 0x2710 PUSH2 0x17C3 JUMP JUMPDEST PUSH2 0x1420 SWAP2 SWAP1 PUSH2 0x16E6 JUMP JUMPDEST PUSH2 0x142A SWAP2 SWAP1 PUSH2 0x16E6 JUMP JUMPDEST SWAP6 SWAP5 POP POP POP POP POP JUMP JUMPDEST PUSH1 0x0 DUP1 DUP1 PUSH2 0x144C PUSH2 0x1447 PUSH3 0x15180 DUP7 PUSH2 0x172C JUMP JUMPDEST PUSH2 0x1459 JUMP JUMPDEST SWAP2 SWAP7 SWAP1 SWAP6 POP SWAP1 SWAP4 POP SWAP2 POP POP JUMP JUMPDEST PUSH1 0x0 DUP1 DUP1 DUP4 DUP2 PUSH3 0x253D8C PUSH2 0x1470 DUP4 PUSH3 0x10BD9 PUSH2 0x16A5 JUMP JUMPDEST PUSH2 0x147A SWAP2 SWAP1 PUSH2 0x16A5 JUMP JUMPDEST SWAP1 POP PUSH1 0x0 PUSH3 0x23AB1 PUSH2 0x148D DUP4 PUSH1 0x4 PUSH2 0x1740 JUMP JUMPDEST PUSH2 0x1497 SWAP2 SWAP1 PUSH2 0x16FE JUMP JUMPDEST SWAP1 POP PUSH1 0x4 PUSH2 0x14A8 DUP3 PUSH3 0x23AB1 PUSH2 0x1740 JUMP JUMPDEST PUSH2 0x14B3 SWAP1 PUSH1 0x3 PUSH2 0x16A5 JUMP JUMPDEST PUSH2 0x14BD SWAP2 SWAP1 PUSH2 0x16FE JUMP JUMPDEST PUSH2 0x14C7 SWAP1 DUP4 PUSH2 0x17E2 JUMP JUMPDEST SWAP2 POP PUSH1 0x0 PUSH3 0x164B09 PUSH2 0x14DA DUP5 PUSH1 0x1 PUSH2 0x16A5 JUMP JUMPDEST PUSH2 0x14E6 SWAP1 PUSH2 0xFA0 PUSH2 0x1740 JUMP JUMPDEST PUSH2 0x14F0 SWAP2 SWAP1 PUSH2 0x16FE JUMP JUMPDEST SWAP1 POP PUSH1 0x4 PUSH2 0x1500 DUP3 PUSH2 0x5B5 PUSH2 0x1740 JUMP JUMPDEST PUSH2 0x150A SWAP2 SWAP1 PUSH2 0x16FE JUMP JUMPDEST PUSH2 0x1514 SWAP1 DUP5 PUSH2 0x17E2 JUMP JUMPDEST PUSH2 0x151F SWAP1 PUSH1 0x1F PUSH2 0x16A5 JUMP JUMPDEST SWAP3 POP PUSH1 0x0 PUSH2 0x98F PUSH2 0x1531 DUP6 PUSH1 0x50 PUSH2 0x1740 JUMP JUMPDEST PUSH2 0x153B SWAP2 SWAP1 PUSH2 0x16FE JUMP JUMPDEST SWAP1 POP PUSH1 0x0 PUSH1 0x50 PUSH2 0x154D DUP4 PUSH2 0x98F PUSH2 0x1740 JUMP JUMPDEST PUSH2 0x1557 SWAP2 SWAP1 PUSH2 0x16FE JUMP JUMPDEST PUSH2 0x1561 SWAP1 DUP7 PUSH2 0x17E2 JUMP JUMPDEST SWAP1 POP PUSH2 0x156E PUSH1 0xB DUP4 PUSH2 0x16FE JUMP JUMPDEST SWAP5 POP PUSH2 0x157B DUP6 PUSH1 0xC PUSH2 0x1740 JUMP JUMPDEST PUSH2 0x1586 DUP4 PUSH1 0x2 PUSH2 0x16A5 JUMP JUMPDEST PUSH2 0x1590 SWAP2 SWAP1 PUSH2 0x17E2 JUMP JUMPDEST SWAP2 POP DUP5 DUP4 PUSH2 0x159F PUSH1 0x31 DUP8 PUSH2 0x17E2 JUMP JUMPDEST PUSH2 0x15AA SWAP1 PUSH1 0x64 PUSH2 0x1740 JUMP JUMPDEST PUSH2 0x15B4 SWAP2 SWAP1 PUSH2 0x16A5 JUMP JUMPDEST PUSH2 0x15BE SWAP2 SWAP1 PUSH2 0x16A5 JUMP JUMPDEST SWAP11 SWAP2 SWAP10 POP SWAP8 POP SWAP6 POP POP POP POP POP POP JUMP JUMPDEST DUP1 CALLDATALOAD PUSH1 0x1 PUSH1 0x1 PUSH1 0xA0 SHL SUB DUP2 AND DUP2 EQ PUSH2 0x15E4 JUMPI PUSH1 0x0 DUP1 REVERT JUMPDEST SWAP2 SWAP1 POP JUMP JUMPDEST PUSH1 0x0 PUSH1 0x20 DUP3 DUP5 SUB SLT ISZERO PUSH2 0x15FA JUMPI DUP1 DUP2 REVERT JUMPDEST PUSH2 0x1603 DUP3 PUSH2 0x15CD JUMP JUMPDEST SWAP4 SWAP3 POP POP POP JUMP JUMPDEST PUSH1 0x0 PUSH1 0x20 DUP3 DUP5 SUB SLT ISZERO PUSH2 0x161B JUMPI DUP1 DUP2 REVERT JUMPDEST POP CALLDATALOAD SWAP2 SWAP1 POP JUMP JUMPDEST PUSH1 0x0 DUP1 PUSH1 0x40 DUP4 DUP6 SUB SLT ISZERO PUSH2 0x1634 JUMPI DUP1 DUP2 REVERT JUMPDEST DUP3 CALLDATALOAD SWAP2 POP PUSH2 0x1644 PUSH1 0x20 DUP5 ADD PUSH2 0x15CD JUMP JUMPDEST SWAP1 POP SWAP3 POP SWAP3 SWAP1 POP JUMP JUMPDEST PUSH1 0x20 DUP1 DUP3 MSTORE DUP3 MLOAD DUP3 DUP3 ADD DUP2 SWAP1 MSTORE PUSH1 0x0 SWAP2 SWAP1 PUSH1 0x40 SWAP1 DUP2 DUP6 ADD SWAP1 DUP7 DUP5 ADD DUP6 JUMPDEST DUP3 DUP2 LT ISZERO PUSH2 0x1698 JUMPI DUP2 MLOAD DUP1 MLOAD DUP6 MSTORE DUP7 ADD MLOAD PUSH1 0x1 PUSH1 0x1 PUSH1 0xA0 SHL SUB AND DUP7 DUP6 ADD MSTORE SWAP3 DUP5 ADD SWAP3 SWAP1 DUP6 ADD SWAP1 PUSH1 0x1 ADD PUSH2 0x166A JUMP JUMPDEST POP SWAP2 SWAP8 SWAP7 POP POP POP POP POP POP POP JUMP JUMPDEST PUSH1 0x0 DUP1 DUP3 SLT DUP1 ISZERO PUSH1 0x1 PUSH1 0x1 PUSH1 0xFF SHL SUB DUP5 SWAP1 SUB DUP6 SGT AND ISZERO PUSH2 0x16C7 JUMPI PUSH2 0x16C7 PUSH2 0x1821 JUMP JUMPDEST PUSH1 0x1 PUSH1 0xFF SHL DUP4 SWAP1 SUB DUP5 SLT DUP2 AND ISZERO PUSH2 0x16E0 JUMPI PUSH2 0x16E0 PUSH2 0x1821 JUMP JUMPDEST POP POP ADD SWAP1 JUMP JUMPDEST PUSH1 0x0 DUP3 NOT DUP3 GT ISZERO PUSH2 0x16F9 JUMPI PUSH2 0x16F9 PUSH2 0x1821 JUMP JUMPDEST POP ADD SWAP1 JUMP JUMPDEST PUSH1 0x0 DUP3 PUSH2 0x170D JUMPI PUSH2 0x170D PUSH2 0x1837 JUMP JUMPDEST PUSH1 0x1 PUSH1 0xFF SHL DUP3 EQ PUSH1 0x0 NOT DUP5 EQ AND ISZERO PUSH2 0x1727 JUMPI PUSH2 0x1727 PUSH2 0x1821 JUMP JUMPDEST POP SDIV SWAP1 JUMP JUMPDEST PUSH1 0x0 DUP3 PUSH2 0x173B JUMPI PUSH2 0x173B PUSH2 0x1837 JUMP JUMPDEST POP DIV SWAP1 JUMP JUMPDEST PUSH1 0x0 PUSH1 0x1 PUSH1 0x1 PUSH1 0xFF SHL SUB DUP2 DUP5 SGT DUP3 DUP5 SGT DUP1 DUP3 AND DUP7 DUP5 DIV DUP7 GT AND ISZERO PUSH2 0x1766 JUMPI PUSH2 0x1766 PUSH2 0x1821 JUMP JUMPDEST PUSH1 0x1 PUSH1 0xFF SHL DUP5 DUP8 SLT DUP3 DUP2 AND DUP8 DUP4 SDIV DUP10 SLT AND ISZERO PUSH2 0x1784 JUMPI PUSH2 0x1784 PUSH2 0x1821 JUMP JUMPDEST DUP6 DUP8 SLT SWAP3 POP DUP8 DUP3 SDIV DUP8 SLT DUP5 DUP5 AND AND ISZERO PUSH2 0x179F JUMPI PUSH2 0x179F PUSH2 0x1821 JUMP JUMPDEST DUP8 DUP6 SDIV DUP8 SLT DUP2 DUP5 AND AND ISZERO PUSH2 0x17B5 JUMPI PUSH2 0x17B5 PUSH2 0x1821 JUMP JUMPDEST POP POP POP SWAP3 SWAP1 SWAP4 MUL SWAP4 SWAP3 POP POP POP JUMP JUMPDEST PUSH1 0x0 DUP2 PUSH1 0x0 NOT DIV DUP4 GT DUP3 ISZERO ISZERO AND ISZERO PUSH2 0x17DD JUMPI PUSH2 0x17DD PUSH2 0x1821 JUMP JUMPDEST POP MUL SWAP1 JUMP JUMPDEST PUSH1 0x0 DUP1 DUP4 SLT DUP1 ISZERO PUSH1 0x1 PUSH1 0xFF SHL DUP6 ADD DUP5 SLT AND ISZERO PUSH2 0x1800 JUMPI PUSH2 0x1800 PUSH2 0x1821 JUMP JUMPDEST PUSH1 0x1 PUSH1 0x1 PUSH1 0xFF SHL SUB DUP5 ADD DUP4 SGT DUP2 AND ISZERO PUSH2 0x181B JUMPI PUSH2 0x181B PUSH2 0x1821 JUMP JUMPDEST POP POP SUB SWAP1 JUMP JUMPDEST PUSH4 0x4E487B71 PUSH1 0xE0 SHL PUSH1 0x0 MSTORE PUSH1 0x11 PUSH1 0x4 MSTORE PUSH1 0x24 PUSH1 0x0 REVERT JUMPDEST PUSH4 0x4E487B71 PUSH1 0xE0 SHL PUSH1 0x0 MSTORE PUSH1 0x12 PUSH1 0x4 MSTORE PUSH1 0x24 PUSH1 0x0 REVERT INVALID PUSH29 0xAF00010D672E49BE66AB36CD6825CDBB7331686163AC730A8A3646D345 MSTORE8 MSTORE LOG2 PUSH5 0x6970667358 0x22 SLT KECCAK256 0xD5 0x5E 0x29 MSTORE 0xE3 DIFFICULTY 0xC7 RETURNDATACOPY DUP8 0xEC PUSH20 0x5C6986558A78A99A97EC77C21AC6B8CC4D00638 0x2A PUSH5 0x736F6C6343 STOP ADDMOD DIV STOP CALLER "},"methodIdentifiers":{"getAddress(bytes32)":"21f8a721","getAllAddresses()":"9516a104","getGameEngineContract()":"d37f72ed","getNFTMarketplaceContract()":"0bbc98ba","getOWNKContract()":"b6a07287","getPBRTContract()":"dcdb9502","getPEASContract()":"957ee50a","getPEFPContract()":"9d944118","getPNFTSContract()":"108858fc","getPNFTSSContract()":"c5184bd1","getPNFTStakingContract()":"7c551587","owner()":"8da5cb5b","renounceOwnership()":"715018a6","setAddress(bytes32,address)":"ca446dd9","setGameEngineContract(address)":"a3f8de52","setNFTMarketplaceContract(address)":"19aadfe2","setOWNKContract(address)":"172635a9","setPBRTContract(address)":"e78c626c","setPEASContract(address)":"ce50ac03","setPEFPContract(address)":"76447312","setPNFTSContract(address)":"a565c183","setPNFTSSContract(address)":"afc5c582","setPNFTStakingContract(address)":"e01d98f4","transferOwnership(address)":"f2fde38b"}}}}}