{
  "_format": "hh-sol-artifact-1",
  "contractName": "PlayEstatesTokenization",
  "sourceName": "contracts/tokens/PlayEstatesTokenization.sol",
  "abi": [
    {
      "inputs": [
        {
          "internalType": "string",
          "name": "name_",
          "type": "string"
        },
        {
          "internalType": "string",
          "name": "symbol_",
          "type": "string"
        },
        {
          "internalType": "address",
          "name": "poolAddress_",
          "type": "address"
        },
        {
          "internalType": "uint256",
          "name": "supply_",
          "type": "uint256"
        }
      ],
      "stateMutability": "nonpayable",
      "type": "constructor"
    },
    {
      "inputs": [],
      "name": "URIQueryForNonexistentToken",
      "type": "error"
    },
    {
      "anonymous": false,
      "inputs": [
        {
          "indexed": true,
          "internalType": "address",
          "name": "owner",
          "type": "address"
        },
        {
          "indexed": true,
          "internalType": "address",
          "name": "approved",
          "type": "address"
        },
        {
          "indexed": true,
          "internalType": "uint256",
          "name": "tokenId",
          "type": "uint256"
        }
      ],
      "name": "Approval",
      "type": "event"
    },
    {
      "anonymous": false,
      "inputs": [
        {
          "indexed": true,
          "internalType": "address",
          "name": "owner",
          "type": "address"
        },
        {
          "indexed": true,
          "internalType": "address",
          "name": "operator",
          "type": "address"
        },
        {
          "indexed": false,
          "internalType": "bool",
          "name": "approved",
          "type": "bool"
        }
      ],
      "name": "ApprovalForAll",
      "type": "event"
    },
    {
      "anonymous": false,
      "inputs": [
        {
          "indexed": true,
          "internalType": "address",
          "name": "account",
          "type": "address"
        },
        {
          "indexed": false,
          "internalType": "uint256",
          "name": "tokenId",
          "type": "uint256"
        }
      ],
      "name": "Burn",
      "type": "event"
    },
    {
      "anonymous": false,
      "inputs": [
        {
          "indexed": true,
          "internalType": "address",
          "name": "owner",
          "type": "address"
        },
        {
          "indexed": false,
          "internalType": "bool",
          "name": "locked",
          "type": "bool"
        }
      ],
      "name": "Locked",
      "type": "event"
    },
    {
      "anonymous": false,
      "inputs": [
        {
          "indexed": true,
          "internalType": "address",
          "name": "previousOwner",
          "type": "address"
        },
        {
          "indexed": true,
          "internalType": "address",
          "name": "newOwner",
          "type": "address"
        }
      ],
      "name": "OwnershipTransferred",
      "type": "event"
    },
    {
      "anonymous": false,
      "inputs": [
        {
          "indexed": true,
          "internalType": "address",
          "name": "owner",
          "type": "address"
        },
        {
          "indexed": false,
          "internalType": "bool",
          "name": "tradingAllowed",
          "type": "bool"
        }
      ],
      "name": "TradingAllowed",
      "type": "event"
    },
    {
      "anonymous": false,
      "inputs": [
        {
          "indexed": true,
          "internalType": "address",
          "name": "from",
          "type": "address"
        },
        {
          "indexed": true,
          "internalType": "address",
          "name": "to",
          "type": "address"
        },
        {
          "indexed": true,
          "internalType": "uint256",
          "name": "tokenId",
          "type": "uint256"
        }
      ],
      "name": "Transfer",
      "type": "event"
    },
    {
      "anonymous": false,
      "inputs": [
        {
          "indexed": false,
          "internalType": "string",
          "name": "tierName",
          "type": "string"
        },
        {
          "indexed": false,
          "internalType": "uint256",
          "name": "tierTokenValue",
          "type": "uint256"
        },
        {
          "indexed": false,
          "internalType": "uint256",
          "name": "tierPercent",
          "type": "uint256"
        }
      ],
      "name": "UpdateTierInfo",
      "type": "event"
    },
    {
      "inputs": [
        {
          "internalType": "address",
          "name": "to",
          "type": "address"
        },
        {
          "internalType": "uint256",
          "name": "tokenId",
          "type": "uint256"
        }
      ],
      "name": "approve",
      "outputs": [],
      "stateMutability": "nonpayable",
      "type": "function"
    },
    {
      "inputs": [
        {
          "internalType": "address",
          "name": "owner_",
          "type": "address"
        }
      ],
      "name": "balanceOf",
      "outputs": [
        {
          "internalType": "uint256",
          "name": "",
          "type": "uint256"
        }
      ],
      "stateMutability": "view",
      "type": "function"
    },
    {
      "inputs": [
        {
          "internalType": "uint256",
          "name": "tokenId",
          "type": "uint256"
        }
      ],
      "name": "burn",
      "outputs": [],
      "stateMutability": "nonpayable",
      "type": "function"
    },
    {
      "inputs": [
        {
          "internalType": "uint256",
          "name": "tokenId",
          "type": "uint256"
        }
      ],
      "name": "getApproved",
      "outputs": [
        {
          "internalType": "address",
          "name": "",
          "type": "address"
        }
      ],
      "stateMutability": "view",
      "type": "function"
    },
    {
      "inputs": [
        {
          "internalType": "address",
          "name": "owner",
          "type": "address"
        },
        {
          "internalType": "address",
          "name": "operator",
          "type": "address"
        }
      ],
      "name": "isApprovedForAll",
      "outputs": [
        {
          "internalType": "bool",
          "name": "",
          "type": "bool"
        }
      ],
      "stateMutability": "view",
      "type": "function"
    },
    {
      "inputs": [],
      "name": "locked",
      "outputs": [
        {
          "internalType": "bool",
          "name": "",
          "type": "bool"
        }
      ],
      "stateMutability": "view",
      "type": "function"
    },
    {
      "inputs": [],
      "name": "maxOwnLimit",
      "outputs": [
        {
          "internalType": "uint256",
          "name": "",
          "type": "uint256"
        }
      ],
      "stateMutability": "view",
      "type": "function"
    },
    {
      "inputs": [],
      "name": "name",
      "outputs": [
        {
          "internalType": "string",
          "name": "",
          "type": "string"
        }
      ],
      "stateMutability": "view",
      "type": "function"
    },
    {
      "inputs": [],
      "name": "nftPoolAddress",
      "outputs": [
        {
          "internalType": "address",
          "name": "",
          "type": "address"
        }
      ],
      "stateMutability": "view",
      "type": "function"
    },
    {
      "inputs": [],
      "name": "owner",
      "outputs": [
        {
          "internalType": "address",
          "name": "",
          "type": "address"
        }
      ],
      "stateMutability": "view",
      "type": "function"
    },
    {
      "inputs": [
        {
          "internalType": "uint256",
          "name": "tokenId",
          "type": "uint256"
        }
      ],
      "name": "ownerOf",
      "outputs": [
        {
          "internalType": "address",
          "name": "",
          "type": "address"
        }
      ],
      "stateMutability": "view",
      "type": "function"
    },
    {
      "inputs": [],
      "name": "realEstateInfo",
      "outputs": [
        {
          "internalType": "string",
          "name": "capitalStackinfo",
          "type": "string"
        },
        {
          "internalType": "string",
          "name": "streetAddress",
          "type": "string"
        },
        {
          "internalType": "string",
          "name": "geoCoordinates",
          "type": "string"
        },
        {
          "internalType": "uint256",
          "name": "realEstatePropertyValue",
          "type": "uint256"
        },
        {
          "internalType": "uint256",
          "name": "propertyTokenValue",
          "type": "uint256"
        },
        {
          "internalType": "uint256",
          "name": "tierValue",
          "type": "uint256"
        },
        {
          "internalType": "string",
          "name": "propertyType",
          "type": "string"
        },
        {
          "internalType": "string",
          "name": "landRegistryData",
          "type": "string"
        }
      ],
      "stateMutability": "view",
      "type": "function"
    },
    {
      "inputs": [],
      "name": "renounceOwnership",
      "outputs": [],
      "stateMutability": "nonpayable",
      "type": "function"
    },
    {
      "inputs": [
        {
          "internalType": "address",
          "name": "from",
          "type": "address"
        },
        {
          "internalType": "address",
          "name": "to",
          "type": "address"
        },
        {
          "internalType": "uint256",
          "name": "tokenId",
          "type": "uint256"
        }
      ],
      "name": "safeTransferFrom",
      "outputs": [],
      "stateMutability": "nonpayable",
      "type": "function"
    },
    {
      "inputs": [
        {
          "internalType": "address",
          "name": "from",
          "type": "address"
        },
        {
          "internalType": "address",
          "name": "to",
          "type": "address"
        },
        {
          "internalType": "uint256",
          "name": "tokenId",
          "type": "uint256"
        },
        {
          "internalType": "bytes",
          "name": "_data",
          "type": "bytes"
        }
      ],
      "name": "safeTransferFrom",
      "outputs": [],
      "stateMutability": "nonpayable",
      "type": "function"
    },
    {
      "inputs": [
        {
          "internalType": "address",
          "name": "operator",
          "type": "address"
        },
        {
          "internalType": "bool",
          "name": "approved",
          "type": "bool"
        }
      ],
      "name": "setApprovalForAll",
      "outputs": [],
      "stateMutability": "nonpayable",
      "type": "function"
    },
    {
      "inputs": [
        {
          "internalType": "uint256",
          "name": "_maxLimit",
          "type": "uint256"
        }
      ],
      "name": "setMaxOwnLimit",
      "outputs": [],
      "stateMutability": "nonpayable",
      "type": "function"
    },
    {
      "inputs": [
        {
          "internalType": "bytes4",
          "name": "interfaceId",
          "type": "bytes4"
        }
      ],
      "name": "supportsInterface",
      "outputs": [
        {
          "internalType": "bool",
          "name": "",
          "type": "bool"
        }
      ],
      "stateMutability": "view",
      "type": "function"
    },
    {
      "inputs": [],
      "name": "symbol",
      "outputs": [
        {
          "internalType": "string",
          "name": "",
          "type": "string"
        }
      ],
      "stateMutability": "view",
      "type": "function"
    },
    {
      "inputs": [],
      "name": "tierInfo",
      "outputs": [
        {
          "internalType": "string",
          "name": "name",
          "type": "string"
        },
        {
          "internalType": "uint256",
          "name": "percent",
          "type": "uint256"
        },
        {
          "internalType": "uint256",
          "name": "value",
          "type": "uint256"
        },
        {
          "internalType": "string",
          "name": "image",
          "type": "string"
        },
        {
          "internalType": "string",
          "name": "ext_url",
          "type": "string"
        },
        {
          "internalType": "string",
          "name": "ani_url",
          "type": "string"
        }
      ],
      "stateMutability": "view",
      "type": "function"
    },
    {
      "inputs": [],
      "name": "toggleLock",
      "outputs": [],
      "stateMutability": "nonpayable",
      "type": "function"
    },
    {
      "inputs": [],
      "name": "toggleTradingAllowed",
      "outputs": [],
      "stateMutability": "nonpayable",
      "type": "function"
    },
    {
      "inputs": [
        {
          "internalType": "uint256",
          "name": "index",
          "type": "uint256"
        }
      ],
      "name": "tokenByIndex",
      "outputs": [
        {
          "internalType": "uint256",
          "name": "",
          "type": "uint256"
        }
      ],
      "stateMutability": "view",
      "type": "function"
    },
    {
      "inputs": [
        {
          "internalType": "address",
          "name": "owner",
          "type": "address"
        },
        {
          "internalType": "uint256",
          "name": "index",
          "type": "uint256"
        }
      ],
      "name": "tokenOfOwnerByIndex",
      "outputs": [
        {
          "internalType": "uint256",
          "name": "tokenId",
          "type": "uint256"
        }
      ],
      "stateMutability": "view",
      "type": "function"
    },
    {
      "inputs": [
        {
          "internalType": "uint256",
          "name": "tokenId",
          "type": "uint256"
        }
      ],
      "name": "tokenURI",
      "outputs": [
        {
          "internalType": "string",
          "name": "",
          "type": "string"
        }
      ],
      "stateMutability": "view",
      "type": "function"
    },
    {
      "inputs": [],
      "name": "totalSupply",
      "outputs": [
        {
          "internalType": "uint256",
          "name": "",
          "type": "uint256"
        }
      ],
      "stateMutability": "view",
      "type": "function"
    },
    {
      "inputs": [],
      "name": "tradingAllowed",
      "outputs": [
        {
          "internalType": "bool",
          "name": "",
          "type": "bool"
        }
      ],
      "stateMutability": "view",
      "type": "function"
    },
    {
      "inputs": [
        {
          "internalType": "address",
          "name": "from",
          "type": "address"
        },
        {
          "internalType": "address",
          "name": "to",
          "type": "address"
        },
        {
          "internalType": "uint256",
          "name": "tokenId",
          "type": "uint256"
        }
      ],
      "name": "transferFrom",
      "outputs": [],
      "stateMutability": "nonpayable",
      "type": "function"
    },
    {
      "inputs": [
        {
          "internalType": "address",
          "name": "newOwner",
          "type": "address"
        }
      ],
      "name": "transferOwnership",
      "outputs": [],
      "stateMutability": "nonpayable",
      "type": "function"
    },
    {
      "inputs": [
        {
          "internalType": "string",
          "name": "tierName_",
          "type": "string"
        },
        {
          "internalType": "uint256",
          "name": "tierTokenValue_",
          "type": "uint256"
        },
        {
          "internalType": "uint256",
          "name": "tierPercent_",
          "type": "uint256"
        },
        {
          "internalType": "string",
          "name": "tierImageUri_",
          "type": "string"
        },
        {
          "internalType": "string",
          "name": "tierAnimationUri_",
          "type": "string"
        },
        {
          "internalType": "string",
          "name": "tierExternalUri_",
          "type": "string"
        }
      ],
      "name": "updateTierInfo",
      "outputs": [],
      "stateMutability": "nonpayable",
      "type": "function"
    }
  ],
  "bytecode": "0x60806040526002600b553480156200001657600080fd5b5060405162004d8f38038062004d8f833981016040819052620000399162000d49565b8351849084906200005290600190602085019062000be3565b5080516200006890600290602084019062000be3565b505050620000856200007f620002fc60201b60201c565b62000300565b6001600160a01b038216620000d35760405162461bcd60e51b815260206004820152600f60248201526e696e76616c6964206164647265737360881b60448201526064015b60405180910390fd5b80620001135760405162461bcd60e51b815260206004820152600e60248201526d696e76616c696420737570706c7960901b6044820152606401620000ca565b6040518061010001604052806040518060400160405280601681526020017f4750202d3e204d616e6167656d656e74202d3e204c500000000000000000000081525081526020016040518060600160405280602c815260200162004d43602c9139815260200160405180606001604052806026815260200162004d1d602691398152602001621e84808152602001622625a08152602001622dc6c081526020016040518060400160405280600b81526020016a14995cda59195b9d1a585b60aa1b81525081526020016040518060400160405280600b81526020016a54424420666f72206e6f7760a81b815250815250601260008201518160000190805190602001906200022392919062000be3565b5060208281015180516200023e926001850192019062000be3565b50604082015180516200025c91600284019160209091019062000be3565b50606082015160038201556080820151600482015560a0820151600582015560c082015180516200029891600684019160209091019062000be3565b5060e08201518051620002b691600784019160209091019062000be3565b5050600a805462010000600160b01b031916620100006001600160a01b0386811682029290921792839055620002f29350909104168262000352565b5050505062000f58565b3390565b600780546001600160a01b038381166001600160a01b0319831681179093556040519116919082907f8be0079c531659141344cd1fd0a4f28419497f9722a3daafe3b4186f6b6457e090600090a35050565b620003748282604051806020016040528060008152506200037860201b60201c565b5050565b60045462000387848462000400565b62000397600085838686620005b3565b620003fa5760405162461bcd60e51b8152602060048201526035602482015260008051602062004d6f83398151915260448201527f31526563656976657220696d706c656d656e74657200000000000000000000006064820152608401620000ca565b50505050565b6004546000906200041390600162000e2e565b905060008211620004755760405162461bcd60e51b815260206004820152602560248201527f4552433732315073693a207175616e74697479206d7573742062652067726561604482015264074657220360dc1b6064820152608401620000ca565b6001600160a01b038316620004d95760405162461bcd60e51b815260206004820152602360248201527f4552433732315073693a206d696e7420746f20746865207a65726f206164647260448201526265737360e81b6064820152608401620000ca565b620004e8600084838562000763565b8160046000828254620004fc919062000e2e565b90915550506000818152600360209081526040822080546001600160a01b0319166001600160a01b038716179055620005419190839062000939811b62001b7717901c565b62000550600084838562000965565b805b6200055e838362000e2e565b811015620003fa5760405181906001600160a01b038616906000907fddf252ad1be2c89b69c2b068fc378daa952ba7f163c4a11628f55a4df523b3ef908290a480620005aa8162000f0e565b91505062000552565b6000620005d4856001600160a01b031662000b3f60201b62001ba31760201c565b156200075657506001835b620005eb848662000e2e565b8110156200074f57604051630a85bd0160e11b81526001600160a01b0387169063150b7a0290620006279033908b908690899060040162000dd8565b602060405180830381600087803b1580156200064257600080fd5b505af192505050801562000675575060408051601f3d908101601f19168201909252620006729181019062000d18565b60015b62000719573d808015620006a6576040519150601f19603f3d011682016040523d82523d6000602084013e620006ab565b606091505b508051620007115760405162461bcd60e51b8152602060048201526035602482015260008051602062004d6f83398151915260448201527f31526563656976657220696d706c656d656e74657200000000000000000000006064820152608401620000ca565b805181602001fd5b8280156200073757506001600160e01b03198116630a85bd0160e11b145b92505080620007468162000f0e565b915050620005df565b506200075a565b5060015b95945050505050565b600a5460ff1615620007a15760405162461bcd60e51b81526020600482015260066024820152651b1bd8dad95960d21b6044820152606401620000ca565b6001600160a01b038416620007b657620003fa565b6001600160a01b038316620007cb57620003fa565b600a546001600160a01b03858116620100009092041614156200086757600a546001600160a01b038481166201000090920416146200086157600b5481620008138562000b4e565b6200081f919062000e2e565b1115620008615760405162461bcd60e51b815260206004820152600f60248201526e195e18d95959195908185b5bdd5b9d608a1b6044820152606401620000ca565b620003fa565b600a546001600160a01b03848116620100009092041614620003fa57600a54610100900460ff16620008dc5760405162461bcd60e51b815260206004820152601360248201527f74726164696e6720636f6d696e6720736f6f6e000000000000000000000000006044820152606401620000ca565b600b5481620008eb8562000b4e565b620008f7919062000e2e565b1115620003fa5760405162461bcd60e51b815260206004820152600f60248201526e195e18d95959195908185b5bdd5b9d608a1b6044820152606401620000ca565b600881901c600090815260209290925260409091208054600160ff1b60ff9093169290921c9091179055565b6801000000000000000081106200097b57600080fd5b806001600160a01b03851615620009e9576001600160a01b03851660009081526008602052604081208054839290620009bf9084906001600160401b031662000e77565b92506101000a8154816001600160401b0302191690836001600160401b0316021790555062000a50565b6001600160a01b0384166000908152600860208190526040909120805483929062000a2b9084906801000000000000000090046001600160401b031662000e49565b92506101000a8154816001600160401b0302191690836001600160401b031602179055505b6001600160a01b0384161562000abd576001600160a01b0384166000908152600860205260408120805483929062000a939084906001600160401b031662000e49565b92506101000a8154816001600160401b0302191690836001600160401b0316021790555062000b1f565b6001600160a01b0385166000908152600860205260409020805482919060109062000afa908490600160801b90046001600160401b031662000e49565b92506101000a8154816001600160401b0302191690836001600160401b031602179055505b62000b3885858585620003fa60201b620010281760201c565b5050505050565b6001600160a01b03163b151590565b60006001600160a01b03821662000bbe5760405162461bcd60e51b815260206004820152602d60248201527f4552433732315073693a2062616c616e636520717565727920666f722074686560448201526c207a65726f206164647265737360981b6064820152608401620000ca565b506001600160a01b03166000908152600860205260409020546001600160401b031690565b82805462000bf19062000ed1565b90600052602060002090601f01602090048101928262000c15576000855562000c60565b82601f1062000c3057805160ff191683800117855562000c60565b8280016001018555821562000c60579182015b8281111562000c6057825182559160200191906001019062000c43565b5062000c6e92915062000c72565b5090565b5b8082111562000c6e576000815560010162000c73565b600082601f83011262000c9a578081fd5b81516001600160401b038082111562000cb75762000cb762000f42565b604051601f8301601f19908116603f0116810190828211818310171562000ce25762000ce262000f42565b8160405283815286602085880101111562000cfb578485fd5b62000d0e84602083016020890162000ea2565b9695505050505050565b60006020828403121562000d2a578081fd5b81516001600160e01b03198116811462000d42578182fd5b9392505050565b6000806000806080858703121562000d5f578283fd5b84516001600160401b038082111562000d76578485fd5b62000d848883890162000c89565b9550602087015191508082111562000d9a578485fd5b5062000da98782880162000c89565b604087015190945090506001600160a01b038116811462000dc8578283fd5b6060959095015193969295505050565b600060018060a01b03808716835280861660208401525083604083015260806060830152825180608084015262000e178160a085016020870162000ea2565b601f01601f19169190910160a00195945050505050565b6000821982111562000e445762000e4462000f2c565b500190565b60006001600160401b0382811684821680830382111562000e6e5762000e6e62000f2c565b01949350505050565b60006001600160401b038381169083168181101562000e9a5762000e9a62000f2c565b039392505050565b60005b8381101562000ebf57818101518382015260200162000ea5565b83811115620003fa5750506000910152565b600181811c9082168062000ee657607f821691505b6020821081141562000f0857634e487b7160e01b600052602260045260246000fd5b50919050565b600060001982141562000f255762000f2562000f2c565b5060010190565b634e487b7160e01b600052601160045260246000fd5b634e487b7160e01b600052604160045260246000fd5b613db58062000f686000396000f3fe608060405234801561001057600080fd5b50600436106101da5760003560e01c8063715018a611610104578063b88d4fde116100a2578063e985e9c511610071578063e985e9c5146103dd578063e9a6dba114610419578063f2fde38b14610432578063ff9413d81461044557600080fd5b8063b88d4fde14610390578063c87b56dd146103a3578063cf309012146103b6578063cfa4a5bf146103c357600080fd5b8063957326cf116100de578063957326cf1461034f57806395d89b4114610362578063a22cb4651461036a578063aec2d3cb1461037d57600080fd5b8063715018a61461031a5780638c9763d6146103225780638da5cb5b1461033e57600080fd5b80632f745c591161017c5780634f6ccce71161014b5780634f6ccce7146102cf57806353371be0146102e25780636352211e146102f457806370a082311461030757600080fd5b80632f745c591461028e57806336b22b4f146102a157806342842e0e146102a957806342966c68146102bc57600080fd5b8063095ea7b3116101b8578063095ea7b31461024757806318160ddd1461025c5780632232c9571461027257806323b872dd1461027b57600080fd5b806301ffc9a7146101df57806306fdde0314610207578063081812fc1461021c575b600080fd5b6101f26101ed366004612dab565b61044d565b60405190151581526020015b60405180910390f35b61020f6104ba565b6040516101fe91906138f3565b61022f61022a366004612eb7565b61054c565b6040516001600160a01b0390911681526020016101fe565b61025a610255366004612d82565b6105dc565b005b6102646106f4565b6040519081526020016101fe565b610264600b5481565b61025a610289366004612c39565b610710565b61026461029c366004612d82565b610741565b61025a610816565b61025a6102b7366004612c39565b610880565b61025a6102ca366004612eb7565b61089b565b6102646102dd366004612eb7565b6108e4565b600a546101f290610100900460ff1681565b61022f610302366004612eb7565b6109ac565b610264610315366004612be6565b6109c0565b61025a610a53565b61032a610a67565b6040516101fe989796959493929190613906565b6007546001600160a01b031661022f565b61025a61035d366004612de3565b610d43565b61020f610f15565b61025a610378366004612d48565b610f24565b61025a61038b366004612eb7565b610fe9565b61025a61039e366004612c74565b610ff6565b61020f6103b1366004612eb7565b61102e565b600a546101f29060ff1681565b6103cb611864565b6040516101fe9695949392919061398b565b6101f26103eb366004612c07565b6001600160a01b03918216600090815260066020908152604080832093909416825291909152205460ff1690565b600a5461022f906201000090046001600160a01b031681565b61025a610440366004612be6565b611aac565b61025a611b25565b60006001600160e01b031982166380ac58cd60e01b148061047e57506001600160e01b03198216635b5e139f60e01b145b8061049957506001600160e01b0319821663780e9d6360e01b145b806104b457506301ffc9a760e01b6001600160e01b03198316145b92915050565b6060600180546104c990613b87565b80601f01602080910402602001604051908101604052809291908181526020018280546104f590613b87565b80156105425780601f1061051757610100808354040283529160200191610542565b820191906000526020600020905b81548152906001019060200180831161052557829003601f168201915b5050505050905090565b600061055782611bb2565b6105c05760405162461bcd60e51b815260206004820152602f60248201527f4552433732315073693a20617070726f76656420717565727920666f72206e6f60448201526e3732bc34b9ba32b73a103a37b5b2b760891b60648201526084015b60405180910390fd5b506000908152600560205260409020546001600160a01b031690565b60006105e7826109ac565b9050806001600160a01b0316836001600160a01b031614156106575760405162461bcd60e51b8152602060048201526024808201527f4552433732315073693a20617070726f76616c20746f2063757272656e74206f6044820152633bb732b960e11b60648201526084016105b7565b336001600160a01b0382161480610673575061067381336103eb565b6106e55760405162461bcd60e51b815260206004820152603b60248201527f4552433732315073693a20617070726f76652063616c6c6572206973206e6f7460448201527f206f776e6572206e6f7220617070726f76656420666f7220616c6c000000000060648201526084016105b7565b6106ef8383611be7565b505050565b60006106fe611c55565b60045461070b9190613b1c565b905090565b61071a3382611cb5565b6107365760405162461bcd60e51b81526004016105b790613a46565b6106ef838383611da2565b60008060015b60016004546107569190613a9a565b8110156107c15761076681611bb2565b801561078b5750610776816109ac565b6001600160a01b0316856001600160a01b0316145b156107af57838214156107a15791506104b49050565b816107ab81613bc2565b9250505b806107b981613bc2565b915050610747565b5060405162461bcd60e51b8152602060048201526024808201527f4552433732315073693a206f776e657220696e646578206f7574206f6620626f604482015263756e647360e01b60648201526084016105b7565b61081e611fb4565b600a805460ff610100808304821615810261ff0019909316929092179283905560405133937faef734d6041f99698bd8ce0fe5f4f68e33fe33fbb02b3ed57d5d4798fb00049e93610876939104161515815260200190565b60405180910390a2565b6106ef83838360405180602001604052806000815250610ff6565b6108a3611fb4565b6108ac8161200e565b60405181815233907fcc16f5dbb4873280815c1ee09dbd06736cffcc184412cf7a71a0fdb75d397ca59060200160405180910390a250565b60006108ee6106f4565b821061094a5760405162461bcd60e51b815260206004820152602560248201527f4552433732315073693a20676c6f62616c20696e646578206f7574206f6620626044820152646f756e647360d81b60648201526084016105b7565b600060015b600160045461095e9190613a9a565b8110156109a25761096e81611bb2565b156109905783821415610982579392505050565b8161098c81613bc2565b9250505b8061099a81613bc2565b91505061094f565b5060009392505050565b6000806109b88361207e565b509392505050565b60006001600160a01b038216610a2e5760405162461bcd60e51b815260206004820152602d60248201527f4552433732315073693a2062616c616e636520717565727920666f722074686560448201526c207a65726f206164647265737360981b60648201526084016105b7565b506001600160a01b03166000908152600860205260409020546001600160401b031690565b610a5b611fb4565b610a656000612115565b565b601280548190610a7690613b87565b80601f0160208091040260200160405190810160405280929190818152602001828054610aa290613b87565b8015610aef5780601f10610ac457610100808354040283529160200191610aef565b820191906000526020600020905b815481529060010190602001808311610ad257829003601f168201915b505050505090806001018054610b0490613b87565b80601f0160208091040260200160405190810160405280929190818152602001828054610b3090613b87565b8015610b7d5780601f10610b5257610100808354040283529160200191610b7d565b820191906000526020600020905b815481529060010190602001808311610b6057829003601f168201915b505050505090806002018054610b9290613b87565b80601f0160208091040260200160405190810160405280929190818152602001828054610bbe90613b87565b8015610c0b5780601f10610be057610100808354040283529160200191610c0b565b820191906000526020600020905b815481529060010190602001808311610bee57829003601f168201915b505050505090806003015490806004015490806005015490806006018054610c3290613b87565b80601f0160208091040260200160405190810160405280929190818152602001828054610c5e90613b87565b8015610cab5780601f10610c8057610100808354040283529160200191610cab565b820191906000526020600020905b815481529060010190602001808311610c8e57829003601f168201915b505050505090806007018054610cc090613b87565b80601f0160208091040260200160405190810160405280929190818152602001828054610cec90613b87565b8015610d395780601f10610d0e57610100808354040283529160200191610d39565b820191906000526020600020905b815481529060010190602001808311610d1c57829003601f168201915b5050505050905088565b610d4b611fb4565b6040518060c001604052808b8b8080601f01602080910402602001604051908101604052809392919081815260200183838082843760009201919091525050509082525060208082018a905260408083018c90528051601f8a01839004830281018301909152888152606090920191908990899081908401838280828437600092019190915250505090825250604080516020601f860181900481028201810190925284815291810191908590859081908401838280828437600092019190915250505090825250604080516020601f880181900481028201810190925286815291810191908790879081908401838280828437600092019190915250505091525080518051600c91610e6391839160200190612af0565b5060208281015160018301556040830151600283015560608301518051610e909260038501920190612af0565b5060808201518051610eac916004840191602090910190612af0565b5060a08201518051610ec8916005840191602090910190612af0565b509050507f2bce3ca02af4ccde7aa909427575ded41b2a445fbb9334dd609f7aef0bb42d2a8a8a8a8a604051610f0194939291906138b4565b60405180910390a150505050505050505050565b6060600280546104c990613b87565b6001600160a01b038216331415610f7d5760405162461bcd60e51b815260206004820152601c60248201527f4552433732315073693a20617070726f766520746f2063616c6c65720000000060448201526064016105b7565b3360008181526006602090815260408083206001600160a01b03871680855290835292819020805460ff191686151590811790915590519081529192917f17307eab39ab6107e8899845ad3d59bd9653f200f220920489ca2b5937696c31910160405180910390a35050565b610ff1611fb4565b600b55565b6110003383611cb5565b61101c5760405162461bcd60e51b81526004016105b790613a46565b61102884848484612167565b50505050565b606061103982611bb2565b61105657604051630a14c4b560e41b815260040160405180910390fd5b6000600c6040518060c001604052908160008201805461107590613b87565b80601f01602080910402602001604051908101604052809291908181526020018280546110a190613b87565b80156110ee5780601f106110c3576101008083540402835291602001916110ee565b820191906000526020600020905b8154815290600101906020018083116110d157829003601f168201915b50505050508152602001600182015481526020016002820154815260200160038201805461111b90613b87565b80601f016020809104026020016040519081016040528092919081815260200182805461114790613b87565b80156111945780601f1061116957610100808354040283529160200191611194565b820191906000526020600020905b81548152906001019060200180831161117757829003601f168201915b505050505081526020016004820180546111ad90613b87565b80601f01602080910402602001604051908101604052809291908181526020018280546111d990613b87565b80156112265780601f106111fb57610100808354040283529160200191611226565b820191906000526020600020905b81548152906001019060200180831161120957829003601f168201915b5050505050815260200160058201805461123f90613b87565b80601f016020809104026020016040519081016040528092919081815260200182805461126b90613b87565b80156112b85780601f1061128d576101008083540402835291602001916112b8565b820191906000526020600020905b81548152906001019060200180831161129b57829003601f168201915b505050505081525050905060006012604051806101000160405290816000820180546112e390613b87565b80601f016020809104026020016040519081016040528092919081815260200182805461130f90613b87565b801561135c5780601f106113315761010080835404028352916020019161135c565b820191906000526020600020905b81548152906001019060200180831161133f57829003601f168201915b5050505050815260200160018201805461137590613b87565b80601f01602080910402602001604051908101604052809291908181526020018280546113a190613b87565b80156113ee5780601f106113c3576101008083540402835291602001916113ee565b820191906000526020600020905b8154815290600101906020018083116113d157829003601f168201915b5050505050815260200160028201805461140790613b87565b80601f016020809104026020016040519081016040528092919081815260200182805461143390613b87565b80156114805780601f1061145557610100808354040283529160200191611480565b820191906000526020600020905b81548152906001019060200180831161146357829003601f168201915b505050505081526020016003820154815260200160048201548152602001600582015481526020016006820180546114b790613b87565b80601f01602080910402602001604051908101604052809291908181526020018280546114e390613b87565b80156115305780601f1061150557610100808354040283529160200191611530565b820191906000526020600020905b81548152906001019060200180831161151357829003601f168201915b5050505050815260200160078201805461154990613b87565b80601f016020809104026020016040519081016040528092919081815260200182805461157590613b87565b80156115c25780601f10611597576101008083540402835291602001916115c2565b820191906000526020600020905b8154815290600101906020018083116115a557829003601f168201915b505050505081525050905060008260800151836060015184600001516040516020016115f093929190613648565b6040516020818303038152906040529050600061160c8661219c565b60405160200161161c91906132ac565b60405160208183030381529060405283600001516040516020016116409190612f9f565b60405160208183030381529060405284602001516040516020016116649190613344565b604051602081830303815290604052856040015160405160200161168891906133ca565b6040516020818303038152906040526116a4876060015161219c565b6040516020016116b49190613454565b60408051601f19818403018152908290526116d595949392916020016137a5565b604051602081830303815290604052905060006116f5846080015161219c565b6040516020016117059190613160565b6040516020818303038152906040526117218560a0015161219c565b6040516020016117319190613037565b6040516020818303038152906040528560c0015160405160200161175591906130d4565b6040516020818303038152906040528660e0015160405160200161177991906135bb565b604051602081830303815290604052611795896020015161219c565b6040516020016117a5919061350f565b6040516020818303038152906040526117c18a6040015161219c565b6040516020016117d1919061320d565b60408051601f19818403018152908290526117f3969594939291602001612f17565b6040516020818303038152906040529050600061183284848460405160200161181e93929190613741565b60405160208183030381529060405261223e565b90506000816040516020016118479190613832565b60408051601f198184030181529190529998505050505050505050565b600c8054819061187390613b87565b80601f016020809104026020016040519081016040528092919081815260200182805461189f90613b87565b80156118ec5780601f106118c1576101008083540402835291602001916118ec565b820191906000526020600020905b8154815290600101906020018083116118cf57829003601f168201915b50505050509080600101549080600201549080600301805461190d90613b87565b80601f016020809104026020016040519081016040528092919081815260200182805461193990613b87565b80156119865780601f1061195b57610100808354040283529160200191611986565b820191906000526020600020905b81548152906001019060200180831161196957829003601f168201915b50505050509080600401805461199b90613b87565b80601f01602080910402602001604051908101604052809291908181526020018280546119c790613b87565b8015611a145780601f106119e957610100808354040283529160200191611a14565b820191906000526020600020905b8154815290600101906020018083116119f757829003601f168201915b505050505090806005018054611a2990613b87565b80601f0160208091040260200160405190810160405280929190818152602001828054611a5590613b87565b8015611aa25780601f10611a7757610100808354040283529160200191611aa2565b820191906000526020600020905b815481529060010190602001808311611a8557829003601f168201915b5050505050905086565b611ab4611fb4565b6001600160a01b038116611b195760405162461bcd60e51b815260206004820152602660248201527f4f776e61626c653a206e6577206f776e657220697320746865207a65726f206160448201526564647265737360d01b60648201526084016105b7565b611b2281612115565b50565b611b2d611fb4565b600a805460ff8082161560ff19909216821790925560405191161515815233907fcaf46096bdd957e9271a7e46a00ff61870b80644805049e7ea814162a2b606bc90602001610876565b600881901c600090815260209290925260409091208054600160ff1b60ff9093169290921c9091179055565b6001600160a01b03163b151590565b600881901c600090815260096020526040812054600160ff1b60ff84161c1615611bde57506000919050565b6104b48261239f565b600081815260056020526040902080546001600160a01b0319166001600160a01b0384169081179091558190611c1c826109ac565b6001600160a01b03167f8c5be1e5ebec7d5bd14f71427d1e84f3dd0314c0f7b2291e5b200ac8c7c3b92560405160405180910390a45050565b6000806008600454901c6001611c6b9190613a9a565b905060005b81811015611cb057600081815260096020526040902054611c90816123c4565b611c9a9085613a9a565b9350508080611ca890613bc2565b915050611c70565b505090565b6000611cc082611bb2565b611d245760405162461bcd60e51b815260206004820152602f60248201527f4552433732315073693a206f70657261746f7220717565727920666f72206e6f60448201526e3732bc34b9ba32b73a103a37b5b2b760891b60648201526084016105b7565b6000611d2f836109ac565b9050806001600160a01b0316846001600160a01b03161480611d6a5750836001600160a01b0316611d5f8461054c565b6001600160a01b0316145b80611d9a57506001600160a01b0380821660009081526006602090815260408083209388168352929052205460ff165b949350505050565b600080611dae8361207e565b91509150846001600160a01b0316826001600160a01b031614611e285760405162461bcd60e51b815260206004820152602c60248201527f4552433732315073693a207472616e73666572206f6620746f6b656e2074686160448201526b3a1034b9903737ba1037bbb760a11b60648201526084016105b7565b6001600160a01b038416611e8e5760405162461bcd60e51b815260206004820152602760248201527f4552433732315073693a207472616e7366657220746f20746865207a65726f206044820152666164647265737360c81b60648201526084016105b7565b611e9b85858560016123e3565b611ea6600084611be7565b6000611eb3846001613a9a565b600881901c600090815260208190526040902054909150600160ff1b60ff83161c16158015611eef57506001600454611eec9190613a9a565b81105b15611f2557600081815260036020526040812080546001600160a01b0319166001600160a01b038916179055611f259082611b77565b600084815260036020526040902080546001600160a01b0319166001600160a01b038716179055818414611f5e57611f5e600085611b77565b83856001600160a01b0316876001600160a01b03167fddf252ad1be2c89b69c2b068fc378daa952ba7f163c4a11628f55a4df523b3ef60405160405180910390a4611fac8686866001612597565b505050505050565b6007546001600160a01b03163314610a655760405162461bcd60e51b815260206004820181905260248201527f4f776e61626c653a2063616c6c6572206973206e6f7420746865206f776e657260448201526064016105b7565b6000612019826109ac565b90506120298160008460016123e3565b612034600983611b77565b60405182906000906001600160a01b038416907fddf252ad1be2c89b69c2b068fc378daa952ba7f163c4a11628f55a4df523b3ef908390a461207a816000846001612597565b5050565b60008061208a83611bb2565b6120eb5760405162461bcd60e51b815260206004820152602c60248201527f4552433732315073693a206f776e657220717565727920666f72206e6f6e657860448201526b34b9ba32b73a103a37b5b2b760a11b60648201526084016105b7565b6120f483612741565b6000818152600360205260409020546001600160a01b031694909350915050565b600780546001600160a01b038381166001600160a01b0319831681179093556040519116919082907f8be0079c531659141344cd1fd0a4f28419497f9722a3daafe3b4186f6b6457e090600090a35050565b612172848484611da2565b61218084848460018561274d565b6110285760405162461bcd60e51b81526004016105b7906139f1565b606060006121a983612890565b60010190506000816001600160401b038111156121d657634e487b7160e01b600052604160045260246000fd5b6040519080825280601f01601f191660200182016040528015612200576020820181803683370190505b5090508181016020015b600019016f181899199a1a9b1b9c1cb0b131b232b360811b600a86061a8153600a8504945084612239576109b8565b61220a565b606081516000141561225e57505060408051602081019091526000815290565b6000604051806060016040528060408152602001613c20604091399050600060038451600261228d9190613a9a565b6122979190613add565b6122a2906004613afd565b6001600160401b038111156122c757634e487b7160e01b600052604160045260246000fd5b6040519080825280601f01601f1916602001820160405280156122f1576020820181803683370190505b509050600182016020820185865187015b8082101561235d576003820191508151603f8160121c168501518453600184019350603f81600c1c168501518453600184019350603f8160061c168501518453600184019350603f8116850151845350600183019250612302565b5050600386510660018114612379576002811461238c57612394565b603d6001830353603d6002830353612394565b603d60018303535b509195945050505050565b6000816001111580156104b4575060016004546123bc9190613a9a565b821092915050565b60005b81156123de576000198201909116906001016123c7565b919050565b600a5460ff161561241f5760405162461bcd60e51b81526020600482015260066024820152651b1bd8dad95960d21b60448201526064016105b7565b6001600160a01b03841661243257611028565b6001600160a01b03831661244557611028565b600a546001600160a01b03858116620100009092041614156124d857600a546001600160a01b038481166201000090920416146124d357600b5481612489856109c0565b6124939190613a9a565b11156124d35760405162461bcd60e51b815260206004820152600f60248201526e195e18d95959195908185b5bdd5b9d608a1b60448201526064016105b7565b611028565b600a546001600160a01b0384811662010000909204161461102857600a54610100900460ff166125405760405162461bcd60e51b81526020600482015260136024820152723a3930b234b7339031b7b6b4b7339039b7b7b760691b60448201526064016105b7565b600b548161254d856109c0565b6125579190613a9a565b11156110285760405162461bcd60e51b815260206004820152600f60248201526e195e18d95959195908185b5bdd5b9d608a1b60448201526064016105b7565b600160401b81106125a757600080fd5b806001600160a01b03851615612611576001600160a01b038516600090815260086020526040812080548392906125e89084906001600160401b0316613b33565b92506101000a8154816001600160401b0302191690836001600160401b03160217905550612671565b6001600160a01b0384166000908152600860208190526040909120805483929061264c908490600160401b90046001600160401b0316613ab2565b92506101000a8154816001600160401b0302191690836001600160401b031602179055505b6001600160a01b038416156126da576001600160a01b038416600090815260086020526040812080548392906126b19084906001600160401b0316613ab2565b92506101000a8154816001600160401b0302191690836001600160401b0316021790555061273a565b6001600160a01b03851660009081526008602052604090208054829190601090612715908490600160801b90046001600160401b0316613ab2565b92506101000a8154816001600160401b0302191690836001600160401b031602179055505b5050505050565b60006104b48183612968565b60006001600160a01b0385163b1561288357506001835b61276e8486613a9a565b81101561287d57604051630a85bd0160e11b81526001600160a01b0387169063150b7a02906127a79033908b9086908990600401613877565b602060405180830381600087803b1580156127c157600080fd5b505af19250505080156127f1575060408051601f3d908101601f191682019092526127ee91810190612dc7565b60015b61284b573d80801561281f576040519150601f19603f3d011682016040523d82523d6000602084013e612824565b606091505b5080516128435760405162461bcd60e51b81526004016105b7906139f1565b805181602001fd5b82801561286857506001600160e01b03198116630a85bd0160e11b145b9250508061287581613bc2565b915050612764565b50612887565b5060015b95945050505050565b60008072184f03e93ff9f4daa797ed6e38ed64bf6a1f0160401b83106128cf5772184f03e93ff9f4daa797ed6e38ed64bf6a1f0160401b830492506040015b6d04ee2d6d415b85acef810000000083106128fb576d04ee2d6d415b85acef8100000000830492506020015b662386f26fc10000831061291957662386f26fc10000830492506010015b6305f5e1008310612931576305f5e100830492506008015b612710831061294557612710830492506004015b60648310612957576064830492506002015b600a83106104b45760010192915050565b600881901c60008181526020849052604081205490919060ff808516919082181c80156129aa5761299881612a60565b60ff168203600884901b179350612a57565b60008311612a175760405162461bcd60e51b815260206004820152603460248201527f4269744d6170733a205468652073657420626974206265666f7265207468652060448201527334b73232bc103237b2b9b713ba1032bc34b9ba1760611b60648201526084016105b7565b506000199091016000818152602086905260409020549091908015612a5257612a3f81612a60565b60ff0360ff16600884901b179350612a57565b6129aa565b50505092915050565b60006040518061012001604052806101008152602001613c60610100913960f87e818283848586878898a8b8c8d8e8f929395969799a9b9d9e9faaeb6bedeeff612aa985612ad8565b02901c81518110612aca57634e487b7160e01b600052603260045260246000fd5b016020015160f81c92915050565b6000808211612ae657600080fd5b5060008190031690565b828054612afc90613b87565b90600052602060002090601f016020900481019282612b1e5760008555612b64565b82601f10612b3757805160ff1916838001178555612b64565b82800160010185558215612b64579182015b82811115612b64578251825591602001919060010190612b49565b50612b70929150612b74565b5090565b5b80821115612b705760008155600101612b75565b80356001600160a01b03811681146123de57600080fd5b60008083601f840112612bb1578182fd5b5081356001600160401b03811115612bc7578182fd5b602083019150836020828501011115612bdf57600080fd5b9250929050565b600060208284031215612bf7578081fd5b612c0082612b89565b9392505050565b60008060408385031215612c19578081fd5b612c2283612b89565b9150612c3060208401612b89565b90509250929050565b600080600060608486031215612c4d578081fd5b612c5684612b89565b9250612c6460208501612b89565b9150604084013590509250925092565b60008060008060808587031215612c89578081fd5b612c9285612b89565b9350612ca060208601612b89565b92506040850135915060608501356001600160401b0380821115612cc2578283fd5b818701915087601f830112612cd5578283fd5b813581811115612ce757612ce7613bf3565b604051601f8201601f19908116603f01168101908382118183101715612d0f57612d0f613bf3565b816040528281528a6020848701011115612d27578586fd5b82602086016020830137918201602001949094529598949750929550505050565b60008060408385031215612d5a578182fd5b612d6383612b89565b915060208301358015158114612d77578182fd5b809150509250929050565b60008060408385031215612d94578182fd5b612d9d83612b89565b946020939093013593505050565b600060208284031215612dbc578081fd5b8135612c0081613c09565b600060208284031215612dd8578081fd5b8151612c0081613c09565b60008060008060008060008060008060c08b8d031215612e01578586fd5b8a356001600160401b0380821115612e17578788fd5b612e238e838f01612ba0565b909c509a5060208d0135995060408d0135985060608d0135915080821115612e49578788fd5b612e558e838f01612ba0565b909850965060808d0135915080821115612e6d578586fd5b612e798e838f01612ba0565b909650945060a08d0135915080821115612e91578384fd5b50612e9e8d828e01612ba0565b915080935050809150509295989b9194979a5092959850565b600060208284031215612ec8578081fd5b5035919050565b60008151808452612ee7816020860160208601613b5b565b601f01601f19169290920160200192915050565b60008151612f0d818560208601613b5b565b9290920192915050565b600087516020612f2a8285838d01613b5b565b885191840191612f3d8184848d01613b5b565b8851920191612f4f8184848c01613b5b565b8751920191612f618184848b01613b5b565b8651920191612f738184848a01613b5b565b8551920191612f858184848901613b5b565b605d60f81b92019182525060010198975050505050505050565b6f3d913a3930b4ba2fba3cb832911d101160811b81527f4361706974616c20537461636b20496e666f726d6174696f6e00000000000000601082015261088b60f21b6029820181905269113b30b63ab2911d101160b11b602b830152825160009190613012816035860160208801613b5b565b603593019283015250600080516020613d608339815191526037820152605101919050565b6f3d913a3930b4ba2fba3cb832911d101160811b81526d2a34b2b9102b30b63ab0ba34b7b760911b601082015261088b60f21b601e820152680113b30b63ab2911d160bd1b602082015260008251613096816029850160208701613b5b565b600b60fa1b60299390910192830152507f22646973706c61795f74797065223a2022626f6f73745f6e756d626572227d2c602a820152604a01919050565b6f3d913a3930b4ba2fba3cb832911d101160811b8152705468652050726f7065727479205479706560781b601082015261088b60f21b6021820181905269113b30b63ab2911d101160b11b602383015282516000919061313b81602d860160208801613b5b565b602d93019283015250600080516020613d60833981519152602f820152604901919050565b6f3d913a3930b4ba2fba3cb832911d101160811b81527f5468652050726f706572747920546f6b656e2056616c756174696f6e00000000601082015261088b60f21b602c820152680113b30b63ab2911d160bd1b602e82015281516000906131cf816037850160208701613b5b565b600b60fa1b60379390910192830152507f22646973706c61795f74797065223a2022626f6f73745f6e756d626572227d2c6038820152605801919050565b6f3d913a3930b4ba2fba3cb832911d101160811b81526e2a37b5b2b7102b30b63ab0ba34b7b760891b601082015261088b60f21b601f820152680113b30b63ab2911d160bd1b6021820152815160009061326e81602a850160208701613b5b565b600b60fa1b602a9390910192830152507f22646973706c61795f74797065223a2022626f6f73745f6e756d626572227d00602b820152604a01919050565b6f3d913a3930b4ba2fba3cb832911d101160811b815267151bdad95b88125160c21b601082015261088b60f21b6018820152680113b30b63ab2911d160bd1b601a8201528151600090613306816023850160208701613b5b565b600b60fa1b60239390910192830152507f22646973706c61795f74797065223a20226e756d626572227d2c0000000000006024820152603e01919050565b6f3d913a3930b4ba2fba3cb832911d101160811b81526d537472656574204164647265737360901b6010820152600061088b60f21b80601e84015269113b30b63ab2911d101160b11b602084015283516133a581602a860160208801613b5b565b602a93019283015250600080516020613d60833981519152602c820152604601919050565b6f3d913a3930b4ba2fba3cb832911d101160811b81526e47656f20436f6f7264696e6174657360881b601082015261088b60f21b601f820181905269113b30b63ab2911d101160b11b602183015282516000919061342f81602b860160208801613b5b565b602b93019283015250600080516020613d60833981519152602d820152604701919050565b6f3d913a3930b4ba2fba3cb832911d101160811b81527f5265616c204573746174652050726f706572747960732056616c756174696f6e601082015264285553442960d81b603082015261088b60f21b6035820152680113b30b63ab2911d160bd1b603782015281516000906134d1816040850160208701613b5b565b600b60fa1b60409390910192830152507f22646973706c61795f74797065223a2022626f6f73745f6e756d626572227d2c6041820152606101919050565b6f3d913a3930b4ba2fba3cb832911d101160811b81526f546f6b656e2050657263656e7461676560801b601082015261088b60f21b6020820152680113b30b63ab2911d160bd1b60228201526000825161357081602b850160208701613b5b565b600b60fa1b602b9390910192830152507f22646973706c61795f74797065223a2022626f6f73745f70657263656e746167602c8201526319489f4b60e21b604c820152605001919050565b6f3d913a3930b4ba2fba3cb832911d101160811b8152714c616e64205265676973747279204461746160701b601082015261088b60f21b6022820181905269113b30b63ab2911d101160b11b602483015282516000919061362381602e860160208801613b5b565b602e93019283015250600080516020613d608339815191526030820152604a01919050565b6f113232b9b1b934b83a34b7b7111d101160811b81527f506c617945737461746573205265616c2065737461746520546f6b656e697a616010820152633a34b7b760e11b603082015261088b60f21b60348201819052701132bc3a32b93730b62fbab936111d101160791b60368301528451600091906136cf816047860160208a01613b5b565b830160478101829052691134b6b0b3b2911d101160b11b604982015285516136fe816053840160208a01613b5b565b016053810182905268113730b6b2911d101160b91b6055820152613736613728605e830187612efb565b61088b60f21b815260020190565b979650505050505050565b607b60f81b81526000845161375d816001850160208901613b5b565b845190830190613774816001840160208901613b5b565b845191019061378a816001840160208801613b5b565b607d60f81b6001929091019182015260020195945050505050565b6e2261747472696275746573223a205b60881b81526000600f87516137d08183860160208c01613b5b565b8751908401906137e68184840160208c01613b5b565b87519101906137fb8184840160208b01613b5b565b86519101906138108184840160208a01613b5b565b85519101906138258184840160208901613b5b565b0101979650505050505050565b7f646174613a6170706c69636174696f6e2f6a736f6e3b6261736536342c00000081526000825161386a81601d850160208701613b5b565b91909101601d0192915050565b6001600160a01b03858116825284166020820152604081018390526080606082018190526000906138aa90830184612ecf565b9695505050505050565b6060815283606082015283856080830137600080608086840101526080601f19601f870116830101905083602083015282604083015295945050505050565b602081526000612c006020830184612ecf565b600061010080835261391a8184018c612ecf565b9050828103602084015261392e818b612ecf565b90508281036040840152613942818a612ecf565b90508760608401528660808401528560a084015282810360c08401526139688186612ecf565b905082810360e084015261397c8185612ecf565b9b9a5050505050505050505050565b60c08152600061399e60c0830189612ecf565b87602084015286604084015282810360608401526139bc8187612ecf565b905082810360808401526139d08186612ecf565b905082810360a08401526139e48185612ecf565b9998505050505050505050565b60208082526035908201527f4552433732315073693a207472616e7366657220746f206e6f6e20455243373260408201527418a932b1b2b4bb32b91034b6b83632b6b2b73a32b960591b606082015260800190565b60208082526034908201527f4552433732315073693a207472616e736665722063616c6c6572206973206e6f6040820152731d081bdddb995c881b9bdc88185c1c1c9bdd995960621b606082015260800190565b60008219821115613aad57613aad613bdd565b500190565b60006001600160401b03808316818516808303821115613ad457613ad4613bdd565b01949350505050565b600082613af857634e487b7160e01b81526012600452602481fd5b500490565b6000816000190483118215151615613b1757613b17613bdd565b500290565b600082821015613b2e57613b2e613bdd565b500390565b60006001600160401b0383811690831681811015613b5357613b53613bdd565b039392505050565b60005b83811015613b76578181015183820152602001613b5e565b838111156110285750506000910152565b600181811c90821680613b9b57607f821691505b60208210811415613bbc57634e487b7160e01b600052602260045260246000fd5b50919050565b6000600019821415613bd657613bd6613bdd565b5060010190565b634e487b7160e01b600052601160045260246000fd5b634e487b7160e01b600052604160045260246000fd5b6001600160e01b031981168114611b2257600080fdfe4142434445464748494a4b4c4d4e4f505152535455565758595a6162636465666768696a6b6c6d6e6f707172737475767778797a303132333435363738392b2f0001020903110a19042112290b311a3905412245134d2a550c5d32651b6d3a7506264262237d468514804e8d2b95569d0d495ea533a966b11c886eb93bc176c9071727374353637324837e9b47af86c7155181ad4fd18ed32c9096db57d59ee30e2e4a6a5f92a6be3498aae067ddb2eb1d5989b56fd7baf33ca0c2ee77e5caf7ff0810182028303840444c545c646c7425617c847f8c949c48a4a8b087b8c0c816365272829aaec650acd0d28fdad4e22d6991bd97dfdcea58b4d6f29fede4f6fe0f1f2f3f4b5b6b607b8b93a3a7b7bf357199c5abcfd9e168bcdee9b3f1ecf5fd1e3e5a7a8aa2b670c4ced8bbe8f0f4fc3d79a1c3cde7effb78cce6facbf9f822646973706c61795f74797065223a2022737472696e67227d2c000000000000a2646970667358221220f824428d19bf4438640829e9d761a2e2fcac30c04388bc468266d0a67a86e1c064736f6c6343000804003333342e30343934373631363537383035352c202d3131382e3330323937363734323932373534313134342053204b696e67736c65792044722e204c6f7320416e67656c65732c2043412055532039303030364552433732315073693a207472616e7366657220746f206e6f6e204552433732",
  "linkReferences": {},
  "deployedLinkReferences": {}
}