{
  "_format": "hh-sol-artifact-1",
  "contractName": "PlayEstatesBrickToken",
  "sourceName": "contracts/tokens/PlayEstatesBrickToken.sol",
  "abi": [
    {
      "inputs": [
        {
          "internalType": "string",
          "name": "symbol",
          "type": "string"
        },
        {
          "internalType": "string",
          "name": "name",
          "type": "string"
        }
      ],
      "stateMutability": "nonpayable",
      "type": "constructor"
    },
    {
      "anonymous": false,
      "inputs": [
        {
          "indexed": true,
          "internalType": "address",
          "name": "owner",
          "type": "address"
        },
        {
          "indexed": true,
          "internalType": "address",
          "name": "spender",
          "type": "address"
        },
        {
          "indexed": false,
          "internalType": "uint256",
          "name": "value",
          "type": "uint256"
        }
      ],
      "name": "Approval",
      "type": "event"
    },
    {
      "anonymous": false,
      "inputs": [
        {
          "indexed": true,
          "internalType": "bytes32",
          "name": "role",
          "type": "bytes32"
        },
        {
          "indexed": true,
          "internalType": "bytes32",
          "name": "previousAdminRole",
          "type": "bytes32"
        },
        {
          "indexed": true,
          "internalType": "bytes32",
          "name": "newAdminRole",
          "type": "bytes32"
        }
      ],
      "name": "RoleAdminChanged",
      "type": "event"
    },
    {
      "anonymous": false,
      "inputs": [
        {
          "indexed": true,
          "internalType": "bytes32",
          "name": "role",
          "type": "bytes32"
        },
        {
          "indexed": true,
          "internalType": "address",
          "name": "account",
          "type": "address"
        },
        {
          "indexed": true,
          "internalType": "address",
          "name": "sender",
          "type": "address"
        }
      ],
      "name": "RoleGranted",
      "type": "event"
    },
    {
      "anonymous": false,
      "inputs": [
        {
          "indexed": true,
          "internalType": "bytes32",
          "name": "role",
          "type": "bytes32"
        },
        {
          "indexed": true,
          "internalType": "address",
          "name": "account",
          "type": "address"
        },
        {
          "indexed": true,
          "internalType": "address",
          "name": "sender",
          "type": "address"
        }
      ],
      "name": "RoleRevoked",
      "type": "event"
    },
    {
      "anonymous": false,
      "inputs": [
        {
          "indexed": true,
          "internalType": "address",
          "name": "from",
          "type": "address"
        },
        {
          "indexed": true,
          "internalType": "address",
          "name": "to",
          "type": "address"
        },
        {
          "indexed": false,
          "internalType": "uint256",
          "name": "value",
          "type": "uint256"
        }
      ],
      "name": "Transfer",
      "type": "event"
    },
    {
      "inputs": [],
      "name": "CONTRACT_ROLE",
      "outputs": [
        {
          "internalType": "bytes32",
          "name": "",
          "type": "bytes32"
        }
      ],
      "stateMutability": "view",
      "type": "function"
    },
    {
      "inputs": [],
      "name": "DEFAULT_ADMIN_ROLE",
      "outputs": [
        {
          "internalType": "bytes32",
          "name": "",
          "type": "bytes32"
        }
      ],
      "stateMutability": "view",
      "type": "function"
    },
    {
      "inputs": [],
      "name": "MINTER_ROLE",
      "outputs": [
        {
          "internalType": "bytes32",
          "name": "",
          "type": "bytes32"
        }
      ],
      "stateMutability": "view",
      "type": "function"
    },
    {
      "inputs": [
        {
          "internalType": "address",
          "name": "owner",
          "type": "address"
        },
        {
          "internalType": "address",
          "name": "spender",
          "type": "address"
        }
      ],
      "name": "allowance",
      "outputs": [
        {
          "internalType": "uint256",
          "name": "",
          "type": "uint256"
        }
      ],
      "stateMutability": "view",
      "type": "function"
    },
    {
      "inputs": [
        {
          "internalType": "address",
          "name": "spender",
          "type": "address"
        },
        {
          "internalType": "uint256",
          "name": "amount",
          "type": "uint256"
        }
      ],
      "name": "approve",
      "outputs": [
        {
          "internalType": "bool",
          "name": "",
          "type": "bool"
        }
      ],
      "stateMutability": "nonpayable",
      "type": "function"
    },
    {
      "inputs": [
        {
          "internalType": "address",
          "name": "account",
          "type": "address"
        }
      ],
      "name": "balanceOf",
      "outputs": [
        {
          "internalType": "uint256",
          "name": "",
          "type": "uint256"
        }
      ],
      "stateMutability": "view",
      "type": "function"
    },
    {
      "inputs": [
        {
          "internalType": "address",
          "name": "minter",
          "type": "address"
        }
      ],
      "name": "clearMintRole",
      "outputs": [],
      "stateMutability": "nonpayable",
      "type": "function"
    },
    {
      "inputs": [],
      "name": "decimals",
      "outputs": [
        {
          "internalType": "uint8",
          "name": "",
          "type": "uint8"
        }
      ],
      "stateMutability": "view",
      "type": "function"
    },
    {
      "inputs": [
        {
          "internalType": "address",
          "name": "spender",
          "type": "address"
        },
        {
          "internalType": "uint256",
          "name": "subtractedValue",
          "type": "uint256"
        }
      ],
      "name": "decreaseAllowance",
      "outputs": [
        {
          "internalType": "bool",
          "name": "",
          "type": "bool"
        }
      ],
      "stateMutability": "nonpayable",
      "type": "function"
    },
    {
      "inputs": [
        {
          "internalType": "bytes32",
          "name": "role",
          "type": "bytes32"
        }
      ],
      "name": "getRoleAdmin",
      "outputs": [
        {
          "internalType": "bytes32",
          "name": "",
          "type": "bytes32"
        }
      ],
      "stateMutability": "view",
      "type": "function"
    },
    {
      "inputs": [
        {
          "internalType": "bytes32",
          "name": "role",
          "type": "bytes32"
        },
        {
          "internalType": "address",
          "name": "account",
          "type": "address"
        }
      ],
      "name": "grantRole",
      "outputs": [],
      "stateMutability": "nonpayable",
      "type": "function"
    },
    {
      "inputs": [
        {
          "internalType": "bytes32",
          "name": "role",
          "type": "bytes32"
        },
        {
          "internalType": "address",
          "name": "account",
          "type": "address"
        }
      ],
      "name": "hasRole",
      "outputs": [
        {
          "internalType": "bool",
          "name": "",
          "type": "bool"
        }
      ],
      "stateMutability": "view",
      "type": "function"
    },
    {
      "inputs": [
        {
          "internalType": "address",
          "name": "spender",
          "type": "address"
        },
        {
          "internalType": "uint256",
          "name": "addedValue",
          "type": "uint256"
        }
      ],
      "name": "increaseAllowance",
      "outputs": [
        {
          "internalType": "bool",
          "name": "",
          "type": "bool"
        }
      ],
      "stateMutability": "nonpayable",
      "type": "function"
    },
    {
      "inputs": [],
      "name": "locked",
      "outputs": [
        {
          "internalType": "bool",
          "name": "",
          "type": "bool"
        }
      ],
      "stateMutability": "view",
      "type": "function"
    },
    {
      "inputs": [
        {
          "internalType": "address",
          "name": "to",
          "type": "address"
        },
        {
          "internalType": "uint256",
          "name": "amount",
          "type": "uint256"
        }
      ],
      "name": "mint",
      "outputs": [],
      "stateMutability": "nonpayable",
      "type": "function"
    },
    {
      "inputs": [],
      "name": "name",
      "outputs": [
        {
          "internalType": "string",
          "name": "",
          "type": "string"
        }
      ],
      "stateMutability": "view",
      "type": "function"
    },
    {
      "inputs": [
        {
          "internalType": "bytes32",
          "name": "role",
          "type": "bytes32"
        },
        {
          "internalType": "address",
          "name": "account",
          "type": "address"
        }
      ],
      "name": "renounceRole",
      "outputs": [],
      "stateMutability": "nonpayable",
      "type": "function"
    },
    {
      "inputs": [
        {
          "internalType": "bytes32",
          "name": "role",
          "type": "bytes32"
        },
        {
          "internalType": "address",
          "name": "account",
          "type": "address"
        }
      ],
      "name": "revokeRole",
      "outputs": [],
      "stateMutability": "nonpayable",
      "type": "function"
    },
    {
      "inputs": [
        {
          "internalType": "address",
          "name": "gameEngine",
          "type": "address"
        }
      ],
      "name": "setGameEngine",
      "outputs": [],
      "stateMutability": "nonpayable",
      "type": "function"
    },
    {
      "inputs": [
        {
          "internalType": "bool",
          "name": "flag",
          "type": "bool"
        }
      ],
      "name": "setLock",
      "outputs": [],
      "stateMutability": "nonpayable",
      "type": "function"
    },
    {
      "inputs": [
        {
          "internalType": "address",
          "name": "marketEngine",
          "type": "address"
        }
      ],
      "name": "setMarketplaceEngine",
      "outputs": [],
      "stateMutability": "nonpayable",
      "type": "function"
    },
    {
      "inputs": [
        {
          "internalType": "address",
          "name": "minter",
          "type": "address"
        }
      ],
      "name": "setMintRole",
      "outputs": [],
      "stateMutability": "nonpayable",
      "type": "function"
    },
    {
      "inputs": [
        {
          "internalType": "bytes4",
          "name": "interfaceId",
          "type": "bytes4"
        }
      ],
      "name": "supportsInterface",
      "outputs": [
        {
          "internalType": "bool",
          "name": "",
          "type": "bool"
        }
      ],
      "stateMutability": "view",
      "type": "function"
    },
    {
      "inputs": [],
      "name": "symbol",
      "outputs": [
        {
          "internalType": "string",
          "name": "",
          "type": "string"
        }
      ],
      "stateMutability": "view",
      "type": "function"
    },
    {
      "inputs": [],
      "name": "totalSupply",
      "outputs": [
        {
          "internalType": "uint256",
          "name": "",
          "type": "uint256"
        }
      ],
      "stateMutability": "view",
      "type": "function"
    },
    {
      "inputs": [
        {
          "internalType": "address",
          "name": "to",
          "type": "address"
        },
        {
          "internalType": "uint256",
          "name": "amount",
          "type": "uint256"
        }
      ],
      "name": "transfer",
      "outputs": [
        {
          "internalType": "bool",
          "name": "",
          "type": "bool"
        }
      ],
      "stateMutability": "nonpayable",
      "type": "function"
    },
    {
      "inputs": [
        {
          "internalType": "address",
          "name": "from",
          "type": "address"
        },
        {
          "internalType": "address",
          "name": "to",
          "type": "address"
        },
        {
          "internalType": "uint256",
          "name": "amount",
          "type": "uint256"
        }
      ],
      "name": "transferFrom",
      "outputs": [
        {
          "internalType": "bool",
          "name": "",
          "type": "bool"
        }
      ],
      "stateMutability": "nonpayable",
      "type": "function"
    }
  ],
  "bytecode": "0x60806040523480156200001157600080fd5b506040516200171b3803806200171b8339810160408190526200003491620002a2565b8151829082906200004d90600390602085019062000149565b5080516200006390600490602084019062000149565b506200007591506000905033620000a4565b6200008f6a4d494e5445525f524f4c4560a81b33620000a4565b50506006805460ff191660011790556200035c565b60008281526005602090815260408083206001600160a01b038516845290915290205460ff16620001455760008281526005602090815260408083206001600160a01b03851684529091529020805460ff19166001179055620001043390565b6001600160a01b0316816001600160a01b0316837f2f8788117e7eff1d82e926ec794901d17c78024a50270940304540a733656f0d60405160405180910390a45b5050565b828054620001579062000309565b90600052602060002090601f0160209004810192826200017b5760008555620001c6565b82601f106200019657805160ff1916838001178555620001c6565b82800160010185558215620001c6579182015b82811115620001c6578251825591602001919060010190620001a9565b50620001d4929150620001d8565b5090565b5b80821115620001d45760008155600101620001d9565b600082601f83011262000200578081fd5b81516001600160401b03808211156200021d576200021d62000346565b604051601f8301601f19908116603f0116810190828211818310171562000248576200024862000346565b8160405283815260209250868385880101111562000264578485fd5b8491505b8382101562000287578582018301518183018401529082019062000268565b838211156200029857848385830101525b9695505050505050565b60008060408385031215620002b5578182fd5b82516001600160401b0380821115620002cc578384fd5b620002da86838701620001ef565b93506020850151915080821115620002f0578283fd5b50620002ff85828601620001ef565b9150509250929050565b600181811c908216806200031e57607f821691505b602082108114156200034057634e487b7160e01b600052602260045260246000fd5b50919050565b634e487b7160e01b600052604160045260246000fd5b6113af806200036c6000396000f3fe608060405234801561001057600080fd5b50600436106101a95760003560e01c806350371095116100f9578063a457c2d711610097578063d539139311610071578063d539139314610376578063d547741f1461038b578063dd62ed3e1461039e578063e57c9c5e146103b157600080fd5b8063a457c2d714610343578063a9059cbb14610356578063cf3090121461036957600080fd5b806370a08231116100d357806370a08231146102f757806391d148541461032057806395d89b4114610333578063a217fddf1461033b57600080fd5b80635037109514610261578063530dd079146102d1578063619d5194146102e457600080fd5b8063248a9ca311610166578063313ce56711610140578063313ce5671461028957806336568abe1461029857806339509351146102ab57806340c10f19146102be57600080fd5b8063248a9ca31461023e5780632bf18ae0146102615780632f2ff15d1461027657600080fd5b806301ffc9a7146101ae57806303fe46ab146101d657806306fdde03146101fb578063095ea7b31461021057806318160ddd1461022357806323b872dd1461022b575b600080fd5b6101c16101bc3660046110f0565b6103c4565b60405190151581526020015b60405180910390f35b6101ed6c434f4e54524143545f524f4c4560981b81565b6040519081526020016101cd565b6102036103fb565b6040516101cd919061118d565b6101c161021e36600461106d565b61048d565b6002546101ed565b6101c1610239366004611032565b6104a5565b6101ed61024c3660046110b6565b60009081526005602052604090206001015490565b61027461026f366004610fe6565b6104c9565b005b6102746102843660046110ce565b6104f2565b604051600081526020016101cd565b6102746102a63660046110ce565b61051c565b6101c16102b936600461106d565b61059b565b6102746102cc36600461106d565b6105bd565b6102746102df366004610fe6565b6105f4565b6102746102f2366004611096565b610617565b6101ed610305366004610fe6565b6001600160a01b031660009081526020819052604090205490565b6101c161032e3660046110ce565b610636565b610203610661565b6101ed600081565b6101c161035136600461106d565b610670565b6101c161036436600461106d565b6106eb565b6006546101c19060ff1681565b6101ed6a4d494e5445525f524f4c4560a81b81565b6102746103993660046110ce565b6106f9565b6101ed6103ac366004611000565b61071e565b6102746103bf366004610fe6565b610749565b60006001600160e01b03198216637965db0b60e01b14806103f557506301ffc9a760e01b6001600160e01b03198316145b92915050565b60606003805461040a90611328565b80601f016020809104026020016040519081016040528092919081815260200182805461043690611328565b80156104835780601f1061045857610100808354040283529160200191610483565b820191906000526020600020905b81548152906001019060200180831161046657829003601f168201915b5050505050905090565b60003361049b81858561076c565b5060019392505050565b6000336104b3858285610890565b6104be85858561090a565b506001949350505050565b60006104d481610ab9565b6104ee6c434f4e54524143545f524f4c4560981b83610ac6565b5050565b60008281526005602052604090206001015461050d81610ab9565b6105178383610ac6565b505050565b6001600160a01b03811633146105915760405162461bcd60e51b815260206004820152602f60248201527f416363657373436f6e74726f6c3a2063616e206f6e6c792072656e6f756e636560448201526e103937b632b9903337b91039b2b63360891b60648201526084015b60405180910390fd5b6104ee8282610b4c565b60003361049b8185856105ae838361071e565b6105b891906111c0565b61076c565b6a4d494e5445525f524f4c4560a81b6105d581610ab9565b610517836105e56000600a61121b565b6105ef90856112c6565b610bb3565b60006105ff81610ab9565b6104ee6a4d494e5445525f524f4c4560a81b83610ac6565b600061062281610ab9565b506006805460ff1916911515919091179055565b60009182526005602090815260408084206001600160a01b0393909316845291905290205460ff1690565b60606004805461040a90611328565b6000338161067e828661071e565b9050838110156106de5760405162461bcd60e51b815260206004820152602560248201527f45524332303a2064656372656173656420616c6c6f77616e63652062656c6f77604482015264207a65726f60d81b6064820152608401610588565b6104be828686840361076c565b60003361049b81858561090a565b60008281526005602052604090206001015461071481610ab9565b6105178383610b4c565b6001600160a01b03918216600090815260016020908152604080832093909416825291909152205490565b600061075481610ab9565b6104ee6a4d494e5445525f524f4c4560a81b83610b4c565b6001600160a01b0383166107ce5760405162461bcd60e51b8152602060048201526024808201527f45524332303a20617070726f76652066726f6d20746865207a65726f206164646044820152637265737360e01b6064820152608401610588565b6001600160a01b03821661082f5760405162461bcd60e51b815260206004820152602260248201527f45524332303a20617070726f766520746f20746865207a65726f206164647265604482015261737360f01b6064820152608401610588565b6001600160a01b0383811660008181526001602090815260408083209487168084529482529182902085905590518481527f8c5be1e5ebec7d5bd14f71427d1e84f3dd0314c0f7b2291e5b200ac8c7c3b925910160405180910390a3505050565b600061089c848461071e565b9050600019811461090457818110156108f75760405162461bcd60e51b815260206004820152601d60248201527f45524332303a20696e73756666696369656e7420616c6c6f77616e63650000006044820152606401610588565b610904848484840361076c565b50505050565b6001600160a01b03831661096e5760405162461bcd60e51b815260206004820152602560248201527f45524332303a207472616e736665722066726f6d20746865207a65726f206164604482015264647265737360d81b6064820152608401610588565b6001600160a01b0382166109d05760405162461bcd60e51b815260206004820152602360248201527f45524332303a207472616e7366657220746f20746865207a65726f206164647260448201526265737360e81b6064820152608401610588565b6109db838383610c7e565b6001600160a01b03831660009081526020819052604090205481811015610a535760405162461bcd60e51b815260206004820152602660248201527f45524332303a207472616e7366657220616d6f756e7420657863656564732062604482015265616c616e636560d01b6064820152608401610588565b6001600160a01b03848116600081815260208181526040808320878703905593871680835291849020805487019055925185815290927fddf252ad1be2c89b69c2b068fc378daa952ba7f163c4a11628f55a4df523b3ef910160405180910390a3610904565b610ac38133610d76565b50565b610ad08282610636565b6104ee5760008281526005602090815260408083206001600160a01b03851684529091529020805460ff19166001179055610b083390565b6001600160a01b0316816001600160a01b0316837f2f8788117e7eff1d82e926ec794901d17c78024a50270940304540a733656f0d60405160405180910390a45050565b610b568282610636565b156104ee5760008281526005602090815260408083206001600160a01b0385168085529252808320805460ff1916905551339285917ff6391f5c32d9c69d2a47ea670b442974b53935d1edc7fd64eb21e047a839171b9190a45050565b6001600160a01b038216610c095760405162461bcd60e51b815260206004820152601f60248201527f45524332303a206d696e7420746f20746865207a65726f2061646472657373006044820152606401610588565b610c1560008383610c7e565b8060026000828254610c2791906111c0565b90915550506001600160a01b038216600081815260208181526040808320805486019055518481527fddf252ad1be2c89b69c2b068fc378daa952ba7f163c4a11628f55a4df523b3ef910160405180910390a35050565b80610c8857505050565b6001600160a01b0383161580610ca557506001600160a01b038216155b15610caf57505050565b610cc96c434f4e54524143545f524f4c4560981b84610636565b80610ce95750610ce96c434f4e54524143545f524f4c4560981b83610636565b15610cf357505050565b610d0d6c434f4e54524143545f524f4c4560981b33610636565b15610d1757505050565b60065460ff16156105175760405162461bcd60e51b815260206004820152602360248201527f50425254206973206c6f636b6564206265747765656e20757365722077616c6c60448201526265747360e81b6064820152608401610588565b610d808282610636565b6104ee57610d8d81610dcf565b610d98836020610de1565b604051602001610da9929190611118565b60408051601f198184030181529082905262461bcd60e51b82526105889160040161118d565b60606103f56001600160a01b03831660145b60606000610df08360026112c6565b610dfb9060026111c0565b67ffffffffffffffff811115610e2157634e487b7160e01b600052604160045260246000fd5b6040519080825280601f01601f191660200182016040528015610e4b576020820181803683370190505b509050600360fc1b81600081518110610e7457634e487b7160e01b600052603260045260246000fd5b60200101906001600160f81b031916908160001a905350600f60fb1b81600181518110610eb157634e487b7160e01b600052603260045260246000fd5b60200101906001600160f81b031916908160001a9053506000610ed58460026112c6565b610ee09060016111c0565b90505b6001811115610f74576f181899199a1a9b1b9c1cb0b131b232b360811b85600f1660108110610f2257634e487b7160e01b600052603260045260246000fd5b1a60f81b828281518110610f4657634e487b7160e01b600052603260045260246000fd5b60200101906001600160f81b031916908160001a90535060049490941c93610f6d81611311565b9050610ee3565b508315610fc35760405162461bcd60e51b815260206004820181905260248201527f537472696e67733a20686578206c656e67746820696e73756666696369656e746044820152606401610588565b9392505050565b80356001600160a01b0381168114610fe157600080fd5b919050565b600060208284031215610ff7578081fd5b610fc382610fca565b60008060408385031215611012578081fd5b61101b83610fca565b915061102960208401610fca565b90509250929050565b600080600060608486031215611046578081fd5b61104f84610fca565b925061105d60208501610fca565b9150604084013590509250925092565b6000806040838503121561107f578182fd5b61108883610fca565b946020939093013593505050565b6000602082840312156110a7578081fd5b81358015158114610fc3578182fd5b6000602082840312156110c7578081fd5b5035919050565b600080604083850312156110e0578182fd5b8235915061102960208401610fca565b600060208284031215611101578081fd5b81356001600160e01b031981168114610fc3578182fd5b7f416363657373436f6e74726f6c3a206163636f756e74200000000000000000008152600083516111508160178501602088016112e5565b7001034b99036b4b9b9b4b733903937b6329607d1b60179184019182015283516111818160288401602088016112e5565b01602801949350505050565b60208152600082518060208401526111ac8160408501602087016112e5565b601f01601f19169190910160400192915050565b600082198211156111d3576111d3611363565b500190565b600181815b808511156112135781600019048211156111f9576111f9611363565b8085161561120657918102915b93841c93908002906111dd565b509250929050565b6000610fc360ff841683600082611234575060016103f5565b81611241575060006103f5565b816001811461125757600281146112615761127d565b60019150506103f5565b60ff84111561127257611272611363565b50506001821b6103f5565b5060208310610133831016604e8410600b84101617156112a0575081810a6103f5565b6112aa83836111d8565b80600019048211156112be576112be611363565b029392505050565b60008160001904831182151516156112e0576112e0611363565b500290565b60005b838110156113005781810151838201526020016112e8565b838111156109045750506000910152565b60008161132057611320611363565b506000190190565b600181811c9082168061133c57607f821691505b6020821081141561135d57634e487b7160e01b600052602260045260246000fd5b50919050565b634e487b7160e01b600052601160045260246000fdfea264697066735822122074b11200e519d9561ea72c54670305f2db74929d8a25d3934d6d5b7657676b1f64736f6c63430008040033",
  "linkReferences": {},
  "deployedLinkReferences": {}
}