{
  "_format": "hh-sol-artifact-1",
  "contractName": "PeasNFT",
  "sourceName": "contracts/tokens/PeasNFT.sol",
  "abi": [
    {
      "inputs": [
        {
          "internalType": "string",
          "name": "name_",
          "type": "string"
        },
        {
          "internalType": "string",
          "name": "symbol_",
          "type": "string"
        }
      ],
      "stateMutability": "nonpayable",
      "type": "constructor"
    },
    {
      "inputs": [],
      "name": "ApprovalCallerNotOwnerNorApproved",
      "type": "error"
    },
    {
      "inputs": [],
      "name": "ApprovalQueryForNonexistentToken",
      "type": "error"
    },
    {
      "inputs": [],
      "name": "ApprovalToCurrentOwner",
      "type": "error"
    },
    {
      "inputs": [],
      "name": "ApproveToCaller",
      "type": "error"
    },
    {
      "inputs": [],
      "name": "BalanceQueryForZeroAddress",
      "type": "error"
    },
    {
      "inputs": [],
      "name": "MintToZeroAddress",
      "type": "error"
    },
    {
      "inputs": [],
      "name": "MintZeroQuantity",
      "type": "error"
    },
    {
      "inputs": [],
      "name": "OwnerQueryForNonexistentToken",
      "type": "error"
    },
    {
      "inputs": [],
      "name": "PeasNFT_CurrentLocked",
      "type": "error"
    },
    {
      "inputs": [],
      "name": "TransferCallerNotOwnerNorApproved",
      "type": "error"
    },
    {
      "inputs": [],
      "name": "TransferFromIncorrectOwner",
      "type": "error"
    },
    {
      "inputs": [],
      "name": "TransferToNonERC721ReceiverImplementer",
      "type": "error"
    },
    {
      "inputs": [],
      "name": "TransferToZeroAddress",
      "type": "error"
    },
    {
      "inputs": [],
      "name": "URIQueryForNonexistentToken",
      "type": "error"
    },
    {
      "anonymous": false,
      "inputs": [
        {
          "indexed": true,
          "internalType": "address",
          "name": "owner",
          "type": "address"
        },
        {
          "indexed": true,
          "internalType": "address",
          "name": "approved",
          "type": "address"
        },
        {
          "indexed": true,
          "internalType": "uint256",
          "name": "tokenId",
          "type": "uint256"
        }
      ],
      "name": "Approval",
      "type": "event"
    },
    {
      "anonymous": false,
      "inputs": [
        {
          "indexed": true,
          "internalType": "address",
          "name": "owner",
          "type": "address"
        },
        {
          "indexed": true,
          "internalType": "address",
          "name": "operator",
          "type": "address"
        },
        {
          "indexed": false,
          "internalType": "bool",
          "name": "approved",
          "type": "bool"
        }
      ],
      "name": "ApprovalForAll",
      "type": "event"
    },
    {
      "anonymous": false,
      "inputs": [
        {
          "indexed": true,
          "internalType": "address",
          "name": "operator",
          "type": "address"
        },
        {
          "indexed": false,
          "internalType": "uint256",
          "name": "tokenID",
          "type": "uint256"
        }
      ],
      "name": "Burn",
      "type": "event"
    },
    {
      "anonymous": false,
      "inputs": [
        {
          "indexed": true,
          "internalType": "address",
          "name": "operator",
          "type": "address"
        },
        {
          "indexed": false,
          "internalType": "bool",
          "name": "locked",
          "type": "bool"
        }
      ],
      "name": "Locked",
      "type": "event"
    },
    {
      "anonymous": false,
      "inputs": [
        {
          "indexed": true,
          "internalType": "address",
          "name": "operator",
          "type": "address"
        },
        {
          "indexed": true,
          "internalType": "address",
          "name": "to",
          "type": "address"
        },
        {
          "indexed": false,
          "internalType": "uint256",
          "name": "quantity",
          "type": "uint256"
        }
      ],
      "name": "Mint",
      "type": "event"
    },
    {
      "anonymous": false,
      "inputs": [
        {
          "indexed": true,
          "internalType": "address",
          "name": "operator",
          "type": "address"
        },
        {
          "indexed": false,
          "internalType": "uint256",
          "name": "quantity",
          "type": "uint256"
        }
      ],
      "name": "MintToPool",
      "type": "event"
    },
    {
      "anonymous": false,
      "inputs": [
        {
          "indexed": true,
          "internalType": "address",
          "name": "previousOwner",
          "type": "address"
        },
        {
          "indexed": true,
          "internalType": "address",
          "name": "newOwner",
          "type": "address"
        }
      ],
      "name": "OwnershipTransferred",
      "type": "event"
    },
    {
      "anonymous": false,
      "inputs": [
        {
          "indexed": true,
          "internalType": "address",
          "name": "operator",
          "type": "address"
        },
        {
          "indexed": false,
          "internalType": "address",
          "name": "pool",
          "type": "address"
        }
      ],
      "name": "SetupPool",
      "type": "event"
    },
    {
      "anonymous": false,
      "inputs": [
        {
          "indexed": true,
          "internalType": "address",
          "name": "operator",
          "type": "address"
        },
        {
          "indexed": false,
          "internalType": "bool",
          "name": "allowed",
          "type": "bool"
        }
      ],
      "name": "TradingAllowed",
      "type": "event"
    },
    {
      "anonymous": false,
      "inputs": [
        {
          "indexed": true,
          "internalType": "address",
          "name": "from",
          "type": "address"
        },
        {
          "indexed": true,
          "internalType": "address",
          "name": "to",
          "type": "address"
        },
        {
          "indexed": true,
          "internalType": "uint256",
          "name": "tokenId",
          "type": "uint256"
        }
      ],
      "name": "Transfer",
      "type": "event"
    },
    {
      "anonymous": false,
      "inputs": [
        {
          "indexed": false,
          "internalType": "string",
          "name": "",
          "type": "string"
        }
      ],
      "name": "UpdateMetadataAnimationUrl",
      "type": "event"
    },
    {
      "anonymous": false,
      "inputs": [
        {
          "indexed": false,
          "internalType": "string",
          "name": "",
          "type": "string"
        }
      ],
      "name": "UpdateMetadataExternalUrl",
      "type": "event"
    },
    {
      "anonymous": false,
      "inputs": [
        {
          "indexed": false,
          "internalType": "string",
          "name": "",
          "type": "string"
        }
      ],
      "name": "UpdateMetadataImage",
      "type": "event"
    },
    {
      "inputs": [
        {
          "internalType": "address",
          "name": "to",
          "type": "address"
        },
        {
          "internalType": "uint256",
          "name": "tokenId",
          "type": "uint256"
        }
      ],
      "name": "approve",
      "outputs": [],
      "stateMutability": "nonpayable",
      "type": "function"
    },
    {
      "inputs": [
        {
          "internalType": "address",
          "name": "owner",
          "type": "address"
        }
      ],
      "name": "balanceOf",
      "outputs": [
        {
          "internalType": "uint256",
          "name": "",
          "type": "uint256"
        }
      ],
      "stateMutability": "view",
      "type": "function"
    },
    {
      "inputs": [],
      "name": "baseURI",
      "outputs": [
        {
          "internalType": "string",
          "name": "",
          "type": "string"
        }
      ],
      "stateMutability": "view",
      "type": "function"
    },
    {
      "inputs": [
        {
          "internalType": "uint256",
          "name": "tokenId",
          "type": "uint256"
        }
      ],
      "name": "burn",
      "outputs": [],
      "stateMutability": "nonpayable",
      "type": "function"
    },
    {
      "inputs": [
        {
          "internalType": "uint256",
          "name": "tokenId",
          "type": "uint256"
        }
      ],
      "name": "getApproved",
      "outputs": [
        {
          "internalType": "address",
          "name": "",
          "type": "address"
        }
      ],
      "stateMutability": "view",
      "type": "function"
    },
    {
      "inputs": [
        {
          "internalType": "address",
          "name": "owner",
          "type": "address"
        },
        {
          "internalType": "address",
          "name": "operator",
          "type": "address"
        }
      ],
      "name": "isApprovedForAll",
      "outputs": [
        {
          "internalType": "bool",
          "name": "",
          "type": "bool"
        }
      ],
      "stateMutability": "view",
      "type": "function"
    },
    {
      "inputs": [],
      "name": "lock",
      "outputs": [],
      "stateMutability": "nonpayable",
      "type": "function"
    },
    {
      "inputs": [
        {
          "internalType": "address",
          "name": "to",
          "type": "address"
        },
        {
          "internalType": "uint256",
          "name": "quantity",
          "type": "uint256"
        }
      ],
      "name": "mint",
      "outputs": [],
      "stateMutability": "nonpayable",
      "type": "function"
    },
    {
      "inputs": [],
      "name": "name",
      "outputs": [
        {
          "internalType": "string",
          "name": "",
          "type": "string"
        }
      ],
      "stateMutability": "view",
      "type": "function"
    },
    {
      "inputs": [],
      "name": "owner",
      "outputs": [
        {
          "internalType": "address",
          "name": "",
          "type": "address"
        }
      ],
      "stateMutability": "view",
      "type": "function"
    },
    {
      "inputs": [
        {
          "internalType": "uint256",
          "name": "tokenId",
          "type": "uint256"
        }
      ],
      "name": "ownerOf",
      "outputs": [
        {
          "internalType": "address",
          "name": "",
          "type": "address"
        }
      ],
      "stateMutability": "view",
      "type": "function"
    },
    {
      "inputs": [],
      "name": "renounceOwnership",
      "outputs": [],
      "stateMutability": "nonpayable",
      "type": "function"
    },
    {
      "inputs": [
        {
          "internalType": "address",
          "name": "from",
          "type": "address"
        },
        {
          "internalType": "address",
          "name": "to",
          "type": "address"
        },
        {
          "internalType": "uint256",
          "name": "tokenId",
          "type": "uint256"
        }
      ],
      "name": "safeTransferFrom",
      "outputs": [],
      "stateMutability": "nonpayable",
      "type": "function"
    },
    {
      "inputs": [
        {
          "internalType": "address",
          "name": "from",
          "type": "address"
        },
        {
          "internalType": "address",
          "name": "to",
          "type": "address"
        },
        {
          "internalType": "uint256",
          "name": "tokenId",
          "type": "uint256"
        },
        {
          "internalType": "bytes",
          "name": "_data",
          "type": "bytes"
        }
      ],
      "name": "safeTransferFrom",
      "outputs": [],
      "stateMutability": "nonpayable",
      "type": "function"
    },
    {
      "inputs": [
        {
          "internalType": "address",
          "name": "operator",
          "type": "address"
        },
        {
          "internalType": "bool",
          "name": "approved",
          "type": "bool"
        }
      ],
      "name": "setApprovalForAll",
      "outputs": [],
      "stateMutability": "nonpayable",
      "type": "function"
    },
    {
      "inputs": [
        {
          "internalType": "string",
          "name": "_newBaseURI",
          "type": "string"
        }
      ],
      "name": "setBaseURI",
      "outputs": [],
      "stateMutability": "nonpayable",
      "type": "function"
    },
    {
      "inputs": [
        {
          "internalType": "address",
          "name": "treasury",
          "type": "address"
        }
      ],
      "name": "setTreasury",
      "outputs": [],
      "stateMutability": "nonpayable",
      "type": "function"
    },
    {
      "inputs": [
        {
          "internalType": "bytes4",
          "name": "interfaceId",
          "type": "bytes4"
        }
      ],
      "name": "supportsInterface",
      "outputs": [
        {
          "internalType": "bool",
          "name": "",
          "type": "bool"
        }
      ],
      "stateMutability": "view",
      "type": "function"
    },
    {
      "inputs": [],
      "name": "symbol",
      "outputs": [
        {
          "internalType": "string",
          "name": "",
          "type": "string"
        }
      ],
      "stateMutability": "view",
      "type": "function"
    },
    {
      "inputs": [
        {
          "internalType": "uint256",
          "name": "index",
          "type": "uint256"
        }
      ],
      "name": "tokenByIndex",
      "outputs": [
        {
          "internalType": "uint256",
          "name": "",
          "type": "uint256"
        }
      ],
      "stateMutability": "view",
      "type": "function"
    },
    {
      "inputs": [
        {
          "internalType": "address",
          "name": "owner",
          "type": "address"
        },
        {
          "internalType": "uint256",
          "name": "index",
          "type": "uint256"
        }
      ],
      "name": "tokenOfOwnerByIndex",
      "outputs": [
        {
          "internalType": "uint256",
          "name": "tokenId",
          "type": "uint256"
        }
      ],
      "stateMutability": "view",
      "type": "function"
    },
    {
      "inputs": [
        {
          "internalType": "uint256",
          "name": "tokenId",
          "type": "uint256"
        }
      ],
      "name": "tokenURI",
      "outputs": [
        {
          "internalType": "string",
          "name": "",
          "type": "string"
        }
      ],
      "stateMutability": "view",
      "type": "function"
    },
    {
      "inputs": [],
      "name": "totalSupply",
      "outputs": [
        {
          "internalType": "uint256",
          "name": "",
          "type": "uint256"
        }
      ],
      "stateMutability": "view",
      "type": "function"
    },
    {
      "inputs": [
        {
          "internalType": "address",
          "name": "from",
          "type": "address"
        },
        {
          "internalType": "address",
          "name": "to",
          "type": "address"
        },
        {
          "internalType": "uint256",
          "name": "tokenId",
          "type": "uint256"
        }
      ],
      "name": "transferFrom",
      "outputs": [],
      "stateMutability": "nonpayable",
      "type": "function"
    },
    {
      "inputs": [
        {
          "internalType": "address",
          "name": "newOwner",
          "type": "address"
        }
      ],
      "name": "transferOwnership",
      "outputs": [],
      "stateMutability": "nonpayable",
      "type": "function"
    },
    {
      "inputs": [],
      "name": "unlock",
      "outputs": [],
      "stateMutability": "nonpayable",
      "type": "function"
    }
  ],
  "bytecode": "0x60806040523480156200001157600080fd5b506040516200282b3803806200282b833981016040819052620000349162000274565b8151829082906200004d9060019060208501906200011b565b508051620000639060029060208401906200011b565b505050620000806200007a620000c560201b60201c565b620000c9565b600a805460ff1916600117905560408051608081019091526056808252620027d560208301398051620000bc916009916020909101906200011b565b5050506200032e565b3390565b600780546001600160a01b038381166001600160a01b0319831681179093556040519116919082907f8be0079c531659141344cd1fd0a4f28419497f9722a3daafe3b4186f6b6457e090600090a35050565b8280546200012990620002db565b90600052602060002090601f0160209004810192826200014d576000855562000198565b82601f106200016857805160ff191683800117855562000198565b8280016001018555821562000198579182015b82811115620001985782518255916020019190600101906200017b565b50620001a6929150620001aa565b5090565b5b80821115620001a65760008155600101620001ab565b600082601f830112620001d2578081fd5b81516001600160401b0380821115620001ef57620001ef62000318565b604051601f8301601f19908116603f011681019082821181831017156200021a576200021a62000318565b8160405283815260209250868385880101111562000236578485fd5b8491505b838210156200025957858201830151818301840152908201906200023a565b838211156200026a57848385830101525b9695505050505050565b6000806040838503121562000287578182fd5b82516001600160401b03808211156200029e578384fd5b620002ac86838701620001c1565b93506020850151915080821115620002c2578283fd5b50620002d185828601620001c1565b9150509250929050565b600181811c90821680620002f057607f821691505b602082108114156200031257634e487b7160e01b600052602260045260246000fd5b50919050565b634e487b7160e01b600052604160045260246000fd5b612497806200033e6000396000f3fe608060405234801561001057600080fd5b506004361061018e5760003560e01c80636c0360eb116100de578063a69df4b511610097578063e985e9c511610071578063e985e9c51461033b578063f0f4426014610377578063f2fde38b1461038a578063f83d08ba1461039d57600080fd5b8063a69df4b51461030d578063b88d4fde14610315578063c87b56dd1461032857600080fd5b80636c0360eb146102be57806370a08231146102c6578063715018a6146102d95780638da5cb5b146102e157806395d89b41146102f2578063a22cb465146102fa57600080fd5b80632f745c591161014b57806342966c681161012557806342966c68146102725780634f6ccce71461028557806355f804b3146102985780636352211e146102ab57600080fd5b80632f745c591461023957806340c10f191461024c57806342842e0e1461025f57600080fd5b806301ffc9a71461019357806306fdde03146101bb578063081812fc146101d0578063095ea7b3146101fb57806318160ddd1461021057806323b872dd14610226575b600080fd5b6101a66101a1366004611e51565b6103a5565b60405190151581526020015b60405180910390f35b6101c3610412565b6040516101b29190612133565b6101e36101de366004611ecf565b6104a4565b6040516001600160a01b0390911681526020016101b2565b61020e610209366004611e28565b610534565b005b61021861064c565b6040519081526020016101b2565b61020e610234366004611d3a565b610668565b610218610247366004611e28565b610699565b61020e61025a366004611e28565b61076e565b61020e61026d366004611d3a565b6107c5565b61020e610280366004611ecf565b6107e0565b610218610293366004611ecf565b610829565b61020e6102a6366004611e89565b6108f1565b6101e36102b9366004611ecf565b610910565b6101c3610924565b6102186102d4366004611ce7565b6109b2565b61020e610a8e565b6007546001600160a01b03166101e3565b6101c3610aa2565b61020e610308366004611dee565b610ab1565b61020e610b6f565b61020e610323366004611d75565b610b83565b6101c3610336366004611ecf565b610bbb565b6101a6610349366004611d08565b6001600160a01b03918216600090815260066020908152604080832093909416825291909152205460ff1690565b61020e610385366004611ce7565b610c7b565b61020e610398366004611ce7565b610cf4565b61020e610d6d565b60006001600160e01b031982166380ac58cd60e01b14806103d657506001600160e01b03198216635b5e139f60e01b145b806103f157506001600160e01b0319821663780e9d6360e01b145b8061040c57506301ffc9a760e01b6001600160e01b03198316145b92915050565b60606001805461042190612289565b80601f016020809104026020016040519081016040528092919081815260200182805461044d90612289565b801561049a5780601f1061046f5761010080835404028352916020019161049a565b820191906000526020600020905b81548152906001019060200180831161047d57829003601f168201915b5050505050905090565b60006104af82610d84565b6105185760405162461bcd60e51b815260206004820152602f60248201527f4552433732315073693a20617070726f76656420717565727920666f72206e6f60448201526e3732bc34b9ba32b73a103a37b5b2b760891b60648201526084015b60405180910390fd5b506000908152600560205260409020546001600160a01b031690565b600061053f82610910565b9050806001600160a01b0316836001600160a01b031614156105af5760405162461bcd60e51b8152602060048201526024808201527f4552433732315073693a20617070726f76616c20746f2063757272656e74206f6044820152633bb732b960e11b606482015260840161050f565b336001600160a01b03821614806105cb57506105cb8133610349565b61063d5760405162461bcd60e51b815260206004820152603b60248201527f4552433732315073693a20617070726f76652063616c6c6572206973206e6f7460448201527f206f776e6572206e6f7220617070726f76656420666f7220616c6c0000000000606482015260840161050f565b6106478383610dba565b505050565b6000610656610e28565b6004546106639190612246565b905090565b6106723382610e88565b61068e5760405162461bcd60e51b815260040161050f9061219b565b610647838383610f75565b60008060015b60016004546106ae91906121ef565b811015610719576106be81610d84565b80156106e357506106ce81610910565b6001600160a01b0316856001600160a01b0316145b1561070757838214156106f957915061040c9050565b81610703816122c4565b9250505b80610711816122c4565b91505061069f565b5060405162461bcd60e51b8152602060048201526024808201527f4552433732315073693a206f776e657220696e646578206f7574206f6620626f604482015263756e647360e01b606482015260840161050f565b61077661117a565b61078082826111d4565b6040518181526001600160a01b0383169033907fab8530f87dc9b59234c4623bf917212bb2536d647574c8e7e5da92c2ede0c9f8906020015b60405180910390a35050565b61064783838360405180602001604052806000815250610b83565b6107e861117a565b6107f1816111ee565b60405181815233907fcc16f5dbb4873280815c1ee09dbd06736cffcc184412cf7a71a0fdb75d397ca59060200160405180910390a250565b600061083361064c565b821061088f5760405162461bcd60e51b815260206004820152602560248201527f4552433732315073693a20676c6f62616c20696e646578206f7574206f6620626044820152646f756e647360d81b606482015260840161050f565b600060015b60016004546108a391906121ef565b8110156108e7576108b381610d84565b156108d557838214156108c7579392505050565b816108d1816122c4565b9250505b806108df816122c4565b915050610894565b5060009392505050565b6108f961117a565b805161090c906009906020840190611bc1565b5050565b60008061091c83611250565b509392505050565b6009805461093190612289565b80601f016020809104026020016040519081016040528092919081815260200182805461095d90612289565b80156109aa5780601f1061097f576101008083540402835291602001916109aa565b820191906000526020600020905b81548152906001019060200180831161098d57829003601f168201915b505050505081565b60006001600160a01b038216610a205760405162461bcd60e51b815260206004820152602d60248201527f4552433732315073693a2062616c616e636520717565727920666f722074686560448201526c207a65726f206164647265737360981b606482015260840161050f565b600060015b6001600454610a3491906121ef565b811015610a8757610a4481610d84565b15610a7757610a5281610910565b6001600160a01b0316846001600160a01b03161415610a7757610a74826122c4565b91505b610a80816122c4565b9050610a25565b5092915050565b610a9661117a565b610aa060006112e7565b565b60606002805461042190612289565b6001600160a01b038216331415610b0a5760405162461bcd60e51b815260206004820152601c60248201527f4552433732315073693a20617070726f766520746f2063616c6c657200000000604482015260640161050f565b3360008181526006602090815260408083206001600160a01b03871680855290835292819020805460ff191686151590811790915590519081529192917f17307eab39ab6107e8899845ad3d59bd9653f200f220920489ca2b5937696c3191016107b9565b610b7761117a565b600a805460ff19169055565b610b8d3383610e88565b610ba95760405162461bcd60e51b815260040161050f9061219b565b610bb584848484611339565b50505050565b6060610bc682610d84565b610be357604051630a14c4b560e41b815260040160405180910390fd5b6000610bee8361136e565b9050600081610bfb610412565b836009604051602001610c119493929190611fb4565b60405160208183030381529060405290506000610c4c82604051602001610c389190611f13565b604051602081830303815290604052611411565b9050600081604051602001610c619190611f6f565b60408051601f198184030181529190529695505050505050565b610c8361117a565b6001600160a01b038116610ccc5760405162461bcd60e51b815260206004820152601060248201526f496e76616c696420747265617375727960801b604482015260640161050f565b600a80546001600160a01b0390921661010002610100600160a81b0319909216919091179055565b610cfc61117a565b6001600160a01b038116610d615760405162461bcd60e51b815260206004820152602660248201527f4f776e61626c653a206e6577206f776e657220697320746865207a65726f206160448201526564647265737360d01b606482015260840161050f565b610d6a816112e7565b50565b610d7561117a565b600a805460ff19166001179055565b600881811c60009081526020919091526040812054600160ff1b60ff84161c1615610db157506000919050565b61040c82611585565b600081815260056020526040902080546001600160a01b0319166001600160a01b0384169081179091558190610def82610910565b6001600160a01b03167f8c5be1e5ebec7d5bd14f71427d1e84f3dd0314c0f7b2291e5b200ac8c7c3b92560405160405180910390a45050565b6000806008600454901c6001610e3e91906121ef565b905060005b81811015610e8357600081815260086020526040902054610e63816115aa565b610e6d90856121ef565b9350508080610e7b906122c4565b915050610e43565b505090565b6000610e9382610d84565b610ef75760405162461bcd60e51b815260206004820152602f60248201527f4552433732315073693a206f70657261746f7220717565727920666f72206e6f60448201526e3732bc34b9ba32b73a103a37b5b2b760891b606482015260840161050f565b6000610f0283610910565b9050806001600160a01b0316846001600160a01b03161480610f3d5750836001600160a01b0316610f32846104a4565b6001600160a01b0316145b80610f6d57506001600160a01b0380821660009081526006602090815260408083209388168352929052205460ff165b949350505050565b600080610f8183611250565b91509150846001600160a01b0316826001600160a01b031614610ffb5760405162461bcd60e51b815260206004820152602c60248201527f4552433732315073693a207472616e73666572206f6620746f6b656e2074686160448201526b3a1034b9903737ba1037bbb760a11b606482015260840161050f565b6001600160a01b0384166110615760405162461bcd60e51b815260206004820152602760248201527f4552433732315073693a207472616e7366657220746f20746865207a65726f206044820152666164647265737360c81b606482015260840161050f565b61106e85858560016115c9565b611079600084610dba565b60006110868460016121ef565b600881901c600090815260208190526040902054909150600160ff1b60ff83161c161580156110c2575060016004546110bf91906121ef565b81105b156110f857600081815260036020526040812080546001600160a01b0319166001600160a01b0389161790556110f89082611640565b600084815260036020526040902080546001600160a01b0319166001600160a01b03871617905581841461113157611131600085611640565b83856001600160a01b0316876001600160a01b03167fddf252ad1be2c89b69c2b068fc378daa952ba7f163c4a11628f55a4df523b3ef60405160405180910390a4505050505050565b6007546001600160a01b03163314610aa05760405162461bcd60e51b815260206004820181905260248201527f4f776e61626c653a2063616c6c6572206973206e6f7420746865206f776e6572604482015260640161050f565b61090c82826040518060200160405280600081525061166c565b60006111f982610910565b90506112098160008460016115c9565b611214600883611640565b60405182906000906001600160a01b038416907fddf252ad1be2c89b69c2b068fc378daa952ba7f163c4a11628f55a4df523b3ef908390a45050565b60008061125c83610d84565b6112bd5760405162461bcd60e51b815260206004820152602c60248201527f4552433732315073693a206f776e657220717565727920666f72206e6f6e657860448201526b34b9ba32b73a103a37b5b2b760a11b606482015260840161050f565b6112c683611687565b6000818152600360205260409020546001600160a01b031694909350915050565b600780546001600160a01b038381166001600160a01b0319831681179093556040519116919082907f8be0079c531659141344cd1fd0a4f28419497f9722a3daafe3b4186f6b6457e090600090a35050565b611344848484610f75565b611352848484600185611693565b610bb55760405162461bcd60e51b815260040161050f90612146565b6060600061137b836117d6565b600101905060008167ffffffffffffffff8111156113a957634e487b7160e01b600052604160045260246000fd5b6040519080825280601f01601f1916602001820160405280156113d3576020820181803683370190505b5090508181016020015b600019016f181899199a1a9b1b9c1cb0b131b232b360811b600a86061a8153600a850494508461140c5761091c565b6113dd565b805160609080611431575050604080516020810190915260008152919050565b600060036114408360026121ef565b61144a9190612207565b611455906004612227565b905060006114648260206121ef565b67ffffffffffffffff81111561148a57634e487b7160e01b600052604160045260246000fd5b6040519080825280601f01601f1916602001820160405280156114b4576020820181803683370190505b5090506000604051806060016040528060408152602001612322604091399050600181016020830160005b86811015611540576003818a01810151603f601282901c8116860151600c83901c8216870151600684901c831688015192909316870151600891821b60ff94851601821b92841692909201901b91160160e01b8352600490920191016114df565b50600386066001811461155a576002811461156b57611577565b613d3d60f01b600119830152611577565b603d60f81b6000198301525b505050918152949350505050565b60008160011115801561040c575060016004546115a291906121ef565b821092915050565b60005b81156115c4576000198201909116906001016115ad565b919050565b6001600160a01b038416158015906115f45750600a546001600160a01b038581166101009092041614155b15610bb557600a5460ff1615610bb55760405162461bcd60e51b8152602060048201526011602482015270131bdbdd1b1bdd081a5cc81b1bd8dad959607a1b604482015260640161050f565b600881901c600090815260209290925260409091208054600160ff1b60ff9093169290921c9091179055565b60045461167984846118ae565b611352600085838686611693565b600061040c8183611a39565b60006001600160a01b0385163b156117c957506001835b6116b484866121ef565b8110156117c357604051630a85bd0160e11b81526001600160a01b0387169063150b7a02906116ed9033908b90869089906004016120f6565b602060405180830381600087803b15801561170757600080fd5b505af1925050508015611737575060408051601f3d908101601f1916820190925261173491810190611e6d565b60015b611791573d808015611765576040519150601f19603f3d011682016040523d82523d6000602084013e61176a565b606091505b5080516117895760405162461bcd60e51b815260040161050f90612146565b805181602001fd5b8280156117ae57506001600160e01b03198116630a85bd0160e11b145b925050806117bb816122c4565b9150506116aa565b506117cd565b5060015b95945050505050565b60008072184f03e93ff9f4daa797ed6e38ed64bf6a1f0160401b83106118155772184f03e93ff9f4daa797ed6e38ed64bf6a1f0160401b830492506040015b6d04ee2d6d415b85acef81000000008310611841576d04ee2d6d415b85acef8100000000830492506020015b662386f26fc10000831061185f57662386f26fc10000830492506010015b6305f5e1008310611877576305f5e100830492506008015b612710831061188b57612710830492506004015b6064831061189d576064830492506002015b600a831061040c5760010192915050565b60006004546118bb600190565b6118c591906121ef565b9050600082116119255760405162461bcd60e51b815260206004820152602560248201527f4552433732315073693a207175616e74697479206d7573742062652067726561604482015264074657220360dc1b606482015260840161050f565b6001600160a01b0383166119875760405162461bcd60e51b815260206004820152602360248201527f4552433732315073693a206d696e7420746f20746865207a65726f206164647260448201526265737360e81b606482015260840161050f565b61199460008483856115c9565b81600460008282546119a691906121ef565b9091555050600081815260036020526040812080546001600160a01b0319166001600160a01b0386161790556119dc9082611640565b805b6119e883836121ef565b811015610bb55760405181906001600160a01b038616906000907fddf252ad1be2c89b69c2b068fc378daa952ba7f163c4a11628f55a4df523b3ef908290a480611a31816122c4565b9150506119de565b600881901c60008181526020849052604081205490919060ff808516919082181c8015611a7b57611a6981611b31565b60ff168203600884901b179350611b28565b60008311611ae85760405162461bcd60e51b815260206004820152603460248201527f4269744d6170733a205468652073657420626974206265666f7265207468652060448201527334b73232bc103237b2b9b713ba1032bc34b9ba1760611b606482015260840161050f565b506000199091016000818152602086905260409020549091908015611b2357611b1081611b31565b60ff0360ff16600884901b179350611b28565b611a7b565b50505092915050565b60006040518061012001604052806101008152602001612362610100913960f87e818283848586878898a8b8c8d8e8f929395969799a9b9d9e9faaeb6bedeeff611b7a85611ba9565b02901c81518110611b9b57634e487b7160e01b600052603260045260246000fd5b016020015160f81c92915050565b6000808211611bb757600080fd5b5060008190031690565b828054611bcd90612289565b90600052602060002090601f016020900481019282611bef5760008555611c35565b82601f10611c0857805160ff1916838001178555611c35565b82800160010185558215611c35579182015b82811115611c35578251825591602001919060010190611c1a565b50611c41929150611c45565b5090565b5b80821115611c415760008155600101611c46565b600067ffffffffffffffff80841115611c7557611c756122f5565b604051601f8501601f19908116603f01168101908282118183101715611c9d57611c9d6122f5565b81604052809350858152868686011115611cb657600080fd5b858560208301376000602087830101525050509392505050565b80356001600160a01b03811681146115c457600080fd5b600060208284031215611cf8578081fd5b611d0182611cd0565b9392505050565b60008060408385031215611d1a578081fd5b611d2383611cd0565b9150611d3160208401611cd0565b90509250929050565b600080600060608486031215611d4e578081fd5b611d5784611cd0565b9250611d6560208501611cd0565b9150604084013590509250925092565b60008060008060808587031215611d8a578081fd5b611d9385611cd0565b9350611da160208601611cd0565b925060408501359150606085013567ffffffffffffffff811115611dc3578182fd5b8501601f81018713611dd3578182fd5b611de287823560208401611c5a565b91505092959194509250565b60008060408385031215611e00578182fd5b611e0983611cd0565b915060208301358015158114611e1d578182fd5b809150509250929050565b60008060408385031215611e3a578182fd5b611e4383611cd0565b946020939093013593505050565b600060208284031215611e62578081fd5b8135611d018161230b565b600060208284031215611e7e578081fd5b8151611d018161230b565b600060208284031215611e9a578081fd5b813567ffffffffffffffff811115611eb0578182fd5b8201601f81018413611ec0578182fd5b610f6d84823560208401611c5a565b600060208284031215611ee0578081fd5b5035919050565b60008151808452611eff81602086016020860161225d565b601f01601f19169290920160200192915050565b60008251611f2581846020870161225d565b7f2c20226465736372697074696f6e223a2022506c61794573746174657320417292019182525071636164652053746174696f6e204e4654227d60701b6020820152603201919050565b7f646174613a6170706c69636174696f6e2f6a736f6e3b6261736536342c000000815260008251611fa781601d85016020870161225d565b91909101601d0192915050565b6603d9134b2111d160cd1b815284516000906020611fd88260078601838b0161225d565b6a1610113730b6b2911d101160a91b60079285019283015286516120028160128501848b0161225d565b61202360f01b6012939091019283015285516120248160148501848a0161225d565b6c1116101134b6b0b3b2911d101160991b6014939091019283015284546021908490600181811c908083168061205b57607f831692505b86831081141561207957634e487b7160e01b89526022600452602489fd5b80801561208d57600181146120a2576120d2565b60ff19851689880152838901870195506120d2565b60008c8152602090208a5b858110156120c85781548b82018a01529084019089016120ad565b505086848a010195505b50505050506120e881601160f91b815260010190565b9a9950505050505050505050565b6001600160a01b038581168252841660208201526040810183905260806060820181905260009061212990830184611ee7565b9695505050505050565b602081526000611d016020830184611ee7565b60208082526035908201527f4552433732315073693a207472616e7366657220746f206e6f6e20455243373260408201527418a932b1b2b4bb32b91034b6b83632b6b2b73a32b960591b606082015260800190565b60208082526034908201527f4552433732315073693a207472616e736665722063616c6c6572206973206e6f6040820152731d081bdddb995c881b9bdc88185c1c1c9bdd995960621b606082015260800190565b60008219821115612202576122026122df565b500190565b60008261222257634e487b7160e01b81526012600452602481fd5b500490565b6000816000190483118215151615612241576122416122df565b500290565b600082821015612258576122586122df565b500390565b60005b83811015612278578181015183820152602001612260565b83811115610bb55750506000910152565b600181811c9082168061229d57607f821691505b602082108114156122be57634e487b7160e01b600052602260045260246000fd5b50919050565b60006000198214156122d8576122d86122df565b5060010190565b634e487b7160e01b600052601160045260246000fd5b634e487b7160e01b600052604160045260246000fd5b6001600160e01b031981168114610d6a57600080fdfe4142434445464748494a4b4c4d4e4f505152535455565758595a6162636465666768696a6b6c6d6e6f707172737475767778797a303132333435363738392b2f0001020903110a19042112290b311a3905412245134d2a550c5d32651b6d3a7506264262237d468514804e8d2b95569d0d495ea533a966b11c886eb93bc176c9071727374353637324837e9b47af86c7155181ad4fd18ed32c9096db57d59ee30e2e4a6a5f92a6be3498aae067ddb2eb1d5989b56fd7baf33ca0c2ee77e5caf7ff0810182028303840444c545c646c7425617c847f8c949c48a4a8b087b8c0c816365272829aaec650acd0d28fdad4e22d6991bd97dfdcea58b4d6f29fede4f6fe0f1f2f3f4b5b6b607b8b93a3a7b7bf357199c5abcfd9e168bcdee9b3f1ecf5fd1e3e5a7a8aa2b670c4ced8bbe8f0f4fc3d79a1c3cde7effb78cce6facbf9f8a264697066735822122009d11bc23b0236ab604c4d6582dcc11c123f44fab3fc21aef4b309f3686e5bac64736f6c6343000804003368747470733a2f2f706c6179657374617465732e6d7970696e6174612e636c6f75642f697066732f516d537a6152534851367965595065376f5232756d7941434638346f7452324477436d545558344c727267763963",
  "linkReferences": {},
  "deployedLinkReferences": {}
}