{
  "_format": "hh-sol-artifact-1",
  "contractName": "GiftContractV2",
  "sourceName": "contracts/airdrop/GiftContractV2.sol",
  "abi": [
    {
      "inputs": [],
      "stateMutability": "nonpayable",
      "type": "constructor"
    },
    {
      "anonymous": false,
      "inputs": [
        {
          "indexed": true,
          "internalType": "address",
          "name": "owner",
          "type": "address"
        },
        {
          "indexed": true,
          "internalType": "uint256",
          "name": "txIndex",
          "type": "uint256"
        }
      ],
      "name": "Confirm",
      "type": "event"
    },
    {
      "anonymous": false,
      "inputs": [
        {
          "indexed": true,
          "internalType": "address",
          "name": "owner",
          "type": "address"
        },
        {
          "indexed": true,
          "internalType": "uint256",
          "name": "txIndex",
          "type": "uint256"
        }
      ],
      "name": "ConfirmAndExecute",
      "type": "event"
    },
    {
      "anonymous": false,
      "inputs": [
        {
          "indexed": true,
          "internalType": "address",
          "name": "owner",
          "type": "address"
        },
        {
          "indexed": true,
          "internalType": "uint256",
          "name": "txIndex",
          "type": "uint256"
        }
      ],
      "name": "Execute",
      "type": "event"
    },
    {
      "anonymous": false,
      "inputs": [
        {
          "indexed": true,
          "internalType": "address",
          "name": "",
          "type": "address"
        },
        {
          "indexed": false,
          "internalType": "uint8",
          "name": "",
          "type": "uint8"
        },
        {
          "indexed": false,
          "internalType": "uint256",
          "name": "",
          "type": "uint256"
        }
      ],
      "name": "Gift",
      "type": "event"
    },
    {
      "anonymous": false,
      "inputs": [
        {
          "indexed": true,
          "internalType": "address",
          "name": "",
          "type": "address"
        },
        {
          "indexed": false,
          "internalType": "uint256[]",
          "name": "",
          "type": "uint256[]"
        }
      ],
      "name": "GiftEx",
      "type": "event"
    },
    {
      "anonymous": false,
      "inputs": [
        {
          "indexed": true,
          "internalType": "address[]",
          "name": "",
          "type": "address[]"
        },
        {
          "indexed": false,
          "internalType": "uint256[]",
          "name": "",
          "type": "uint256[]"
        }
      ],
      "name": "GiftToAll",
      "type": "event"
    },
    {
      "anonymous": false,
      "inputs": [
        {
          "indexed": true,
          "internalType": "address",
          "name": "owner",
          "type": "address"
        },
        {
          "indexed": true,
          "internalType": "uint256",
          "name": "txIndex",
          "type": "uint256"
        }
      ],
      "name": "Revoke",
      "type": "event"
    },
    {
      "anonymous": false,
      "inputs": [
        {
          "indexed": true,
          "internalType": "bytes32",
          "name": "role",
          "type": "bytes32"
        },
        {
          "indexed": true,
          "internalType": "bytes32",
          "name": "previousAdminRole",
          "type": "bytes32"
        },
        {
          "indexed": true,
          "internalType": "bytes32",
          "name": "newAdminRole",
          "type": "bytes32"
        }
      ],
      "name": "RoleAdminChanged",
      "type": "event"
    },
    {
      "anonymous": false,
      "inputs": [
        {
          "indexed": true,
          "internalType": "bytes32",
          "name": "role",
          "type": "bytes32"
        },
        {
          "indexed": true,
          "internalType": "address",
          "name": "account",
          "type": "address"
        },
        {
          "indexed": true,
          "internalType": "address",
          "name": "sender",
          "type": "address"
        }
      ],
      "name": "RoleGranted",
      "type": "event"
    },
    {
      "anonymous": false,
      "inputs": [
        {
          "indexed": true,
          "internalType": "bytes32",
          "name": "role",
          "type": "bytes32"
        },
        {
          "indexed": true,
          "internalType": "address",
          "name": "account",
          "type": "address"
        },
        {
          "indexed": true,
          "internalType": "address",
          "name": "sender",
          "type": "address"
        }
      ],
      "name": "RoleRevoked",
      "type": "event"
    },
    {
      "anonymous": false,
      "inputs": [
        {
          "indexed": true,
          "internalType": "address",
          "name": "owner",
          "type": "address"
        },
        {
          "indexed": true,
          "internalType": "uint256",
          "name": "txIndex",
          "type": "uint256"
        },
        {
          "indexed": true,
          "internalType": "address",
          "name": "to",
          "type": "address"
        },
        {
          "indexed": false,
          "internalType": "uint8",
          "name": "tierIndex",
          "type": "uint8"
        },
        {
          "indexed": false,
          "internalType": "uint256",
          "name": "tokenId",
          "type": "uint256"
        },
        {
          "indexed": false,
          "internalType": "bytes",
          "name": "data",
          "type": "bytes"
        }
      ],
      "name": "Submit",
      "type": "event"
    },
    {
      "anonymous": false,
      "inputs": [
        {
          "indexed": true,
          "internalType": "address",
          "name": "owner",
          "type": "address"
        },
        {
          "indexed": true,
          "internalType": "uint256",
          "name": "txIndex",
          "type": "uint256"
        },
        {
          "indexed": true,
          "internalType": "address",
          "name": "to",
          "type": "address"
        },
        {
          "indexed": false,
          "internalType": "uint8",
          "name": "tierIndex",
          "type": "uint8"
        },
        {
          "indexed": false,
          "internalType": "uint256",
          "name": "tokenId",
          "type": "uint256"
        },
        {
          "indexed": false,
          "internalType": "bytes",
          "name": "data",
          "type": "bytes"
        }
      ],
      "name": "SubmitAndConfirm",
      "type": "event"
    },
    {
      "anonymous": false,
      "inputs": [
        {
          "indexed": true,
          "internalType": "address",
          "name": "operator",
          "type": "address"
        },
        {
          "indexed": false,
          "internalType": "uint8",
          "name": "tierIndex",
          "type": "uint8"
        },
        {
          "indexed": false,
          "internalType": "uint256",
          "name": "limit",
          "type": "uint256"
        }
      ],
      "name": "UpdateGiftLimit",
      "type": "event"
    },
    {
      "anonymous": false,
      "inputs": [
        {
          "indexed": false,
          "internalType": "address",
          "name": "operator",
          "type": "address"
        },
        {
          "indexed": false,
          "internalType": "uint16[]",
          "name": "reserves",
          "type": "uint16[]"
        }
      ],
      "name": "UpdateGiftReserves",
      "type": "event"
    },
    {
      "inputs": [],
      "name": "DEFAULT_ADMIN_ROLE",
      "outputs": [
        {
          "internalType": "bytes32",
          "name": "",
          "type": "bytes32"
        }
      ],
      "stateMutability": "view",
      "type": "function"
    },
    {
      "inputs": [],
      "name": "MINTER_ROLE",
      "outputs": [
        {
          "internalType": "bytes32",
          "name": "",
          "type": "bytes32"
        }
      ],
      "stateMutability": "view",
      "type": "function"
    },
    {
      "inputs": [],
      "name": "OWNER_ROLE",
      "outputs": [
        {
          "internalType": "bytes32",
          "name": "",
          "type": "bytes32"
        }
      ],
      "stateMutability": "view",
      "type": "function"
    },
    {
      "inputs": [
        {
          "internalType": "address",
          "name": "owner",
          "type": "address"
        },
        {
          "internalType": "uint8",
          "name": "tierIndex",
          "type": "uint8"
        }
      ],
      "name": "balanceOf",
      "outputs": [
        {
          "internalType": "uint256",
          "name": "",
          "type": "uint256"
        }
      ],
      "stateMutability": "view",
      "type": "function"
    },
    {
      "inputs": [
        {
          "internalType": "uint256",
          "name": "_txIndex",
          "type": "uint256"
        }
      ],
      "name": "confirm",
      "outputs": [],
      "stateMutability": "nonpayable",
      "type": "function"
    },
    {
      "inputs": [
        {
          "internalType": "uint256",
          "name": "_txIndex",
          "type": "uint256"
        }
      ],
      "name": "confirmAndExecute",
      "outputs": [],
      "stateMutability": "nonpayable",
      "type": "function"
    },
    {
      "inputs": [],
      "name": "confirmsRequired",
      "outputs": [
        {
          "internalType": "uint256",
          "name": "",
          "type": "uint256"
        }
      ],
      "stateMutability": "view",
      "type": "function"
    },
    {
      "inputs": [
        {
          "internalType": "uint256",
          "name": "_txIndex",
          "type": "uint256"
        }
      ],
      "name": "execute",
      "outputs": [],
      "stateMutability": "nonpayable",
      "type": "function"
    },
    {
      "inputs": [
        {
          "internalType": "uint8",
          "name": "_tierIndex",
          "type": "uint8"
        }
      ],
      "name": "getActiveTokenIds",
      "outputs": [
        {
          "internalType": "uint256[]",
          "name": "",
          "type": "uint256[]"
        }
      ],
      "stateMutability": "view",
      "type": "function"
    },
    {
      "inputs": [
        {
          "internalType": "uint8",
          "name": "_tierIndex",
          "type": "uint8"
        }
      ],
      "name": "getActiveTxnCount",
      "outputs": [
        {
          "internalType": "uint256",
          "name": "",
          "type": "uint256"
        }
      ],
      "stateMutability": "view",
      "type": "function"
    },
    {
      "inputs": [
        {
          "internalType": "uint8",
          "name": "_tierIndex",
          "type": "uint8"
        }
      ],
      "name": "getGiftedList",
      "outputs": [
        {
          "internalType": "uint256[]",
          "name": "",
          "type": "uint256[]"
        }
      ],
      "stateMutability": "view",
      "type": "function"
    },
    {
      "inputs": [
        {
          "internalType": "bytes32",
          "name": "role",
          "type": "bytes32"
        }
      ],
      "name": "getRoleAdmin",
      "outputs": [
        {
          "internalType": "bytes32",
          "name": "",
          "type": "bytes32"
        }
      ],
      "stateMutability": "view",
      "type": "function"
    },
    {
      "inputs": [
        {
          "internalType": "uint256",
          "name": "_txIndex",
          "type": "uint256"
        }
      ],
      "name": "getTransaction",
      "outputs": [
        {
          "internalType": "address",
          "name": "to",
          "type": "address"
        },
        {
          "internalType": "uint8",
          "name": "tierIndex",
          "type": "uint8"
        },
        {
          "internalType": "uint256",
          "name": "tokenId",
          "type": "uint256"
        },
        {
          "internalType": "bytes",
          "name": "data",
          "type": "bytes"
        },
        {
          "internalType": "bool",
          "name": "executed",
          "type": "bool"
        },
        {
          "internalType": "bool",
          "name": "reverted",
          "type": "bool"
        },
        {
          "internalType": "uint256",
          "name": "numConfirmations",
          "type": "uint256"
        }
      ],
      "stateMutability": "view",
      "type": "function"
    },
    {
      "inputs": [],
      "name": "getTransactionCount",
      "outputs": [
        {
          "internalType": "uint256",
          "name": "",
          "type": "uint256"
        }
      ],
      "stateMutability": "view",
      "type": "function"
    },
    {
      "inputs": [
        {
          "internalType": "uint8",
          "name": "",
          "type": "uint8"
        }
      ],
      "name": "giftLimit",
      "outputs": [
        {
          "internalType": "uint16",
          "name": "",
          "type": "uint16"
        }
      ],
      "stateMutability": "view",
      "type": "function"
    },
    {
      "inputs": [
        {
          "internalType": "address",
          "name": "",
          "type": "address"
        },
        {
          "internalType": "uint8",
          "name": "",
          "type": "uint8"
        }
      ],
      "name": "giftList",
      "outputs": [
        {
          "internalType": "uint256",
          "name": "",
          "type": "uint256"
        }
      ],
      "stateMutability": "view",
      "type": "function"
    },
    {
      "inputs": [
        {
          "internalType": "uint8",
          "name": "",
          "type": "uint8"
        }
      ],
      "name": "giftReserves",
      "outputs": [
        {
          "internalType": "uint16",
          "name": "",
          "type": "uint16"
        }
      ],
      "stateMutability": "view",
      "type": "function"
    },
    {
      "inputs": [
        {
          "internalType": "address",
          "name": "",
          "type": "address"
        },
        {
          "internalType": "uint8",
          "name": "",
          "type": "uint8"
        }
      ],
      "name": "giftSubmitList",
      "outputs": [
        {
          "internalType": "uint256",
          "name": "",
          "type": "uint256"
        }
      ],
      "stateMutability": "view",
      "type": "function"
    },
    {
      "inputs": [
        {
          "internalType": "bytes32",
          "name": "role",
          "type": "bytes32"
        },
        {
          "internalType": "address",
          "name": "account",
          "type": "address"
        }
      ],
      "name": "grantRole",
      "outputs": [],
      "stateMutability": "nonpayable",
      "type": "function"
    },
    {
      "inputs": [
        {
          "internalType": "bytes32",
          "name": "role",
          "type": "bytes32"
        },
        {
          "internalType": "address",
          "name": "account",
          "type": "address"
        }
      ],
      "name": "hasRole",
      "outputs": [
        {
          "internalType": "bool",
          "name": "",
          "type": "bool"
        }
      ],
      "stateMutability": "view",
      "type": "function"
    },
    {
      "inputs": [
        {
          "internalType": "address",
          "name": "_lootlotToken",
          "type": "address"
        },
        {
          "internalType": "address",
          "name": "_roosterwarsToken",
          "type": "address"
        },
        {
          "internalType": "address",
          "name": "_lootlotPool",
          "type": "address"
        },
        {
          "internalType": "address",
          "name": "_roosterwarsPool",
          "type": "address"
        }
      ],
      "name": "initialize",
      "outputs": [],
      "stateMutability": "nonpayable",
      "type": "function"
    },
    {
      "inputs": [
        {
          "internalType": "uint256",
          "name": "",
          "type": "uint256"
        },
        {
          "internalType": "address",
          "name": "",
          "type": "address"
        }
      ],
      "name": "isConfirmed",
      "outputs": [
        {
          "internalType": "bool",
          "name": "",
          "type": "bool"
        }
      ],
      "stateMutability": "view",
      "type": "function"
    },
    {
      "inputs": [
        {
          "internalType": "uint8",
          "name": "_tierIndex",
          "type": "uint8"
        },
        {
          "internalType": "uint256",
          "name": "_tokenId",
          "type": "uint256"
        }
      ],
      "name": "isTokenSubmitted",
      "outputs": [
        {
          "internalType": "bool",
          "name": "",
          "type": "bool"
        }
      ],
      "stateMutability": "view",
      "type": "function"
    },
    {
      "inputs": [],
      "name": "lootlotPool",
      "outputs": [
        {
          "internalType": "address",
          "name": "",
          "type": "address"
        }
      ],
      "stateMutability": "view",
      "type": "function"
    },
    {
      "inputs": [],
      "name": "lootlotToken",
      "outputs": [
        {
          "internalType": "address",
          "name": "",
          "type": "address"
        }
      ],
      "stateMutability": "view",
      "type": "function"
    },
    {
      "inputs": [
        {
          "internalType": "bytes32",
          "name": "role",
          "type": "bytes32"
        },
        {
          "internalType": "address",
          "name": "account",
          "type": "address"
        }
      ],
      "name": "renounceRole",
      "outputs": [],
      "stateMutability": "nonpayable",
      "type": "function"
    },
    {
      "inputs": [
        {
          "internalType": "uint256",
          "name": "_txIndex",
          "type": "uint256"
        }
      ],
      "name": "revoke",
      "outputs": [],
      "stateMutability": "nonpayable",
      "type": "function"
    },
    {
      "inputs": [
        {
          "internalType": "bytes32",
          "name": "role",
          "type": "bytes32"
        },
        {
          "internalType": "address",
          "name": "account",
          "type": "address"
        }
      ],
      "name": "revokeRole",
      "outputs": [],
      "stateMutability": "nonpayable",
      "type": "function"
    },
    {
      "inputs": [],
      "name": "roosterwarsPool",
      "outputs": [
        {
          "internalType": "address",
          "name": "",
          "type": "address"
        }
      ],
      "stateMutability": "view",
      "type": "function"
    },
    {
      "inputs": [],
      "name": "roosterwarsToken",
      "outputs": [
        {
          "internalType": "address",
          "name": "",
          "type": "address"
        }
      ],
      "stateMutability": "view",
      "type": "function"
    },
    {
      "inputs": [
        {
          "internalType": "uint8",
          "name": "tierIndex",
          "type": "uint8"
        },
        {
          "internalType": "uint8",
          "name": "limit",
          "type": "uint8"
        }
      ],
      "name": "setGiftLimit",
      "outputs": [],
      "stateMutability": "nonpayable",
      "type": "function"
    },
    {
      "inputs": [
        {
          "internalType": "uint16[]",
          "name": "reserves",
          "type": "uint16[]"
        }
      ],
      "name": "setGiftReserve",
      "outputs": [],
      "stateMutability": "nonpayable",
      "type": "function"
    },
    {
      "inputs": [
        {
          "internalType": "uint256",
          "name": "number",
          "type": "uint256"
        }
      ],
      "name": "setNumConfirms",
      "outputs": [],
      "stateMutability": "nonpayable",
      "type": "function"
    },
    {
      "inputs": [
        {
          "internalType": "address",
          "name": "_lootlot",
          "type": "address"
        },
        {
          "internalType": "address",
          "name": "_roosterwars",
          "type": "address"
        }
      ],
      "name": "setupNFT",
      "outputs": [],
      "stateMutability": "nonpayable",
      "type": "function"
    },
    {
      "inputs": [
        {
          "internalType": "address",
          "name": "_lootlot",
          "type": "address"
        },
        {
          "internalType": "address",
          "name": "_roosterwars",
          "type": "address"
        }
      ],
      "name": "setupTreasury",
      "outputs": [],
      "stateMutability": "nonpayable",
      "type": "function"
    },
    {
      "inputs": [
        {
          "internalType": "address",
          "name": "_to",
          "type": "address"
        },
        {
          "internalType": "uint8",
          "name": "_tierIndex",
          "type": "uint8"
        },
        {
          "internalType": "uint256",
          "name": "_tokenId",
          "type": "uint256"
        },
        {
          "internalType": "bytes",
          "name": "_data",
          "type": "bytes"
        }
      ],
      "name": "submit",
      "outputs": [],
      "stateMutability": "nonpayable",
      "type": "function"
    },
    {
      "inputs": [
        {
          "internalType": "address",
          "name": "_to",
          "type": "address"
        },
        {
          "internalType": "uint8",
          "name": "_tierIndex",
          "type": "uint8"
        },
        {
          "internalType": "uint256",
          "name": "_tokenId",
          "type": "uint256"
        },
        {
          "internalType": "bytes",
          "name": "_data",
          "type": "bytes"
        }
      ],
      "name": "submitAndConfirm",
      "outputs": [],
      "stateMutability": "nonpayable",
      "type": "function"
    },
    {
      "inputs": [
        {
          "internalType": "bytes4",
          "name": "interfaceId",
          "type": "bytes4"
        }
      ],
      "name": "supportsInterface",
      "outputs": [
        {
          "internalType": "bool",
          "name": "",
          "type": "bool"
        }
      ],
      "stateMutability": "view",
      "type": "function"
    },
    {
      "inputs": [
        {
          "internalType": "uint8",
          "name": "tierIndex",
          "type": "uint8"
        }
      ],
      "name": "totalSupply",
      "outputs": [
        {
          "internalType": "uint256",
          "name": "",
          "type": "uint256"
        }
      ],
      "stateMutability": "view",
      "type": "function"
    },
    {
      "inputs": [
        {
          "internalType": "uint256",
          "name": "",
          "type": "uint256"
        }
      ],
      "name": "txns",
      "outputs": [
        {
          "internalType": "uint256",
          "name": "tokenId",
          "type": "uint256"
        },
        {
          "internalType": "uint256",
          "name": "confirms",
          "type": "uint256"
        },
        {
          "internalType": "bytes",
          "name": "data",
          "type": "bytes"
        },
        {
          "internalType": "address",
          "name": "to",
          "type": "address"
        },
        {
          "internalType": "uint8",
          "name": "tierIndex",
          "type": "uint8"
        },
        {
          "internalType": "bool",
          "name": "executed",
          "type": "bool"
        },
        {
          "internalType": "bool",
          "name": "reverted",
          "type": "bool"
        }
      ],
      "stateMutability": "view",
      "type": "function"
    }
  ],
  "bytecode": "0x60806040523480156200001157600080fd5b506200001f6000336200007d565b6200004b7f9f2df0fed2c77648de5860a4cc508cd0818c85b8b8a1ab4ceeef8d981c8956a6336200007d565b620000777fb19546dff01e856fb3f010c267a7b1c60363cf8a4664e21cc89c26224620214e336200007d565b6200011e565b6000828152602081815260408083206001600160a01b038516845290915290205460ff166200011a576000828152602081815260408083206001600160a01b03851684529091529020805460ff19166001179055620000d93390565b6001600160a01b0316816001600160a01b0316837f2f8788117e7eff1d82e926ec794901d17c78024a50270940304540a733656f0d60405160405180910390a45b5050565b613357806200012e6000396000f3fe608060405234801561001057600080fd5b50600436106102485760003560e01c80639190ccb11161013b578063d9cae156116100b8578063e8d866c41161007c578063e8d866c4146105fc578063f7fb459a1461060f578063f8c8765e14610622578063fba522c614610635578063fe0d94c11461064857600080fd5b8063d9cae15614610575578063daa10560146105a0578063df73485f146105c6578063e50b7061146105cf578063e58378bb146105e757600080fd5b8063c849cad6116100ff578063c849cad6146104eb578063cb78d9c6146104fe578063d539139314610529578063d547741f1461053e578063d8ab14b01461055157600080fd5b80639190ccb11461047a57806391d148541461048d578063937817d4146104a0578063a217fddf146104d0578063ba0179b5146104d857600080fd5b806332149be2116101c95780635dcab34b1161018d5780635dcab34b146103e857806367412045146103fb5780636c94cfdf1461040e5780636e0b572b1461043957806380f59a651461044c57600080fd5b806332149be21461034257806333ea3dc81461037957806336568abe1461039f5780633fe7df0c146103b2578063496d9f44146103c557600080fd5b80631dc7bcf3116102105780631dc7bcf3146102d157806320c5429b146102f1578063248a9ca3146103045780632e7700f0146103275780632f2ff15d1461032f57600080fd5b806301ffc9a71461024d578063059ea553146102755780630d12aa00146102965780630dcae148146102ab578063142ca501146102be575b600080fd5b61026061025b366004612e52565b61065b565b60405190151581526020015b60405180910390f35b610288610283366004612e7a565b610692565b60405190815260200161026c565b6102a96102a4366004612bdb565b610887565b005b6102a96102b9366004612bdb565b61098f565b6102a96102cc366004612ca2565b610a98565b6102e46102df366004612e7a565b610b6d565b60405161026c9190613022565b6102a96102ff366004612e16565b610bd3565b610288610312366004612e16565b60009081526020819052604090206001015490565b600f54610288565b6102a961033d366004612e2e565b610d53565b610366610350366004612e7a565b60066020526000908152604090205461ffff1681565b60405161ffff909116815260200161026c565b61038c610387366004612e16565b610d7d565b60405161026c9796959493929190612fd3565b6102a96103ad366004612e2e565b610ea4565b6102a96103c0366004612ebd565b610f22565b6102886103d3366004612e7a565b60ff1660009081526007602052604090205490565b6102a96103f6366004612d5c565b610fe9565b610288610409366004612c6e565b6110f7565b600454610421906001600160a01b031681565b6040516001600160a01b03909116815260200161026c565b6102a9610447366004612e16565b611172565b61026061045a366004612e2e565b600d60209081526000928352604080842090915290825290205460ff1681565b600254610421906001600160a01b031681565b61026061049b366004612e2e565b6111dc565b6102606104ae366004612e94565b60ff918216600090815260096020908152604080832093835292905220541690565b610288600081565b6102a96104e6366004612e16565b611205565b6102a96104f9366004612e16565b6113e9565b61028861050c366004612c6e565b600c60209081526000928352604080842090915290825290205481565b61028860008051602061330283398151915281565b6102a961054c366004612e2e565b61164a565b61036661055f366004612e7a565b60056020526000908152604090205461ffff1681565b610288610583366004612c6e565b600b60209081526000928352604080842090915290825290205481565b6105b36105ae366004612e16565b61166f565b60405161026c9796959493929190613121565b610288600e5481565b6001546104219061010090046001600160a01b031681565b6102886000805160206132e283398151915281565b600354610421906001600160a01b031681565b6102a961061d366004612ca2565b611761565b6102a9610630366004612c13565b61181d565b6102e4610643366004612e7a565b6119e5565b6102a9610656366004612e16565b611c96565b60006001600160e01b03198216637965db0b60e01b148061068c57506301ffc9a760e01b6001600160e01b03198316145b92915050565b600080600f805480602002602001604051908101604052809291908181526020016000905b828210156107df57838290600052602060002090600402016040518060e001604052908160008201548152602001600182015481526020016002820180546106fe9061324a565b80601f016020809104026020016040519081016040528092919081815260200182805461072a9061324a565b80156107775780601f1061074c57610100808354040283529160200191610777565b820191906000526020600020905b81548152906001019060200180831161075a57829003601f168201915b5050509183525050600391909101546001600160a01b03811660208084019190915260ff600160a01b830481166040850152600160a81b8304811615156060850152600160b01b909204909116151560809092019190915290825260019290920191016106b7565b5050505090506000805b825181101561087f578460ff1683828151811061081657634e487b7160e01b600052603260045260246000fd5b60200260200101516080015160ff161461082f5761086d565b82818151811061084f57634e487b7160e01b600052603260045260246000fd5b602002602001015160c0015161086d578161086981613285565b9250505b8061087781613285565b9150506107e9565b509392505050565b336108936000826111dc565b806108b157506108b1600080516020613302833981519152826111dc565b806108cf57506108cf6000805160206132e2833981519152826111dc565b6108f45760405162461bcd60e51b81526004016108eb906130fe565b60405180910390fd5b6001600160a01b0383161580159061091457506001600160a01b03821615155b6109605760405162461bcd60e51b815260206004820152601c60248201527f474946545f53455455505f504f4f4c5f5a45524f5f414444524553530000000060448201526064016108eb565b50600280546001600160a01b039384166001600160a01b03199182161790915560048054929093169116179055565b3361099b6000826111dc565b806109b957506109b9600080516020613302833981519152826111dc565b806109d757506109d76000805160206132e2833981519152826111dc565b6109f35760405162461bcd60e51b81526004016108eb906130fe565b6001600160a01b03831615801590610a1357506001600160a01b03821615155b610a5f5760405162461bcd60e51b815260206004820152601d60248201527f474946545f53455455505f544f4b454e5f5a45524f5f4144445245535300000060448201526064016108eb565b5060018054610100600160a81b0319166101006001600160a01b0394851602179055600380546001600160a01b03191691909216179055565b33610aa46000826111dc565b80610ac25750610ac2600080516020613302833981519152826111dc565b80610ae05750610ae06000805160206132e2833981519152826111dc565b610afc5760405162461bcd60e51b81526004016108eb906130fe565b6000610b0a86868686611e16565b9050610b158161225f565b856001600160a01b031681336001600160a01b03167f4d0fb9028bd0e78ae2afbd2e1af713dc6a880dbe5766136adb67e39376f3901f888888604051610b5d93929190613174565b60405180910390a4505050505050565b60ff81166000908152600a6020908152604091829020805483518184028101840190945280845260609392830182828015610bc757602002820191906000526020600020905b815481526020019060010190808311610bb3575b50505050509050919050565b33610bdf6000826111dc565b80610bfd5750610bfd600080516020613302833981519152826111dc565b80610c1b5750610c1b6000805160206132e2833981519152826111dc565b610c375760405162461bcd60e51b81526004016108eb906130fe565b600f5482908110610c5a5760405162461bcd60e51b81526004016108eb90613079565b82600f8181548110610c7c57634e487b7160e01b600052603260045260246000fd5b906000526020600020906004020160030160159054906101000a900460ff1615610cb85760405162461bcd60e51b81526004016108eb906130d1565b83600f8181548110610cda57634e487b7160e01b600052603260045260246000fd5b906000526020600020906004020160030160169054906101000a900460ff1615610d165760405162461bcd60e51b81526004016108eb906130a4565b610d1f856122d3565b604051859033907fec9ab91322523c899ede7830ec9bfc992b5981cdcc27b91162fb23de5791117b90600090a35050505050565b600082815260208190526040902060010154610d6e81612421565b610d78838361242e565b505050565b60008060006060600080600080600f8981548110610dab57634e487b7160e01b600052603260045260246000fd5b60009182526020909120600360049092020190810154815460018301546002840180549495506001600160a01b0384169460ff600160a01b86048116959293600160a81b8404821693600160b01b9004909116918490610e0a9061324a565b80601f0160208091040260200160405190810160405280929190818152602001828054610e369061324a565b8015610e835780601f10610e5857610100808354040283529160200191610e83565b820191906000526020600020905b815481529060010190602001808311610e6657829003601f168201915b50505050509350975097509750975097509750975050919395979092949650565b6001600160a01b0381163314610f145760405162461bcd60e51b815260206004820152602f60248201527f416363657373436f6e74726f6c3a2063616e206f6e6c792072656e6f756e636560448201526e103937b632b9903337b91039b2b63360891b60648201526084016108eb565b610f1e82826124b2565b5050565b33610f2e6000826111dc565b80610f4c5750610f4c600080516020613302833981519152826111dc565b80610f6a5750610f6a6000805160206132e2833981519152826111dc565b610f865760405162461bcd60e51b81526004016108eb906130fe565b60ff838116600081815260056020908152604091829020805461ffff19169487169485179055815192835282019290925233917f721ca23739e925c0ca1381513fca78ab3c9176698637827651ddaa4bebb21670910160405180910390a2505050565b33610ff56000826111dc565b806110135750611013600080516020613302833981519152826111dc565b8061103157506110316000805160206132e2833981519152826111dc565b61104d5760405162461bcd60e51b81526004016108eb906130fe565b60005b82518160ff1610156110b957828160ff168151811061107f57634e487b7160e01b600052603260045260246000fd5b60209081029190910181015160ff8316600090815260069092526040909120805461ffff191661ffff909216919091179055600101611050565b507f32b8f70dcb041cfeb6524e5eb8aa93b6ca69e2d7acdf3310037623672650a3f133836040516110eb929190612f79565b60405180910390a15050565b60006001600160a01b0383166111445760405162461bcd60e51b81526020600482015260126024820152714f574e45525f5a45524f5f4144445245535360701b60448201526064016108eb565b506001600160a01b0382166000908152600b6020908152604080832060ff8516845290915290205492915050565b3361117e6000826111dc565b8061119c575061119c600080516020613302833981519152826111dc565b806111ba57506111ba6000805160206132e2833981519152826111dc565b6111d65760405162461bcd60e51b81526004016108eb906130fe565b50600e55565b6000918252602082815260408084206001600160a01b0393909316845291905290205460ff1690565b336112116000826111dc565b8061122f575061122f600080516020613302833981519152826111dc565b8061124d575061124d6000805160206132e2833981519152826111dc565b6112695760405162461bcd60e51b81526004016108eb906130fe565b600f548290811061128c5760405162461bcd60e51b81526004016108eb90613079565b82600f81815481106112ae57634e487b7160e01b600052603260045260246000fd5b906000526020600020906004020160030160159054906101000a900460ff16156112ea5760405162461bcd60e51b81526004016108eb906130d1565b6000848152600d60209081526040808320338452909152902054849060ff161561134d5760405162461bcd60e51b81526020600482015260146024820152731d1e08185b1c9958591e4818dbdb999a5c9b595960621b60448201526064016108eb565b84600f818154811061136f57634e487b7160e01b600052603260045260246000fd5b906000526020600020906004020160030160169054906101000a900460ff16156113ab5760405162461bcd60e51b81526004016108eb906130a4565b6113b48661225f565b604051869033907fbde73c39e691e6143456e01935275fd9f654dacca25911f03ab0d587644377eb90600090a3505050505050565b336113f56000826111dc565b806114135750611413600080516020613302833981519152826111dc565b8061143157506114316000805160206132e2833981519152826111dc565b61144d5760405162461bcd60e51b81526004016108eb906130fe565b600f54829081106114705760405162461bcd60e51b81526004016108eb90613079565b6000838152600d60209081526040808320338452909152902054839060ff16156114d35760405162461bcd60e51b81526020600482015260146024820152731d1e08185b1c9958591e4818dbdb999a5c9b595960621b60448201526064016108eb565b83600f81815481106114f557634e487b7160e01b600052603260045260246000fd5b906000526020600020906004020160030160159054906101000a900460ff16156115315760405162461bcd60e51b81526004016108eb906130d1565b84600f818154811061155357634e487b7160e01b600052603260045260246000fd5b906000526020600020906004020160030160169054906101000a900460ff161561158f5760405162461bcd60e51b81526004016108eb906130a4565b6115988661225f565b6000600f87815481106115bb57634e487b7160e01b600052603260045260246000fd5b90600052602060002090600402019050600e54816001015410611613576115e187612517565b604051879033907f726cc2f9e89f99ad4bb86f9590d91d8794c993cc7cc4c3516709021aebee36d290600090a3611641565b604051879033907fbde73c39e691e6143456e01935275fd9f654dacca25911f03ab0d587644377eb90600090a35b50505050505050565b60008281526020819052604090206001015461166581612421565b610d7883836124b2565b600f818154811061167f57600080fd5b90600052602060002090600402016000915090508060000154908060010154908060020180546116ae9061324a565b80601f01602080910402602001604051908101604052809291908181526020018280546116da9061324a565b80156117275780601f106116fc57610100808354040283529160200191611727565b820191906000526020600020905b81548152906001019060200180831161170a57829003601f168201915b505050600390930154919250506001600160a01b0381169060ff600160a01b8204811691600160a81b8104821691600160b01b9091041687565b3361176d6000826111dc565b8061178b575061178b600080516020613302833981519152826111dc565b806117a957506117a96000805160206132e2833981519152826111dc565b6117c55760405162461bcd60e51b81526004016108eb906130fe565b600f546117d486868686611e16565b50856001600160a01b031681336001600160a01b03167fa8d1169d9717f8943f9a3f0860648bc561a493522d6809e9d71e0e7427ecc500888888604051610b5d93929190613174565b600061182881612421565b6001600160a01b0385161580159061184857506001600160a01b03841615155b6118945760405162461bcd60e51b815260206004820152601c60248201527f474946545f494e49545f544f4b454e5f5a45524f5f414444524553530000000060448201526064016108eb565b6001600160a01b038316158015906118b457506001600160a01b03821615155b6119005760405162461bcd60e51b815260206004820152601b60248201527f474946545f494e49545f504f4f4c5f5a45524f5f41444452455353000000000060448201526064016108eb565b60018054610100600160a81b0319166101006001600160a01b038881169190910291909117909155600380546001600160a01b0319908116878416178255600280548216878516179055600480549091169285169290921790915561196790600090610f22565b61197360016003610f22565b5050600660205250507f54cdd369e4e8a8515e52ca72ec816c2101831ad1f18bf44102ed171459c9b4f8805461ffff19908116604a1790915560016000527f3e5fec24aa4dc4e5aee2e025e51e1392c72a2500577559fae9665c6d52bd6a3180549091166101a9179055506002600e55565b60606000600f805480602002602001604051908101604052809291908181526020016000905b82821015611b3357838290600052602060002090600402016040518060e00160405290816000820154815260200160018201548152602001600282018054611a529061324a565b80601f0160208091040260200160405190810160405280929190818152602001828054611a7e9061324a565b8015611acb5780601f10611aa057610100808354040283529160200191611acb565b820191906000526020600020905b815481529060010190602001808311611aae57829003601f168201915b5050509183525050600391909101546001600160a01b03811660208084019190915260ff600160a01b830481166040850152600160a81b8304811615156060850152600160b01b90920490911615156080909201919091529082526001929092019101611a0b565b5050505090506000611b4484610692565b90506000808267ffffffffffffffff811115611b7057634e487b7160e01b600052604160045260246000fd5b604051908082528060200260200182016040528015611b99578160200160208202803683370190505b50905060005b8451811015611c8c578660ff16858281518110611bcc57634e487b7160e01b600052603260045260246000fd5b60200260200101516080015160ff1614611be557611c7a565b848181518110611c0557634e487b7160e01b600052603260045260246000fd5b602002602001015160c00151611c7a57848181518110611c3557634e487b7160e01b600052603260045260246000fd5b602002602001015160000151828481518110611c6157634e487b7160e01b600052603260045260246000fd5b602090810291909101015282611c7681613285565b9350505b80611c8481613285565b915050611b9f565b5095945050505050565b33611ca26000826111dc565b80611cc05750611cc0600080516020613302833981519152826111dc565b80611cde5750611cde6000805160206132e2833981519152826111dc565b611cfa5760405162461bcd60e51b81526004016108eb906130fe565b600f5482908110611d1d5760405162461bcd60e51b81526004016108eb90613079565b82600f8181548110611d3f57634e487b7160e01b600052603260045260246000fd5b906000526020600020906004020160030160159054906101000a900460ff1615611d7b5760405162461bcd60e51b81526004016108eb906130d1565b83600f8181548110611d9d57634e487b7160e01b600052603260045260246000fd5b906000526020600020906004020160030160169054906101000a900460ff1615611dd95760405162461bcd60e51b81526004016108eb906130a4565b611de285612517565b604051859033907f892cd8f5b436bd5fb7dac1f11aafb73345d892ba3e9fe09cd94d95ba84928e7390600090a35050505050565b60008060ff851615611e33576003546001600160a01b0316611e45565b60015461010090046001600160a01b03165b9050600060ff861615611e63576004546001600160a01b0316611e70565b6002546001600160a01b03165b9050806001600160a01b0316826001600160a01b0316636352211e876040518263ffffffff1660e01b8152600401611eaa91815260200190565b60206040518083038186803b158015611ec257600080fd5b505afa158015611ed6573d6000803e3d6000fd5b505050506040513d601f19601f82011682018060405250810190611efa9190612bbf565b6001600160a01b031614611f415760405162461bcd60e51b815260206004820152600e60248201526d11d2519517d393d517d1561254d560921b60448201526064016108eb565b60ff80871660009081526009602090815260408083208984529091529020541615611fa75760405162461bcd60e51b8152602060048201526016602482015275474946545f5355424d49545445445f414c524541445960501b60448201526064016108eb565b60ff861660008181526009602090815260408083208984528252808320805460ff19166001179055600f54938352600882528083205460069092529091205461ffff168082106120305760405162461bcd60e51b815260206004820152601460248201527311d2519517d49154d154959157d312535255115160621b60448201526064016108eb565b60ff89166000818152600560209081526040808320546001600160a01b038f168452600c83528184209484529390915290205461ffff909116116120aa5760405162461bcd60e51b8152602060048201526011602482015270474946545f4558434545445f414c4c4f4360781b60448201526064016108eb565b6040805160e081018252898152600060208083018281529383018b81526001600160a01b038f16606085015260ff8e16608085015260a0840183905260c08401839052600f80546001810182559352835160049093027f8d1108e10bcb7c27dddfc02ed9d693a074039d026cf4ea4240b40f7d581ac802810193845594517f8d1108e10bcb7c27dddfc02ed9d693a074039d026cf4ea4240b40f7d581ac80386015551805193949293612184937f8d1108e10bcb7c27dddfc02ed9d693a074039d026cf4ea4240b40f7d581ac80401929190910190612b10565b50606082015160039091018054608084015160a085015160c0909501511515600160b01b0260ff60b01b19951515600160a81b029590951661ffff60a81b1960ff928316600160a01b026001600160a81b03199094166001600160a01b0390961695909517929092179390931617929092179091558916600090815260086020526040812080549161221583613285565b90915550506001600160a01b038a166000908152600c6020908152604080832060ff8d168452909152812080549161224c83613285565b90915550929a9950505050505050505050565b6000600f828154811061228257634e487b7160e01b600052603260045260246000fd5b9060005260206000209060040201905060018160010160008282546122a791906131d0565b9091555050506000908152600d602090815260408083203384529091529020805460ff19166001179055565b6000600f82815481106122f657634e487b7160e01b600052603260045260246000fd5b600091825260208083206003600490930201918201548254868552600d83526040808620338752909352919093205491935060ff600160a01b9093048316929091166123775760405162461bcd60e51b815260206004820152601060248201526f1d1e081b9bdd0818dbdb999a5c9b595960821b60448201526064016108eb565b6001830180546000190181556000858152600d602090815260408083203384529091529020805460ff191690555461241b5760038301805460ff60b01b1916600160b01b17815560ff831660008181526009602090815260408083208684528252808320805460ff1916905583835260088252808320805460001990810190915594546001600160a01b03168352600c825280832093835292905220805490910190555b50505050565b61242b81336128bc565b50565b61243882826111dc565b610f1e576000828152602081815260408083206001600160a01b03851684529091529020805460ff1916600117905561246e3390565b6001600160a01b0316816001600160a01b0316837f2f8788117e7eff1d82e926ec794901d17c78024a50270940304540a733656f0d60405160405180910390a45050565b6124bc82826111dc565b15610f1e576000828152602081815260408083206001600160a01b0385168085529252808320805460ff1916905551339285917ff6391f5c32d9c69d2a47ea670b442974b53935d1edc7fd64eb21e047a839171b9190a45050565b6000600f828154811061253a57634e487b7160e01b600052603260045260246000fd5b90600052602060002090600402016040518060e001604052908160008201548152602001600182015481526020016002820180546125779061324a565b80601f01602080910402602001604051908101604052809291908181526020018280546125a39061324a565b80156125f05780601f106125c5576101008083540402835291602001916125f0565b820191906000526020600020905b8154815290600101906020018083116125d357829003601f168201915b5050509183525050600391909101546001600160a01b03811660208084019190915260ff600160a01b830481166040850152600160a81b8304811615156060850152600160b01b909204909116151560809283015290820151600e54918301519293509110156126975760405162461bcd60e51b815260206004820152601260248201527111d2519517d393d517d0d3d391925493515160721b60448201526064016108eb565b600060ff8216156126b3576003546001600160a01b03166126c5565b60015461010090046001600160a01b03165b9050600060ff8316156126e3576004546001600160a01b03166126f0565b6002546001600160a01b03165b905060ff83166127725760608401518451604051632142170760e11b81526001600160a01b03848116600483015292831660248201526044810191909152908316906342842e0e90606401600060405180830381600087803b15801561275557600080fd5b505af1158015612769573d6000803e3d6000fd5b505050506127e6565b60608401518451604051632142170760e11b81526001600160a01b03848116600483015292831660248201526044810191909152908316906342842e0e90606401600060405180830381600087803b1580156127cd57600080fd5b505af11580156127e1573d6000803e3d6000fd5b505050505b6001600f868154811061280957634e487b7160e01b600052603260045260246000fd5b600091825260208083206003600490930201919091018054931515600160a81b0260ff60a81b199094169390931790925560ff8516808252600a835260408083208851815460018101835591855285852090910155908252600790925290812080549161287583613285565b909155505060608401516001600160a01b03166000908152600b6020908152604080832060ff8716845290915281208054916128b083613285565b91905055505050505050565b6128c682826111dc565b610f1e576128d381612915565b6128de836020612927565b6040516020016128ef929190612f04565b60408051601f198184030181529082905262461bcd60e51b82526108eb91600401613066565b606061068c6001600160a01b03831660145b606060006129368360026131e8565b6129419060026131d0565b67ffffffffffffffff81111561296757634e487b7160e01b600052604160045260246000fd5b6040519080825280601f01601f191660200182016040528015612991576020820181803683370190505b509050600360fc1b816000815181106129ba57634e487b7160e01b600052603260045260246000fd5b60200101906001600160f81b031916908160001a905350600f60fb1b816001815181106129f757634e487b7160e01b600052603260045260246000fd5b60200101906001600160f81b031916908160001a9053506000612a1b8460026131e8565b612a269060016131d0565b90505b6001811115612aba576f181899199a1a9b1b9c1cb0b131b232b360811b85600f1660108110612a6857634e487b7160e01b600052603260045260246000fd5b1a60f81b828281518110612a8c57634e487b7160e01b600052603260045260246000fd5b60200101906001600160f81b031916908160001a90535060049490941c93612ab381613233565b9050612a29565b508315612b095760405162461bcd60e51b815260206004820181905260248201527f537472696e67733a20686578206c656e67746820696e73756666696369656e7460448201526064016108eb565b9392505050565b828054612b1c9061324a565b90600052602060002090601f016020900481019282612b3e5760008555612b84565b82601f10612b5757805160ff1916838001178555612b84565b82800160010185558215612b84579182015b82811115612b84578251825591602001919060010190612b69565b50612b90929150612b94565b5090565b5b80821115612b905760008155600101612b95565b803560ff81168114612bba57600080fd5b919050565b600060208284031215612bd0578081fd5b8151612b09816132cc565b60008060408385031215612bed578081fd5b8235612bf8816132cc565b91506020830135612c08816132cc565b809150509250929050565b60008060008060808587031215612c28578182fd5b8435612c33816132cc565b93506020850135612c43816132cc565b92506040850135612c53816132cc565b91506060850135612c63816132cc565b939692955090935050565b60008060408385031215612c80578182fd5b8235612c8b816132cc565b9150612c9960208401612ba9565b90509250929050565b60008060008060808587031215612cb7578384fd5b8435612cc2816132cc565b93506020612cd1868201612ba9565b935060408601359250606086013567ffffffffffffffff80821115612cf4578384fd5b818801915088601f830112612d07578384fd5b813581811115612d1957612d196132b6565b612d2b601f8201601f1916850161319f565b91508082528984828501011115612d40578485fd5b8084840185840137810190920192909252939692955090935050565b60006020808385031215612d6e578182fd5b823567ffffffffffffffff80821115612d85578384fd5b818501915085601f830112612d98578384fd5b813581811115612daa57612daa6132b6565b8060051b9150612dbb84830161319f565b8181528481019084860184860187018a1015612dd5578788fd5b8795505b83861015612e09578035945061ffff85168514612df4578788fd5b84835260019590950194918601918601612dd9565b5098975050505050505050565b600060208284031215612e27578081fd5b5035919050565b60008060408385031215612e40578182fd5b823591506020830135612c08816132cc565b600060208284031215612e63578081fd5b81356001600160e01b031981168114612b09578182fd5b600060208284031215612e8b578081fd5b612b0982612ba9565b60008060408385031215612ea6578182fd5b612eaf83612ba9565b946020939093013593505050565b60008060408385031215612ecf578182fd5b612c8b83612ba9565b60008151808452612ef0816020860160208601613207565b601f01601f19169290920160200192915050565b7f416363657373436f6e74726f6c3a206163636f756e7420000000000000000000815260008351612f3c816017850160208801613207565b7001034b99036b4b9b9b4b733903937b6329607d1b6017918401918201528351612f6d816028840160208801613207565b01602801949350505050565b6001600160a01b038316815260406020808301829052835191830182905260009184820191906060850190845b81811015612fc657845161ffff1683529383019391830191600101612fa6565b5090979650505050505050565b60018060a01b038816815260ff8716602082015285604082015260e06060820152600061300360e0830187612ed8565b94151560808301525091151560a083015260c090910152949350505050565b6020808252825182820181905260009190848201906040850190845b8181101561305a5783518352928401929184019160010161303e565b50909695505050505050565b602081526000612b096020830184612ed8565b6020808252601190820152701d1e08191bd95cc81b9bdd08195e1a5cdd607a1b604082015260600190565b6020808252601390820152721d1e08185b1c9958591e481c995d995c9d1959606a1b604082015260600190565b6020808252601390820152721d1e08185b1c9958591e48195e1958dd5d1959606a1b604082015260600190565b6020808252600990820152682737ba1030b236b4b760b91b604082015260600190565b87815286602082015260e06040820152600061314060e0830188612ed8565b6001600160a01b039690961660608301525060ff93909316608084015290151560a0830152151560c0909101529392505050565b60ff841681528260208201526060604082015260006131966060830184612ed8565b95945050505050565b604051601f8201601f1916810167ffffffffffffffff811182821017156131c8576131c86132b6565b604052919050565b600082198211156131e3576131e36132a0565b500190565b6000816000190483118215151615613202576132026132a0565b500290565b60005b8381101561322257818101518382015260200161320a565b8381111561241b5750506000910152565b600081613242576132426132a0565b506000190190565b600181811c9082168061325e57607f821691505b6020821081141561327f57634e487b7160e01b600052602260045260246000fd5b50919050565b6000600019821415613299576132996132a0565b5060010190565b634e487b7160e01b600052601160045260246000fd5b634e487b7160e01b600052604160045260246000fd5b6001600160a01b038116811461242b57600080fdfeb19546dff01e856fb3f010c267a7b1c60363cf8a4664e21cc89c26224620214e9f2df0fed2c77648de5860a4cc508cd0818c85b8b8a1ab4ceeef8d981c8956a6a2646970667358221220e5276e51a97268cfa99c961dd4d07718ee6e5ada52e23aff3a7a6932756b957664736f6c63430008040033",
  "linkReferences": {},
  "deployedLinkReferences": {}
}