{
  "_format": "hh-sol-artifact-1",
  "contractName": "PlayEstatesAddressProvider",
  "sourceName": "contracts/PlayEstatesAddressProvider.sol",
  "abi": [
    {
      "inputs": [],
      "stateMutability": "nonpayable",
      "type": "constructor"
    },
    {
      "inputs": [
        {
          "internalType": "address",
          "name": "newAddress",
          "type": "address"
        }
      ],
      "name": "InkAddressProvider_InvalidAddress",
      "type": "error"
    },
    {
      "anonymous": false,
      "inputs": [
        {
          "indexed": false,
          "internalType": "string",
          "name": "contractName",
          "type": "string"
        },
        {
          "indexed": true,
          "internalType": "address",
          "name": "newAddress",
          "type": "address"
        },
        {
          "indexed": false,
          "internalType": "uint256",
          "name": "updateddate",
          "type": "uint256"
        }
      ],
      "name": "ContractAddressUpdated",
      "type": "event"
    },
    {
      "anonymous": false,
      "inputs": [
        {
          "indexed": true,
          "internalType": "address",
          "name": "previousOwner",
          "type": "address"
        },
        {
          "indexed": true,
          "internalType": "address",
          "name": "newOwner",
          "type": "address"
        }
      ],
      "name": "OwnershipTransferred",
      "type": "event"
    },
    {
      "inputs": [
        {
          "internalType": "bytes32",
          "name": "id",
          "type": "bytes32"
        }
      ],
      "name": "getAddress",
      "outputs": [
        {
          "internalType": "address",
          "name": "",
          "type": "address"
        },
        {
          "internalType": "uint256",
          "name": "",
          "type": "uint256"
        }
      ],
      "stateMutability": "view",
      "type": "function"
    },
    {
      "inputs": [],
      "name": "getAllAddresses",
      "outputs": [
        {
          "components": [
            {
              "internalType": "bytes32",
              "name": "name",
              "type": "bytes32"
            },
            {
              "internalType": "address",
              "name": "addr",
              "type": "address"
            }
          ],
          "internalType": "struct LTypes.AddressInfo[]",
          "name": "addresses",
          "type": "tuple[]"
        }
      ],
      "stateMutability": "view",
      "type": "function"
    },
    {
      "inputs": [],
      "name": "getGameEngineContract",
      "outputs": [
        {
          "internalType": "address",
          "name": "",
          "type": "address"
        },
        {
          "internalType": "uint256",
          "name": "",
          "type": "uint256"
        }
      ],
      "stateMutability": "view",
      "type": "function"
    },
    {
      "inputs": [],
      "name": "getNFTMarketplaceContract",
      "outputs": [
        {
          "internalType": "address",
          "name": "",
          "type": "address"
        },
        {
          "internalType": "uint256",
          "name": "",
          "type": "uint256"
        }
      ],
      "stateMutability": "view",
      "type": "function"
    },
    {
      "inputs": [],
      "name": "getOWNKContract",
      "outputs": [
        {
          "internalType": "address",
          "name": "",
          "type": "address"
        },
        {
          "internalType": "uint256",
          "name": "",
          "type": "uint256"
        }
      ],
      "stateMutability": "view",
      "type": "function"
    },
    {
      "inputs": [],
      "name": "getPBRTContract",
      "outputs": [
        {
          "internalType": "address",
          "name": "",
          "type": "address"
        },
        {
          "internalType": "uint256",
          "name": "",
          "type": "uint256"
        }
      ],
      "stateMutability": "view",
      "type": "function"
    },
    {
      "inputs": [],
      "name": "getPEASContract",
      "outputs": [
        {
          "internalType": "address",
          "name": "",
          "type": "address"
        },
        {
          "internalType": "uint256",
          "name": "",
          "type": "uint256"
        }
      ],
      "stateMutability": "view",
      "type": "function"
    },
    {
      "inputs": [],
      "name": "getPEFPContract",
      "outputs": [
        {
          "internalType": "address",
          "name": "",
          "type": "address"
        },
        {
          "internalType": "uint256",
          "name": "",
          "type": "uint256"
        }
      ],
      "stateMutability": "view",
      "type": "function"
    },
    {
      "inputs": [],
      "name": "getPNFTSContract",
      "outputs": [
        {
          "internalType": "address",
          "name": "",
          "type": "address"
        },
        {
          "internalType": "uint256",
          "name": "",
          "type": "uint256"
        }
      ],
      "stateMutability": "view",
      "type": "function"
    },
    {
      "inputs": [],
      "name": "getPNFTSSContract",
      "outputs": [
        {
          "internalType": "address",
          "name": "",
          "type": "address"
        },
        {
          "internalType": "uint256",
          "name": "",
          "type": "uint256"
        }
      ],
      "stateMutability": "view",
      "type": "function"
    },
    {
      "inputs": [],
      "name": "getPNFTStakingContract",
      "outputs": [
        {
          "internalType": "address",
          "name": "",
          "type": "address"
        },
        {
          "internalType": "uint256",
          "name": "",
          "type": "uint256"
        }
      ],
      "stateMutability": "view",
      "type": "function"
    },
    {
      "inputs": [],
      "name": "owner",
      "outputs": [
        {
          "internalType": "address",
          "name": "",
          "type": "address"
        }
      ],
      "stateMutability": "view",
      "type": "function"
    },
    {
      "inputs": [],
      "name": "renounceOwnership",
      "outputs": [],
      "stateMutability": "nonpayable",
      "type": "function"
    },
    {
      "inputs": [
        {
          "internalType": "bytes32",
          "name": "id",
          "type": "bytes32"
        },
        {
          "internalType": "address",
          "name": "newAddress",
          "type": "address"
        }
      ],
      "name": "setAddress",
      "outputs": [],
      "stateMutability": "nonpayable",
      "type": "function"
    },
    {
      "inputs": [
        {
          "internalType": "address",
          "name": "newAddress",
          "type": "address"
        }
      ],
      "name": "setGameEngineContract",
      "outputs": [],
      "stateMutability": "nonpayable",
      "type": "function"
    },
    {
      "inputs": [
        {
          "internalType": "address",
          "name": "newAddress",
          "type": "address"
        }
      ],
      "name": "setNFTMarketplaceContract",
      "outputs": [],
      "stateMutability": "nonpayable",
      "type": "function"
    },
    {
      "inputs": [
        {
          "internalType": "address",
          "name": "newAddress",
          "type": "address"
        }
      ],
      "name": "setOWNKContract",
      "outputs": [],
      "stateMutability": "nonpayable",
      "type": "function"
    },
    {
      "inputs": [
        {
          "internalType": "address",
          "name": "newAddress",
          "type": "address"
        }
      ],
      "name": "setPBRTContract",
      "outputs": [],
      "stateMutability": "nonpayable",
      "type": "function"
    },
    {
      "inputs": [
        {
          "internalType": "address",
          "name": "newAddress",
          "type": "address"
        }
      ],
      "name": "setPEASContract",
      "outputs": [],
      "stateMutability": "nonpayable",
      "type": "function"
    },
    {
      "inputs": [
        {
          "internalType": "address",
          "name": "newAddress",
          "type": "address"
        }
      ],
      "name": "setPEFPContract",
      "outputs": [],
      "stateMutability": "nonpayable",
      "type": "function"
    },
    {
      "inputs": [
        {
          "internalType": "address",
          "name": "newAddress",
          "type": "address"
        }
      ],
      "name": "setPNFTSContract",
      "outputs": [],
      "stateMutability": "nonpayable",
      "type": "function"
    },
    {
      "inputs": [
        {
          "internalType": "address",
          "name": "newAddress",
          "type": "address"
        }
      ],
      "name": "setPNFTSSContract",
      "outputs": [],
      "stateMutability": "nonpayable",
      "type": "function"
    },
    {
      "inputs": [
        {
          "internalType": "address",
          "name": "newAddress",
          "type": "address"
        }
      ],
      "name": "setPNFTStakingContract",
      "outputs": [],
      "stateMutability": "nonpayable",
      "type": "function"
    },
    {
      "inputs": [
        {
          "internalType": "address",
          "name": "newOwner",
          "type": "address"
        }
      ],
      "name": "transferOwnership",
      "outputs": [],
      "stateMutability": "nonpayable",
      "type": "function"
    }
  ],
  "bytecode": "0x608060405234801561001057600080fd5b5061001a3361001f565b61006f565b600080546001600160a01b038381166001600160a01b0319831681178455604051919092169283917f8be0079c531659141344cd1fd0a4f28419497f9722a3daafe3b4186f6b6457e09190a35050565b6113748061007e6000396000f3fe608060405234801561001057600080fd5b50600436106101585760003560e01c8063a3f8de52116100c3578063ce50ac031161007c578063ce50ac031461028b578063d37f72ed1461029e578063dcdb9502146102a6578063e01d98f4146102ae578063e78c626c146102c1578063f2fde38b146102d457600080fd5b8063a3f8de521461022f578063a565c18314610242578063afc5c58214610255578063b6a0728714610268578063c5184bd114610270578063ca446dd91461027857600080fd5b8063764473121161011557806376447312146101d45780637c551587146101e75780638da5cb5b146101ef5780639516a1041461020a578063957ee50a1461021f5780639d9441181461022757600080fd5b80630bbc98ba1461015d578063108858fc14610189578063172635a91461019157806319aadfe2146101a657806321f8a721146101b9578063715018a6146101cc575b600080fd5b6101656102e7565b604080516001600160a01b0390931683526020830191909152015b60405180910390f35b610165610309565b6101a461019f36600461109f565b61031e565b005b6101a46101b436600461109f565b6103f3565b6101656101c73660046110c0565b6104d6565b6101a46104ff565b6101a46101e236600461109f565b610513565b6101656105db565b6000546040516001600160a01b039091168152602001610180565b6102126105f5565b6040516101809190611103565b610165610774565b610165610787565b6101a461023d36600461109f565b61079a565b6101a461025036600461109f565b610874565b6101a461026336600461109f565b610942565b610165610a13565b610165610a26565b6101a46102863660046110d8565b610a3c565b6101a461029936600461109f565b610adc565b610165610ba4565b610165610bbd565b6101a46102bc36600461109f565b610bd0565b6101a46102cf36600461109f565b610cb3565b6101a46102e236600461109f565b610d7b565b6000806103016a6d61726b6574706c61636560a81b6104d6565b915091509091565b60008061030165706e66745f7360d01b6104d6565b610326610df4565b80803b610356576040516307433a8f60e11b81526001600160a01b03821660048201526024015b60405180910390fd5b610367636f776e6b60e01b83610a3c565b636f776e6b60e01b600052600260209081527f56e5e2037f1e3906847567744196bfd7e5dc9620a7c9ac9d5379f41dbd1ef42754604080518181526010918101919091526f506c617945737461746573204f574e4b60801b6060820152918201526001600160a01b0383169060008051602061131f833981519152906080015b60405180910390a25050565b6103fb610df4565b80803b610426576040516307433a8f60e11b81526001600160a01b038216600482015260240161034d565b61043e6a6d61726b6574706c61636560a81b83610a3c565b6a6d61726b6574706c61636560a81b600052600260209081527f92ad0de5fd2ac5cfce09ce9ecf9f6d1125f01c01e7130250cf7f1cfb3bc1cace54604080518181526017918101919091527f506c617945737461746573204d61726b6574706c6163650000000000000000006060820152918201526001600160a01b0383169060008051602061131f833981519152906080016103e7565b6000908152600160209081526040808320546002909252909120546001600160a01b0390911691565b610507610df4565b6105116000610e4e565b565b61051b610df4565b80803b610546576040516307433a8f60e11b81526001600160a01b038216600482015260240161034d565b610557630706566760e41b83610a3c565b630706566760e41b600052600260209081527fbfff7271645c8a95e8f8448fc1537cc19bdd618ee002db010eaa9bb742418c5354604080518181526010918101919091526f0506c61794573746174657320504546560841b6060820152918201526001600160a01b0383169060008051602061131f833981519152906080016103e7565b6000806103016a706e66747374616b696e6760a81b6104d6565b60035460609067ffffffffffffffff81111561062157634e487b7160e01b600052604160045260246000fd5b60405190808252806020026020018201604052801561066657816020015b604080518082019091526000808252602082015281526020019060019003908161063f5790505b50905060005b600354811015610770576003818154811061069757634e487b7160e01b600052603260045260246000fd5b90600052602060002001548282815181106106c257634e487b7160e01b600052603260045260246000fd5b6020026020010151600001818152505060016000600383815481106106f757634e487b7160e01b600052603260045260246000fd5b9060005260206000200154815260200190815260200160002060009054906101000a90046001600160a01b031682828151811061074457634e487b7160e01b600052603260045260246000fd5b6020908102919091018101516001600160a01b0390921691015280610768816112d7565b91505061066c565b5090565b600080610301637065617360e01b6104d6565b600080610301630706566760e41b6104d6565b6107a2610df4565b80803b6107cd576040516307433a8f60e11b81526001600160a01b038216600482015260240161034d565b6107e46967616d65656e67696e6560b01b83610a3c565b6967616d65656e67696e6560b01b600052600260209081527fe7a3569c39a6b2c5d10dd254f0dfc3d0655c00886a40c9f2bd23a9fc6c341c42546040805181815260169181019190915275506c6179457374617465732047616d65456e67696e6560501b6060820152918201526001600160a01b0383169060008051602061131f833981519152906080016103e7565b61087c610df4565b80803b6108a7576040516307433a8f60e11b81526001600160a01b038216600482015260240161034d565b6108ba65706e66745f7360d01b83610a3c565b65706e66745f7360d01b600052600260209081527fdeba0e10c703457cf2338c7b7982a7d708118dd763f0e91f1e26b6ce2e6f1e46546040805181815260129181019190915271506c61794573746174657320504e4654205360701b6060820152918201526001600160a01b0383169060008051602061131f833981519152906080016103e7565b61094a610df4565b80803b610975576040516307433a8f60e11b81526001600160a01b038216600482015260240161034d565b61098966706e66745f737360c81b83610a3c565b66706e66745f737360c81b600052600260209081527f60c031306a08960ffd5b1d21a401d6e772e1790ebf4f19b328b17c6c2a61489a546040805181815260139181019190915272506c61794573746174657320504e465420535360681b6060820152918201526001600160a01b0383169060008051602061131f833981519152906080016103e7565b600080610301636f776e6b60e01b6104d6565b60008061030166706e66745f737360c81b6104d6565b610a44610df4565b6000828152600160205260409020546001600160a01b0316610a9657600380546001810182556000919091527fc2575a0e9e593c00f959f8c92f12db2869c3395a3b0502d05e2516446f71f85b018290555b600082815260016020526040902080546001600160a01b0319166001600160a01b038316179055610ac642610e9e565b6000928352600260205260409092209190915550565b610ae4610df4565b80803b610b0f576040516307433a8f60e11b81526001600160a01b038216600482015260240161034d565b610b20637065617360e01b83610a3c565b637065617360e01b600052600260209081527f2e113e50b3815d8096dfc13d3887afba53dcd6e9322dfc21e736c7e8a628f08054604080518181526010918101919091526f506c617945737461746573205045415360801b6060820152918201526001600160a01b0383169060008051602061131f833981519152906080016103e7565b6000806103016967616d65656e67696e6560b01b6104d6565b600080610301631c189c9d60e21b6104d6565b610bd8610df4565b80803b610c03576040516307433a8f60e11b81526001600160a01b038216600482015260240161034d565b610c1b6a706e66747374616b696e6760a81b83610a3c565b6a706e66747374616b696e6760a81b600052600260209081527f8227f7a4c558faec58b5a2925040b6f1bb2ac6a9696736087a9483cd8bcd04e754604080518181526017918101919091527f506c61794573746174657320506e66745374616b696e670000000000000000006060820152918201526001600160a01b0383169060008051602061131f833981519152906080016103e7565b610cbb610df4565b80803b610ce6576040516307433a8f60e11b81526001600160a01b038216600482015260240161034d565b610cf7631c189c9d60e21b83610a3c565b631c189c9d60e21b600052600260209081527fbd18b816d6d66f01ebea78a5c9c40456527a563f0661b46423424a69d0e838e954604080518181526010918101919091526f141b185e515cdd185d195cc81410949560821b6060820152918201526001600160a01b0383169060008051602061131f833981519152906080016103e7565b610d83610df4565b6001600160a01b038116610de85760405162461bcd60e51b815260206004820152602660248201527f4f776e61626c653a206e6577206f776e657220697320746865207a65726f206160448201526564647265737360d01b606482015260840161034d565b610df181610e4e565b50565b6000546001600160a01b031633146105115760405162461bcd60e51b815260206004820181905260248201527f4f776e61626c653a2063616c6c6572206973206e6f7420746865206f776e6572604482015260640161034d565b600080546001600160a01b038381166001600160a01b0319831681178455604051919092169283917f8be0079c531659141344cd1fd0a4f28419497f9722a3daafe3b4186f6b6457e09190a35050565b600080600080610ead85610ee9565b9194509250905080610ec0836064611279565b610ecc85612710611279565b610ed6919061119c565b610ee0919061119c565b95945050505050565b60008080610f02610efd62015180866111e2565b610f0f565b9196909550909350915050565b60008080838162253d8c610f268362010bd961115b565b610f30919061115b565b9050600062023ab1610f438360046111f6565b610f4d91906111b4565b90506004610f5e8262023ab16111f6565b610f6990600361115b565b610f7391906111b4565b610f7d9083611298565b9150600062164b09610f9084600161115b565b610f9c90610fa06111f6565b610fa691906111b4565b90506004610fb6826105b56111f6565b610fc091906111b4565b610fca9084611298565b610fd590601f61115b565b9250600061098f610fe78560506111f6565b610ff191906111b4565b9050600060506110038361098f6111f6565b61100d91906111b4565b6110179086611298565b9050611024600b836111b4565b945061103185600c6111f6565b61103c83600261115b565b6110469190611298565b91508483611055603187611298565b6110609060646111f6565b61106a919061115b565b611074919061115b565b9a919950975095505050505050565b80356001600160a01b038116811461109a57600080fd5b919050565b6000602082840312156110b0578081fd5b6110b982611083565b9392505050565b6000602082840312156110d1578081fd5b5035919050565b600080604083850312156110ea578081fd5b823591506110fa60208401611083565b90509250929050565b602080825282518282018190526000919060409081850190868401855b8281101561114e578151805185528601516001600160a01b0316868501529284019290850190600101611120565b5091979650505050505050565b600080821280156001600160ff1b038490038513161561117d5761117d6112f2565b600160ff1b8390038412811615611196576111966112f2565b50500190565b600082198211156111af576111af6112f2565b500190565b6000826111c3576111c3611308565b600160ff1b8214600019841416156111dd576111dd6112f2565b500590565b6000826111f1576111f1611308565b500490565b60006001600160ff1b038184138284138082168684048611161561121c5761121c6112f2565b600160ff1b8487128281168783058912161561123a5761123a6112f2565b858712925087820587128484161615611255576112556112f2565b8785058712818416161561126b5761126b6112f2565b505050929093029392505050565b6000816000190483118215151615611293576112936112f2565b500290565b60008083128015600160ff1b8501841216156112b6576112b66112f2565b6001600160ff1b03840183138116156112d1576112d16112f2565b50500390565b60006000198214156112eb576112eb6112f2565b5060010190565b634e487b7160e01b600052601160045260246000fd5b634e487b7160e01b600052601260045260246000fdfe7caf00010d672e49be66ab36cd6825cdbb7331686163ac730a8a3646d3455352a264697066735822122027b233121c874a2f6d72566685aaa7cc6e238c269f0438008a6c0a83217923e264736f6c63430008040033",
  "linkReferences": {},
  "deployedLinkReferences": {}
}