{
  "_format": "hh-sol-artifact-1",
  "contractName": "PnftStaking",
  "sourceName": "contracts/stake/PnftStaking.sol",
  "abi": [
    {
      "inputs": [
        {
          "internalType": "address",
          "name": "stakeNftAddress",
          "type": "address"
        },
        {
          "internalType": "address",
          "name": "rewardTokenAddress",
          "type": "address"
        }
      ],
      "stateMutability": "nonpayable",
      "type": "constructor"
    },
    {
      "anonymous": false,
      "inputs": [
        {
          "indexed": true,
          "internalType": "address",
          "name": "account",
          "type": "address"
        },
        {
          "indexed": false,
          "internalType": "uint256",
          "name": "amount",
          "type": "uint256"
        }
      ],
      "name": "Harvested",
      "type": "event"
    },
    {
      "anonymous": false,
      "inputs": [
        {
          "indexed": true,
          "internalType": "address",
          "name": "account",
          "type": "address"
        },
        {
          "indexed": false,
          "internalType": "uint256",
          "name": "amountNeeded",
          "type": "uint256"
        },
        {
          "indexed": false,
          "internalType": "uint256",
          "name": "balance",
          "type": "uint256"
        }
      ],
      "name": "InsufficientRewardToken",
      "type": "event"
    },
    {
      "anonymous": false,
      "inputs": [
        {
          "indexed": true,
          "internalType": "address",
          "name": "previousOwner",
          "type": "address"
        },
        {
          "indexed": true,
          "internalType": "address",
          "name": "newOwner",
          "type": "address"
        }
      ],
      "name": "OwnershipTransferred",
      "type": "event"
    },
    {
      "anonymous": false,
      "inputs": [
        {
          "indexed": false,
          "internalType": "address",
          "name": "oldToken",
          "type": "address"
        },
        {
          "indexed": false,
          "internalType": "address",
          "name": "newToken",
          "type": "address"
        }
      ],
      "name": "RewardTokenUpdated",
      "type": "event"
    },
    {
      "anonymous": false,
      "inputs": [
        {
          "indexed": true,
          "internalType": "address",
          "name": "account",
          "type": "address"
        },
        {
          "indexed": false,
          "internalType": "uint256",
          "name": "tokenId",
          "type": "uint256"
        }
      ],
      "name": "Staked",
      "type": "event"
    },
    {
      "anonymous": false,
      "inputs": [
        {
          "indexed": true,
          "internalType": "address",
          "name": "account",
          "type": "address"
        },
        {
          "indexed": false,
          "internalType": "uint256",
          "name": "tokenId",
          "type": "uint256"
        }
      ],
      "name": "Withdrawn",
      "type": "event"
    },
    {
      "inputs": [],
      "name": "claimRewards",
      "outputs": [],
      "stateMutability": "nonpayable",
      "type": "function"
    },
    {
      "inputs": [
        {
          "internalType": "uint256",
          "name": "amount",
          "type": "uint256"
        }
      ],
      "name": "depositLiquidity",
      "outputs": [],
      "stateMutability": "nonpayable",
      "type": "function"
    },
    {
      "inputs": [
        {
          "internalType": "address",
          "name": "account",
          "type": "address"
        }
      ],
      "name": "getStakerInfo",
      "outputs": [
        {
          "internalType": "uint256[]",
          "name": "stakedNfts",
          "type": "uint256[]"
        },
        {
          "internalType": "uint256",
          "name": "rewards",
          "type": "uint256"
        },
        {
          "internalType": "uint256",
          "name": "lastClaimDate",
          "type": "uint256"
        }
      ],
      "stateMutability": "view",
      "type": "function"
    },
    {
      "inputs": [],
      "name": "getStakersList",
      "outputs": [
        {
          "internalType": "address[]",
          "name": "stakers",
          "type": "address[]"
        }
      ],
      "stateMutability": "view",
      "type": "function"
    },
    {
      "inputs": [
        {
          "internalType": "address",
          "name": "account",
          "type": "address"
        },
        {
          "internalType": "uint256",
          "name": "tokenId",
          "type": "uint256"
        }
      ],
      "name": "isStaked",
      "outputs": [
        {
          "internalType": "bool",
          "name": "",
          "type": "bool"
        }
      ],
      "stateMutability": "view",
      "type": "function"
    },
    {
      "inputs": [],
      "name": "maxNftsPerUser",
      "outputs": [
        {
          "internalType": "uint256",
          "name": "",
          "type": "uint256"
        }
      ],
      "stateMutability": "view",
      "type": "function"
    },
    {
      "inputs": [
        {
          "internalType": "address",
          "name": "",
          "type": "address"
        },
        {
          "internalType": "address",
          "name": "",
          "type": "address"
        },
        {
          "internalType": "uint256",
          "name": "",
          "type": "uint256"
        },
        {
          "internalType": "bytes",
          "name": "",
          "type": "bytes"
        }
      ],
      "name": "onERC721Received",
      "outputs": [
        {
          "internalType": "bytes4",
          "name": "",
          "type": "bytes4"
        }
      ],
      "stateMutability": "nonpayable",
      "type": "function"
    },
    {
      "inputs": [],
      "name": "owner",
      "outputs": [
        {
          "internalType": "address",
          "name": "",
          "type": "address"
        }
      ],
      "stateMutability": "view",
      "type": "function"
    },
    {
      "inputs": [],
      "name": "pendingRewards",
      "outputs": [
        {
          "internalType": "uint256",
          "name": "",
          "type": "uint256"
        }
      ],
      "stateMutability": "view",
      "type": "function"
    },
    {
      "inputs": [],
      "name": "renounceOwnership",
      "outputs": [],
      "stateMutability": "nonpayable",
      "type": "function"
    },
    {
      "inputs": [
        {
          "internalType": "uint256[]",
          "name": "tokenIdList",
          "type": "uint256[]"
        }
      ],
      "name": "stake",
      "outputs": [],
      "stateMutability": "nonpayable",
      "type": "function"
    },
    {
      "inputs": [
        {
          "internalType": "address",
          "name": "newOwner",
          "type": "address"
        }
      ],
      "name": "transferOwnership",
      "outputs": [],
      "stateMutability": "nonpayable",
      "type": "function"
    },
    {
      "inputs": [
        {
          "internalType": "address",
          "name": "account",
          "type": "address"
        }
      ],
      "name": "userStakedNFTCount",
      "outputs": [
        {
          "internalType": "uint256",
          "name": "",
          "type": "uint256"
        }
      ],
      "stateMutability": "view",
      "type": "function"
    },
    {
      "inputs": [
        {
          "internalType": "uint256[]",
          "name": "tokenIdList",
          "type": "uint256[]"
        }
      ],
      "name": "withdraw",
      "outputs": [],
      "stateMutability": "nonpayable",
      "type": "function"
    }
  ],
  "bytecode": "0x6080604052600160075534801561001557600080fd5b5060405161135e38038061135e833981016040819052610034916100de565b61003d33610072565b60018055600280546001600160a01b039384166001600160a01b03199182161790915560038054929093169116179055610110565b600080546001600160a01b038381166001600160a01b0319831681178455604051919092169283917f8be0079c531659141344cd1fd0a4f28419497f9722a3daafe3b4186f6b6457e09190a35050565b80516001600160a01b03811681146100d957600080fd5b919050565b600080604083850312156100f0578182fd5b6100f9836100c2565b9150610107602084016100c2565b90509250929050565b61123f8061011f6000396000f3fe608060405234801561001057600080fd5b50600436106100ea5760003560e01c806376d58e1a1161008c578063a535a60e11610066578063a535a60e146101e4578063cd0559eb146101fb578063eded3fda1461020e578063f2fde38b1461021557600080fd5b806376d58e1a146101a35780638da5cb5b146101b6578063983d95ce146101d157600080fd5b80635451da1b116100c85780635451da1b146101415780636ab00a3814610164578063715018a614610179578063733bdef01461018157600080fd5b80630fbf0a93146100ef578063150b7a0214610104578063372500ab14610102575b600080fd5b6101026100fd366004611001565b610228565b005b610123610112366004610f42565b630a85bd0160e11b95945050505050565b6040516001600160e01b031990911681526020015b60405180910390f35b61015461014f366004610fd8565b61051a565b6040519015158152602001610138565b61016c610546565b60405161013891906110f9565b610102610615565b61019461018f366004610f28565b610627565b60405161013893929190611146565b6101026101b13660046110e1565b610711565b6000546040516001600160a01b039091168152602001610138565b6101026101df366004611001565b610870565b6101ed60075481565b604051908152602001610138565b6101ed610209366004610f28565b610b28565b60006101ed565b610102610223366004610f28565b610b50565b610230610bc6565b6002546001600160a01b031663e985e9c5336040516001600160e01b031960e084901b1681526001600160a01b03909116600482015230602482015260440160206040518083038186803b15801561028757600080fd5b505afa15801561029b573d6000803e3d6000fd5b505050506040513d601f19601f820116820180604052508101906102bf91906110c1565b6103105760405162461bcd60e51b815260206004820152601960248201527f4e6f7420617070726f7665206e667420746f207374616b65720000000000000060448201526064015b60405180910390fd5b600754815161031e33610b28565b6103289190611193565b11156103765760405162461bcd60e51b815260206004820152601c60248201527f45786365656473206d6178206c696d697420706572207374616b6572000000006044820152606401610307565b33600090815260046020526040902061038e81610c20565b61039f5761039d600533610c2a565b505b60005b825181101561050a576002546001600160a01b03166342842e0e33308685815181106103de57634e487b7160e01b600052603260045260246000fd5b60209081029190910101516040516001600160e01b031960e086901b1681526001600160a01b0393841660048201529290911660248301526044820152606401600060405180830381600087803b15801561043857600080fd5b505af115801561044c573d6000803e3d6000fd5b5050505061048d83828151811061047357634e487b7160e01b600052603260045260246000fd5b602002602001015183600001610c3f90919063ffffffff16565b50336001600160a01b03167f9e71bc8eea02a63969f509818f2dafb9254532904319f9dbda79b67bd34a5f3d8483815181106104d957634e487b7160e01b600052603260045260246000fd5b60200260200101516040516104f091815260200190565b60405180910390a280610502816111c2565b9150506103a2565b505061051560018055565b50565b565b6001600160a01b038216600090815260046020526040812061053c8184610c4b565b9150505b92915050565b606060006105546005610c20565b90508015610611578067ffffffffffffffff81111561058357634e487b7160e01b600052604160045260246000fd5b6040519080825280602002602001820160405280156105ac578160200160208202803683370190505b50915060005b8181101561060f576105c5600582610c63565b8382815181106105e557634e487b7160e01b600052603260045260246000fd5b6001600160a01b039092166020928302919091019091015280610607816111c2565b9150506105b2565b505b5090565b61061d610c6f565b6105186000610cc9565b6001600160a01b0381166000908152600460205260408120600281015460038201546060939192909161065982610c20565b90508015610708578067ffffffffffffffff81111561068857634e487b7160e01b600052604160045260246000fd5b6040519080825280602002602001820160405280156106b1578160200160208202803683370190505b50945060005b81811015610706576106c98382610c63565b8682815181106106e957634e487b7160e01b600052603260045260246000fd5b6020908102919091010152806106fe816111c2565b9150506106b7565b505b50509193909250565b6003546001600160a01b03166323b872dd336040516001600160e01b031960e084901b1681526001600160a01b03909116600482015230602482015260448101849052606401602060405180830381600087803b15801561077157600080fd5b505af1158015610785573d6000803e3d6000fd5b505050506040513d601f19601f820116820180604052508101906107a991906110c1565b6107ec5760405162461bcd60e51b815260206004820152601460248201527304661696c656420746f206465706f736974204c560641b6044820152606401610307565b60005b6107f96005610c20565b81101561086c576000600481610810600585610c63565b6001600160a01b03166001600160a01b03168152602001908152602001600020905060005b61083e82610c20565b811015610857578061084f816111c2565b915050610835565b50508080610864906111c2565b9150506107ef565b5050565b610878610bc6565b336000908152600460205260408120905b8251811015610acf5760008382815181106108b457634e487b7160e01b600052603260045260246000fd5b6020026020010151116108fc5760405162461bcd60e51b815260206004820152601060248201526f125b9d985a5b19081d1bdad95b881a5960821b6044820152606401610307565b61092d3384838151811061092057634e487b7160e01b600052603260045260246000fd5b602002602001015161051a565b6109705760405162461bcd60e51b81526020600482015260146024820152732737ba1039ba30b5b2b21037333a103a37b5b2b760611b6044820152606401610307565b6002546001600160a01b03166342842e0e30338685815181106109a357634e487b7160e01b600052603260045260246000fd5b60209081029190910101516040516001600160e01b031960e086901b1681526001600160a01b0393841660048201529290911660248301526044820152606401600060405180830381600087803b1580156109fd57600080fd5b505af1158015610a11573d6000803e3d6000fd5b50505050610a52838281518110610a3857634e487b7160e01b600052603260045260246000fd5b602002602001015183600001610d1990919063ffffffff16565b50336001600160a01b03167f7084f5476618d8e60b11ef0d7d3f06914655adb8793e28ff7f018d4c76d505d5848381518110610a9e57634e487b7160e01b600052603260045260246000fd5b6020026020010151604051610ab591815260200190565b60405180910390a280610ac7816111c2565b915050610889565b50610ad981610c20565b610b1e57610ae8600533610d25565b503360009081526004602052604081209081818181610b078282610ede565b505050506002820160009055600382016000905550505b5061051560018055565b6001600160a01b0381166000908152600460205260408120610b4981610c20565b9392505050565b610b58610c6f565b6001600160a01b038116610bbd5760405162461bcd60e51b815260206004820152602660248201527f4f776e61626c653a206e6577206f776e657220697320746865207a65726f206160448201526564647265737360d01b6064820152608401610307565b61051581610cc9565b60026001541415610c195760405162461bcd60e51b815260206004820152601f60248201527f5265656e7472616e637947756172643a207265656e7472616e742063616c6c006044820152606401610307565b6002600155565b6000610540825490565b6000610b49836001600160a01b038416610d3a565b6000610b498383610d3a565b60008181526001830160205260408120541515610b49565b6000610b498383610d89565b6000546001600160a01b031633146105185760405162461bcd60e51b815260206004820181905260248201527f4f776e61626c653a2063616c6c6572206973206e6f7420746865206f776e65726044820152606401610307565b600080546001600160a01b038381166001600160a01b0319831681178455604051919092169283917f8be0079c531659141344cd1fd0a4f28419497f9722a3daafe3b4186f6b6457e09190a35050565b6000610b498383610dc1565b6000610b49836001600160a01b038416610dc1565b6000818152600183016020526040812054610d8157508154600181810184556000848152602080822090930184905584548482528286019093526040902091909155610540565b506000610540565b6000826000018281548110610dae57634e487b7160e01b600052603260045260246000fd5b9060005260206000200154905092915050565b60008181526001830160205260408120548015610ed4576000610de56001836111ab565b8554909150600090610df9906001906111ab565b9050818114610e7a576000866000018281548110610e2757634e487b7160e01b600052603260045260246000fd5b9060005260206000200154905080876000018481548110610e5857634e487b7160e01b600052603260045260246000fd5b6000918252602080832090910192909255918252600188019052604090208390555b8554869080610e9957634e487b7160e01b600052603160045260246000fd5b600190038181906000526020600020016000905590558560010160008681526020019081526020016000206000905560019350505050610540565b6000915050610540565b508054600082559060005260206000209081019061051591905b808211156106115760008155600101610ef8565b80356001600160a01b0381168114610f2357600080fd5b919050565b600060208284031215610f39578081fd5b610b4982610f0c565b600080600080600060808688031215610f59578081fd5b610f6286610f0c565b9450610f7060208701610f0c565b935060408601359250606086013567ffffffffffffffff80821115610f93578283fd5b818801915088601f830112610fa6578283fd5b813581811115610fb4578384fd5b896020828501011115610fc5578384fd5b9699959850939650602001949392505050565b60008060408385031215610fea578182fd5b610ff383610f0c565b946020939093013593505050565b60006020808385031215611013578182fd5b823567ffffffffffffffff8082111561102a578384fd5b818501915085601f83011261103d578384fd5b81358181111561104f5761104f6111f3565b8060051b604051601f19603f83011681018181108582111715611074576110746111f3565b604052828152858101935084860182860187018a1015611092578788fd5b8795505b838610156110b4578035855260019590950194938601938601611096565b5098975050505050505050565b6000602082840312156110d2578081fd5b81518015158114610b49578182fd5b6000602082840312156110f2578081fd5b5035919050565b6020808252825182820181905260009190848201906040850190845b8181101561113a5783516001600160a01b031683529284019291840191600101611115565b50909695505050505050565b606080825284519082018190526000906020906080840190828801845b8281101561117f57815184529284019290840190600101611163565b505050908301949094525060400152919050565b600082198211156111a6576111a66111dd565b500190565b6000828210156111bd576111bd6111dd565b500390565b60006000198214156111d6576111d66111dd565b5060010190565b634e487b7160e01b600052601160045260246000fd5b634e487b7160e01b600052604160045260246000fdfea26469706673582212203e1b2f3e90002cfd7508010d58dc01df0bf805872eb3037fb234417b4b0e409a64736f6c63430008040033",
  "linkReferences": {},
  "deployedLinkReferences": {}
}