{
  "_format": "hh-sol-artifact-1",
  "contractName": "PnftStaking",
  "sourceName": "contracts/stake/PnftStaking.sol",
  "abi": [
    {
      "inputs": [
        {
          "internalType": "address",
          "name": "rewardTokenAddress",
          "type": "address"
        }
      ],
      "stateMutability": "nonpayable",
      "type": "constructor"
    },
    {
      "anonymous": false,
      "inputs": [
        {
          "indexed": false,
          "internalType": "uint256",
          "name": "totalAmount",
          "type": "uint256"
        },
        {
          "indexed": false,
          "internalType": "uint256",
          "name": "poolAmount",
          "type": "uint256"
        }
      ],
      "name": "DepositedLiquidity",
      "type": "event"
    },
    {
      "anonymous": false,
      "inputs": [
        {
          "indexed": true,
          "internalType": "address",
          "name": "account",
          "type": "address"
        },
        {
          "indexed": false,
          "internalType": "uint256",
          "name": "amount",
          "type": "uint256"
        }
      ],
      "name": "Harvested",
      "type": "event"
    },
    {
      "anonymous": false,
      "inputs": [
        {
          "indexed": true,
          "internalType": "address",
          "name": "account",
          "type": "address"
        },
        {
          "indexed": false,
          "internalType": "uint256",
          "name": "amountNeeded",
          "type": "uint256"
        },
        {
          "indexed": false,
          "internalType": "uint256",
          "name": "balance",
          "type": "uint256"
        }
      ],
      "name": "InsufficientRewardToken",
      "type": "event"
    },
    {
      "anonymous": false,
      "inputs": [
        {
          "indexed": true,
          "internalType": "address",
          "name": "previousOwner",
          "type": "address"
        },
        {
          "indexed": true,
          "internalType": "address",
          "name": "newOwner",
          "type": "address"
        }
      ],
      "name": "OwnershipTransferred",
      "type": "event"
    },
    {
      "anonymous": false,
      "inputs": [
        {
          "indexed": true,
          "internalType": "address",
          "name": "account",
          "type": "address"
        },
        {
          "indexed": true,
          "internalType": "address",
          "name": "nftContract",
          "type": "address"
        },
        {
          "indexed": false,
          "internalType": "uint256",
          "name": "tokenId",
          "type": "uint256"
        }
      ],
      "name": "Staked",
      "type": "event"
    },
    {
      "anonymous": false,
      "inputs": [
        {
          "indexed": true,
          "internalType": "address",
          "name": "account",
          "type": "address"
        },
        {
          "indexed": true,
          "internalType": "address",
          "name": "nftContract",
          "type": "address"
        },
        {
          "indexed": false,
          "internalType": "uint256",
          "name": "tokenId",
          "type": "uint256"
        }
      ],
      "name": "Withdrawn",
      "type": "event"
    },
    {
      "inputs": [],
      "name": "calcRewards",
      "outputs": [
        {
          "internalType": "uint256",
          "name": "",
          "type": "uint256"
        },
        {
          "internalType": "uint256",
          "name": "",
          "type": "uint256"
        }
      ],
      "stateMutability": "view",
      "type": "function"
    },
    {
      "inputs": [],
      "name": "claimRewards",
      "outputs": [],
      "stateMutability": "nonpayable",
      "type": "function"
    },
    {
      "inputs": [
        {
          "internalType": "uint256",
          "name": "amount",
          "type": "uint256"
        }
      ],
      "name": "depositLiquidity",
      "outputs": [],
      "stateMutability": "nonpayable",
      "type": "function"
    },
    {
      "inputs": [],
      "name": "digits",
      "outputs": [
        {
          "internalType": "uint256",
          "name": "",
          "type": "uint256"
        }
      ],
      "stateMutability": "view",
      "type": "function"
    },
    {
      "inputs": [
        {
          "internalType": "address",
          "name": "account",
          "type": "address"
        }
      ],
      "name": "getStakerInfo",
      "outputs": [
        {
          "internalType": "uint256[]",
          "name": "stakedTiers",
          "type": "uint256[]"
        },
        {
          "internalType": "uint256[]",
          "name": "stakedTokenIds",
          "type": "uint256[]"
        },
        {
          "internalType": "uint256",
          "name": "rewards",
          "type": "uint256"
        },
        {
          "internalType": "uint256",
          "name": "lastClaimDate",
          "type": "uint256"
        }
      ],
      "stateMutability": "view",
      "type": "function"
    },
    {
      "inputs": [],
      "name": "getStakersList",
      "outputs": [
        {
          "internalType": "address[]",
          "name": "stakers",
          "type": "address[]"
        }
      ],
      "stateMutability": "view",
      "type": "function"
    },
    {
      "inputs": [
        {
          "internalType": "address",
          "name": "account",
          "type": "address"
        },
        {
          "internalType": "address",
          "name": "nftContract",
          "type": "address"
        },
        {
          "internalType": "uint256",
          "name": "tokenId",
          "type": "uint256"
        }
      ],
      "name": "isStaked",
      "outputs": [
        {
          "internalType": "bool",
          "name": "",
          "type": "bool"
        }
      ],
      "stateMutability": "view",
      "type": "function"
    },
    {
      "inputs": [],
      "name": "maxNftsPerUser",
      "outputs": [
        {
          "internalType": "uint256",
          "name": "",
          "type": "uint256"
        }
      ],
      "stateMutability": "view",
      "type": "function"
    },
    {
      "inputs": [
        {
          "internalType": "address",
          "name": "",
          "type": "address"
        },
        {
          "internalType": "address",
          "name": "",
          "type": "address"
        },
        {
          "internalType": "uint256",
          "name": "",
          "type": "uint256"
        },
        {
          "internalType": "bytes",
          "name": "",
          "type": "bytes"
        }
      ],
      "name": "onERC721Received",
      "outputs": [
        {
          "internalType": "bytes4",
          "name": "",
          "type": "bytes4"
        }
      ],
      "stateMutability": "nonpayable",
      "type": "function"
    },
    {
      "inputs": [],
      "name": "owner",
      "outputs": [
        {
          "internalType": "address",
          "name": "",
          "type": "address"
        }
      ],
      "stateMutability": "view",
      "type": "function"
    },
    {
      "inputs": [],
      "name": "poolRewardsBalance",
      "outputs": [
        {
          "internalType": "uint256",
          "name": "",
          "type": "uint256"
        }
      ],
      "stateMutability": "view",
      "type": "function"
    },
    {
      "inputs": [],
      "name": "renounceOwnership",
      "outputs": [],
      "stateMutability": "nonpayable",
      "type": "function"
    },
    {
      "inputs": [
        {
          "internalType": "uint256",
          "name": "tier",
          "type": "uint256"
        },
        {
          "internalType": "address",
          "name": "nftContract",
          "type": "address"
        },
        {
          "internalType": "uint256",
          "name": "percent",
          "type": "uint256"
        }
      ],
      "name": "setTierContracts",
      "outputs": [],
      "stateMutability": "nonpayable",
      "type": "function"
    },
    {
      "inputs": [
        {
          "internalType": "address",
          "name": "nftContract",
          "type": "address"
        },
        {
          "internalType": "uint256",
          "name": "tokenId",
          "type": "uint256"
        }
      ],
      "name": "stake",
      "outputs": [],
      "stateMutability": "nonpayable",
      "type": "function"
    },
    {
      "inputs": [
        {
          "internalType": "address",
          "name": "newOwner",
          "type": "address"
        }
      ],
      "name": "transferOwnership",
      "outputs": [],
      "stateMutability": "nonpayable",
      "type": "function"
    },
    {
      "inputs": [
        {
          "internalType": "address",
          "name": "account",
          "type": "address"
        }
      ],
      "name": "userStakedNFTCount",
      "outputs": [
        {
          "internalType": "uint256",
          "name": "",
          "type": "uint256"
        }
      ],
      "stateMutability": "view",
      "type": "function"
    },
    {
      "inputs": [
        {
          "internalType": "address",
          "name": "nftContract",
          "type": "address"
        },
        {
          "internalType": "uint256",
          "name": "tokenId",
          "type": "uint256"
        }
      ],
      "name": "withdraw",
      "outputs": [],
      "stateMutability": "nonpayable",
      "type": "function"
    },
    {
      "inputs": [
        {
          "internalType": "address",
          "name": "treasury",
          "type": "address"
        }
      ],
      "name": "withdrawPoolRewards",
      "outputs": [],
      "stateMutability": "nonpayable",
      "type": "function"
    }
  ],
  "bytecode": "0x6080604052600160095534801561001557600080fd5b50604051611add380380611add83398101604081905261003491610148565b61003d336100f8565b6001808055600280546001600160a01b0319166001600160a01b03939093169290921782556040805161535360f01b815260038185018190528251918290036022018220849055605360f81b82528184018190528251918290036021908101832095909555604160f81b825281840181905282519182900385018220819055602160f91b82528184018190528251918290038501822060049055604360f81b8252928101929092525190819003909101902060059055610176565b600080546001600160a01b038381166001600160a01b0319831681178455604051919092169283917f8be0079c531659141344cd1fd0a4f28419497f9722a3daafe3b4186f6b6457e09190a35050565b600060208284031215610159578081fd5b81516001600160a01b038116811461016f578182fd5b9392505050565b611958806101856000396000f3fe608060405234801561001057600080fd5b50600436106101165760003560e01c80637a5b40fa116100a2578063a535a60e11610071578063a535a60e14610267578063adc9772e14610270578063cd0559eb14610283578063f2fde38b14610296578063f3fef3a3146102a957600080fd5b80637a5b40fa146101f2578063818a8ed7146102155780638da5cb5b146102445780639e20437c1461025f57600080fd5b80635ea6594f116100e95780635ea6594f1461018c5780636ab00a381461019f578063715018a6146101b4578063733bdef0146101bc57806376d58e1a146101df57600080fd5b8063150b7a021461011b5780631643f278146101585780633085409d1461016d578063372500ab14610184575b600080fd5b61013a610129366004611554565b630a85bd0160e11b95945050505050565b6040516001600160e01b031990911681526020015b60405180910390f35b61016b610166366004611651565b6102bc565b005b610176600a5481565b60405190815260200161014f565b61016b610392565b61016b61019a3660046114dc565b6103ae565b6101a7610496565b60405161014f91906116b1565b61016b61056d565b6101cf6101ca3660046114dc565b61057f565b60405161014f94939291906116fe565b61016b6101ed366004611639565b6106fd565b610205610200366004611514565b61099c565b604051901515815260200161014f565b33600090815260066020526040902060028101546003909101546040805192835260208301919091520161014f565b6000546040516001600160a01b03909116815260200161014f565b610176600781565b61017660095481565b61016b61027e3660046115ee565b610a33565b6101766102913660046114dc565b610cdf565b61016b6102a43660046114dc565b610d07565b61016b6102b73660046115ee565b610d7d565b6102c4610fbf565b6001600160a01b0382166103145760405162461bcd60e51b815260206004820152601260248201527116995c9bc8141391950818dbdb9d1c9858dd60721b60448201526064015b60405180910390fd5b600083118015610325575060058311155b6103655760405162461bcd60e51b815260206004820152601160248201527024b73b30b634b2102827232a103a34b2b960791b604482015260640161030b565b6001600160a01b039091166000908152600460209081526040808320859055938252600590529190912055565b61039a611019565b6103a333611073565b6103ac60018055565b565b6103b6610fbf565b600a541561049357600254600a5460405163a9059cbb60e01b81526001600160a01b038481166004830152602482019290925291169063a9059cbb90604401602060405180830381600087803b15801561040f57600080fd5b505af1158015610423573d6000803e3d6000fd5b505050506040513d601f19601f820116820180604052508101906104479190611619565b61048d5760405162461bcd60e51b81526020600482015260176024820152764661696c656420746f20636c61696d207265776172647360481b604482015260640161030b565b6000600a555b50565b60606104a0610fbf565b60006104ac60076111b9565b90508015610569578067ffffffffffffffff8111156104db57634e487b7160e01b600052604160045260246000fd5b604051908082528060200260200182016040528015610504578160200160208202803683370190505b50915060005b818110156105675761051d6007826111c9565b83828151811061053d57634e487b7160e01b600052603260045260246000fd5b6001600160a01b03909216602092830291909101909101528061055f816118b2565b91505061050a565b505b5090565b610575610fbf565b6103ac60006111d5565b60608060008061058d610fbf565b50506001600160a01b03831660009081526006602052604081206002810154600382015490929091906105bf826111b9565b905080156106f4578067ffffffffffffffff8111156105ee57634e487b7160e01b600052604160045260246000fd5b604051908082528060200260200182016040528015610617578160200160208202803683370190505b5095508067ffffffffffffffff81111561064157634e487b7160e01b600052604160045260246000fd5b60405190808252806020026020018201604052801561066a578160200160208202803683370190505b50945060005b818110156106f25761068a61068584836111c9565b611225565b8883815181106106aa57634e487b7160e01b600052603260045260246000fd5b602002602001018884815181106106d157634e487b7160e01b600052603260045260246000fd5b602090810291909101019190915252806106ea816118b2565b915050610670565b505b50509193509193565b6002546040516323b872dd60e01b8152336004820152306024820152604481018390526001600160a01b03909116906323b872dd90606401602060405180830381600087803b15801561074f57600080fd5b505af1158015610763573d6000803e3d6000fd5b505050506040513d601f19601f820116820180604052508101906107879190611619565b6107ca5760405162461bcd60e51b815260206004820152601460248201527304661696c656420746f206465706f736974204c560641b604482015260640161030b565b6000805b6107d860076111b9565b8110156108e25760006006816107ef6007856111c9565b6001600160a01b03166001600160a01b03168152602001908152602001600020905060005b61081d826111b9565b8110156108cd57600061083361068584846111c9565b5090506108426007600a6117d4565b60008281526005602052604090205461085b908861187c565b610865919061177d565b8360020160008282546108789190611765565b9091555061088a90506007600a6117d4565b6000828152600560205260409020546108a3908861187c565b6108ad919061177d565b6108b79086611765565b94505080806108c5906118b2565b915050610814565b505080806108da906118b2565b9150506107ce565b50808210156109335760405162461bcd60e51b815260206004820181905260248201527f496e636f72726563742063616c63756c6174696f6e206f662072657761726473604482015260640161030b565b61093d818361189b565b600a600082825461094e9190611765565b909155507f0d3f2a860ebef6479472677f2f8593fd1619c197fc84a06eab53b627a2ff0cf0905082610980838261189b565b6040805192835260208301919091520160405180910390a15050565b6001600160a01b0382166000908152600460205260408120548390158015906109de57506001600160a01b038116600090815260046020526040902054600510155b6109fa5760405162461bcd60e51b815260040161030b90611737565b6001600160a01b038416600090815260046020526040812054610a1d9085611267565b9050610a298682611286565b9695505050505050565b610a3b611019565b6001600160a01b038216600090815260046020526040902054829015801590610a7d57506001600160a01b038116600090815260046020526040902054600510155b610a995760405162461bcd60e51b815260040161030b90611737565b600954610aa533610cdf565b10610af25760405162461bcd60e51b815260206004820152601c60248201527f45786365656473206d6178206c696d697420706572207374616b657200000000604482015260640161030b565b60405163020604bf60e21b8152600481018390526001600160a01b0384169063081812fc9060240160206040518083038186803b158015610b3257600080fd5b505afa158015610b46573d6000803e3d6000fd5b505050506040513d601f19601f82011682018060405250810190610b6a91906114f8565b6001600160a01b0316306001600160a01b031614610bca5760405162461bcd60e51b815260206004820152601b60248201527f4e6f7420617070726f7665206e667420746f20636f6e74726163740000000000604482015260640161030b565b33600081815260066020526040908190209051632142170760e11b8152600481019290925230602483015260448201849052906001600160a01b038516906342842e0e90606401600060405180830381600087803b158015610c2b57600080fd5b505af1158015610c3f573d6000803e3d6000fd5b5050506001600160a01b038516600090815260046020526040902054610c719150610c6a9085611267565b82906112b0565b50610c7b816111b9565b60011415610c9057610c8e6007336112bc565b505b6040518381526001600160a01b0385169033907f5dac0c1b1112564a045ba943c9d50270893e8e826c49be8e7073adc713ab7bd79060200160405180910390a35050610cdb60018055565b5050565b6001600160a01b0381166000908152600660205260408120610d00816111b9565b9392505050565b610d0f610fbf565b6001600160a01b038116610d745760405162461bcd60e51b815260206004820152602660248201527f4f776e61626c653a206e6577206f776e657220697320746865207a65726f206160448201526564647265737360d01b606482015260840161030b565b610493816111d5565b610d85611019565b6001600160a01b038216600090815260046020526040902054829015801590610dc757506001600160a01b038116600090815260046020526040902054600510155b610de35760405162461bcd60e51b815260040161030b90611737565b60008211610e265760405162461bcd60e51b815260206004820152601060248201526f125b9d985a5b19081d1bdad95b881a5960821b604482015260640161030b565b3360009081526006602090815260408083206001600160a01b03871684526004909252822054909190610e599085611267565b9050610e653382611286565b610ea85760405162461bcd60e51b81526020600482015260146024820152732737ba1039ba30b5b2b21037333a103a37b5b2b760611b604482015260640161030b565b610eb133611073565b604051632142170760e11b8152306004820152336024820152604481018590526001600160a01b038616906342842e0e90606401600060405180830381600087803b158015610eff57600080fd5b505af1158015610f13573d6000803e3d6000fd5b50610f2492508491508390506112d1565b50610f2e826111b9565b610f7357610f3d6007336112dd565b503360009081526006602052604081209081818181610f5c82826114ae565b505050506002820160009055600382016000905550505b6040518481526001600160a01b0386169033907fd1c19fbcd4551a5edfb66d43d2e337c04837afda3482b42bdf569a8fccdae5fb9060200160405180910390a3505050610cdb60018055565b6000546001600160a01b031633146103ac5760405162461bcd60e51b815260206004820181905260248201527f4f776e61626c653a2063616c6c6572206973206e6f7420746865206f776e6572604482015260640161030b565b6002600154141561106c5760405162461bcd60e51b815260206004820152601f60248201527f5265656e7472616e637947756172643a207265656e7472616e742063616c6c00604482015260640161030b565b6002600155565b6001600160a01b0381166000908152600660205260409020600281015480156111715760006002838101919091554260038401555460405163a9059cbb60e01b81526001600160a01b038581166004830152602482018490529091169063a9059cbb90604401602060405180830381600087803b1580156110f357600080fd5b505af1158015611107573d6000803e3d6000fd5b505050506040513d601f19601f8201168201806040525081019061112b9190611619565b6111715760405162461bcd60e51b81526020600482015260176024820152764661696c656420746f20636c61696d207265776172647360481b604482015260640161030b565b826001600160a01b03167f121c5042302bae5fc561fbc64368f297ca60a880878e1e3a7f7e9380377260bf826040516111ac91815260200190565b60405180910390a2505050565b60006111c3825490565b92915050565b6000610d0083836112f2565b600080546001600160a01b038381166001600160a01b0319831681178455604051919092169283917f8be0079c531659141344cd1fd0a4f28419497f9722a3daafe3b4186f6b6457e09190a35050565b6000808061123b670de0b6b3a7640000856118cd565b90506000670de0b6b3a7640000611252838761189b565b61125c919061177d565b959194509092505050565b60008161127c84670de0b6b3a764000061187c565b610d009190611765565b6001600160a01b03821660009081526006602052604081206112a8818461132a565b949350505050565b6000610d008383611342565b6000610d00836001600160a01b038416611342565b6000610d008383611391565b6000610d00836001600160a01b038416611391565b600082600001828154811061131757634e487b7160e01b600052603260045260246000fd5b9060005260206000200154905092915050565b60008181526001830160205260408120541515610d00565b6000818152600183016020526040812054611389575081546001818101845560008481526020808220909301849055845484825282860190935260409020919091556111c3565b5060006111c3565b600081815260018301602052604081205480156114a45760006113b560018361189b565b85549091506000906113c99060019061189b565b905081811461144a5760008660000182815481106113f757634e487b7160e01b600052603260045260246000fd5b906000526020600020015490508087600001848154811061142857634e487b7160e01b600052603260045260246000fd5b6000918252602080832090910192909255918252600188019052604090208390555b855486908061146957634e487b7160e01b600052603160045260246000fd5b6001900381819060005260206000200160009055905585600101600086815260200190815260200160002060009055600193505050506111c3565b60009150506111c3565b508054600082559060005260206000209081019061049391905b8082111561056957600081556001016114c8565b6000602082840312156114ed578081fd5b8135610d008161190d565b600060208284031215611509578081fd5b8151610d008161190d565b600080600060608486031215611528578182fd5b83356115338161190d565b925060208401356115438161190d565b929592945050506040919091013590565b60008060008060006080868803121561156b578081fd5b85356115768161190d565b945060208601356115868161190d565b935060408601359250606086013567ffffffffffffffff808211156115a9578283fd5b818801915088601f8301126115bc578283fd5b8135818111156115ca578384fd5b8960208285010111156115db578384fd5b9699959850939650602001949392505050565b60008060408385031215611600578182fd5b823561160b8161190d565b946020939093013593505050565b60006020828403121561162a578081fd5b81518015158114610d00578182fd5b60006020828403121561164a578081fd5b5035919050565b600080600060608486031215611665578283fd5b8335925060208401356115438161190d565b6000815180845260208085019450808401835b838110156116a65781518752958201959082019060010161168a565b509495945050505050565b6020808252825182820181905260009190848201906040850190845b818110156116f25783516001600160a01b0316835292840192918401916001016116cd565b50909695505050505050565b6080815260006117116080830187611677565b82810360208401526117238187611677565b604084019590955250506060015292915050565b602080825260149082015273125b9d985b1a59081b999d0818dbdb9d1c9858dd60621b604082015260600190565b60008219821115611778576117786118e1565b500190565b60008261178c5761178c6118f7565b500490565b600181815b808511156117cc5781600019048211156117b2576117b26118e1565b808516156117bf57918102915b93841c9390800290611796565b509250929050565b6000610d0083836000826117ea575060016111c3565b816117f7575060006111c3565b816001811461180d576002811461181757611833565b60019150506111c3565b60ff841115611828576118286118e1565b50506001821b6111c3565b5060208310610133831016604e8410600b8410161715611856575081810a6111c3565b6118608383611791565b8060001904821115611874576118746118e1565b029392505050565b6000816000190483118215151615611896576118966118e1565b500290565b6000828210156118ad576118ad6118e1565b500390565b60006000198214156118c6576118c66118e1565b5060010190565b6000826118dc576118dc6118f7565b500690565b634e487b7160e01b600052601160045260246000fd5b634e487b7160e01b600052601260045260246000fd5b6001600160a01b038116811461049357600080fdfea26469706673582212209785740f239fee02b403a27f42eb0449496ae3a491ae8ea6364094847a66e08a64736f6c63430008040033",
  "linkReferences": {},
  "deployedLinkReferences": {}
}